:020000040800F2
:1000000000C00020D5380008B7380008B93800080B
:10001000BB380008BD380008BF38000800000000E9
:10002000000000000000000000000000C1380008CF
:10003000C338000800000000C5380008C7380008B1
:100040001D3900081D3900081D3900081D39000838
:100050001D3900081D3900081D3900081D39000828
:100060001D3900081D3900081D39000859310008E4
:100070001D3900081D3900081D3900081D39000808
:100080001D3900081D3900081D3900081D390008F8
:100090001D3900081D3900081D3900081D390008E8
:1000A0001D3900081D3900081D3900081D390008D8
:1000B0001D3900081D3900081D3900081D390008C8
:1000C0001D3900081D3900081D3900081D390008B8
:1000D0001D3900081D3900081D3900081D390008A8
:1000E0001D3900081D3900081D3900081D39000898
:1000F0001D3900081D3900081D3900081D39000888
:100100001D3900081D3900081D3900081D39000877
:100110001D3900081D3900081D3900081D39000867
:100120001D3900081D3900081D3900081D39000857
:1001300000000000000000000000000000000000BF
:1001400000000000000000000000000000000000AF
:10015000000000000000000000000000000000009F
:10016000000000000000000000000000000000008F
:10017000000000000000000000000000000000007F
:10018000000000000000000000000000000000006F
:10019000000000000000000000000000000000005F
:1001A000000000000000000000000000000000004F
:1001B000000000000000000000000000000000003F
:1001C000000000000000000000000000000000002F
:1001D000000000000000000000000000000000001F
:0401E0005FF8E0F1F3
:1001E80010B5054C237833B9044B13B10448AFF369
:1001F80000800123237010BD2400002000000000AF
:100208006839000808B5034B1BB103490348AFF32D
:10021800008008BD000000002800002068390008A0
:1002280081F0004102E000BF83F0004330B54FEA9F
:1002380041044FEA430594EA050F08BF90EA020F0C
:100248001FBF54EA000C55EA020C7FEA645C7FEA9F
:10025800655C00F0E2804FEA5454D4EB5555B8BFC2
:100268006D420CDD2C4480EA020281EA030382EA33
:10027800000083EA010180EA020281EA0303362DC5
:1002880088BF30BD11F0004F4FEA01314FF4801C98
:100298004CEA113102D0404261EB410113F0004FAA
:1002A8004FEA03334CEA133302D0524263EB430361
:1002B80094EA050F00F0A780A4F10104D5F1200EFF
:1002C8000DDB02FA0EFC22FA05F2801841F100015A
:1002D80003FA0EF2801843FA05F359410EE0A5F12E
:1002E80020050EF1200E012A03FA0EFC28BF4CF05F
:1002F800020C43FA05F3C01851EBE37101F0004515
:1003080007D54FF0000EDCF1000C7EEB00006EEB21
:100318000101B1F5801F1BD3B1F5001F0CD34908AB
:100328005FEA30004FEA3C0C04F101044FEA445202
:1003380012F5800F80F09A80BCF1004F08BF5FEA89
:10034800500C50F1000041EB045141EA050130BD69
:100358005FEA4C0C404141EB010111F4801FA4F10C
:100368000104E9D191F0000F04BF01460020B1FA61
:1003780081F308BF2033A3F10B03B3F120020CDA99
:100388000C3208DD02F1140CC2F10C0201FA0CF077
:1003980021FA02F10CE002F11402D8BFC2F1200CDC
:1003A80001FA02F120FA0CFCDCBF41EA0C01904092
:1003B800E41AA2BF01EB0451294330BD6FEA0404DB
:1003C8001F3C1CDA0C340EDC04F11404C4F12002C6
:1003D80020FA04F001FA02F340EA030021FA04F3D8
:1003E80045EA030130BDC4F10C04C4F1200220FA2F
:1003F80002F001FA04F340EA0300294630BD21FA6D
:1004080004F0294630BD94F0000F83F4801306BF32
:1004180081F480110134013D4EE77FEA645C18BF26
:100428007FEA655C29D094EA050F08BF90EA020FBD
:1004380005D054EA000C04BF1946104630BD91EAB5
:10044800030F1EBF0021002030BD5FEA545C05D1B8
:100458004000494128BF41F0004130BD14F58004F7
:100468003CBF01F5801130BD01F0004545F0FE416B
:1004780041F470014FF0000030BD7FEA645C1ABFA0
:10048800194610467FEA655C1CBF0B46024650EAD7
:10049800013406BF52EA033591EA030F41F4002103
:1004A80030BD00BF90F0000F04BF0021704730B589
:1004B8004FF4806404F132044FF000054FF000015E
:1004C80050E700BF90F0000F04BF0021704730B51F
:1004D8004FF4806404F1320410F0004548BF4042F4
:1004E8004FF000013EE700BF42004FEAE2014FEA49
:1004F80031014FEA02701FBF12F07F4393F07F4F24
:1005080081F06051704732F07F4208BF704793F026
:100518007F4F04BF41F40021704730B54FF4607439
:1005280001F0004521F000411CE700BF50EA01023C
:1005380008BF704730B54FF000050AE050EA0102E5
:1005480008BF704730B511F0004502D5404261EB55
:1005580041014FF4806404F132045FEA915C3FF496
:10056800D8AE4FF003025FEADC0C18BF03325FEA33
:10057800DC0C18BF033202EBDC02C2F1200300FAE4
:1005880003FC20FA02F001FA03FE40EA0E0021FA09
:1005980002F11444BDE600BF70B54FF0FF0C4CF4F7
:1005A800E06C1CEA11541DBF1CEA135594EA0C0FA9
:1005B80095EA0C0F00F0DEF82C4481EA030621EAE4
:1005C8004C5123EA4C5350EA013518BF52EA03351F
:1005D80041F4801143F4801338D0A0FB02CE4FF0D1
:1005E8000005E1FB02E506F00042E0FB03E54FF001
:1005F8000006E1FB03569CF0000F18BF4EF0010EF9
:10060800A4F1FF04B6F5007F64F5407404D25FEAF4
:100618004E0E6D4146EB060642EAC62141EA5551A7
:100628004FEAC52040EA5E504FEACE2EB4F1FD0CE9
:1006380088BFBCF5E06F1ED8BEF1004F08BF5FEA67
:10064800500E50F1000041EB045170BD06F0004619
:1006580046EA010140EA020081EA0301B4EB5C04C6
:10066800C2BFD4EB0C0541EA045170BD41F48011BE
:100678004FF0000E013C00F3AB8014F1360FDEBFE3
:10068800002001F0004170BDC4F10004203C35DABF
:100698000C341BDC04F11404C4F1200500FA05F342
:1006A80020FA04F001FA05F240EA020001F00042E3
:1006B80021F0004110EBD37021FA04F642EB060159
:1006C8005EEA430E08BF20EAD37070BDC4F10C0483
:1006D800C4F1200500FA04F320FA05F001FA04F247
:1006E80040EA020001F0004110EBD37041F1000133
:1006F8005EEA430E08BF20EAD37070BDC4F120053E
:1007080000FA05F24EEA020E20FA04F301FA05F2A5
:1007180043EA020321FA04F001F0004121FA04F24D
:1007280020EA020000EBD3705EEA430E08BF20EA1D
:10073800D37070BD94F0000F0FD101F00046400057
:1007480041EB010111F4801F08BF013CF7D041EAD9
:10075800060195F0000F18BF704703F000465200DD
:1007680043EB030313F4801F08BF013DF7D043EAAE
:100778000603704794EA0C0F0CEA135518BF95EA64
:100788000C0F0CD050EA410618BF52EA4306D1D1EB
:1007980081EA030101F000414FF0000070BD50EA0A
:1007A800410606BF1046194652EA430619D094EA94
:1007B8000C0F02D150EA013613D195EA0C0F05D17E
:1007C80052EA03361CBF104619460AD181EA0301D2
:1007D80001F0004141F0FE4141F470014FF000008A
:1007E80070BD41F0FE4141F4780170BD70B54FF025
:1007F800FF0C4CF4E06C1CEA11541DBF1CEA1355A5
:1008080094EA0C0F95EA0C0F00F0A7F8A4EB050486
:1008180081EA030E52EA03354FEA013100F088807D
:100828004FEA03334FF0805545EA131343EA126346
:100838004FEA022245EA111545EA10654FEA0026FB
:100848000EF000419D4208BF964244F1FD0404F5B4
:10085800407402D25B084FEA3202B61A65EB030510
:100868005B084FEA32024FF480104FF4002CB6EBCD
:10087800020E75EB030E22BFB61A754640EA0C004D
:100888005B084FEA3202B6EB020E75EB030E22BF8D
:10089800B61A754640EA5C005B084FEA3202B6EBCE
:1008A800020E75EB030E22BFB61A754640EA9C008D
:1008B8005B084FEA3202B6EB020E75EB030E22BF5D
:1008C800B61A754640EADC0055EA060E18D04FEA1B
:1008D800051545EA16754FEA06164FEAC30343EABB
:1008E80052734FEAC2025FEA1C1CC0D111F4801F88
:1008F8000BD141EA00014FF000004FF0004CB6E781
:1009080011F4801F04BF01430020B4F1FD0C88BF1F
:10091800BCF5E06F3FF6AFAEB5EB030C04BFB6EB2A
:10092800020C5FEA500C50F1000041EB045170BD1D
:100938000EF0004E4EEA113114EB5C04C2BFD4EB4A
:100948000C0541EA045170BD41F480114FF0000ECE
:10095800013C90E645EA060E8DE60CEA135594EA4A
:100968000C0F08BF95EA0C0F3FF43BAF94EA0C0F4D
:100978000AD150EA01347FF434AF95EA0C0F7FF4C2
:1009880025AF104619462CE795EA0C0F06D152EA16
:1009980003353FF4FDAE1046194622E750EA4106FA
:1009A80018BF52EA43067FF4C5AE50EA41047FF40B
:1009B8000DAF52EA43057FF4EBAE12E74FF0FF3C70
:1009C80006E000BF4FF0010C02E000BF4FF0010C41
:1009D8004DF804CD4FEA410C7FEA6C5C4FEA430CBA
:1009E80018BF7FEA6C5C1BD001B050EA410C0CBF09
:1009F80052EA430C91EA030F02BF90EA020F00206B
:100A0800704710F1000F91EA030F58BF994208BFD1
:100A180090422CBFD8176FEAE37040F0010070478E
:100A28004FEA410C7FEA6C5C02D150EA013C07D1E5
:100A38004FEA430C7FEA6C5CD6D152EA033CD3D030
:100A48005DF8040B704700BF8446104662468C462A
:100A58001946634600E000BF01B5FFF7B7FF00285D
:100A680048BF10F1000F01BD4DF808EDFFF7F4FF86
:100A78000CBF012000205DF808FB00BF4DF808ED11
:100A8800FFF7EAFF34BF012000205DF808FB00BF34
:100A98004DF808EDFFF7E0FF94BF012000205DF856
:100AA80008FB00BF4DF808EDFFF7CEFF94BF01200B
:100AB80000205DF808FB00BF4DF808EDFFF7C4FF04
:100AC80034BF012000205DF808FB00BF4FEA410257
:100AD80012F5001215D211D56FF47873B3EB625288
:100AE80012D94FEAC12343F0004343EA505311F0AF
:100AF800004F23FA02F018BF404270474FF0000041
:100B0800704750EA013005D111F0004008BF6FF07E
:100B1800004070474FF00000704700BF4FEA4102A5
:100B2800B2F1E04324BFB3F5001CDCF1FE5C0DD943
:100B380001F0004C4FEAC0024CEA5070B2F1004F8D
:100B480040EB830008BF20F00100704711F0804F90
:100B580021D113F13872BCBF01F00040704741F455
:100B680080114FEA5252C2F11802C2F1200C10FA59
:100B78000CF320FA02F018BF40F001004FEAC1233D
:100B88004FEAD32303FA0CFC40EA0C0023FA02F3E1
:100B98004FEA4303CCE77FEA625307D150EA0133B7
:100BA8001EBF4FF0FE4040F44000704701F0004087
:100BB80040F0FE4040F40000704700BF80F0004065
:100BC80002E000BF81F0004142001FBF5FEA41031D
:100BD80092EA030F7FEA226C7FEA236C6AD04FEA1D
:100BE8001262D2EB1363C1BFD21841404840414062
:100BF800B8BF5B42192B88BF704710F0004F40F414
:100C0800000020F07F4018BF404211F0004F41F42F
:100C1800000121F07F4118BF494292EA030F3FD0FB
:100C2800A2F1010241FA03FC10EB0C00C3F120030E
:100C380001FA03F100F0004302D5494260EB40009D
:100C4800B0F5000F13D3B0F1807F06D340084FEA08
:100C5800310102F10102FE2A51D2B1F1004F40EBFD
:100C6800C25008BF20F0010040EA03007047490065
:100C780040EB000010F4000FA2F10102EDD1B0FA30
:100C880080FCACF1080CB2EB0C0200FA0CF0AABF25
:100C980000EBC25052421843BCBFD04018437047C3
:100CA80092F0000F81F4000106BF80F400000132C9
:100CB800013BB5E74FEA41037FEA226C18BF7FEAA0
:100CC800236C21D092EA030F04D092F0000F08BFE2
:100CD8000846704790EA010F1CBF0020704712F0C9
:100CE8007F4F04D1400028BF40F00040704712F108
:100CF80000723CBF00F50000704700F0004343F06D
:100D0800FE4040F4000070477FEA226216BF0846A2
:100D18007FEA23630146420206BF5FEA412390EA65
:100D2800010F40F4800070474FF0000304E000BF5B
:100D380010F0004348BF40425FEA000C08BF70470C
:100D480043F0964301464FF000001CE050EA0102D0
:100D580008BF70474FF000030AE000BF50EA0102E5
:100D680008BF704711F0004302D5404261EB4101D2
:100D78005FEA010C02BF84460146002043F0B643F7
:100D880008BFA3F18053A3F50003BCFA8CF2083A1C
:100D9800A3EBC25310DB01FA02FC634400FA02FC25
:100DA800C2F12002BCF1004F20FA02F243EB02002C
:100DB80008BF20F00100704702F1200201FA02FC8E
:100DC800C2F1200250EA4C0021FA02F243EB020081
:100DD80008BF20EADC7070474FF0FF0C1CEAD052C5
:100DE8001EBF1CEAD15392EA0C0F93EA0C0F6FD086
:100DF8001A4480EA010C400218BF5FEA41211ED064
:100E08004FF0006343EA501043EA5111A0FB01314F
:100E18000CF00040B1F5000F3EBF490041EAD37124
:100E28005B0040EA010062F17F02FD2A1DD8B3F1A0
:100E3800004F40EBC25008BF20F00100704790F00F
:100E4800000F0CF0004C08BF49024CEA502040EA61
:100E580051207F3AC2BFD2F1FF0340EAC250704727
:100E680040F400004FF00003013A5DDC12F1190F65
:100E7800DCBF00F000407047C2F10002410021FAD7
:100E880002F1C2F1200200FA02FC5FEA310040F1EF
:100E9800000053EA4C0308BF20EADC70704792F068
:100EA800000F00F0004C02BF400010F4000F013AA0
:100EB800F9D040EA0C0093F0000F01F0004C02BF9B
:100EC800490011F4000F013BF9D041EA0C018FE70A
:100ED8000CEAD15392EA0C0F18BF93EA0C0F0AD010
:100EE80030F0004C18BF31F0004CD8D180EA010036
:100EF80000F00040704790F0000F17BF90F0004FCF
:100F0800084691F0000F91F0004F14D092EA0C0FB0
:100F180001D142020FD193EA0C0F03D14B0218BF43
:100F2800084608D180EA010000F0004040F0FE4089
:100F380040F40000704740F0FE4040F44000704725
:100F48004FF0FF0C1CEAD0521EBF1CEAD15392EAA4
:100F58000C0F93EA0C0F69D0A2EB030280EA010C94
:100F680049024FEA402037D04FF0805343EA11112D
:100F780043EA10130CF000408B4238BF5B0042F18B
:100F88007D024FF4000C8B4224BF5B1A40EA0C0030
:100F9800B3EB510F24BFA3EB510340EA5C00B3EB62
:100FA800910F24BFA3EB910340EA9C00B3EBD10F50
:100FB80024BFA3EBD10340EADC001B0118BF5FEAA2
:100FC8001C1CE0D1FD2A3FF650AF8B4240EBC250CB
:100FD80008BF20F0010070470CF0004C4CEA50208C
:100FE8007F32C2BFD2F1FF0340EAC250704740F4DB
:100FF80000004FF00003013A37E792F0000F00F0CD
:10100800004C02BF400010F4000F013AF9D040EA4A
:101018000C0093F0000F01F0004C02BF490011F4DE
:10102800000F013BF9D041EA0C0195E70CEAD153D6
:1010380092EA0C0F08D142027FF47DAF93EA0C0FBD
:101048007FF470AF084676E793EA0C0F04D14B02A1
:101058003FF44CAF08466EE730F0004C18BF31F053
:10106800004CCAD130F000427FF45CAF31F000434D
:101078007FF43CAF5FE700BF4FF0FF3C06E000BFE6
:101088004FF0010C02E000BF4FF0010C4DF804CD09
:101098004FEA40024FEA41037FEA226C18BF7FEA19
:1010A800236C11D001B052EA530C18BF90EA010F1B
:1010B80058BFB2EB030088BFC81738BF6FEAE170AA
:1010C80018BF40F0010070477FEA226C02D15FEA46
:1010D800402C05D17FEA236CE4D15FEA412CE1D0B2
:1010E8005DF8040B704700BF844608466146FFE779
:1010F8000FB5FFF7C9FF002848BF10F1000F0FBD5B
:101108004DF808EDFFF7F4FF0CBF012000205DF853
:1011180008FB00BF4DF808EDFFF7EAFF34BF0120D8
:1011280000205DF808FB00BF4DF808EDFFF7E0FF71
:1011380094BF012000205DF808FB00BF4DF808EDC2
:10114800FFF7D2FF94BF012000205DF808FB00BF25
:101158004DF808EDFFF7C8FF34BF012000205DF807
:1011680008FB00BF4FEA4002B2F1FE4F0FD34FF029
:101178009E03B3EB12620DD94FEA002343F00043FC
:1011880010F0004F23FA02F018BF404270474FF0AA
:101198000000704712F1610F01D1420205D110F031
:1011A800004008BF6FF0004070474FF000007047E4
:1011B80082B0084B1B68084AA2FB03235B0A00FBAA
:1011C80003F0019000BF019B5A1E0192002BF9D138
:1011D80002B0704700000020D34D621070B582B095
:1011E8000446036813F0010F2CD0AB4B5B6803F087
:1011F8000C03042B1DD0A84B5B6803F00C03082BD1
:1012080012D06368B3F5803F41D0002B55D103F16C
:10121800804303F504331A6822F480321A601A688E
:1012280022F480221A6037E09B4B5B6813F4803FFE
:10123800E7D0994B1B6813F4003F03D06368002B79
:1012480000F0AE81236813F0020F76D0924B5B68F2
:1012580013F00C0F5FD0904B5B6803F00C03082B66
:1012680054D02369002B00F08A808C4B01221A602D
:1012780000F0D8FF0546884B1B6813F0020F75D1A4
:1012880000F0D0FF401B0228F5D903208BE1824AE9
:10129800136843F480331360636843B300F0C2FFFC
:1012A80005467D4B1B6813F4003FCBD100F0BAFF15
:1012B800401B6428F5D9032075E1B3F5A02F09D0A8
:1012C800754B1A6822F480321A601A6822F4802258
:1012D8001A60E1E703F18043A3F53C331A6842F44E
:1012E80080221A601A6842F480321A60D4E700F04B
:1012F80099FF0546684B1B6813F4003FA2D000F025
:1013080091FF401B6428F5D903204CE1624B5B68D0
:1013180013F4803FA5D1604B1B6813F0020F04D073
:101328002369012B01D001203DE15B4A136823F0BA
:10133800F803616943EAC1031360236813F0080FD7
:1013480032D0A369002B5BD0554B01221A6000F004
:1013580069FF0546504B5B6A13F0020F21D100F07C
:1013680061FF401B0228F5D903201CE14A4A136893
:1013780023F0F803616943EAC1031360DDE7474BD3
:1013880000221A6000F04EFF0546434B1B6813F01D
:10139800020FD2D000F046FF401B0228F5D90320E7
:1013A80001E10120FFF704FF236813F0040F00F0A8
:1013B8009780394BDB6913F0805F33D1364BDA699C
:1013C80042F08052DA61DB6903F080530193019B9C
:1013D8000125344B1B6813F4807F25D0E368012B6B
:1013E80036D0002B4CD103F1804303F504331A6A3D
:1013F80022F001021A621A6A22F004021A622CE030
:10140800274B00221A6000F00DFF0546224B5B6A4D
:1014180013F0020FC8D000F005FF401B0228F5D9D1
:101428000320C0E00025D4E71E4A136843F4807304
:10143800136000F0F7FE06461A4B1B6813F4807F12
:10144800CCD100F0EFFE801B6428F5D90320AAE078
:10145800114A136A43F001031362E36873B300F09F
:10146800E1FE06460C4B1B6A13F0020F37D100F061
:10147800D9FE801B41F288339842F3D9032092E0C9
:10148800052B11D0044B1A6A22F001021A621A6A5B
:1014980022F004021A62E0E7001002400000424213
:1014A8008004424200700040414B1A6A42F0040234
:1014B8001A621A6A42F001021A62CEE700F0B2FE1E
:1014C80006463B4B1B6A13F0020F08D000F0AAFE39
:1014D800801B41F288339842F3D9032063E0E5B9D1
:1014E800E369002B5ED0324A526802F00C02082AE7
:1014F8005BD0022B17D02F4B00221A6000F092FE0F
:1015080004462B4B1B6813F0007F47D000F08AFE7F
:10151800001B0228F5D9032045E0254AD36923F0AA
:101528008053D361DCE7234B00221A6000F07AFE77
:1015380005461F4B1B6813F0007F06D000F072FEB3
:10154800401B0228F5D903202DE0236AB3F5803F1C
:101558001AD017494B6823F47413226A606A02434D
:1015680013434B60134B01221A6000F05BFE0446E4
:101578000F4B1B6813F0007F0ED100F053FE001BC9
:101588000228F5D903200EE0094A536823F40033F2
:10159800A1680B435360DCE7002004E0002002E070
:1015A800012000E0002002B070BD0120FBE700BF71
:1015B800001002406000424210B487B0164C94E814
:1015C8000F000DF1180C0CE90F00238AADF8043058
:1015D800124B5B6803F00C02082A1AD1C3F383424A
:1015E800624412F8100C13F4803F05D10C4B03FB36
:1015F80000F007B010BC7047084B5B68C3F340436A
:10160800634413F8142C074BB3FBF2F300FB03F00D
:10161800EFE70448EDE700BF8039000800100240FA
:1016280000093D0000127A00594B1B6803F00703BC
:101638008B420CD2564A136823F007030B431360FE
:10164800136803F007038B4201D00120704770B57F
:10165800036813F0020F06D04E4A536823F0F003D4
:101668008468234353600C460546036813F0010F52
:1016780052D04368012B23D0022B28D0454A126848
:1016880012F0020F00F0828042494A6822F00302F9
:1016980013434B6000F0C6FD06466B68012B1DD056
:1016A800022B2AD03B4B5B6813F00C0F34D000F0B0
:1016B800B9FD801B41F288339842F3D9032064E0D6
:1016C800344A126812F4003FDED101205DE0314A4D
:1016D800126812F0007FD7D1012056E02D4B5B68CD
:1016E80003F00C03042B17D000F09CFD801B41F283
:1016F80088339842F2D9032047E0264B5B6803F011
:101708000C03082B08D000F08DFD801B41F28833B4
:101718009842F2D9032038E01D4B1B6803F00703F9
:10172800A3420CD91A4A136823F007032343136012
:10173800136803F00703A34201D0012025E02B68BA
:1017480013F0040F06D0134A536823F4E063E968E2
:101758000B4353602B6813F0080F07D00D4A5368EA
:1017680023F46053296943EAC1035360FFF724FF58
:10177800084B5B68C3F30313074AD35CD840074B95
:101788001860002000F01EFD002070BD0120FCE75D
:101798000020024000100240943900080000002098
:1017A800014B1868704700BF0000002030B4036A7E
:1017B80023F001030362056A4268846924F0730414
:1017C8000B681C4325F002058B682B43104DA8427B
:1017D80003D005F50065A84205D123F00803CD68BC
:1017E8002B4323F004030A4DA84203D005F50065F6
:1017F800A84205D122F440724D6915438A692A43EB
:10180800426084614A684263036230BC704700BF2B
:10181800002C014030B4036A23F480730362036A26
:101828004268C46924F073040D682C4323F40073E0
:101838008D6843EA0523124DA84203D005F50065DB
:10184800A84206D123F40063CD6843EA052323F4B4
:1018580080630B4DA84203D005F50065A84207D167
:1018680022F440524D6942EA05128D6942EA051296
:101878004260C4614A68C263036230BC704700BFFB
:10188800002C014030B4036A23F480530362036AD6
:101898004468C26922F4E6420D6842EA052223F44C
:1018A80000538D6843EA0533094DA84203D005F576
:1018B8000065A84204D124F480444D6944EA8514A3
:1018C8004460C2614A680264036230BC704700BF6A
:1018D800002C014010B4036A046A24F00104046275
:1018E800846924F0F00444EA021223F00A030B434B
:1018F8008261036210BC704710B4036A23F01003BE
:1019080003628469036A24F4704444EA023223F0CF
:10191800A00343EA01138261036210BC704710B44C
:10192800846824F47F4442EA03230B4323438360FF
:1019380010BC704710B50468A26822F070024B68AA
:10194800134323F007030A681343A3604B68502B23
:101958001ED00AD9602B21D0702B05D10B698A685B
:10196800C9680068FFF7DBFF10BD402BFCD1036896
:101978001C6A1A6A22F001021A620268936923F04B
:10198800F003096943EA0113936103681C62EBE7FA
:101998000A6989680068FFF79DFFE5E70A698968B1
:1019A8000068FFF7A9FFDFE7704738B590F83C30CB
:1019B800012B18D00446012580F83C50022380F8FA
:1019C8003D30FFF7B7FF2268D36823F04003D360A8
:1019D8002268D36823F48043D36084F83D50002004
:1019E80084F83C0038BD0220FCE700000368244A64
:1019F800904212D002F5006290420ED0B0F1804FB2
:101A08000BD0A2F59832904207D002F5806290423E
:101A180003D002F58062904203D123F070034A6834
:101A28001343174A904212D002F5006290420ED03A
:101A3800B0F1804F0BD0A2F59832904207D002F552
:101A48008062904203D002F58062904203D123F471
:101A58004073CA68134323F080034A691343036041
:101A68008B68C3620B688362054B984203D003F509
:101A78000063984201D10B690363012343617047F6
:101A8800002C0140A8B110B5044690F83D305BB178
:101A9800022384F83D30211D2068FFF7A7FF0123AA
:101AA80084F83D30002010BD80F83C30FFF77CFF03
:101AB800EEE701207047000030B4036A23F01003FA
:101AC8000362036A4468826922F4E6420D6842EAC6
:101AD800052223F020038D6843EA0513114DA8421F
:101AE80003D005F50065A84206D123F08003CD6830
:101AF80043EA051323F040030A4DA84203D005F535
:101B08000065A84207D124F440644D6944EA85047D
:101B18008D6944EA8504446082614A68826303628D
:101B280030BC7047002C014038B590F83C30012B90
:101B380066D00D460446012380F83C30022380F825
:101B48003D300C2A1AD8DFE802F0071919192019B4
:101B580019193419191947000068FFF727FE226878
:101B6800936943F0080393612268936923F004039F
:101B780093612268936929690B439361012384F86F
:101B88003D30002084F83C0038BD0068FFF794FF22
:101B98002268936943F4006393612268936923F48C
:101BA8008063936122689369296943EA01239361F9
:101BB800E4E70068FFF72EFE2268D36943F00803C4
:101BC800D3612268D36923F00403D3612268D369FF
:101BD80029690B43D361D1E70068FFF753FE2268F8
:101BE800D36943F40063D3612268D36923F4806323
:101BF800D3612268D369296943EA0123D361BDE728
:101C08000220C1E710B4012303FA01F4036A23EAAE
:101C180004030362036A8A401343036210BC7047DB
:101C280010B5044601220068FFF7ECFF2368094A53
:101C3800934203D002F50062934203D15A6C42F4F6
:101C480000425A642268136843F0010313600020BD
:101C580010BD00BF002C014010B4042303FA01F4A6
:101C6800036A23EA04030362036A8A401343036294
:101C780010BC704710B5044604220068FFF7ECFF5B
:101C88002268536C43F4004353642268136843F09A
:101C980001031360002010BD90F83C30012B25D0C3
:101CA800012380F83C30CB6823F440738A681343DF
:101CB80023F480634A68134323F400630A681343D8
:101CC80023F480530A69134323F400534A691343E6
:101CD80023F480438A69134323F4004313430268BF
:101CE8005364002380F83C30184670470220704740
:101CF80090F83C30012B22D030B4012280F83C20EF
:101D0800022380F83D300468636823F07003636041
:101D1800046863680D682B4363600468A36823F054
:101D28008003A3600468A36849680B43A36080F834
:101D38003D20002380F83C30184630BC7047022014
:101D480070470000034690F82420012A20D0012281
:101D580080F824200268906810F0010F07D10D4820
:101D6800806810F0010F02D10B48824208D09A6AAD
:101D780042F020029A620120002283F82420704752
:101D8800506820F470200968014351600020F3E78F
:101D9800022070470028014000240140074AD36808
:101DA80023F4E0631B041B0C000200F4E0601843FA
:101DB80040F0BF6040F40030D060704700ED00E0B4
:101DC80030B4174BDB68C3F30223C3F10704042CB8
:101DD80028BF04241D1D062D18D9033B4FF0FF35DD
:101DE80005FA04F421EA0401994005FA03F322EA0A
:101DF8000303194300280BDB0901C9B200F1604055
:101E080000F5614080F8001330BC70470023E5E717
:101E180000F00F000901C9B2024B1954F4E700BFE2
:101E280000ED00E014ED00E000F01F02400901237E
:101E38009340024A42F82030704700BF00E100E0BA
:101E48000138B0F1807F0AD2064B5860064AF0216B
:101E580082F823100020986007221A60704701203A
:101E6800704700BF10E000E000ED00E0042805D056
:101E7800054A136823F0040313607047024A136885
:101E880043F004031360704710E000E0704708B5A2
:101E9800FFF7FCFF08BD0000F0B482B0002635460D
:101EA800ABE0002C63D0012C00D1CE68FF2B72D898
:101EB8008446FF2B72D8AC00DCF800200F27A7401F
:101EC80022EA070206FA04F42243CCF800204A6802
:101ED80012F0805F00F09080654A946944F0010434
:101EE8009461926902F001020192019AAC08A71C60
:101EF800604A52F827C005F0030297000F22BA4043
:101F08002CEA020C5C4A90424ED002F58062904264
:101F180000F08B8002F58062904200F0888002F524
:101F28008062904200F0858002F58062904200F065
:101F3800828002F58062904234D0062235E04F4F0D
:101F4800BC4214D00BD94E4FBC4210D007F5803795
:101F5800BC420CD0A7F58017BC42A7D107E0A7F573
:101F68008017BC4203D007F58037BC429ED18C68ED
:101F78007CB1012C08D04261082697E7CE68083664
:101F880094E7CE680C3691E7026108268EE70026B2
:101F98008CE704268AE700F1040C8AE7A5F1080417
:101FA800A40089E7052200E00022BA4042EA0C02B8
:101FB8000234304F47F824204A6812F4803F3CD05E
:101FC800304C22681A4322604A6812F4003F3AD023
:101FD8002C4C62681A4362604A6812F4801F38D039
:101FE800284CA2681A43A2604A6812F4001F36D02F
:101FF800244CE2681343E36001350F2D35D80122E4
:10200800AA400B6813409A42F6D14C68122CB8D0FB
:1020180095D8022CB2D07FF644AF032CB7D0112C40
:102028007FF444AFCE68043640E70122BDE70222C0
:10203800BBE70322B9E70422B7E7124C226822EA79
:1020480003022260C0E70F4C626822EA0302626062
:10205800C2E70C4CA26822EA0302A260C4E7094C5A
:10206800E26822EA0303E360C6E702B0F0BC704707
:10207800001002400000014000080140000021104B
:1020880000003110000401408368194201D100208A
:1020980070470120704712B9090401617047016156
:1020A8007047C3685940C1607047000070B582B07E
:1020B8000446036813F0010F34D03E4BDB6913F07C
:1020C800805F48D13B4BDA6942F08052DA61DB69C4
:1020D80003F080530193019B0125374B1B6813F4D0
:1020E800807F3AD0334B1B6A13F4407311D0626877
:1020F80002F440729A420CD02E4A136A23F44070BC
:102108002E4901260E6000260E60106213F0010FA2
:1021180037D1284A136A23F4407361680B4313626A
:10212800002D3FD1236813F0020F06D0214A5368CF
:1021380023F44043A1680B435360236813F0100F46
:1021480035D01C4A536823F4800361690B435360FC
:10215800002002B070BD0025BFE7174A136843F49A
:102168008073136000F05EF80646134B1B6813F487
:10217800807FB7D100F056F8801B6428F5D903207A
:10218800E7E700F04FF806460A4B1B6A13F0020F08
:10219800BFD100F047F8801B41F288339842F3D949
:1021A8000320D6E7D36923F08053D361BAE7002030
:1021B800CFE700BF001002400070004040044242D8
:1021C8007047000010B50446074B1868074BA3FB7F
:1021D80000308009FFF734FE002221464FF0FF301F
:1021E800FFF7EEFD002010BD00000020D34D621067
:1021F80008B5074A136843F0100313600320FFF77C
:10220800CDFD0020FFF7DEFFFFF7DAFF002008BD55
:1022180000200240024A136801331360704700BF70
:1022280068000020014B1868704700BF6800002054
:1022380030B583B00190FFF7F5FF0546019CB4F176
:10224800FF3F00D00134FFF7EDFF401BA042FAD357
:1022580003B030BD7047000030B482B00023019352
:1022680090F82430012B00F08B800246012380F87F
:1022780024304B68062B29D80568686B03EB830369
:10228800053B1F249C4020EA04000C6804FA03F371
:1022980003436B630B68092B38D91568E86803EBAF
:1022A80043031E3B07249C4020EA04008C6804FA80
:1022B80003F30343EB600B68103B012B34D9002078
:1022C800002382F8243002B030BC70470C2B0ED8A3
:1022D8000568286B03EB8303233B1F249C4020EAFB
:1022E80004000C6804FA03F303432B63D2E7056880
:1022F800E86A03EB8303413B1F249C4020EA040067
:102308000C6804FA03F30343EB62C3E71568286912
:1023180003EB430307249C4020EA04008C6804FA7A
:1023280003F303432B61C6E713681648834205D0BD
:10233800936A43F0200393620120C1E7986810F480
:10234800000F1BD1986840F4000098600B68102BB0
:1023580001D00020B4E70C4B1B680C49A1FB031308
:102368009B0C03EB83035900019102E0019B013BA5
:102378000193019B002BF9D10020A1E700209FE7E2
:102388000220A0E7002401400000002083DE1B4358
:1023980030B583B00023019303689A6812F0010FE7
:1023A8002ED19A6842F001029A60174B1B68174AAF
:1023B800A2FB03239B0C019302E0019B013B0193C9
:1023C800019B002BF9D10446FFF72CFF0546236833
:1023D8009B6813F0010F11D1FFF724FF401B02285F
:1023E800F5D9A36A43F01003A362E36A43F001033B
:1023F800E362002384F82430012002E0002000E09A
:10240800002003B030BD00BF0000002083DE1B4366
:1024180090F82430012B6AD010B50446012380F8C7
:102428002430FFF7B5FF024600285BD1A36A23F4E6
:10243800407323F0010343F48073A36223682D499A
:102448008B4227D0A16A21F48011A162596811F446
:10245800806F05D0A16A21F4405141F48051A162F6
:10246800A16A11F4805F2BD0E16A21F00601E162D4
:10247800002184F824106FF002011960236899681C
:1024880001F46021B1F5602F1DD0996841F48011E5
:1024980099602AE0A1F58061496811F4702FD1D0C4
:1024A800A16A41F48011A1621349496811F4806F4F
:1024B800D6D0A16A21F4405141F48051A162CFE7FE
:1024C8000021E162D4E70B498B4204D0996841F4BA
:1024D800A001996009E0A1F58061496811F4702FA5
:1024E800D3D1F3E7002384F82430104610BD02222C
:1024F80010467047002801400024014038B50368A1
:102508009A6812F0010F01D1002038BD04469A687C
:1025180022F001029A60FFF785FE054623689B6852
:1025280013F0010F0ED0FFF77DFE401B0228F5D9EE
:10253800A36A43F01003A362E36A43F00103E36272
:102548000120E2E70020E0E7002800F08A8070B56B
:102558000446836A002B36D02046FFF7CFFFA36AD4
:1025680013F0100377D1002875D1A26A22F488529B
:1025780022F0020242F00202A262626825683A4929
:102588008D4226D0E1690A43E66842EA4602A1681C
:10259800B1F5807F27D0012922D06169012925D092
:1025A800696821F469410B436B6021688D682F4B82
:1025B8002B4013438B60A368B3F5807F27D0012B92
:1025C80025D0002126E0C36280F82430FFF742FEC0
:1025D800C2E7E169B1F5402FD5D14FF40021D2E728
:1025E8004FF48073D9E74FF48073D6E736B9A16901
:1025F800013943EA413343F40063D1E7A16A41F06A
:102608002001A162E16A41F00101E162C8E72369A2
:10261800013B19052568EB6A23F470030B43EB6251
:1026280023689968124B0B409A420BD0A36A23F097
:10263800120343F01003A362E36A43F00103E36269
:1026480001200DE00023E362A36A23F0030343F0B3
:102658000103A36204E0A36A43F01003A36201200C
:1026680070BD0120704700BF003C0140FDF7E1FF4D
:10267800FE0E1FFF0F4B1A6842F001021A605968DC
:102688000D4A0A405A601A6822F0847222F4803295
:102698001A601A6822F480221A605A6822F4FE022C
:1026A8005A604FF41F029A60044B4FF000629A6020
:1026B800704700BF001002400000FFF800ED00E086
:1026C8002DE9F04F89B07B4B9A6942F004029A6178
:1026D8009A6902F004020192019A9A6942F008028A
:1026E8009A619A6902F008020292029A9A6942F083
:1026F80010029A619B6903F010030393039B002364
:1027080005930693022707974FF0200A0DEB0A045A
:1027180044F810AD21466848FFF7BEFB40230493F8
:1027280021466548FFF7B8FB802504952146624895
:10273800FFF7B2FB4FF48063049321465F48FFF72D
:10274800ABFB4FF40063049321465C48FFF7A4FBFE
:102758004FF48056049621465848FFF79DFB04968F
:1027680021465748FFF798FB049721465448FFF73E
:1027780093FB4FF00108CDF814804FF00409CDF811
:10278800109021464C48FFF787FB102604962146F7
:102798004B48FFF781FBCDF810A021464848FFF7CA
:1027A8007BFB03230593CDF8108021464348FFF7B0
:1027B80073FBCDF8108021464148FFF76DFB4FF0C1
:1027C800080BCDF810B021463C48FFF765FB04978D
:1027D80021463A48FFF760FB049621463748FFF741
:1027E8005BFBCDF810A021463448FFF755FBCDF828
:1027F800109021463148FFF74FFBCDF810B0214625
:102808002F48FFF749FBCDF8109021462C48FFF7D9
:1028180043FB05974023049321462848FFF73CFBD8
:10282800049521462548FFF737FB4FF48079CDF80A
:10283800109021462148FFF72FFB04952146204898
:10284800FFF72AFBCDF8108021461B48FFF724FB31
:10285800049721461848FFF71FFBCDF81090214632
:102868001748FFF719FB4FF40073049321461448E7
:10287800FFF712FB4FF48063049321461048FFF7DB
:102888000BFB4FF40053049321460B48FFF704FB5E
:102898004FF48043049321460748FFF7FDFA4FF4AD
:1028A8000043049321460448FFF7F6FA09B0BDE84F
:1028B800F08F00BF00100240000C014000100140E2
:1028C800000801402DE9F04F99B0754B9A6942F420
:1028D80000629A619A6902F400620192019A9A6907
:1028E80042F400529A619B6903F400530293029BDD
:1028F8006C4EDFF8B891C6F80090002474604FF071
:102908002008C6F808804FF4FA6BC6F80CB034619A
:102918007461B4613046FFF7B5F810231693179425
:1029280016A93046FFF7E4F960230F931094119429
:1029380008271297139414944FF4007315932246A2
:102948000FA93046FFF7F0F804220FA93046FFF729
:10295800EBF83A460FA93046FFF7E6F84FF4006364
:1029680008934FF4806309930A94CDF82C800C9453
:102978000D940E940DEB08013046FFF78DF94A4D82
:10298800DFF82CA1C5F800A06C60C5F80880C5F870
:102998000CB02C616C61AC612846FFF773F8CDF878
:1029A80058808023179316A92846FFF7A1F90494A5
:1029B80018A9052341F8543D2846FEF7F6FF602381
:1029C8000F93109411941297139414944FF4007366
:1029D800159322460FA92846FFF7A6F804220FA947
:1029E8002846FFF7A1F83A460FA92846FFF79CF8B2
:1029F8004FF4006308934FF4806309930A94CDF869
:102A08002C800C940D940E940DEB08012846FFF7CA
:102A180043F9DAF8443023F40043CAF84430D9F8CB
:102A2800443023F40043C9F8443021462846FFF7D0
:102A3800F7F804212846FFF7F3F839462846FFF748
:102A4800EFF821462846FFF715F904212846FFF735
:102A580011F939462846FFF70DF921463046FFF7A8
:102A6800DFF804213046FFF7DBF839463046FFF738
:102A7800D7F821463046FFF7FDF804213046FFF726
:102A8800F9F839463046FFF7F5F82B6801221A6342
:102A98003268136843F00103136019B0BDE8F08F82
:102AA8000010024034010020C4020020002C014024
:102AB800003401402DE9F04387B0414EB36943F437
:102AC8000073B361B36903F400730093009B3D4C3A
:102AD8003D4B23604FF48073A3600025E56065617A
:102AE8004FF44023E36165604FF00508C4F8108097
:102AF8002046FFF729FD354A536843F48023536085
:102B080006A94FF4C02341F8043D2046FFF71AF9FF
:102B1800012304930E220292039302A92046FFF791
:102B28009BFB02950227039702A92046FFF794FB17
:102B380004970B2702970323039302A92046FFF764
:102B48008BFB4FF00C09CDF808900423039302A9DE
:102B58002046FFF781FBCDF80890CDF80C8002A93C
:102B68002046FFF779FB23689A6842F480729A60DE
:102B78009A6842F001029A60736943F00103736135
:102B8800736903F001030193019B114B1D60C3F8A6
:102B98000480104A9A60104ADA6040F6A2221A604D
:102BA8001A6842F001021A602A4629463846FFF799
:102BB80007F93846FFF738F907B0BDE8F08300BFDA
:102BC80000100240FC0100200024014000000140E8
:102BD800080002404C24014070020020F0B585B086
:102BE800274B9A6942F480629A619B6903F4806377
:102BF8000093009B234C244B23604FF48073A36005
:102C08000023E36063614FF46022E261636005269C
:102C180026612046FFF798FC012303930F220192B7
:102C2800029301A92046FFF717FB0D230193022504
:102C3800029501A92046FFF70FFB03950A2301938C
:102C48000327029701A92046FFF706FB01950423F5
:102C580002930DEB03012046FFF7FEFA0197029657
:102C680001A92046FFF7F8FA23689A6842F48072AF
:102C78009A609A6842F001029A6005B0F0BD00BF00
:102C880000100240B00000200028014030B597B085
:102C980002250C95012310931023119313950024FA
:102CA80014944FF4601315930CA8FEF797FA0F23AA
:102CB8000793089509944FF480630A930B94294667
:102CC80007A8FEF7B1FC01954FF44043039301A810
:102CD800FFF7ECF9FEF764FD084BA3FB0030800911
:102CE800FFF7AEF80420FFF7C1F8224621464FF05F
:102CF800FF30FFF765F817B030BD00BFD34D621045
:102D08002DE9F04F83B0FFF773FAC94CA36943F07C
:102D18000103A361A36903F001030193019B03204D
:102D2800FFF73CF8002211466FF00B00FFF748F858
:102D3800002211466FF00A00FFF742F80022114600
:102D48006FF00900FFF73CF8002211466FF004000D
:102D5800FFF736F8002211466FF00300FFF730F84E
:102D6800002211466FF00100FFF72AF800221146F1
:102D78004FF0FF30FFF724F8FFF788FF636923F06F
:102D880001036361FFF79CFCFFF79CFDFFF792FED0
:102D9800FFF724FF01222021A648FFF77CF9A64867
:102DA800FFF736FBA548FFF733FB082405E0A44BE3
:102DB8001C706420FFF73CFA013C002CF7DA4FF056
:102DC800000A9F4B83F800A0012204219D48FFF7C9
:102DD80062F99D4B01221A70D34674E04FF47A7859
:102DE80032463B4620462946FDF720FA04460D4662
:102DF8000022964BFDF760FE90B987A3D3E9002324
:102E080020462946FDF73AFE002840F0CA802046B1
:102E18002946FDF75BFE044604E0DFF86482DFE73D
:102E28004FF47A748A4B19688A4BA3FB0123DB0899
:102E380003EB83035A00914200F0B5800AF1320394
:102E4800A34215DDAAF1320AA24511DA0BF13203C9
:102E580043450DDDABF1320BC34509DA7E4B1B68E8
:102E6800042B05D8C8F100037C4A13607C4B1C6016
:102E780002217048FFF708F9002840F0AF80794B2D
:102E88001D6815F1320F80F203816D4B05221A700F
:102E9800754B01221A7084EAE473A3EBE473322BB6
:102EA80006DC88EAE873A3EBE873322B40F325814C
:102EB800674B00221A60664B1A68A246C3466B4BE2
:102EC8009A4200F21F810520FFF7B2F9684C20688A
:102ED800FDF7F8FA52A3D3E90023FDF75DFB064698
:102EE8000F46644B1868FDF7EDFA4FA3D3E90023AA
:102EF800FDF752FB02460B4630463946FDF796F978
:102F0800FDF7E4FD06462060564F3868FDF7DAFA0B
:102F180043A3D3E90023FDF73FFB04460D46564B78
:102F28001868FDF7CFFA40A3D3E90023FDF734FB77
:102F380002460B4620462946FDF778F9FDF7C6FDFF
:102F48003860FDF7BFFA00224C4BFDF725FB04461D
:102F58000D463046FDF7B6FA0022484BFDF71CFB3C
:102F680006460F4602460B4620462946FDF75CF901
:102F7800804689460022354BFDF79EFD00287FF4E8
:102F88002DAF25A3D3E9002340464946FDF776FD3A
:102F980000287FF442AF40464946FDF797FD80463A
:102FA8001EE7374C3EE74146022000F079FC2146F7
:102FB800032000F075FC334B9989042000F070FC65
:102FC8003149324B1868FDF707FFFEF7CBF8014689
:102FD800052000F065FC00F069FC2FE71A4B002281
:102FE8001A7002211348FFF74FF80028F9D100247E
:102FF800134B1C701C4B1C7005E0114B1C7064209B
:10300800FFF716F90134072CF7DD002220210948C3
:10301800FFF741F8FEE700BF0000000000408FC046
:10302800CDCCCCCCCCCCEC3F9A9999999999B93F15
:103038000010024000080140FC010020B000002000
:1030480040000020000C01404800002000408F4054
:1030580004030020CDCCCCCC040000205C00002070
:10306800580000201C030020410000208038010087
:103078001403002024030020100300200000E03F78
:1030880018FCFFFF700200200000C8420800002062
:10309800264B1E6826493046FEF73CF858B12549AC
:1030A8003046FEF755F830B1234B05221A70234BF2
:1030B80006221A70EFE61F493046FEF72BF810B1CA
:1030C8001335262D05D900231B4A13701B4A13708C
:1030D800E1E60024194B1C70194B1C70072C06DC08
:1030E800154B1C706420FFF7A3F80134F6E70022A3
:1030F80020211448FEF7CFFFFEE7134A1368013377
:103108001360D8E600240D4B1C700D4B1C7005E0B5
:10311800094B1C706420FFF78BF80134072CF7DD8E
:10312800002220210748FEF7B6FFFEE7080000202E
:10313800000028428FC221424000002041000020A8
:10314800480000200008014004030020000000009F
:10315800774B02225A60774B1B68B3F57A7F5EDBA8
:103168002DE9F041744B1A88744BA3FB02135B09D9
:10317800642101FB13239BB20BBB714C2068FDF744
:10318800B3F965A3D3E90023FDF706FA06460F460F
:103198006C4B9889FDF7C8FD6B49FDF71DFEFDF7DF
:1031A800A3F95FA3D3E90023FDF7F6F902460B461E
:1031B80030463946FDF73AF8FDF7B0FC2060614B20
:1031C8005889624B1C68001BFDF77CF956A3D3E9AC
:1031D8000023FDF7E1F900220023FDF74FFC00284A
:1031E80052D1584B5889001BFDF76CF94EA3D3E90F
:1031F8000023FDF7D1F90022554BFDF75DFC0028AF
:1032080052D1544B1B68052B4ED8534B1B78002BBF
:103218004AD0524A536C43F40043536449E00133A3
:10322800444A1360474A90884D490B68034403EBAE
:10323800D3735B100B60D0884A490B68034403EBD7
:10324800D3735B100B60108847490B68034403EB8A
:10325800D3735B100B60508844490B68034403EB3D
:10326800D3735B100B60508938490B68034403EB38
:10327800D3735B100B6011893D4A13680B4403EB51
:10328800D3735B10136070472E4B5889001BFDF7F2
:1032980019F925A3D3E90023FDF77EF90022354B60
:1032A800FDF7ECFB0028ACD02C4A536C23F4004308
:1032B8005364244B18892E4B1C68001BFDF702F938
:1032C80019A3D3E90023FDF767F900220023FDF7CE
:1032D800D5FB002852D11B4B1889001BFDF7F2F8CB
:1032E80011A3D3E90023FDF757F90022184BFDF786
:1032F800E3FB002852D1174B1B68052B4ED8164B01
:103308001B78002B4AD01C4A536C43F40043536487
:1033180049E000BFAFF300802B8716D9CEF7EF3F07
:10332800FCA9F1D24D62503F7B14AE47E17A943F3D
:10333800000002404C000020420000201F85EB5195
:103348000800002070020020AA65CE3C0C00002076
:1033580000002E40040000204800002000340140F6
:1033680014000020180000201C000020200000206D
:103378001000002000002EC0002C0140924B18893C
:10338800001BFDF79FF88EA3D3E90023FDF704F98E
:1033980000228E4BFDF772FB0028ACD08C4A536C90
:1033A80023F4004353648B498B6813F0200F0CBF40
:1033B800012300238A6812F0400F0CBF012200226B
:1033C800896811F0800F0CBF0125002582498868A3
:1033D80010F4806F0CBF012000208C6814F4006F7B
:1033E8000CBF01240024896811F4805F02EB4502B8
:1033F80003EB4203794EF35C79490B600B6803F1E8
:1034080002030B600D68774B83FB0572A2EBE57234
:1034180002EB42024FEA4207A5EB07020A600CBF23
:1034280002220022224400EB4202B05C6E4A106085
:10343800106802301060106883FB0043A3EBE07350
:1034480003EB43035C00031B136009685E48838831
:10345800664A12689A1AC388654800681B1A0529C3
:1034680035D8DFE801F00324272A2D30D31A614A22
:103478001360614A138801339BB213805F4A147842
:103488004CB35F4AA2FB0312120B5E490978013163
:1034980092FBF1F001FB1022EAB993FBF4F204FB72
:1034A8001233EBB910215848FEF7FBFD18E0514BD9
:1034B8001A60DEE74F4B1A60DBE74E4A1360D8E725
:1034C8004C4A1360D5E79B1A4A4A1360D1E7494B27
:1034D80000221A60CDE7002210214B48FEF7DBFDE1
:1034E8004A4BD3F800C03E4B1B68052B2BD8DFE8AE
:1034F80003F00312171C2226CCF1000064469C46F8
:10350800434B1968384B1B68052B52D8DFE803F08A
:103518001F3F43474B4E6446CCF1000C0020EFE7B9
:103528006046CCF1000C0024EAE7CCF100046046C8
:103538004FF0000CE4E7CCF100040020E0E7CCF108
:1035480000000024DCE7002004468446D8E74E4209
:103558000F4619462D4B1B68002B40F39B802D4BC3
:103568001D681F4B1B6805331E4A82FB03E2A2EB52
:10357800E37202EB42024FEA420EA3EB0E02052A67
:1035880000F2BC80DFE802F0486D72777C810F465C
:1035980049420026DEE70E4649420027DAE74F4255
:1035A8000E460021D6E74F420026D3E74E420027B9
:1035B800D0E7002637463146CCE700BFAFF300809E
:1035C8007B14AE47E17A943F7002002000002EC0C1
:1035D800002C0140000C014000100140A4390008F3
:1035E80050000020ABAAAA2A540000201400002092
:1035F8001800002044000020420000204000002065
:103608005917B7D141000020000801405800002098
:103618005C00002060000020C5F10008AE46154699
:10362800654474444044964B1B68002B40F3D78094
:10363800944B1B68944A126802F1050C934A82FB6A
:103648000CE2A2EBEC7202EB42024FEA420EACEB48
:103658000E02052A00F2F980DFE802F058A8ADB2A0
:10366800B7BCAE466D424FF00008D9E7A8466D4298
:103678004FF0000ED4E7C5F1000EA8460025CFE7AD
:10368800C5F1000E4FF00008CAE7C5F100084FF079
:10369800000EC5E77E4B1D68C5F1000E7D4B1A680C
:1036A80001327A4B83FB0283A3EBE27303EB430300
:1036B8004FEA4308A2EB0803052B1AD8DFE803F00A
:1036C8000323060A0E14A8461D46A9E7F0464FF044
:1036D800000EA5E7F046AE460025A1E72B46754645
:1036E8009E464FF000089BE7A84675464FF0000E2F
:1036F80096E74FF00008C646454691E74FF00008A8
:10370800C64645468CE74FF0000889E7C3F1000834
:103718009E461346194407EB0E0206EB080305F50F
:103728007A7540F2C676B54200F397800A2DB8BF85
:103738000A25594E756304F57A7440F2C675AC4291
:1037480000F38E800A2CB8BF0A24534DAC6300F5F1
:103758007A7040F2C674A04200F385800A28B8BF88
:103768000A204D4CE06301F57A7140F2C67081423F
:103778007CDC0A29B8BF0A214848416302F57A72FD
:1037880040F2C6718A4274DC0A2AB8BF0A22434949
:103798008A6303F57A7340F2C67293426CDC0A2B93
:1037A800B8BF0A233D4AD363BDE8F0819E465B4219
:1037B8004FF00008AEE798465B424FF0000EA9E7CD
:1037C800C3F1000E98460023A4E7C3F1000E4FF0A2
:1037D80000089FE7C3F100084FF0000E9AE7294B55
:1037E8001B68C3F1000E284A12680132DFF89CC03A
:1037F8008CFB028CACEBE27C0CEB4C0C4FEA4C08DB
:10380800A2EB080CBCF1050F1AD8DFE80CF0032373
:10381800060A0E14984663467CE7F0464FF0000E01
:1038280078E7F0469E46002374E71A4673469646A4
:103838004FF000086EE7984673464FF0000E69E7B0
:103848004FF00008C646434664E74FF00008C646F6
:1038580043465FE74FF000085CE740F2C67568E74B
:1038680040F2C67471E740F2C6707AE740F2C6715A
:1038780082E740F2C6728AE740F2C67392E700BF59
:103888005C0000206400002054000020ABAAAA2A93
:10389800600000205000002000340140002C01404E
:1038A800014B23F8101070478C03002070477047B5
:1038B800FEE7FEE7FEE7FEE770477047704708B58A
:1038C800FEF7A8FCFEF7E3FA08BD0000002103E0BC
:1038D8000B4B5B58435004310A480B4B42189A4231
:1038E800F6D30A4A02E0002342F8043B084B9A4206
:1038F800F9D3FEF7BFFE00F00FF8FFF701FA7047A3
:10390800B439000800000020240000202400002012
:103918009C030020FEE7000070B500250C4E0D4CFE
:10392800A41BA410A54209D100F01AF800250A4EDC
:103938000A4CA41BA410A54205D170BD56F8253029
:1039480098470135EEE756F8253098470135F2E7F4
:10395800AC390008AC390008AC390008B0390008A7
:10396800F8B500BFF8BC08BC9E467047F8B500BF64
:08397800F8BC08BC9E46704734
:1039800002030405060708090A0B0C0D0E0F1010A0
:10399000010200000000000000000000010203041A
:0C39A000060708090000020104050300EE
:0439AC000D02000800
:0439B000E901000821
:1039B40000A24A046400000000004042D007000056
:1039C400D0070000D0070000D0070000D007000097
:0439D400D007000018
:04000005080038D5E2
:00000001FF
