:020000040800F2
:1000000000C0002025390008E5380008E93800085C
:10001000ED380008F1380008F5380008000000004D
:10002000000000000000000000000000F938000897
:10003000FD380008000000000139000805390008FB
:100040006D3900086D3900086D3900086D390008F8
:100050006D3900086D3900086D3900086D390008E8
:100060006D390008113900086D390008A9330008FE
:100070006D3900086D3900086D3900086D390008C8
:100080006D3900086D3900086D3900086D390008B8
:100090006D3900086D3900086D3900086D390008A8
:1000A0006D3900086D3900086D3900086D39000898
:1000B0006D3900086D3900086D3900086D39000888
:1000C0006D3900086D3900086D3900086D39000878
:1000D0006D3900086D3900086D3900086D39000868
:1000E0006D3900086D3900086D3900086D39000858
:1000F0006D3900086D3900086D3900086D39000848
:100100006D3900086D3900086D3900086D39000837
:100110006D3900086D3900086D3900086D39000827
:100120006D3900086D3900086D3900086D39000817
:1001300000000000000000000000000000000000BF
:1001400000000000000000000000000000000000AF
:10015000000000000000000000000000000000009F
:10016000000000000000000000000000000000008F
:10017000000000000000000000000000000000007F
:10018000000000000000000000000000000000006F
:10019000000000000000000000000000000000005F
:1001A000000000000000000000000000000000004F
:1001B000000000000000000000000000000000003F
:1001C000000000000000000000000000000000002F
:1001D000000000000000000000000000000000001F
:0401E0005FF8E0F1F3
:1001E800044B05481B1A062B02D9044B03B11847C8
:1001F800704700BF87000020840000200000000036
:1002080005490648091A891001EBD171491002D035
:10021800034B03B118477047840000208400002076
:100228000000000010B5064C237843B9FFF7D8FF4B
:10023800044B13B10448AFF300800123237010BDB1
:1002480084000020000000002042000808B5084B88
:100258001BB108480849AFF300800848036813B980
:10026800BDE80840CCE7064B002BF9D09847F7E7E4
:1002780000000000204200088800002084000020C0
:100288000000000081F0004102E000BF83F000435D
:1002980030B54FEA41044FEA430594EA050F08BF19
:1002A80090EA020F1FBF54EA000C55EA020C7FEADD
:1002B800645C7FEA655C00F0E2804FEA5454D4EB5A
:1002C8005555B8BF6D420CDD2C4480EA020281EA24
:1002D800030382EA000083EA010180EA020281EA5C
:1002E8000303362D88BF30BD11F0004F4FEA0131AE
:1002F8004FF4801C4CEA113102D0404261EB4101BD
:1003080013F0004F4FEA03334CEA133302D0524242
:1003180063EB430394EA050F00F0A780A4F10104FE
:10032800D5F1200E0DDB02FA0EFC22FA05F2801838
:1003380041F1000103FA0EF2801843FA05F359411E
:100348000EE0A5F120050EF1200E012A03FA0EFC9D
:1003580028BF4CF0020C43FA05F3C01851EBE371C7
:1003680001F0004507D54FF0000EDCF1000C7EEBE4
:1003780000006EEB0101B1F5801F1BD3B1F5001F22
:100388000CD349085FEA30004FEA3C0C04F1010441
:100398004FEA445212F5800F80F09A80BCF1004F6A
:1003A80008BF5FEA500C50F1000041EB045141EAEC
:1003B800050130BD5FEA4C0C404141EB010111F4ED
:1003C800801FA4F10104E9D191F0000F04BF014698
:1003D8000020B1FA81F308BF2033A3F10B03B3F176
:1003E80020020CDA0C3208DD02F1140CC2F10C0206
:1003F80001FA0CF021FA02F10CE002F11402D8BF64
:10040800C2F1200C01FA02F120FA0CFCDCBF41EA2F
:100418000C019040E41AA2BF01EB0451294330BDFE
:100428006FEA04041F3C1CDA0C340EDC04F11404DB
:10043800C4F1200220FA04F001FA02F340EA0300B2
:1004480021FA04F345EA030130BDC4F10C04C4F1F8
:10045800200220FA02F001FA04F340EA03002946D8
:1004680030BD21FA04F0294630BD94F0000F83F422
:10047800801306BF81F480110134013D4EE77FEA05
:10048800645C18BF7FEA655C29D094EA050F08BF51
:1004980090EA020F05D054EA000C04BF1946104632
:1004A80030BD91EA030F1EBF0021002030BD5FEA76
:1004B800545C05D14000494128BF41F0004130BD9E
:1004C80014F580043CBF01F5801130BD01F00045F2
:1004D80045F0FE4141F470014FF0000030BD7FEA65
:1004E800645C1ABF194610467FEA655C1CBF0B4660
:1004F800024650EA013406BF52EA033591EA030F77
:1005080041F4002130BD00BF90F0000F04BF00216E
:10051800704730B54FF4806404F132044FF00005A1
:100528004FF0000150E700BF90F0000F04BF00211A
:10053800704730B54FF4806404F1320410F0004580
:1005480048BF40424FF000013EE700BF42004FEA7B
:10055800E2014FEA31014FEA02701FBF12F07F43F8
:1005680093F07F4F81F06051704792F0000F14BFF5
:1005780093F07F4F704730B54FF4607401F0004539
:1005880021F0004120E700BF50EA010208BF704790
:1005980030B54FF000050AE050EA010208BF704785
:1005A80030B511F0004502D5404261EB41014FF4EE
:1005B800806404F132045FEA915C3FF4DCAE4FF0F2
:1005C80003025FEADC0C18BF03325FEADC0C18BFD9
:1005D800033202EBDC02C2F1200300FA03FC20FA2A
:1005E80002F001FA03FE40EA0E0021FA02F1144477
:1005F800C1E600BF70B54FF0FF0C4CF4E06C1CEA8C
:1006080011541DBF1CEA135594EA0C0F95EA0C0F00
:1006180000F0DEF82C4481EA030621EA4C5123EA73
:100628004C5350EA013518BF52EA033541F48011A2
:1006380043F4801338D0A0FB02CE4FF00005E1FB55
:1006480002E506F00042E0FB03E54FF00006E1FB9F
:1006580003569CF0000F18BF4EF0010EA4F1FF04E2
:10066800B6F5007F64F5407404D25FEA4E0E6D4122
:1006780046EB060642EAC62141EA55514FEAC52033
:1006880040EA5E504FEACE2EB4F1FD0C88BFBCF5AF
:10069800E06F1ED8BEF1004F08BF5FEA500E50F160
:1006A800000041EB045170BD06F0004646EA010126
:1006B80040EA020081EA0301B4EB5C04C2BFD4EB58
:1006C8000C0541EA045170BD41F480114FF0000E51
:1006D800013C00F3AB8014F1360FDEBF002001F0BF
:1006E800004170BDC4F10004203C35DA0C341BDC39
:1006F80004F11404C4F1200500FA05F320FA04F00B
:1007080001FA05F240EA020001F0004221F000413E
:1007180010EBD37021FA04F642EB06015EEA430EB1
:1007280008BF20EAD37070BDC4F10C04C4F12005E1
:1007380000FA04F320FA05F001FA04F240EA020094
:1007480001F0004110EBD37041F100015EEA430E65
:1007580008BF20EAD37070BDC4F1200500FA05F285
:100768004EEA020E20FA04F301FA05F243EA020304
:1007780021FA04F001F0004121FA04F220EA020013
:1007880000EBD3705EEA430E08BF20EAD37070BD59
:1007980094F0000F0FD101F00046400041EB010139
:1007A80011F4801F08BF013CF7D041EA060195F01B
:1007B800000F18BF704703F00046520043EB0303D5
:1007C80013F4801F08BF013DF7D043EA06037047C2
:1007D80094EA0C0F0CEA135518BF95EA0C0F0CD0CD
:1007E80050EA410618BF52EA4306D1D181EA030113
:1007F80001F000414FF0000070BD50EA410606BF0D
:100808001046194652EA430619D094EA0C0F02D151
:1008180050EA013613D195EA0C0F05D152EA033696
:100828001CBF104619460AD181EA030101F00041B4
:1008380041F0FE4141F470014FF0000070BD41F0FD
:10084800FE4141F4780170BD70B54FF0FF0C4CF4D7
:10085800E06C1CEA11541DBF1CEA135594EA0C0FF6
:1008680095EA0C0F00F0A7F8A4EB050481EA030E43
:1008780052EA03354FEA013100F088804FEA03332A
:100888004FF0805545EA131343EA12634FEA0222F8
:1008980045EA111545EA10654FEA00260EF00041B9
:1008A8009D4208BF964244F1FD0404F5407402D20B
:1008B8005B084FEA3202B61A65EB03055B084FEA9C
:1008C80032024FF480104FF4002CB6EB020E75EB99
:1008D800030E22BFB61A754640EA0C005B084FEAC1
:1008E8003202B6EB020E75EB030E22BFB61A75463E
:1008F80040EA5C005B084FEA3202B6EB020E75EB89
:10090800030E22BFB61A754640EA9C005B084FEA00
:100918003202B6EB020E75EB030E22BFB61A75460D
:1009280040EADC0055EA060E18D04FEA051545EAFC
:1009380016754FEA06164FEAC30343EA52734FEAA5
:10094800C2025FEA1C1CC0D111F4801F0BD141EA1E
:1009580000014FF000004FF0004CB6E711F4801F83
:1009680004BF01430020B4F1FD0C88BFBCF5E06F63
:100978003FF6AFAEB5EB030C04BFB6EB020C5FEA73
:10098800500C50F1000041EB045170BD0EF0004EC8
:100998004EEA113114EB5C04C2BFD4EB0C0541EAFA
:1009A800045170BD41F480114FF0000E013C90E6F7
:1009B80045EA060E8DE60CEA135594EA0C0F08BFBB
:1009C80095EA0C0F3FF43BAF94EA0C0F0AD150EABA
:1009D80001347FF434AF95EA0C0F7FF425AF10464D
:1009E80019462CE795EA0C0F06D152EA03353FF475
:1009F800FDAE1046194622E750EA410618BF52EAF2
:100A080043067FF4C5AE50EA41047FF40DAF52EAC5
:100A180043057FF4EBAE12E74FF0FF3C06E000BF62
:100A28004FF0010C02E000BF4FF0010C4DF804CD6F
:100A38004FEA410C7FEA6C5C4FEA430C18BF7FEA2F
:100A48006C5C1BD001B050EA410C0CBF52EA430C5D
:100A580091EA030F02BF90EA020F0020704710F1DD
:100A6800000F91EA030F58BF994208BF90422CBF6C
:100A7800D8176FEAE37040F0010070474FEA410C65
:100A88007FEA6C5C02D150EA013C07D14FEA430C83
:100A98007FEA6C5CD6D152EA033CD3D05DF8040BF4
:100AA800704700BF8446104662468C461946634626
:100AB80000E000BF01B5FFF7B7FF002848BF10F1FD
:100AC800000F01BD4DF808EDFFF7F4FF0CBF012042
:100AD80000205DF808FB00BF4DF808EDFFF7EAFFBE
:100AE80034BF012000205DF808FB00BF4DF808ED79
:100AF800FFF7E0FF94BF012000205DF808FB00BF6E
:100B08004DF808EDFFF7CEFF94BF012000205DF8F7
:100B180008FB00BF4DF808EDFFF7C4FF34BF012004
:100B280000205DF808FB00BF4FEA410212F50012F1
:100B380015D211D56FF47873B3EB625212D94FEA1C
:100B4800C12343F0004343EA505311F0004F23FA06
:100B580002F018BF404270474FF00000704750EA5B
:100B6800013005D111F0004008BF6FF00040704718
:100B78004FF00000704700BF4FEA4102B2F1E04376
:100B880024BFB3F5001CDCF1FE5C0DD901F0004C6C
:100B98004FEAC0024CEA5070B2F1004F40EB8300BC
:100BA80008BF20F00100704711F0804F21D113F1E8
:100BB8003872BCBF01F00040704741F480114FEA21
:100BC8005252C2F11802C2F1200C10FA0CF320FAAA
:100BD80002F018BF40F001004FEAC1234FEAD323C7
:100BE80003FA0CFC40EA0C0023FA02F34FEA430331
:100BF800CCE77FEA625307D150EA01331EBF4FF0BA
:100C0800FE4040F44000704701F0004040F0FE40D4
:100C180040F40000704700BF80F0004002E000BFD1
:100C280081F0004142001FBF5FEA410392EA030FCF
:100C38007FEA226C7FEA236C6AD04FEA1262D2EB19
:100C48001363C1BFD218414048404140B8BF5B421E
:100C5800192B88BF704710F0004F40F4000020F0B7
:100C68007F4018BF404211F0004F41F4000121F0CD
:100C78007F4118BF494292EA030F3FD0A2F1010217
:100C880041FA03FC10EB0C00C3F1200301FA03F155
:100C980000F0004302D5494260EB4000B0F5000F78
:100CA80013D3B0F1807F06D340084FEA310102F137
:100CB8000102FE2A51D2B1F1004F40EBC25008BFE9
:100CC80020F0010040EA03007047490040EB0000B3
:100CD80010F4000FA2F10102EDD1B0FA80FCACF1E2
:100CE800080CB2EB0C0200FA0CF0AABF00EBC250E1
:100CF80052421843BCBFD0401843704792F0000FCF
:100D080081F4000106BF80F400000132013BB5E721
:100D18004FEA41037FEA226C18BF7FEA236C21D097
:100D280092EA030F04D092F0000F08BF08467047FC
:100D380090EA010F1CBF0020704712F07F4F04D1CA
:100D4800400028BF40F00040704712F100723CBFDD
:100D580000F50000704700F0004343F0FE4040F407
:100D6800000070477FEA226216BF08467FEA2363C5
:100D78000146420206BF5FEA412390EA010F40F4B0
:100D8800800070474FF0000304E000BF10F00043FC
:100D980048BF40425FEA000C08BF704743F09643E3
:100DA80001464FF000001CE050EA010208BF7047FE
:100DB8004FF000030AE000BF50EA010208BF704785
:100DC80011F0004302D5404261EB41015FEA010C9A
:100DD80002BF84460146002043F0B64308BFA3F192
:100DE8008053A3F50003BCFA8CF2083AA3EBC25374
:100DF80010DB01FA02FC634400FA02FCC2F1200293
:100E0800BCF1004F20FA02F243EB020008BF20F0C9
:100E18000100704702F1200201FA02FCC2F120022F
:100E280050EA4C0021FA02F243EB020008BF20EA24
:100E3800DC7070474FF0FF3C06E000BF4FF0010C3C
:100E480002E000BF4FF0010C4DF804CD4FEA40021C
:100E58004FEA41037FEA226C18BF7FEA236C11D066
:100E680001B052EA530C18BF90EA010F58BFB2EB19
:100E7800030088BFC81738BF6FEAE17018BF40F099
:100E8800010070477FEA226C02D15FEA402C05D14D
:100E98007FEA236CE4D15FEA412CE1D05DF8040BD2
:100EA800704700BF844608466146FFE70FB5FFF765
:100EB800C9FF002848BF10F1000F0FBD4DF808ED1D
:100EC800FFF7F4FF0CBF012000205DF808FB00BF0E
:100ED8004DF808EDFFF7EAFF34BF012000205DF868
:100EE80008FB00BF4DF808EDFFF7E0FF94BF0120B5
:100EF80000205DF808FB00BF4DF808EDFFF7D2FFB2
:100F080094BF012000205DF808FB00BF4DF808EDF4
:100F1800FFF7C8FF34BF012000205DF808FB00BFC1
:100F280082B0084B1B68084AA2FB03235B0A00FB3C
:100F380003F0019000BF019B5A1E0192002BF9D1CA
:100F480002B0704700000020D34D621070B582B027
:100F58000446036813F0010F6BD0A84B5B6803F0DD
:100F68000C03042B0AD0A54B5B6803F00C03082B79
:100F78000DD1A24B5B6813F4803F08D09F4B1B68D0
:100F880013F4003F55D06368002B52D1B8E1636871
:100F9800B3F5803F05D1994A136843F48033136051
:100FA80026E063B903F1804303F504331A6822F499
:100FB80080321A601A6822F480221A6018E0B3F5A9
:100FC800A02F0CD103F18043A3F53C331A6842F4F7
:100FD80080221A601A6842F480321A6008E0874B4F
:100FE8001A6822F480321A601A6822F480221A6081
:100FF80063687BB101F048F8054605E001F044F864
:10100800401B642800F27E817C4B1B6813F4003F70
:10101800F4D00EE001F038F8054605E001F034F8A8
:10102800401B642800F27081744B1B6813F4003F66
:10103800F4D1236813F0020F50D0704B5B6813F0A3
:101048000C0F0AD06D4B5B6803F00C03082B16D10C
:101058006A4B5B6813F4803F11D1684B1B6813F02F
:10106800020F03D02369012B40F05081634A1368B3
:1010780023F0F803616943EAC10313602EE0236992
:10108800D3B101225E4B1A6000F0FEFF054605E071
:1010980000F0FAFF401B022800F23A81574B1B6808
:1010A80013F0020FF4D0554A136823F0F80361696E
:1010B80043EAC103136011E00022514B1A6000F0AB
:1010C800E3FF054605E000F0DFFF401B022800F2C1
:1010D80021814A4B1B6813F0020FF4D1236813F0E7
:1010E800080F29D0A369ABB10122464B1A6000F062
:1010F800CBFF054605E000F0C7FF401B022800F2C1
:101108000B813E4B5B6A13F0020FF4D00120FFF70E
:1011180007FF11E000223B4B1A6000F0B5FF0546BF
:1011280005E000F0B1FF401B022800F2F780334BC6
:101138005B6A13F0020FF4D1236813F0040F00F078
:1011480089802E4BDB6913F0805F0BD12B4BDA695A
:1011580042F08052DA61DB6903F080530193019B0E
:10116800012500E00025284B1B6813F4807F13D16C
:10117800254A136843F48073136000F085FF064620
:1011880005E000F081FF801B642800F2C9801E4B37
:101198001B6813F4807FF4D0E368012B05D1174A4C
:1011A800136A43F00103136222E063B903F1804339
:1011B80003F504331A6A22F001021A621A6A22F04D
:1011C80004021A6214E0052B09D10C4B1A6A42F08A
:1011D80004021A621A6A42F001021A6208E0074B16
:1011E8001A6A22F001021A621A6A22F004021A62CA
:1011F800E368CBB100F048FF06460FE0001002405C
:1012080000004242800442420070004000F03CFF6F
:10121800801B41F28833984200F28480494B1B6A54
:1012280013F0020FF2D00FE000F02EFF064606E0A2
:1012380000F02AFF801B41F28833984274D8414B52
:101248001B6A13F0020FF3D125B13E4AD36923F08C
:101258008053D361E369002B68D03A4A526802F0A0
:101268000C02082A64D0022B37D10022364B1A60B0
:1012780000F00AFF054604E000F006FF401B0228C4
:1012880058D8304B1B6813F0007FF5D1236AB3F5AB
:10129800803F06D12B494B6823F40032A3681343DF
:1012A8004B602848436823F47411236A626A134325
:1012B8000B4343600122244B1A6000F0E5FE04460C
:1012C80004E000F0E1FE001B022835D81D4B1B6826
:1012D80013F0007FF5D0002031E000221A4B1A608D
:1012E80000F0D2FE044604E000F0CEFE001B022807
:1012F80024D8144B1B6813F0007FF5D100201EE0A2
:1013080001201CE003201AE0032018E0012016E069
:10131800032014E0032012E0032010E003200EE075
:1013280003200CE003200AE0032008E0002006E088
:10133800012004E0032002E0032000E0032002B0C3
:1013480070BD00BF001002406000424230B486B059
:10135800164D02AC28686968AA68EB680FC42B8A26
:10136800ADF80430124B5A6802F00C03082B19D15F
:10137800C2F3834306A90B4413F8103C12F4803FD0
:101388000CD00B4A5268C2F340420A4412F8140CBB
:10139800084AB2FBF0F003FB00F004E0064800FB4B
:1013A80003F000E0034806B030BC7047384200083C
:1013B8000010024000127A0000093D0070B55C4B35
:1013C8001B6803F007038B420BD2594A136823F0BA
:1013D80007030B431360136803F007038B4240F0C5
:1013E8009780036813F0020F06D0524C636823F00D
:1013F800F0028368134363600D460446036813F0E4
:10140800010F4DD04268012A05D14A4B1B6813F4DD
:10141800003F0DD17EE0022A05D1464B1B6813F030
:10142800007F05D178E0434B1B6813F0020F75D09D
:1014380040494B6823F0030313434B6000F024FE3C
:1014480006466368012B0ED106E000F01DFE801BE6
:1014580041F28833984263D8364B5B6803F00C033B
:10146800042BF2D11CE0022B15D106E000F00CFE93
:10147800801B41F28833984254D82E4B5B6803F0A6
:101488000C03082BF2D10BE000F0FEFD801B41F2AB
:101498008833984248D8274B5B6813F00C0FF3D178
:1014A800234B1B6803F00703AB420AD9204A136891
:1014B80023F007032B431360136803F00703AB42C1
:1014C80034D1236813F0040F06D01A494B6823F46B
:1014D800E062E36813434B60236813F0080F07D0FA
:1014E800144A536823F46053216943EAC1035360E3
:1014F800FFF72CFF0F4B5B68C3F303130E4AD35C53
:10150800D8400E4B1860002000F08EFD002070BD02
:10151800012070BD012070BD012070BD012070BD8B
:10152800032070BD032070BD032070BD012070BD75
:1015380000200240001002404C4200080000002039
:10154800014B1868704700BF0000002008B5FFF77E
:10155800F7FF044B5B68C3F30223034AD35CD8400C
:1015680008BD00BF001002405C42000808B5FFF744
:10157800E7FF044B5B68C3F3C223034AD35CD8403C
:1015880008BD00BF001002405C42000830B4036A86
:1015980023F001030362036A4468826922F073023C
:1015A8000D682A4323F002038D682B43104DA8428F
:1015B80003D005F50065A84205D123F00803CD68DE
:1015C8002B4323F004030A4DA84203D005F5006518
:1015D800A84205D124F440744D692C438D692C43ED
:1015E800446082614A684263036230BC704700BF4E
:1015F800002C014030B4036A23F480730362036A49
:101608004468C26922F073020D682A4323F4007308
:101618008D6843EA0523124DA84203D005F50065FD
:10162800A84206D123F40063CD6843EA052323F4D6
:1016380080630B4DA84203D005F50065A84207D189
:1016480024F440544D6944EA05148D6944EA0514AC
:101658004460C2614A68C263036230BC704700BF1D
:10166800002C014030B4036A23F480530362036AF8
:101678004468C26922F4E6420D6842EA052223F46E
:1016880000538D6843EA0533094DA84203D005F598
:101698000065A84204D124F480444D6944EA8514C5
:1016A8004460C2614A680264036230BC704700BF8C
:1016B800002C014010B4036A046A24F00104046297
:1016C800846924F0F00444EA021223F00A0319435F
:1016D800826101625DF8044B704700BF10B4036A71
:1016E80023F0100303628469036A24F4704444EA13
:1016F800023223F0A00343EA0111826101625DF81E
:10170800044B704710B4846824F47F4442EA0323EE
:1017180019430C4384605DF8044B704710B50C46C0
:101728000268936823F0700349680B4323F00703AA
:1017380021680B4393606368502B1FD002D8402B5D
:101748000BD010BD602B1FD0702B22D10068E16830
:10175800A2682369FFF7D6FF10BD0368196A1A6AE1
:1017680022F001021A620268936923F0F0032469E7
:1017780043EA041393610368196210BD0068A16805
:101788002269FFF797FF10BD0068A1682269FFF77B
:10179800A5FF10BD704700BF022380F83D300268E6
:1017A800136843F001031360012380F83D300020E3
:1017B800704700BF704700BF38B590F83C30012B28
:1017C80018D00446012580F83C50022380F83D30AB
:1017D800FFF7A4FF2268D36823F04003D360226890
:1017E800D36823F48043D36084F83D50002084F804
:1017F8003C0038BD022038BD0368244A904212D00C
:1018080002F5006290420ED0B0F1804F0BD0A2F5E5
:101818009832904207D002F58062904203D002F5D8
:101828008062904203D123F070034A681343174A39
:10183800904212D002F5006290420ED0B0F1804F73
:101848000BD0A2F59832904207D002F58062904200
:1018580003D002F58062904203D123F44073CA6832
:10186800134323F080034A69134303608B68C36200
:101878000B688362054B984203D003F500639842D6
:1018880001D10B690363012343617047002C0140B8
:10189800C0B110B5044690F83D3013F0FF0F04D1E5
:1018A800002380F83C30FFF775FF022384F83D30B1
:1018B800214651F8040BFFF79FFF012384F83D30C0
:1018C800002010BD01207047C0B110B5044690F843
:1018D8003D3013F0FF0F04D1002380F83C30FFF7B0
:1018E80069FF022384F83D30214651F8040BFFF7C5
:1018F80083FF012384F83D30002010BD012070478C
:1019080030B4036A23F010030362036A44688269EF
:1019180022F4E6420D6842EA052223F020038D688E
:1019280043EA0513114DA84203D005F50065A84206
:1019380006D123F08003CD6843EA051323F0400362
:101948000A4DA84203D005F50065A84207D124F442
:1019580040644D6944EA85048D6944EA850444601D
:1019680082614A688263036230BC7047002C014080
:1019780038B590F83C30012B66D00D46044601235B
:1019880080F83C30022380F83D300C2A55D8DFE837
:1019980002F0075454541A5454542E5454544100C9
:1019A8000068FFF7F3FD2268936943F00803936129
:1019B8002268936923F004039361226891692B6973
:1019C8000B43936139E00068FFF79AFF2268936937
:1019D80043F4006393612268936923F480639361FD
:1019E80022689369296943EA0123936125E0006825
:1019F800FFF700FE2268D36943F00803D361226829
:101A0800D36923F00403D3612268D1692B690B439E
:101A1800D36112E00068FFF725FE2268D36943F41A
:101A28000063D3612268D36923F48063D361226899
:101A3800D369296943EA0123D361012384F83D303E
:101A4800002084F83C0038BD022038BD10B40123C2
:101A58008B40046A24EA03030362036A8A401A4338
:101A680002625DF8044B704710B504460068012215
:101A7800FFF7ECFF23680C4A934205D002F5006299
:101A8800934203D1012202E0012200E000221AB1B0
:101A98005A6C42F400425A642268136843F0010306
:101AA8001360002010BD00BF002C014010B40423B7
:101AB8008B40046A24EA03030362036A8A401A43D8
:101AC80002625DF8044B704710B5044600680422B2
:101AD800FFF7ECFF2268536C43F400435364226819
:101AE800136843F001031360002010BD90F83C30E8
:101AF800012B22D0012380F83C30CB6823F44072BC
:101B08008B68134323F480624B68134323F4006209
:101B18000B68134323F480520B69134323F40052D8
:101B28004B6913438A6923F440431343026853649F
:101B3800002380F83C30184670470220704700BFE9
:101B480090F83C30012B21D030B4012280F83C20A1
:101B5800022380F83D300468636823F070036360F3
:101B6800046865680B682B4363600468A36823F006
:101B78008003A3600468A5684B682B43A36080F8C2
:101B88003D20002380F83C30184601E002207047D1
:101B980030BC704790F82430012B27D0012380F8FF
:101BA800243003689A6812F0010F10D1124A926823
:101BB80012F0010F0BD1114A934208D110B45A68A0
:101BC80022F470240A6822435A60002309E0836AD9
:101BD80043F0200383620123002280F82420184662
:101BE8007047002280F82420184601E00220704740
:101BF8005DF8044B704700BF0028014000240140F5
:101C080000F00700064AD36823F4E0631B041B0CAA
:101C180043EA002040F0BF6040F40030D0607047D5
:101C280000ED00E030B4164BDC68C4F30224C4F1C4
:101C38000705042D28BF0425231D062B01D9033CC5
:101C480000E00024012303FA05F5013D2940A140E5
:101C5800A340013B1A400A43002806DA00F00F00AF
:101C68001201D2B2074B1A5407E01201D2B200F1A6
:101C7800604000F5614080F8002330BC704700BF29
:101C880000ED00E014ED00E0410900F01F00012321
:101C98008340024A42F82130704700BF00E100E06B
:101CA8000138B0F1807F0AD2064B5860F021064A0D
:101CB80082F823100020986007221A6070470120DC
:101CC800704700BF10E000E000ED00E0042805D1F7
:101CD800054A136843F0040313607047024A136807
:101CE80023F004031360704710E000E0704700BF62
:101CF80008B5FFF7FBFF08BDF0B583B000273C46E9
:101D0800E2E00122A2400B681340934240F0DB80DE
:101D18004D68122D2DD00BD8022D27D003D85DB3D6
:101D2800012D1ED035E0032D30D0112D1BD030E011
:101D3800684EB54220D008D8A6F58016B5421BD00B
:101D480006F58036B54224D116E0634EB54213D06D
:101D580006F58036B5420FD0A6F58016B54218D1E3
:101D68000AE0CF6815E0CF68043712E0CF6808377B
:101D78000FE0CF680C370CE08D684DB1012D02D112
:101D88000261082705E04261082702E0002700E019
:101D98000427FF2B01D8844601E000F1040CFF2B37
:101DA80002D84FEA840E03E0A4F1080E4FEA8E0E23
:101DB800DCF800600F2202FA0EF226EA020507FAA2
:101DC8000EF22A43CCF800204A6812F0805F7AD0DD
:101DD800424A956945F001059561926902F0010250
:101DE8000192019AA208961C3D4D55F8266004F010
:101DF800030E4FEA8E0E0F2505FA0EF526EA0506A4
:101E0800384DA8421FD005F58065A84219D005F5C0
:101E18008065A84213D005F58065A8420DD005F568
:101E28008065A84207D005F58065A84201D105253F
:101E38000AE0062508E0042506E0032504E002255B
:101E480002E0012500E0002505FA0EF535430232CF
:101E5800234E46F822504A6812F4803F04D0224D9F
:101E68002A681A432A6004E01F4D2A6822EA0302FE
:101E78002A604A6812F4003F04D01B4D6A681A436E
:101E88006A6004E0184D6A6822EA03026A604A68D8
:101E980012F4801F04D0144DAA681A43AA6004E003
:101EA800114DAA6822EA0302AA604A6812F4001FC8
:101EB80004D00D4DEA681343EB6004E00A4DEA686C
:101EC80022EA0303EB6001340F2C7FF61AAF03B04C
:101ED800F0BD00BF000021100000311000100240CA
:101EE80000000140000801400004014083680B42E3
:101EF80001D0012070470020704700BF0AB101617E
:101F08007047090401617047C3685940C160704750
:101F180070B582B00446036813F0010F5CD03E4BE5
:101F2800DB6913F0805F0BD13B4BDA6942F08052DA
:101F3800DA61DB6903F080530193019B012600E01D
:101F48000026364B1B6813F4807F12D1334A13687E
:101F580043F48073136000F097F8054604E000F03E
:101F680093F8401B64284FD82C4B1B6813F4807FD0
:101F7800F5D0294B1B6A13F4407321D0626802F430
:101F880040729A421CD0244A136A23F440702449B0
:101F980001250D6000250D60106213F0010F0FD0B0
:101FA80000F072F8054606E000F06EF8401B41F2BA
:101FB800883398422AD8184B1B6A13F0020FF3D0C3
:101FC80015490B6A23F44072636813430B621EB110
:101FD800CB6923F08053CB61236813F0020F06D03E
:101FE8000D494B6823F44042A36813434B602368B0
:101FF80013F0100F0CD008494B6823F48002636972
:1020080013434B60002004E0032002E0032000E0BB
:10201800002002B070BD00BF0010024000700040F8
:1020280040044242704700BF10B50446074B1B6886
:102038000748A0FB03308009FFF732FE4FF0FF305E
:1020480021460022FFF7EEFD002010BD0000002011
:10205800D34D621008B5074A136843F010031360A4
:102068000320FFF7CDFD0020FFF7DEFFFFF7DAFFC3
:10207800002008BD00200240024A136801331360A3
:10208800704700BFE4000020014B1868704700BF8C
:10209800E400002030B583B00190FFF7F5FF054656
:1020A800019CB4F1FF3F00D00134FFF7EDFF401B66
:1020B800A042FAD303B030BD704700BF70B483B0FC
:1020C8000023019390F82430012B00F08380012332
:1020D80080F824304B68062B0DD80668756B03EB27
:1020E8008303053B1F229A4025EA02040A689A40A6
:1020F800224372631CE00C2B0DD80668356B03EB8A
:102108008303233B1F229A4025EA02040A689A4067
:10211800224332630CE00668F56A03EB8303413B14
:102128001F229A4025EA02040A689A402243F26272
:102138000B68092B0DD90668F56803EB43031E3BB2
:1021480007229A4025EA02048A689A402243F260EC
:102158000BE00668356903EB430307229A4025EA3A
:1021680002048A689A40224332610B68103B012BB3
:1021780026D80368194A93421CD19A6812F4000FB2
:1021880020D19A6842F400029A600B68102B1BD188
:10219800134B1B68134AA2FB03239B0C03EB83031B
:1021A8005B00019302E0019B013B0193019B002B23
:1021B800F9D10AE0836A43F020038362012304E033
:1021C800002302E0002300E00023002280F82420FE
:1021D800184600E0022003B070BC7047002401409C
:1021E8000000002083DE1B4330B583B00023019339
:1021F80003689A6812F0010F2FD19A6842F0010221
:102208009A60174B1B68174AA2FB03239B0C019388
:1022180002E0019B013B0193019B002BF9D104468D
:10222800FFF732FF054611E0FFF72EFF401B02289B
:102238000CD9A36A43F01003A362E36A43F00103D5
:10224800E362002384F82430012007E023689B68B8
:1022580013F0010FE8D0002000E0002003B030BDEB
:102268000000002083DE1B4390F82430012B70D03F
:1022780010B50446012380F82430FFF7B5FF034664
:10228800002861D1A26A22F4407222F0010242F4CD
:102298008072A262226830498A4205D1A1F5806124
:1022A800496811F4702F0ED1A16A21F48011A1623E
:1022B800516811F4806F1CD0A16A21F4405141F497
:1022C8008051A16215E0A16A41F48011A1622349FD
:1022D8008A4203D001F580618A420AD11F494968C0
:1022E80011F4806F05D0A16A21F4405141F4805166
:1022F800A162A16A11F4805F04D0E16A21F00601AD
:10230800E16201E00021E162002184F824106FF00D
:10231800020111602268916801F46021B1F5602F13
:102328000DD10D498A4205D1A1F58061496811F4A2
:10233800702F04D1916841F4A001916007E0916881
:1023480041F48011916002E0002284F824201846AC
:1023580010BD0220704700BF002801400024014042
:1023680038B503689A6812F0010F1ED004469A68BF
:1023780022F001029A60FFF787FE05460EE0FFF79C
:1023880083FE401B022809D9A36A43F01003A36205
:10239800E36A43F00103E362012038BD23689B68C8
:1023A80013F0010FEBD1002038BD002038BD00BF6D
:1023B800002800F0888070B50446836A23B9C36298
:1023C80080F82430FFF778FE2046FFF7C9FFA36A9C
:1023D80013F0100F71D100286FD1A36A23F488532A
:1023E80023F0020343F00203A36262682168374BBB
:1023F800994206D1E369B3F5402F03D14FF4002386
:1024080000E0E3691343E56843EA4503A268B2F5CF
:10241800807F04D0012A05D14FF4807203E04FF485
:10242800807200E000226669012E0FD135B9A569D6
:10243800013D42EA453242F4006207E0A56A45F0F0
:102448002005A562E56A45F00105E5624D6825F4B9
:1024580069452A434A6021688D681D4A2A401A4303
:102468008A60A268B2F5807F01D0012A03D122696F
:10247800013A110500E000212568EA6A22F4700299
:102488000A43EA6222689168124A0A40934208D1D4
:102498000023E362A36A23F0030343F00103A3626A
:1024A80070BDA36A23F0120343F01003A362E36A2A
:1024B80043F00103E362012070BDA36A43F01003F7
:1024C800A362012070BD0120704700BF003C01409D
:1024D800FDF7E1FFFE0E1FFF2DE9F8438146016875
:1024E8000B6923F44052C36813430B618168036985
:1024F8001943436919430068C26822F4B05323F0B2
:102508000C030B43C360D9F800104B6923F44072E5
:10251800D9F8183013434B61D9F800505B4B9D42F2
:1025280059D1FFF723F800EB800000EB8000D9F8C1
:102538000440A400B0FBF4F4554EA6FB043464092F
:102548002401FFF713F800EB800000EB8000D9F8B6
:1025580004309B00B0FBF3F7FFF708F800EB8000AE
:1025680000EB8000D9F804309B00B0FBF3F3A6FB26
:1025780003235B094FF0640808FB13731B01323314
:10258800A6FB03235B0903F0F0031C44FEF7EEFFF0
:1025980000EB800000EB8000D9F804309B00B0FB12
:1025A800F3F7FEF7E3FF00EB800000EB8000D9F8BB
:1025B80004309B00B0FBF3F3A6FB03235B0908FB85
:1025C80013731B013233A6FB0323C3F343131C44C9
:1025D800AC60BDE8F883FEF7B9FF00EB800000EBC4
:1025E8008000D9F80440A400B0FBF4F4284EA6FB00
:1025F800043464092401FEF7A9FF00EB800000EB16
:102608008000D9F804309B00B0FBF3F7FEF79EFF7B
:1026180000EB800000EB8000D9F804309B00B0FB91
:10262800F3F3A6FB03235B094FF0640808FB13735D
:102638001B013233A6FB03235B0903F0F0031C44A0
:10264800FEF784FF00EB800000EB8000D9F804302F
:102658009B00B0FBF3F7FEF779FF00EB800000EB7F
:102668008000D9F804309B00B0FBF3F3A6FB0323EA
:102678005B0908FB13731B013233A6FB0323C3F367
:1026880043131C44AC60BDE8F88300BF0038014028
:102698001F85EB51704700BF68B310B5044690F82A
:1026A800393013F0FF0F04D1002380F83830FFF7DA
:1026B800F1FF242384F839302268D36823F40053C7
:1026C800D3602046FFF708FF2268136923F490437C
:1026D80013612268536923F02A0353612268D3687F
:1026E80043F40053D3600020E063202384F839309A
:1026F80084F83A3010BD0120704700BF0F4B1A68AC
:1027080042F001021A6059680D4A0A405A601A6874
:1027180022F0847222F480321A601A6822F480222D
:102728001A605A6822F4FE025A604FF41F029A6037
:102738004FF00062034B9A60704700BF00100240E0
:102748000000FFF800ED00E030B597B01F4BDA69E4
:1027580042F48022DA61DA6902F480220092009A57
:102768005A6942F001025A615B6903F0010301935F
:10277800019B174D06954FF4E13307930024089405
:1027880009940A9408230B930C940D9406A8FFF758
:1027980083FF6B6943F080036B614FF4806302939E
:1027A800012304930223039303230593094802A9F1
:1027B800FFF7A2FA084B1C60084A9A605C609022F6
:1027C8001A6070221C3B5A6017B030BD00100240DE
:1027D80000480040000C01401C0002400448004032
:1027E8002DE9F04F89B0764B9A6942F004029A615C
:1027F8009A6902F004020192019A9A6942F0080269
:102808009A619A6902F008020292029A9A6942F061
:1028180010029A619B6903F010030393039B002342
:10282800059306934FF00208CDF81C804FF0200B5B
:102838000DEB0B0444F810BD62482146FFF75CFA23
:10284800402504955F482146FFF756FA4FF0800A65
:10285800CDF810A05B482146FFF74EFA4FF480668A
:10286800049659482146FFF747FA4FF4006304934A
:1028780055482146FFF740FA4FF4805704975248CD
:102888002146FFF739FA049750482146FFF734FAF2
:10289800CDF810804D482146FFF72EFA4FF0010978
:1028A800CDF814900427049746482146FFF724FAE8
:1028B8001023049345482146FFF71EFACDF810B0BF
:1028C80042482146FFF718FA03230593CDF81090E4
:1028D8003D482146FFF710FACDF810903B482146B5
:1028E800FFF70AFA0823049337482146FFF704FA4A
:1028F800CDF8108034482146FFF7FEF910230493E1
:1029080031482146FFF7F8F9CDF810B02E48214696
:10291800FFF7F2F904972C482146FFF7EDF9CDF8B7
:102928001480049528482146FFF7E6F9CDF810A051
:1029380025482146FFF7E0F94FF4807BCDF810B029
:1029480021482146FFF7D8F9CDF810A01F482146A5
:10295800FFF7D2F9CDF810901A482146FFF7CCF9C5
:10296800CDF8108017482146FFF7C6F9CDF810B00A
:1029780016482146FFF7C0F94FF400730493134833
:102988002146FFF7B9F9049610482146FFF7B4F934
:102998004FF4005304930B482146FFF7ADF94FF469
:1029A8008043049307482146FFF7A6F94FF40043F4
:1029B800049304482146FFF79FF909B0BDE8F08F5A
:1029C80000100240000C01400010014000080140C6
:1029D8002DE9F04F99B0754B9A6942F400629A61FB
:1029E8009A6902F400620192019A9A6942F40052CB
:1029F8009A619B6903F400530293029B6C4EDFF8C3
:102A0800B891C6F80090002474604FF02008C6F80A
:102A180008804FF4FA6BC6F80CB034617461B46185
:102A28003046FEF751FF102316931794304616A927
:102A3800FFF786F860230F931094119408271297D4
:102A4800139414944FF40073159330460FA922463B
:102A5800FEF78EFF30460FA90422FEF789FF3046A5
:102A68000FA93A46FEF784FF4FF4006308934FF42A
:102A7800806309930A94CDF82C800C940D940E94DD
:102A880030460DEB0801FFF731F84A4DDFF82CA16D
:102A9800C5F800A06C60C5F80880C5F80CB02C61BA
:102AA8006C61AC612846FEF70FFFCDF85880802393
:102AB8001793284616A9FFF743F8049418A9052385
:102AC80041F8543D2846FEF777FE60230F93109493
:102AD80011941297139414944FF400731593284685
:102AE8000FA92246FEF744FF28460FA90422FEF745
:102AF8003FFF28460FA93A46FEF73AFF4FF4006316
:102B080008934FF4806309930A94CDF82C800C94B1
:102B18000D940E9428460DEB0801FEF7E7FFDAF84E
:102B2800443023F40043CAF84430D9F8443023F43D
:102B38000043C9F8443028462146FEF795FF284649
:102B48000421FEF791FF28463946FEF78DFF2846F7
:102B58002146FEF7B9FF28460421FEF7B5FF2846AF
:102B68003946FEF7B1FF30462146FEF77DFF304675
:102B78000421FEF779FF30463946FEF775FF3046E7
:102B88002146FEF7A1FF30460421FEF79DFF30469F
:102B98003946FEF799FF2B6801221A6332681368D9
:102BA80043F00103136019B0BDE8F08F0010024034
:102BB800180100209C010020002C01400034014035
:102BC8002DE9F04387B0414EB36943F40073B36114
:102BD800B36903F400730093009B3D4C3D4B2360A5
:102BE8004FF48073A3600025E56065614FF44023CE
:102BF800E36165604FF00508C4F810802046FFF7D0
:102C0800D7FB354A536843F48023536006A94FF431
:102C1800C02341F8043D2046FEF7BCFF012304937E
:102C28000E2202920393204602A9FFF747FA029563
:102C380002270397204602A9FFF740FA04970B27BB
:102C4800029703230393204602A9FFF737FA4FF0B0
:102C58000C09CDF8089004230393204602A9FFF736
:102C68002DFACDF80890CDF80C80204602A9FFF780
:102C780025FA23689A6842F480729A609A6842F04A
:102C880001029A60736943F001037361736903F089
:102C980001030193019B114B1D60C3F80480104A86
:102CA8009A60104ADA6040F6A2221A601A6842F066
:102CB80001021A60384629462A46FEF7B3FF38460D
:102CC800FEF7E2FF07B0BDE8F08300BF0010024046
:102CD8005801002000240140000001400800024083
:102CE8004C24014088010020F0B585B0274B9A6933
:102CF80042F480629A619B6903F480630093009BAD
:102D0800234C244B23604FF48073A3600023E360BB
:102D180063614FF46022E261636005262661204604
:102D2800FFF746FB012303930F22019202932046EB
:102D380001A9FFF7C3F90D23019302250295204647
:102D480001A9FFF7BBF903950A230193032702970B
:102D5800204601A9FFF7B2F9019504230293204602
:102D68000DEB0301FFF7AAF901970296204601A986
:102D7800FFF7A4F923689A6842F480729A609A6807
:102D880042F001029A6005B0F0BD00BF0010024099
:102D9800E8000020002801404FF08042536A9BB2AF
:102DA8000021516240F6B832934202D90F4B197094
:102DB80070470E4A1278052A16D800200C49086078
:102DC800B3F5FA6F08D8B3F57A7F03D3A3F57A730E
:102DD8009BB203E0002301E04FF47A73054921F820
:102DE80012300132014B1A70704700BFAE0000204C
:102DF80004000020A000002030B587B0082302930B
:102E08001A4B03930323059302230493184802A93A
:102E1800FEF772FF174BDA6942F00102DA61DB69EB
:102E280003F001030193019B134C4FF0804323608F
:102E38004FF6FF73E360114B1B68114AA2FB032393
:102E48009B0C013B636000252561A5602046FEF7C9
:102E58001FFD092029462A46FEF7E4FE0920FEF751
:102E680013FF2046FEF798FC07B030BD0000211084
:102E78000008014000100240DC0100200000002092
:102E880083DE1B4330B597B002250C9501231093C0
:102E9800102311931395002414944FF46013159381
:102EA8000CA8FEF753F80F230793089509944FF4DD
:102EB80080630A930B9407A82946FEF77FFA0195C9
:102EC8004FF44043039301A8FFF722F8FEF738FBBD
:102ED800084BA3FB00308009FEF7E2FE0420FEF752
:102EE800F5FE4FF0FF3021462246FEF79BFE17B055
:102EF80030BD00BFD34D62102DE9F04782B0FFF717
:102F0800A9F8CE4CA36943F00103A361A36903F0B8
:102F180001030193019B0320FEF772FE6FF00B0083
:102F280000210A46FEF77EFE6FF00A0000210A46DD
:102F3800FEF778FE6FF0090000210A46FEF772FEE0
:102F48006FF0040000210A46FEF76CFE6FF00300E4
:102F580000210A46FEF766FE6FF0010000210A46CE
:102F6800FEF760FE4FF0FF3000210A46FEF75AFEDA
:102F7800FFF788FF636923F001036361FFF730FC03
:102F8800FFF726FDFFF71CFEFFF7AEFEFFF7DCFBA1
:102F9800AB4820210122FEF7B1FFAA48FFF764F9E8
:102FA800A948FFF761F9082405E0A84B1C706420C4
:102FB800FFF770F8013C002CF7DA0024A34B1C70D3
:102FC800A34804210122FEF799FFFFF715FF01220C
:102FD800A04B1A70A04601E0B0462C460A20FFF725
:102FE80059F8DFF88892B9F80250ADB2A5F5FA752C
:102FF800B9F8000080B2A0F5FA70FDF795FA002242
:10300800954BFDF7F7FA06460F462846FDF78CFA6A
:1030180032463B46FDF73CF906460F46B9F8040030
:1030280080B2FDF781FA00228C4BFDF70DFC0246B9
:103038000B4630463946FDF7DDFA0022884BFDF78E
:1030480069FD002864D1B9F80250ADB2A5F5FA754A
:10305800B9F8000080B2A0F5FA70FDF765FA002211
:103068007D4BFDF7C7FA06460F462846FDF75CFA82
:1030780032463B46FDF70CF906460F46B9F8040000
:1030880080B2FDF751FA0022744BFDF7DDFB0246D2
:103098000B4630463946FDF7ADFA0022714BFDF775
:1030A8001BFD90BBB9F80250ADB2A5F5FA75B9F899
:1030B800000080B2A0F5FA70FDF736FA0022664BE0
:1030C800FDF798FA06460F462846FDF72DFA3246D0
:1030D8003B46FDF7DDF806460F46B9F8040080B216
:1030E800FDF722FA00225D4BFDF7AEFB02460B46C8
:1030F80030463946FDF77EFA02460B46104603F184
:103108000041FDF711FD054603E04FF4487500E066
:10311800554DDFF85891B9F802A01FFA8AFAAAF5B6
:10312800FA7AB9F8000080B2A0F5FA70FDF7FCF958
:103138000022494BFDF75EFA06460F465046FDF75A
:10314800F3F932463B46FDF7A1F806460F46B9F8B3
:10315800040080B2FDF7E8F90022404BFDF774FB4C
:1031680002460B4630463946FDF744FA00223C4BEE
:10317800FDF7D0FC00287BD1B9F802A01FFA8AFA23
:10318800AAF5FA7AB9F8000080B2A0F5FA70FDF74E
:10319800CBF90022304BFDF72DFA06460F46504674
:1031A800FDF7C2F932463B46FDF770F806460F4672
:1031B800B9F8040080B2FDF7B7F90022274BFDF7F4
:1031C80043FB02460B4630463946FDF713FA002208
:1031D800244BFDF781FC70BBB9F802A01FFA8AFAEC
:1031E800AAF5FA7AB9F8000080B2A0F5FA70FDF7EE
:1031F8009BF90022184BFDF7FDF906460F4650468D
:10320800FDF792F932463B46FDF740F806460F4671
:10321800B9F8040080B2FDF787F900220F4BFDF7DB
:1032280013FB02460B4630463946FDF7E3F9FDF736
:103238007BFC06461EE00C4E1CE000BF001002405E
:103248000008014058010020E8000020D4000020B8
:10325800000C0140D50000200000E03F00407F4006
:1032680000008940000089C0E0FCFFFFA0000020AA
:103278004FF4487604F132039D4212DA323CA542FB
:103288000FDD08F132039E420BDAA8F132084645F9
:1032980007DD384B1B68312B03D8374B1E60374B83
:1032A8001D600020314600F0DFFA0120294600F0B9
:1032B800DBFA00F0DFFA2F4A136801331360304855
:1032C8000221FEF713FE88B100242E4B1C7005E086
:1032D8002D4B1C706420FEF7DDFE0134072CF7DD52
:1032E800274820210022FEF709FEFEE7274B1C682D
:1032F80020462749FDF7ECFD58B120462549FDF742
:1033080005FE30B10522204B1A700822224B1A7094
:1033180062E620461F49FDF7DBFD58B120461F49EC
:10332800FDF7F4FD30B10522174B1A7001221A4B34
:103338001A7051E620461949FDF7CAFD98B10024D4
:10334800154B1C700F4B1C7005E00F4B1C70642054
:10335800FEF7A0FE0134072CF7DD094820210022E2
:10336800FEF7CCFDFEE70023074A13700A4A1370E4
:1033780032E600BF04000020B8000020B0000020A2
:1033880000080140D5000020D40000201C020020C5
:103398000000104200000442BC0000200000F04180
:1033A800F8B502229C4B5A609C4B1B68B3F57A7F98
:1033B8003ADA0133994A1360994A938899B299483D
:1033C80003680B4403EBD3735B100360D38899B293
:1033D800954803680B4403EBD3735B1003601388B1
:1033E80099B2924803680B4403EBD3735B100360F4
:1033F800538899B28E4803680B4403EBD3735B1070
:103408000360538999B28B4803680B4403EBD37369
:103418005B10036013899AB287490B68134403EB66
:10342800D3735B100B60F8BD844D2868FDF78EF8E8
:1034380071A3D3E90023FDF7DDF806460F46784C63
:10344800A08980B2FDF79EFCFDF780F86CA3D3E954
:103458000023FDF7CFF86CA3D3E90023FDF7CAF8E2
:1034680002460B4630463946FCF712FFFDF784FB4F
:10347800286063899BB26F4A1068181AFDF754F8E0
:1034880063A3D3E90023FDF7B5F800226C4BFDF7E1
:1034980041FB30B96B4B1B68322B02D86A4B1B7847
:1034A8002BB96A4A536C23F40043536404E0674A17
:1034B800536C43F400435364594B1B899BB25E4AD7
:1034C8001068181AFDF730F851A3D3E90023FDF767
:1034D80091F800225A4BFDF71DFB30B9594B1B6878
:1034E800322B02D8584B1B782BB9594A536C23F40A
:1034F8000043536404E0564A536C43F40043536456
:10350800544A936813F0200F0CBF012100219368DF
:1035180013F0400F0CBF01230023926812F0800FB4
:103528000CBF012400244C4A906810F4806F0CBF33
:1035380001200020956815F4006F0CBF01260026B5
:10354800926812F4805F03EB440301EB4303434D9D
:10355800EB5C43490B600B6803F102030B600C68DA
:10356800404B83FB0472A2EBE47202EB42024FEA87
:103578004202A4EB02020A600CBF0222002232447B
:1035880000EB4202A85C384A1060106802301060F4
:10359800106883FB0043A3EBE07303EB43035B007A
:1035A800C31A13600B681E4CA28892B21D490968A1
:1035B800501AE28892B21C4C2468121B052B57D86B
:1035C800DFE803F003070A0D1013821A274B1A606D
:1035D80051E0264B18604EE0244B18604BE0234B1B
:1035E8001A6048E0214B1A6045E0121A1F4B1A6016
:1035F80041E000BFAFF30080AE47E17A14AEEF3F81
:10360800F5E4E827181C9B3F7B14AE47E17A843F1A
:103618007B14AE47E17A943F00000240B4000020DA
:1036280088010020080000200C000020180000205D
:103638001C00002010000020140000201C020020A4
:103648000000404004000020D50000200034014064
:10365800002C0140000C01400010014064420008A9
:10366800C0000020ABAAAA2AC8000020CC00002075
:1036780000226E4B1A606E4B9A8893B2591A00D585
:1036880007310220C91000F0EFF8694BDB889BB2C4
:10369800684A1168591A00D507310320014100F022
:1036A800E3F8654A136801331360644A13880133E9
:1036B8009BB21380624A1478ACB1624AA2FB03122F
:1036C800520961490978013192FBF1F001FB10229E
:1036D8004AB993FBF4F204FB12334BB95B4810214F
:1036E800FEF712FC04E0594810210022FEF706FC00
:1036F800574B1A68574B1B68052B1AD8DFE803F09D
:1037080003070B0E111514465242002514E05542CA
:103718001446002210E0554200240DE054420025D2
:103728000AE054421546002206E01546524200249B
:1037380002E0002214461546474B1B6847490968B2
:1037480005291AD8DFE801F003070B0E11151946F1
:103758005B42002014E058421946002310E058420A
:1037680000210DE0594200200AE059421846002382
:1037780006E018465B42002102E00023194618467D
:1037880005F57A7540F2C676B54203DC0A2DB8BF56
:103798000A2501E040F2C675314E756304F57A7466
:1037A80040F2C675AC4203DC0A2CB8BF0A2401E01B
:1037B80040F2C6742A4DAC6302F57A7240F2C674C0
:1037C800A24203DC0A2AB8BF0A2201E040F2C6720C
:1037D800234CE26300F57A7240F2C670824203DC41
:1037E8000A2AB8BF0A2201E040F2C6721D484263A5
:1037F80001F57A7240F2C6718A4203DC0A2AB8BF20
:103808000A2201E040F2C67216498A6303F57A7308
:1038180040F2C672934203DC0A2BB8BF0A2301E0C8
:1038280040F2C6730F4AD363F8BD00BFCC00002036
:10383800880100200C000020D0000020C4000020D7
:10384800D4000020F1197605BC00002000080140D2
:10385800B0000020C0000020B8000020C8000020F0
:1038680000340140002C0140014B23F81010704730
:103878008402002030B583B0144C20460021642215
:1038880000F098F812490A884B888888C98800B2DD
:10389800009009B2019120460E4912B21BB200F005
:1038A80091F80D4B5B6873B90B4C236823F0010347
:1038B8002360064D284600F0A9F86060E56023689B
:1038C80043F00103236003B030BD00BF2002002095
:1038D800840200206C4200081C000240704700BFB0
:1038E800FEE700BFFEE700BFFEE700BFFEE700BF40
:1038F800704700BF704700BF704700BF08B5FEF7AC
:10390800BBFBFEF7F5F908BD08B5FFF745FA082235
:10391800014B5A6108BD00BF00040140002103E0CB
:103928000B4B5B58435004310A480B4B42189A42E0
:10393800F6D30A4A02E0002342F8043B084B9A42B5
:10394800F9D3FEF7DBFE00F00FF8FFF7D5FA704762
:10395800BC420008000000208400002084000020F1
:10396800D8020020FEE700000E4B70B51E460E4C34
:103978000025E41AA410A54204D056F8253098472B
:103988000135F8E700F048FC084B094C1E46E41ADC
:10399800A4100025A54204D056F8253098470135D3
:1039A800F8E770BDB4420008B4420008B442000809
:1039B800B842000803460244934202D003F8011BB0
:1039C800FAE770470EB400B54FF402719CB0ADF839
:1039D80014106FF00041049107914FF6FF711DAB71
:1039E800ADF81610084953F8042B029006900868A1
:1039F80002A9019300F06CF8029B00221A701CB017
:103A08005DF804EB03B0704780000020034613F80C
:103A1800012B002AFBD1181A013870472DE9F0470D
:103A28008E688246B3420C469046994640D38A89AE
:103A380012F4906F3AD02568096902236F1A6569F4
:103A480005EB450595FBF3F57B1C4B449D4238BFC0
:103A58001D4653050FD5294600F03AFB064698B196
:103A680021693A4600F0CAFAA38923F4906343F027
:103A78008003A38113E02A4600F080FB064670B954
:103A88005046216900F0E0FA0C23CAF80030A389F7
:103A98004FF0FF3043F04003A381BDE8F087266173
:103AA8003E4426604E466561ED1BA560B14500D2D7
:103AB8004E4632462068414600F0ABFAA368002023
:103AC8009B1BA36023681E442660BDE8F0870000A6
:103AD8002DE9F0439DB003938B8906461C060D46DD
:103AE80090460CD50B6953B9402100F0F1FA2860D3
:103AF800286110B90C233360CCE040236B610023AC
:103B0800099320238DF8293030238DF82A30434635
:103B18001C4613F8012B1AB9B4EB08090FD002E0C0
:103B2800252AF5D1F8E73046294642464B46FFF7A5
:103B380075FF013000F0A980099B4B440993237855
:103B4800002B00F0A28000234FF0FF32049307936C
:103B5800059206938DF853301A9304F101084446F0
:103B6800DFF8489121784846052200F039FA08F133
:103B78000108049B30B1C9EB0000012282401343C5
:103B88000493ECE7D80644BF20228DF85320190788
:103B980044BF2B228DF8532022782A2A02D0079975
:103BA80023460EE0039A0134111D12680391002A7E
:103BB800BBBF524243F0020307920792B8BF049377
:103BC8000AE01C4622780133303A092A03D80A2031
:103BD80000FB0121F5E7079123782E2B1AD1637892
:103BE8002A2B0AD1039B02341A1D1B680392002B4F
:103BF800B8BF4FF0FF3305930CE0611C00220C4660
:103C080023780131303B092B03D80A2000FB02320C
:103C1800F5E70592DFF8988021784046032200F006
:103C2800DFF938B1049AC8EB0000402383401343FE
:103C38000493013421781A48062204F101088DF80A
:103C4800281000F0CDF988B1164B33B9039B073320
:103C580023F007030833039313E003AB00933046C4
:103C680004A92A46104BAFF3008007E003AB00938A
:103C7800304604A92A460C4B00F092F8421C07462D
:103C880003D0099B3B44099341E7AB895B0601D408
:103C9800099801E04FF0FF301DB0BDE8F08300BF88
:103CA8008842000800000000253A00087E4200080B
:103CB800844200082DE9F84391461F468A680B693B
:103CC80006469342B8BF1346C9F8003091F843201E
:103CD8000C46DDF8208012B10133C9F800302368A2
:103CE800990642BFD9F800300233C9F80030256878
:103CF80015F006051CD094F843302268003318BF2D
:103D0800012392061FD5E118302081F843005A1C80
:103D180094F845102244023382F8431013E03046E9
:103D2800394604F119020123C047013007D0013593
:103D3800E368D9F800209B1A9D42F0DBDBE74FF0DF
:103D4800FF30BDE8F8833046394604F14302C047E6
:103D58000130F4D02268D9F80050E36802F0060276
:103D6800042A08BF5D1B2269A3680CBF25EAE57514
:103D780000259342C4BF9B1AED184FF00009A945CE
:103D88000ADA3046394604F11A020123C0470130E5
:103D9800D5D009F10109F2E70020BDE8F883000059
:103DA8002DE9FF410C461746227E98466E2A0646A4
:103DB8000A9B01F1430100F0B08012D8632A23D096
:103DC8000AD8002A00F0BD80582A40F0CC8084F838
:103DD8004520DFF804E257E0642A1ED0692A1CD087
:103DE800C1E0732A00F0B18009D86F2A2ED0702A5A
:103DF80040F0B980226842F0200222603FE0752A34
:103E080024D0782A3BD0AEE01A6804F14205111D8F
:103E18001960136884F84230A9E020681A6810F025
:103E2800800F02D0101D186008E010F0400F02F15A
:103E38000400186002D0B2F9003000E01368002BCB
:103E48003EDA2D225B4284F8432039E020681A6864
:103E580010F0800F02D0101D186007E010F0400F1E
:103E680002F10400186001D0138800E01368227E74
:103E7800DFF864E16F2A0CBF08220A221CE07822CE
:103E8800DFF858E184F845202268186812F0800F9E
:103E980000F104051D6003D1550601D5038800E033
:103EA8000368D00744BF42F0200222601BB9226891
:103EB80022F0200222601022002084F8430002E051
:103EC800DFF814E10A226568002DA8BF2068A56004
:103ED800A4BF20F00400206003B965B10D46B3FB10
:103EE800F2F002FB10331EF8033005F8013D0346DB
:103EF8000028F4D100E00D46082A0BD12368DA0720
:103F080008D5236962689A42DEBF302305F8013C70
:103F180005F1FF35491B21612EE025681A6815F067
:103F2800800F606903D0151D1D60136808E015F047
:103F3800400F02F104051D60136801D0188000E0ED
:103F48001860002323610D4616E01A68111D1960D8
:103F5800156800212846626800F042F808B1401B45
:103F68006060636804E004F1420584F8422001239C
:103F78002361002384F84330CDF800803046214681
:103F880003AA3B46FFF796FE013002D14FF0FF30FF
:103F98001FE0304639462A462369C0470130F5D02C
:103FA80023689B0705D4E068039B9842B8BF18466E
:103FB8000FE00025E368039A9B1A9D42F3DA304626
:103FC800394604F119020123C0470130DED001351A
:103FD800F0E704B0BDE8F0818F420008A042000875
:103FE80010B5C9B202449042034605D01C7801308E
:103FF8008C42F8D1184610BD002010BD10B5431EE4
:104008000A44914204D011F8014B03F8014FF8E734
:1040180010BD814210B501EB020301D3421E0BE033
:104028009842FBD28118D21AD34204D013F8014D1A
:1040380001F8014DF8E710BD994204D011F8014B81
:1040480002F8014FF8E710BD30B500293CD051F80F
:10405800042C0B1F1D49002AB8BF9B180A680C4680
:1040680012B95A600B6030BD93420DD219685818C6
:10407800904201BF5A5852181A60426823605A6029
:1040880030BD994203D80A4651680029F9D114680D
:1040980015199D420AD11B682344D0188842136021
:1040A80012D10868034413604B680CE002D90C2352
:1040B800036030BD1C681819884201BF0868496848
:1040C800001918605960536030BD00BFDC00002043
:1040D80070B5CC1C24F0030408340C2C38BF0C2415
:1040E800002C064603DA0C233360002070BD8C4296
:1040F800F9D3204A136810461946A1B10A68121B61
:104108000ED40B2A03D90A608B188C501FE08B42FF
:104118000BBF5A684A6802605A6018BF0B4616E01F
:104128000B464968E9E7144D2B681BB9304600F087
:104138004BF828603046214600F046F8421C0346FA
:10414800D1D0C51C25F0030585420AD11C6003F1B6
:104158000B001A1D20F00700821A0AD0514299500C
:1041680070BD3046E91A00F02FF80130BBD02B465D
:10417800ECE770BDDC000020D8000020F8B5074649
:1041880015460E4621B91146BDE8F840FFF7A0BF15
:104198001AB9FFF759FF2846F8BD00F025F8A842DC
:1041A8000ED238462946FFF793FF044650B13146F0
:1041B8002A46FFF723FF38463146FFF745FF01E05F
:1041C8003046F8BD2046F8BD38B5064C00230546F4
:1041D8000846236000F012F8431C02D1236803B19B
:1041E8002B6038BDD402002051F8040C0028BEBF53
:1041F800091851F8043CC01804387047044A0549A6
:104208001368002B08BF0B46184410601846704707
:10421800E0000020D8020020F8B500BFF8BC08BCB8
:104228009E467047F8B500BFF8BC08BC9E4670476C
:1042380002030405060708090A0B0C0D0E0F1010DF
:104248000102000000000000000000000102030459
:10425800060708090000000001020304000002012B
:104268000405030025693B25693B25693B25690A47
:104278000D0000004300232D302B2000686C4C00FB
:10428800656667454647003031323334353637384E
:1042980039414243444546003031323334353637AC
:0C42A80038396162636465660000000044
:0442B40055020008A7
:0442B8002D020008CB
:1042BC0000A24A0464000000D0070000D0070000F0
:1042CC00D0070000D0070000D0070000D007000086
:1042DC0000000000000000000000000000000000D2
:1042EC0000000000000000000000000000000000C2
:1042FC007C420008000000000000000000000000EC
:10430C0000000000000000000000000000000000A1
:10431C000000000000000000000000000000000091
:10432C000000000000000000000000000000000081
:04433C00200000203D
:040000050800392591
:00000001FF
