:020000040800F2
:1000000000C00020D9450008AD450008B1450008F2
:10001000B5450008B9450008BD45000800000000CE
:10002000000000000000000000000000C1450008C2
:10003000C545000800000000C9450008CD4500087E
:1000400029460008294600082946000829460008D4
:1000500029460008294600082946000829460008C4
:10006000294600082946000829460008493E00089C
:1000700029460008294600082946000829460008A4
:100080002946000829460008294600082946000894
:100090002946000829460008294600082946000884
:1000A0002946000829460008294600082946000874
:1000B0002946000829460008294600082946000864
:1000C0002946000829460008294600082946000854
:1000D0002946000829460008294600082946000844
:1000E0002946000829460008294600082946000834
:1000F0002946000829460008294600082946000824
:100100002946000829460008294600082946000813
:100110002946000829460008294600082946000803
:1001200029460008294600082946000829460008F3
:1001300000000000000000000000000000000000BF
:1001400000000000000000000000000000000000AF
:10015000000000000000000000000000000000009F
:10016000000000000000000000000000000000008F
:10017000000000000000000000000000000000007F
:10018000000000000000000000000000000000006F
:10019000000000000000000000000000000000005F
:1001A000000000000000000000000000000000004F
:1001B000000000000000000000000000000000003F
:1001C000000000000000000000000000000000002F
:1001D000000000000000000000000000000000001F
:0401E0005FF8E0F1F3
:1001E80010B5054C237833B9044B13B10448AFF369
:1001F80000800123237010BD88000020000000004B
:10020800C44E000808B5064B1BB106480649AFF3B3
:1002180000800648036813B1054B03B1984708BD31
:1002280000000000C44E00088C0000208800002058
:100238000000000081F0004102E000BF83F00043AD
:1002480030B54FEA41044FEA430594EA050F08BF69
:1002580090EA020F1FBF54EA000C55EA020C7FEA2D
:10026800645C7FEA655C00F0E2804FEA5454D4EBAA
:100278005555B8BF6D420CDD2C4480EA020281EA74
:10028800030382EA000083EA010180EA020281EAAC
:100298000303362D88BF30BD11F0004F4FEA0131FE
:1002A8004FF4801C4CEA113102D0404261EB41010D
:1002B80013F0004F4FEA03334CEA133302D0524293
:1002C80063EB430394EA050F00F0A780A4F101044F
:1002D800D5F1200E0DDB02FA0EFC22FA05F2801889
:1002E80041F1000103FA0EF2801843FA05F359416F
:1002F8000EE0A5F120050EF1200E012A03FA0EFCEE
:1003080028BF4CF0020C43FA05F3C01851EBE37117
:1003180001F0004507D54FF0000EDCF1000C7EEB34
:1003280000006EEB0101B1F5801F1BD3B1F5001F72
:100338000CD349085FEA30004FEA3C0C04F1010491
:100348004FEA445212F5800F80F09A80BCF1004FBA
:1003580008BF5FEA500C50F1000041EB045141EA3C
:10036800050130BD5FEA4C0C404141EB010111F43D
:10037800801FA4F10104E9D191F0000F04BF0146E8
:100388000020B1FA81F308BF2033A3F10B03B3F1C6
:1003980020020CDA0C3208DD02F1140CC2F10C0256
:1003A80001FA0CF021FA02F10CE002F11402D8BFB4
:1003B800C2F1200C01FA02F120FA0CFCDCBF41EA80
:1003C8000C019040E41AA2BF01EB0451294330BD4F
:1003D8006FEA04041F3C1CDA0C340EDC04F114042C
:1003E800C4F1200220FA04F001FA02F340EA030003
:1003F80021FA04F345EA030130BDC4F10C04C4F149
:10040800200220FA02F001FA04F340EA0300294628
:1004180030BD21FA04F0294630BD94F0000F83F472
:10042800801306BF81F480110134013D4EE77FEA55
:10043800645C18BF7FEA655C29D094EA050F08BFA1
:1004480090EA020F05D054EA000C04BF1946104682
:1004580030BD91EA030F1EBF0021002030BD5FEAC6
:10046800545C05D14000494128BF41F0004130BDEE
:1004780014F580043CBF01F5801130BD01F0004542
:1004880045F0FE4141F470014FF0000030BD7FEAB5
:10049800645C1ABF194610467FEA655C1CBF0B46B0
:1004A800024650EA013406BF52EA033591EA030FC7
:1004B80041F4002130BD00BF90F0000F04BF0021BF
:1004C800704730B54FF4806404F132044FF00005F2
:1004D8004FF0000150E700BF90F0000F04BF00216B
:1004E800704730B54FF4806404F1320410F00045D1
:1004F80048BF40424FF000013EE700BF42004FEACC
:10050800E2014FEA31014FEA02701FBF12F07F4348
:1005180093F07F4F81F06051704792F0000F14BF45
:1005280093F07F4F704730B54FF4607401F0004589
:1005380021F0004120E700BF50EA010208BF7047E0
:1005480030B54FF000050AE050EA010208BF7047D5
:1005580030B511F0004502D5404261EB41014FF43E
:10056800806404F132045FEA915C3FF4DCAE4FF042
:1005780003025FEADC0C18BF03325FEADC0C18BF29
:10058800033202EBDC02C2F1200300FA03FC20FA7A
:1005980002F001FA03FE40EA0E0021FA02F11444C7
:1005A800C1E600BF70B54FF0FF0C4CF4E06C1CEADC
:1005B80011541DBF1CEA135594EA0C0F95EA0C0F51
:1005C80000F0DEF82C4481EA030621EA4C5123EAC4
:1005D8004C5350EA013518BF52EA033541F48011F3
:1005E80043F4801338D0A0FB02CE4FF00005E1FBA6
:1005F80002E506F00042E0FB03E54FF00006E1FBF0
:1006080003569CF0000F18BF4EF0010EA4F1FF0432
:10061800B6F5007F64F5407404D25FEA4E0E6D4172
:1006280046EB060642EAC62141EA55514FEAC52083
:1006380040EA5E504FEACE2EB4F1FD0C88BFBCF5FF
:10064800E06F1ED8BEF1004F08BF5FEA500E50F1B0
:10065800000041EB045170BD06F0004646EA010176
:1006680040EA020081EA0301B4EB5C04C2BFD4EBA8
:100678000C0541EA045170BD41F480114FF0000EA1
:10068800013C00F3AB8014F1360FDEBF002001F00F
:10069800004170BDC4F10004203C35DA0C341BDC89
:1006A80004F11404C4F1200500FA05F320FA04F05B
:1006B80001FA05F240EA020001F0004221F000418F
:1006C80010EBD37021FA04F642EB06015EEA430E02
:1006D80008BF20EAD37070BDC4F10C04C4F1200532
:1006E80000FA04F320FA05F001FA04F240EA0200E5
:1006F80001F0004110EBD37041F100015EEA430EB6
:1007080008BF20EAD37070BDC4F1200500FA05F2D5
:100718004EEA020E20FA04F301FA05F243EA020354
:1007280021FA04F001F0004121FA04F220EA020063
:1007380000EBD3705EEA430E08BF20EAD37070BDA9
:1007480094F0000F0FD101F00046400041EB010189
:1007580011F4801F08BF013CF7D041EA060195F06B
:10076800000F18BF704703F00046520043EB030325
:1007780013F4801F08BF013DF7D043EA0603704712
:1007880094EA0C0F0CEA135518BF95EA0C0F0CD01D
:1007980050EA410618BF52EA4306D1D181EA030163
:1007A80001F000414FF0000070BD50EA410606BF5D
:1007B8001046194652EA430619D094EA0C0F02D1A2
:1007C80050EA013613D195EA0C0F05D152EA0336E7
:1007D8001CBF104619460AD181EA030101F0004105
:1007E80041F0FE4141F470014FF0000070BD41F04E
:1007F800FE4141F4780170BD70B54FF0FF0C4CF428
:10080800E06C1CEA11541DBF1CEA135594EA0C0F46
:1008180095EA0C0F00F0A7F8A4EB050481EA030E93
:1008280052EA03354FEA013100F088804FEA03337A
:100838004FF0805545EA131343EA12634FEA022248
:1008480045EA111545EA10654FEA00260EF0004109
:100858009D4208BF964244F1FD0404F5407402D25B
:100868005B084FEA3202B61A65EB03055B084FEAEC
:1008780032024FF480104FF4002CB6EB020E75EBE9
:10088800030E22BFB61A754640EA0C005B084FEA11
:100898003202B6EB020E75EB030E22BFB61A75468E
:1008A80040EA5C005B084FEA3202B6EB020E75EBD9
:1008B800030E22BFB61A754640EA9C005B084FEA51
:1008C8003202B6EB020E75EB030E22BFB61A75465E
:1008D80040EADC0055EA060E18D04FEA051545EA4D
:1008E80016754FEA06164FEAC30343EA52734FEAF6
:1008F800C2025FEA1C1CC0D111F4801F0BD141EA6F
:1009080000014FF000004FF0004CB6E711F4801FD3
:1009180004BF01430020B4F1FD0C88BFBCF5E06FB3
:100928003FF6AFAEB5EB030C04BFB6EB020C5FEAC3
:10093800500C50F1000041EB045170BD0EF0004E18
:100948004EEA113114EB5C04C2BFD4EB0C0541EA4A
:10095800045170BD41F480114FF0000E013C90E647
:1009680045EA060E8DE60CEA135594EA0C0F08BF0B
:1009780095EA0C0F3FF43BAF94EA0C0F0AD150EA0A
:1009880001347FF434AF95EA0C0F7FF425AF10469D
:1009980019462CE795EA0C0F06D152EA03353FF4C5
:1009A800FDAE1046194622E750EA410618BF52EA42
:1009B80043067FF4C5AE50EA41047FF40DAF52EA16
:1009C80043057FF4EBAE12E74FF0FF3C06E000BFB3
:1009D8004FF0010C02E000BF4FF0010C4DF804CDC0
:1009E8004FEA410C7FEA6C5C4FEA430C18BF7FEA80
:1009F8006C5C1BD001B050EA410C0CBF52EA430CAE
:100A080091EA030F02BF90EA020F0020704710F12D
:100A1800000F91EA030F58BF994208BF90422CBFBC
:100A2800D8176FEAE37040F0010070474FEA410CB5
:100A38007FEA6C5C02D150EA013C07D14FEA430CD3
:100A48007FEA6C5CD6D152EA033CD3D05DF8040B44
:100A5800704700BF8446104662468C461946634676
:100A680000E000BF01B5FFF7B7FF002848BF10F14D
:100A7800000F01BD4DF808EDFFF7F4FF0CBF012092
:100A880000205DF808FB00BF4DF808EDFFF7EAFF0E
:100A980034BF012000205DF808FB00BF4DF808EDC9
:100AA800FFF7E0FF94BF012000205DF808FB00BFBE
:100AB8004DF808EDFFF7CEFF94BF012000205DF848
:100AC80008FB00BF4DF808EDFFF7C4FF34BF012055
:100AD80000205DF808FB00BF4FEA410212F5001242
:100AE80015D211D56FF47873B3EB625212D94FEA6D
:100AF800C12343F0004343EA505311F0004F23FA57
:100B080002F018BF404270474FF00000704750EAAB
:100B1800013005D111F0004008BF6FF00040704768
:100B28004FF00000704700BF4FEA4102B2F1E043C6
:100B380024BFB3F5001CDCF1FE5C0DD901F0004CBC
:100B48004FEAC0024CEA5070B2F1004F40EB83000C
:100B580008BF20F00100704711F0804F21D113F138
:100B68003872BCBF01F00040704741F480114FEA71
:100B78005252C2F11802C2F1200C10FA0CF320FAFA
:100B880002F018BF40F001004FEAC1234FEAD32317
:100B980003FA0CFC40EA0C0023FA02F34FEA430381
:100BA800CCE77FEA625307D150EA01331EBF4FF00A
:100BB800FE4040F44000704701F0004040F0FE4025
:100BC80040F40000704700BF80F0004002E000BF22
:100BD80081F0004142001FBF5FEA410392EA030F20
:100BE8007FEA226C7FEA236C6AD04FEA1262D2EB6A
:100BF8001363C1BFD218414048404140B8BF5B426F
:100C0800192B88BF704710F0004F40F4000020F007
:100C18007F4018BF404211F0004F41F4000121F01D
:100C28007F4118BF494292EA030F3FD0A2F1010267
:100C380041FA03FC10EB0C00C3F1200301FA03F1A5
:100C480000F0004302D5494260EB4000B0F5000FC8
:100C580013D3B0F1807F06D340084FEA310102F187
:100C68000102FE2A51D2B1F1004F40EBC25008BF39
:100C780020F0010040EA03007047490040EB000003
:100C880010F4000FA2F10102EDD1B0FA80FCACF132
:100C9800080CB2EB0C0200FA0CF0AABF00EBC25031
:100CA80052421843BCBFD0401843704792F0000F1F
:100CB80081F4000106BF80F400000132013BB5E772
:100CC8004FEA41037FEA226C18BF7FEA236C21D0E8
:100CD80092EA030F04D092F0000F08BF084670474D
:100CE80090EA010F1CBF0020704712F07F4F04D11B
:100CF800400028BF40F00040704712F100723CBF2E
:100D080000F50000704700F0004343F0FE4040F457
:100D1800000070477FEA226216BF08467FEA236315
:100D28000146420206BF5FEA412390EA010F40F400
:100D3800800070474FF0000304E000BF10F000434C
:100D480048BF40425FEA000C08BF704743F0964333
:100D580001464FF000001CE050EA010208BF70474E
:100D68004FF000030AE000BF50EA010208BF7047D5
:100D780011F0004302D5404261EB41015FEA010CEA
:100D880002BF84460146002043F0B64308BFA3F1E2
:100D98008053A3F50003BCFA8CF2083AA3EBC253C4
:100DA80010DB01FA02FC634400FA02FCC2F12002E3
:100DB800BCF1004F20FA02F243EB020008BF20F01A
:100DC8000100704702F1200201FA02FCC2F1200280
:100DD80050EA4C0021FA02F243EB020008BF20EA75
:100DE800DC7070474FF0FF3C06E000BF4FF0010C8D
:100DF80002E000BF4FF0010C4DF804CD4FEA40026D
:100E08004FEA41037FEA226C18BF7FEA236C11D0B6
:100E180001B052EA530C18BF90EA010F58BFB2EB69
:100E2800030088BFC81738BF6FEAE17018BF40F0E9
:100E3800010070477FEA226C02D15FEA402C05D19D
:100E48007FEA236CE4D15FEA412CE1D05DF8040B22
:100E5800704700BF844608466146FFE70FB5FFF7B5
:100E6800C9FF002848BF10F1000F0FBD4DF808ED6D
:100E7800FFF7F4FF0CBF012000205DF808FB00BF5E
:100E88004DF808EDFFF7EAFF34BF012000205DF8B8
:100E980008FB00BF4DF808EDFFF7E0FF94BF012005
:100EA80000205DF808FB00BF4DF808EDFFF7D2FF02
:100EB80094BF012000205DF808FB00BF4DF808ED45
:100EC800FFF7C8FF34BF012000205DF808FB00BF12
:100ED80082B0084B1A68084BA3FB02135B0A00FB9D
:100EE80003F0019000BF019B5A1E0192002BF9D11B
:100EF80002B0704700000020D34D62102DE9F04188
:100F080082B00446036813F0010F6ED0A24B5B68F1
:100F180003F00C03042B0AD09F4B5B6803F00C030F
:100F2800082B0DD19C4B5B6813F4803F08D09A4B7B
:100F38001B6813F4003F58D06368002B55D1C1E1FA
:100F48006368B3F5803F08D103F1804303F5883324
:100F58001A6842F480321A6026E063B903F18043CC
:100F680003F504331A6822F480321A601A6822F4EE
:100F780080221A6018E0B3F5A02F0CD103F180434A
:100F8800A3F53C331A6842F480221A601A6842F4C6
:100F980080321A6008E0804B1A6822F480321A60A6
:100FA8001A6822F480221A6063687BB101F03AF86B
:100FB8000646794D05E001F035F8801B642800F2FB
:100FC80083812B6813F4003FF5D00EE001F02AF876
:100FD8000646714D05E001F025F8801B642800F2F3
:100FE80075812B6813F4003FF5D1236813F0020FC5
:100FF80050D0694B5B6813F00C0F0AD0664B5B68E6
:1010080003F00C03082B16D1634B5B6813F4803F85
:1010180011D1614B1B6813F0020F03D02369012B18
:1010280040F056815C4B196821F0F801626941EA89
:10103800C2021A602EE02369D3B10122574B1A600D
:1010480000F0F0FF0646544D05E000F0EBFF801B72
:10105800022800F23F812B6813F0020FF5D04E4BA7
:10106800196821F0F801626941EAC2021A6011E0C8
:1010780000224A4B1A6000F0D5FF0646464D05E0AF
:1010880000F0D0FF801B022800F226812B6813F0A5
:10109800020FF5D1236813F0080F29D0A369ABB16B
:1010A80001223F4B1A6000F0BDFF06463A4D05E0AD
:1010B80000F0B8FF801B022800F210816B6A13F061
:1010C800020FF5D00120FFF703FF11E00022344B97
:1010D8001A6000F0A7FF06462F4D05E000F0A2FFBA
:1010E800801B022800F2FC806B6A13F0020FF5D116
:1010F800236813F0040F00F08C80274BDB6913F092
:10110800805F0BD1244BDA6942F08052DA61DB69E7
:1011180003F080530193019B012500E00025214B3A
:101128001B6813F4807F13D11E4B1A6842F4807237
:101138001A6000F077FF07461A4E05E000F072FFCC
:10114800C01B642800F2CE80336813F4807FF5D08A
:10115800E368012B05D1104B1A6A42F001021A62AA
:101168002BE063B903F1804303F504331A6A22F0D4
:1011780001021A621A6A22F004021A621DE0052BA3
:1011880012D1054B1A6A42F004021A621A6A42F036
:1011980001021A6211E000BF001002400000424242
:1011A8008004424200700040574B1A6A22F0010244
:1011B8001A621A6A22F004021A62E36893B100F014
:1011C80031FF8046504E41F2883706E000F02AFF92
:1011D800C8EB0000B84200F28780336A13F0020FB0
:1011E800F4D010E000F01EFF8046474E41F28837E9
:1011F80005E000F017FFC8EB0000B84276D8336A64
:1012080013F0020FF5D125B13F4BDA6922F0805275
:10121800DA61E369002B6BD03B4A526802F00C029A
:10122800082A67D0022B3AD10022384B1A6000F006
:10123800F9FE0646344D04E000F0F4FE801B022857
:101248005AD82B6813F0007FF6D1236AB3F5803F94
:1012580009D103F1804303F58833596821F400313B
:10126800A2680A435A60284B596821F47411206A0D
:10127800626A02430A435A600122244B1A6000F052
:10128800D1FE0546204C04E000F0CCFE401B0228AD
:1012980034D8236813F0007FF6D0002031E0002214
:1012A8001A4B1A6000F0BEFE0546174C04E000F029
:1012B800B9FE401B022823D8236813F0007FF6D11B
:1012C80000201EE001201CE003201AE0032018E0A3
:1012D800012016E0032014E0032012E0032010E0B0
:1012E80003200EE003200CE003200AE0032008E0BE
:1012F800002006E0012004E0032002E0032000E0D3
:10130800032002B0BDE8F0810010024060004242B4
:1013180030B486B0164D02AC28686968AA68EB68D4
:101328000FC42B8AADF80430124B5B6803F00C0233
:10133800082A19D1C3F3834206A90A4412F8102CCB
:1013480013F4803F0CD00B4B5B68C3F340430B4452
:1013580013F8143C0848B0FBF3F002FB00F004E07B
:10136800064800FB02F000E0034806B030BC7047B6
:10137800DC4E00080010024000127A0000093D000F
:101388002DE9F04104460D46614B1B6803F0070345
:101398008B420BD25E4B1A6822F007020A431A608E
:1013A8001B6803F007038B4240F09980236813F011
:1013B800020F06D0574B596821F0F001A2680A4382
:1013C8005A60236813F0010F50D06368012B05D1D0
:1013D800504A126812F4003F0DD183E0022B05D168
:1013E8004C4A126812F0007F05D17EE0494A126823
:1013F80012F0020F7CD0474A516821F003010B43D9
:10140800536000F00FFE06466368012B0FD105E01C
:1014180000F008FE801B404503D96CE03D4F41F2C7
:1014280088387B6803F00C03042BF1D11EE0022BF3
:1014380015D105E000F0F6FD801B404503D95DE0BD
:10144800344F41F288387B6803F00C03082BF1D144
:101458000CE000F0E7FD801B404503D951E02D4F1B
:1014680041F288387B6813F00C0FF2D1284B1B68C7
:1014780003F00703AB420AD9254B1A6822F007028A
:101488002A431A601B6803F00703AB423CD1236868
:1014980013F0040F06D01F4B596821F4E061E2688D
:1014A8000A435A60236813F0080F07D0194B5A688B
:1014B80022F46052216942EAC1025A60FFF728FF0C
:1014C800144B5B68C3F30313134AD35CD840134A25
:1014D8001060002000F076FD0020BDE8F0810120BA
:1014E800BDE8F0810120BDE8F0810120BDE8F08170
:1014F8000120BDE8F0810320BDE8F0810320BDE8AC
:10150800F0810320BDE8F0810120BDE8F08100BF33
:101518000020024000100240F04E000800000020A9
:10152800014B1868704700BF0000002008B5FFF79E
:10153800F7FF044B5B68C3F30223034AD35CD8402C
:1015480008BD00BF00100240004F000808B5FFF7B3
:10155800E7FF044B5B68C3F3C223034AD35CD8405C
:1015680008BD00BF00100240004F000830B4036AF5
:1015780023F001030362026A4368856925F0730555
:101588000C68254322F002028C682243104CA042CA
:1015980003D004F50064A04205D122F00802CC680B
:1015A800224322F004020A4CA04203D004F500644E
:1015B800A04205D123F440734C6923438C6923432B
:1015C800436085614B684363026230BC704700BF6B
:1015D800002C014030B4036A23F480730362026A6A
:1015E8004368C56925F073050C68254322F4007229
:1015F8008C6842EA0422124CA04203D004F500642D
:10160800A04206D122F40062CC6842EA042222F405
:1016180080620B4CA04203D004F50064A04207D1BD
:1016280023F440534C6943EA04138C6943EA0413D6
:101638004360C5614B68C363026230BC704700BF3A
:10164800002C014030B4036A23F480530362056A16
:101658004368C26922F4E6420C6842EA042425F48D
:1016680000558A6845EA0232094DA84203D005F5BB
:101678000065A84204D123F480434D6943EA8513E9
:101688004360C4614B680364026230BC704700BFAA
:10169800002C014010B4036A046A24F001040462B7
:1016A800846924F0F00444EA021223F00A0319437F
:1016B800826101625DF8044B704700BF10B4036A91
:1016C80023F0100303628469036A24F4704444EA33
:1016D800023223F0A00343EA0111826101625DF83E
:1016E800044B704710B4846824F47F4442EA03230F
:1016F80019430C4384605DF8044B704710B50B46E2
:101708000268946824F070044968214321F00704B2
:101718001968214391605A68502A1FD002D8402A7C
:101728000BD010BD602A1FD0702A22D10068D9685A
:101738009A681B69FFF7D6FF10BD0268116A146A20
:1017480024F0010414620268946924F0F0041B690F
:1017580044EA031393610368196210BD006899682D
:101768001A69FFF797FF10BD006899681A69FFF7B3
:10177800A5FF10BD704700BF38B5044690F83C304F
:10178800012B17D0012580F83C50022380F83D300A
:10179800FFF7B4FF2368DA6822F04002DA602368B2
:1017A800DA6822F48042DA6084F83D50002084F838
:1017B8003C0038BD022038BD0368244A904212D04C
:1017C80002F5006290420ED0B0F1804F0BD0A2F526
:1017D8009832904207D002F58062904203D002F519
:1017E8008062904203D123F070034A681343174A7A
:1017F800904212D002F5006290420ED0B0F1804FB4
:101808000BD0A2F59832904207D002F58062904240
:1018180003D002F58062904203D123F44073CA6872
:10182800134323F080034A691A4302608B68C3623A
:101838000B688362054B984203D003F50063984216
:1018480001D10B690363012343617047002C0140F8
:1018580010B50446B0B190F83D3013F0FF0F04D135
:10186800002380F83C30FFF785FF022384F83D30E1
:10187800214651F8040BFFF79FFF012384F83D3000
:10188800002010BD012010BD30B4036A23F01003FE
:101898000362026A4368856925F4E6450C6845EAEF
:1018A800042522F020028C6842EA0412114CA0425E
:1018B80003D004F50064A04206D122F08002CC686F
:1018C80042EA041222F040020A4CA04203D004F576
:1018D8000064A04207D123F440634C6943EA8403BF
:1018E8008C6943EA8403436085614B6883630262C1
:1018F80030BC7047002C014038B504460D4690F8BE
:101908003C30012B64D0012380F83C30022380F85E
:101918003D300C2A55D8DFE802F0075454541A54C5
:1019280054542E54545441000068FFF71FFE236896
:101938009A6942F008029A6123689A6922F00402BF
:101948009A61236899692A690A439A6139E00068AB
:10195800FFF79AFF23689A6942F400629A61236844
:101968009A6922F480629A6123689A69296942EA2D
:1019780001229A6125E00068FFF72CFE2368DA69E6
:1019880042F00802DA612368DA6922F00402DA61B7
:101998002368D9692A690A43DA6112E00068FFF707
:1019A80051FE2368DA6942F40062DA612368DA6971
:1019B80022F48062DA612368DA69296942EA01223D
:1019C800DA61012384F83D30002084F83C0038BDFA
:1019D800022038BD10B401238B40046A24EA0303B3
:1019E8000362036A8A40134303625DF8044B70473D
:1019F80010B5044600680122FFF7ECFF23680C4A83
:101A0800934205D002F50062934203D1012202E01D
:101A1800012200E000221AB15A6C42F400425A64D2
:101A280023681A6842F001021A60002010BD00BF46
:101A3800002C014010B404238B40046A24EA0303F9
:101A48000362036A8A40134303625DF8044B7047DC
:101A580010B5044600680422FFF7ECFF23685A6CAF
:101A680042F400425A6423681A6842F001021A607C
:101A7800002010BD90F83C30012B22D0012380F8C3
:101A88003C30CB6823F440728B68134323F48062A4
:101A98004B681A4322F400620B681A4322F48052FE
:101AA8000B691A4322F400524B691A43896922F4DC
:101AB80040420A4303685A64002380F83C301846C1
:101AC80070470220704700BF30B490F83C30012BBB
:101AD80020D0012380F83C30022280F83D200268A3
:101AE800546824F070045460026855680C682C43EC
:101AF80054600268946824F08004946002689468D2
:101B080049682143916080F83D30002380F83C30DB
:101B1800184600E0022030BC704700BF10B490F8AF
:101B28002430012B21D0012380F8243003689A68DF
:101B380012F0010F0FD10F4A926812F0010F0AD16B
:101B48000D4A934207D15C6824F470240A68224342
:101B58005A60002304E0836A43F020038362012370
:101B6800002280F82420184600E002205DF8044B8B
:101B7800704700BF002801400024014000F0070022
:101B8800064AD36823F4E0631B041B0C43EA0023D2
:101B980043F0BF6343F40033D360704700ED00E0C7
:101BA80030B4164BDB68C3F30223C3F10705042DD9
:101BB80028BF04251C1D062C01D9033B00E0002387
:101BC800012404FA05F5013D2940994004FA03F37C
:101BD800013B1A400A43002806DA00F00F00120100
:101BE800D2B2074B1A5407E01201D2B200F160409A
:101BF80000F5614080F8002330BC704700ED00E03C
:101C080014ED00E0420900F01F00012303FA00F080
:101C1800014B43F82200704700E100E00138B0F1C1
:101C2800807F0AD2064B5860F021064A82F82310BA
:101C38000020986007221A6070470120704700BF93
:101C480010E000E000ED00E0042805D1054B1A681B
:101C580042F004021A607047024B1A6822F004022C
:101C68001A60704710E000E0704700BF08B5FFF742
:101C7800FBFF08BD2DE9F00F82B000252B46784FF9
:101C8800DFF8E4C1DFF8E481764C8146E1E0012623
:101C98009E400A683240B24240F0DA804868122812
:101CA8002FD00BD8022829D003D868B3012820D018
:101CB80039E0032834D011281DD034E0DFF8B0A172
:101CC800504521D008D8AAF5801A50451CD00AF5ED
:101CD800803A504527D117E0DFF898A1504513D036
:101CE8000AF5803A50450FD0AAF5801A50451AD106
:101CF8000AE0CD6817E0CD68043514E0CD680835F2
:101D080011E0CD680C350EE0886858B1012803D180
:101D1800C9F81060082506E0C9F81460082502E033
:101D2800002500E00425FF2A01D8484601E009F112
:101D38000400FF2A01D89E0002E0A3F10806B600BD
:101D4800D0F800B04FF00F0A0AFA06FA2BEA0A0A8E
:101D580005FA06F64AEA06060660486810F0805F4B
:101D680076D0B86940F00100B861B86900F00100A8
:101D7800019001989808861C5CF826B003F00306C9
:101D8800B6004FF00F0A0AFA06FA2BEA0A0AC1450A
:101D980025D0DFF8E4B0D9451ED00BF5806BD945C6
:101DA80017D00BF5806BD94510D00BF5806BD94552
:101DB80009D00BF5806BD94502D14FF0050B10E027
:101DC8004FF0060B0DE04FF0040B0AE04FF0030B49
:101DD80007E04FF0020B04E04FF0010B01E04FF079
:101DE800000B0BFA06F646EA0A0602304CF82060A9
:101DF800486810F4803F03D020681043206003E057
:101E0800206820EA02002060486810F4003F03D0F0
:101E180060681043606003E0606820EA0200606068
:101E2800486810F4801F03D0A0681043A06003E046
:101E3800A06820EA0200A060486810F4001F03D0E0
:101E4800E0680243E26003E0E06820EA0202E26040
:101E580001330F2B7FF61BAF02B0BDE8F00F7047C0
:101E68000010024000040140000001400008014049
:101E78000000211000003110000C014083680B4263
:101E880001D0012070470020704700BF0AB10161EE
:101E98007047090401617047C3685940C1607047C1
:101EA8002DE9F04182B00446036813F0010F60D0B9
:101EB800404BDB6913F0805F0BD13E4BDA6942F08F
:101EC8008052DA61DB6903F080530193019B01279B
:101ED80000E00027384B1B6813F4807F12D1364B83
:101EE8001A6842F480721A6000F09CF80646324D77
:101EF80004E000F097F8801B642852D82B6813F48C
:101F0800807FF6D02B4B1B6A13F4407325D0626890
:101F180002F440729A4220D0264A136A23F4407091
:101F2800264901250D6000250D60106213F0010F90
:101F380013D000F077F8804605F1804505F50435A3
:101F480041F2883605E000F06DF8C8EB0000B042B9
:101F580029D82B6A13F0020FF5D0164B196A21F411
:101F6800407162680A431A621FB1DA6922F080522E
:101F7800DA61236813F0020F06D00E4B596821F47A
:101F88004041A2680A435A60236813F0100F0CD02E
:101F9800084B5A6822F4800261690A435A6000209B
:101FA80004E0032002E0032000E0002002B0BDE8C6
:101FB800F08100BF0010024000700040400442421F
:101FC800704700BF10B50446074B1868074BA3FBC2
:101FD80000208009FFF722FE4FF0FF302146002243
:101FE800FFF7DEFD002010BD00000020D34D621079
:101FF80008B5074B1A6842F010021A600320FFF771
:10200800BDFD0020FFF7DEFFFFF7DAFF002008BD67
:1020180000200240024B1A6801321A60704700BF64
:10202800E8000020014B1868704700BFE800002056
:1020380030B583B00190FFF7F5FF0546019CB4F178
:10204800FF3F00D00134FFF7EDFF401BA042FAD359
:1020580003B030BD704700BF30B482B00023019395
:1020680090F82430012B00F08980012380F8243077
:102078004B68062B0ED80268546B03EB8303053BB1
:102088001F259D4024EA05050C6804FA03F32B4339
:1020980053631EE00C2B0ED80268146B03EB83030A
:1020A800233B1F259D4024EA05050C6804FA03F329
:1020B8002B4313630DE00268D46A03EB8303413BAF
:1020C8001F259D4024EA05050C6804FA03F32B43F9
:1020D800D3620B68092B0ED90268D46803EB43035B
:1020E8001E3B07259D4024EA05058C6804FA03F386
:1020F8002B43D3600CE00268146903EB4303072504
:102108009D4024EA05058C6804FA03F32B43136108
:102118000B68103B012B27D803681A4A93421DD13C
:102128009A6812F4000F21D19A6842F400029A606A
:102138000B68102B1CD1144B1A68144BA3FB021309
:102148009B0C03EB83035B00019302E0019B013BC3
:102158000193019B002BF9D100220AE0836A43F026
:1021680020038362012204E0002202E0002200E052
:102178000022002380F82430104600E0022002B03C
:1021880030BC7047002401400000002083DE1B4360
:1021980030B583B004460023019303689A6812F0AF
:1021A800010F2ED19A6842F001029A60164B1A6804
:1021B800164BA3FB02139B0C019302E0019B013B0E
:1021C8000193019B002BF9D1FFF72CFF054611E085
:1021D800FFF728FF401B02280CD9A36A43F010031D
:1021E800A362E36A43F00103E362002384F8243026
:1021F800012007E023689B6813F0010FE8D0002056
:1022080000E0002003B030BD0000002083DE1B4347
:1022180010B5044690F82430012B6ED0012380F8C5
:102228002430FFF7B5FF0246002861D1A36A23F4E2
:10223800407323F0010343F48073A3622368304999
:102248008B4205D1A1F58061496811F4702F0ED138
:10225800A16A21F48011A162596811F4806F1CD021
:10226800A16A21F4405141F48051A16215E0A16AAC
:1022780041F48011A16223498B4203D001F58061AA
:102288008B420AD11F49496811F4806F05D0A16AB1
:1022980021F4405141F48051A162A16A11F4805F98
:1022A80004D0E16A21F00601E16201E00021E16267
:1022B800002184F824106FF00201196023689968DE
:1022C80001F46021B1F5602F0DD10D498B4205D184
:1022D800A1F58061496811F4702F04D1996841F41F
:1022E800A001996007E0996841F48011996002E0C3
:1022F800002384F82430104610BD022010BD00BF12
:10230800002801400024014038B5044603689A6853
:1023180012F0010F1DD09A6822F001029A60FFF7AF
:1023280081FE05460EE0FFF77DFE401B022809D915
:10233800A36A43F01003A362E36A43F00103E36274
:10234800012038BD23689B6813F0010FEBD10020F2
:1023580038BD002038BD00BF70B50446002800F025
:102368008680836A23B9C36280F82430FFF772FE3F
:102378002046FFF7C9FFA36A13F0100F71D1002898
:102388006FD1A36A23F4885323F0020343F00203B6
:10239800A36261682368374A934206D1E269B2F5BD
:1023A800402F03D14FF4002200E0E2690A43E568B8
:1023B80042EA4502A168B1F5807F04D0012905D120
:1023C8004FF4807103E04FF4807100E000216669EA
:1023D800012E0FD135B9A569013D41EA453141F4D6
:1023E800006107E0A56A45F02005A562E56A45F0A9
:1023F8000105E5625D6825F469452943596021684E
:102408008D681D4B2B4013438B60A368B3F5807F09
:1024180001D0012B03D12569013D2D0500E00025E0
:102428002368D96A21F470012943D962236899681D
:10243800124B0B409A4208D10023E362A36A23F0AF
:10244800030343F00103A36270BDA36A23F01203E0
:1024580043F01003A362E36A43F00103E36201203F
:1024680070BDA36A43F01003A362012070BD012070
:1024780070BD00BF003C0140FDF7E1FFFE0E1FFFED
:102488002DE9F84304460368196921F44051C268EC
:102498000A431A61826803691A43436942EA0301DD
:1024A8000268D36823F4B05323F00C030B43D360C2
:1024B8000368596921F4407182690A435A610668C0
:1024C8005A4B9E4258D1FFF741F800EB800000EBD1
:1024D800800063689B00B0FBF3F9554DA5FB092903
:1024E8004FEA59194FEA0919FFF730F800EB800055
:1024F80000EB800063689B00B0FBF3F8FFF726F859
:1025080000EB800000EB800063689B00B0FBF3F3F6
:10251800A5FB03235B09642707FB13884FEA081808
:1025280008F13208A5FB08384FEA581808F0F008F7
:10253800C844FFF70BF800EB800000EB80006368ED
:102548009B00B0FBF3F9FFF701F800EB800000EB0C
:10255800800063689B00B0FBF3F3A5FB03235B09D2
:1025680007FB13973F013237A5FB0735C5F3431522
:102578004544B560BDE8F883FEF7D8FF00EB80005E
:1025880000EB800063689B00B0FBF3F9284DA5FBC6
:1025980009294FEA59194FEA0919FEF7C7FF00EB55
:1025A800800000EB800063689B00B0FBF3F8FEF747
:1025B800BDFF00EB800000EB800063689B00B0FB70
:1025C800F3F0A5FB00304009642707FB10884FEAA9
:1025D800081808F13208A5FB08284FEA581808F02F
:1025E800F008C844FEF7A2FF00EB800000EB800073
:1025F80063689B00B0FBF3F9FEF798FF00EB8000DF
:1026080000EB800063689B00B0FBF3F0A5FB003093
:10261800400907FB10973F013237A5FB0725C5F393
:1026280043154544B560BDE8F88300BF0038014054
:102638001F85EB51704700BF10B5044658B390F89A
:10264800393013F0FF0F04D1002380F83830FFF73A
:10265800F1FF242384F839302368DA6822F4005221
:10266800DA602046FFF70CFF23681A6922F49042CB
:102678001A6123685A6922F02A025A612368DA68C3
:1026880042F40052DA600020E063202384F83930F5
:1026980084F83A3010BD012010BD00BF03685A69A4
:1026A80012F4806F0DD06FF480625A6104230364C2
:1026B80000230363202280F83D2080F83C3001206D
:1026C80070470020704700BF2DE9F84307460D46C4
:1026D80091461E46C1F3074815E0B6F1FF3F12D0F8
:1026E8002EB1FFF79FFC089BC01AB0420BD90023FC
:1026F8003B63202287F83D2087F83E3087F83C303E
:102708000320BDE8F883B8F1010F09D13B685C6983
:1027180025EA0404A4B2D4F1010438BF002408E077
:102728003C68A46925EA0404A4B2D4F1010438BFC2
:1027380000244C45D1D00020BDE8F8832DE9F843AA
:1027480004460E4690469946C1F307472EE0206896
:10275800456915F4806F13D0036843F40073036070
:1027680023686FF480625A6104232364002323637F
:10277800202284F83D2084F83C300120BDE8F8830D
:10278800B8F1FF3F12D0B8F1000F05D0FFF74AFCAF
:10279800C9EB0000404509D900232363202284F8AF
:1027A8003D2084F83C300320BDE8F883012F08D190
:1027B8002368586926EA000080B2003018BF01205B
:1027C80007E02368986926EA000080B2003018BF45
:1027D80001200028BBD1BDE8F88300BFF0B583B065
:1027E80004460F4616461D46C06A042804D0012830
:1027F80002D010F5803F05D123681A6842F4807230
:102808001A6007E0236B122B04D123681A6842F47C
:1028180080721A60009520464FF00111002233465D
:10282800FFF752FF58BB2369B3F5804F04D12368E3
:1028380007F0FE071F6115E0236807F44072D21104
:1028480042F0F0021A612046114932462B46FFF742
:1028580075FF20B1236C042B13D1012314E02368E6
:10286800FFB21F6120460B4932462B46FFF766FF31
:10287800034648B1236C042B05D1012304E003234C
:1028880002E0032300E00323184603B0F0BD00BFB5
:1028980008000100020001002DE9F04184B004465F
:1028A800884617461E46C06A25682B6843F480632D
:1028B8002B60042804D0012802D010F5803F05D1F0
:1028C80023681A6842F480721A6007E0236B112BA0
:1028D80004D123681A6842F480721A600096204670
:1028E8004FF0011100223B46FFF7EEFE002852D1BF
:1028F8002369B3F5804F06D1236848F001085FFAD1
:1029080088F21A613AE0236808F44075ED0945F049
:10291800F0021A61204626493A463346FFF70EFF71
:1029280020B1236C042B38D101233DE023685FFAE2
:1029380088F21A6120461F493A463346FFF7FEFEE1
:1029480020B1236C042B2AD101232DE0002203920D
:10295800236859690391996903910399196841F4A6
:1029680080711960009620464FF001113B46FFF731
:10297800ABFEB0B9236845F0F1051D6120460D494D
:102988003A463346FFF7DAFE034668B1236C042B58
:1029980009D1012308E0032306E0032304E003230D
:1029A80002E0032300E00323184604B0BDE8F081E9
:1029B800080001000200010070B504460D461646E5
:1029C80019E02046FFF76AFEE0B9B5F1FF3F12D0E3
:1029D80025B1FFF727FB801BA8420CD9236C43F0D5
:1029E8002003236400232363202284F83D2084F8F5
:1029F8003C30032070BD23685B6913F0800FE0D082
:102A0800002070BD012070BD70B504460D46164605
:102A180019E02046FFF742FEE0B9B5F1FF3F12D0BA
:102A280025B1FFF7FFFA801BA8420CD9236C43F0AD
:102A38002003236400232363202284F83D2084F8A4
:102A48003C30032070BD23685B6913F0040FE0D0AD
:102A5800002070BD012070BDF8B506460D4617462A
:102A680022E0596911F0100F0CD06FF010025A6172
:102A7800002333643363202286F83D2086F83C30F7
:102A88000120F8BD25B1FFF7CDFAC01BA8420BD92C
:102A9800336C43F020033364202386F83D30002351
:102AA80086F83C300320F8BD33685C6914F0400FA9
:102AB800D7D00020F8BD00BF704700BF38B5044626
:102AC800002800F0838090F83D3013F0FF0F04D108
:102AD800002380F83C30FFF7EFFF242384F83D30D3
:102AE80023681A6822F001021A60FEF71FFD384BAE
:102AF800A3FB00239B0C2268536021686268354D54
:102B0800AA4201D8013308E04FF4967202FB03F39E
:102B1800314AA2FB03539B0901330B6222686368A5
:102B28002C498B4208D85B00B0FBF3F0C0F30B03D1
:102B3800032B2DD804202BE0A16851B903EB4305E2
:102B4800B0FBF5F5C5F30B05D5F1010538BF002538
:102B58000BE003EB830505EB8505B0FBF5F5C5F345
:102B68000B05D5F1010538BF002585B931B903EB4F
:102B78004303B0FBF3F040F4004009E003EB8303A8
:102B880003EB8303B0FBF3F040F4404000E0012086
:102B9800D0612368E169226A0A431A6023682169BF
:102BA800E2680A439A6023686169A2690A43DA60A5
:102BB80023681A6842F001021A600020206420236A
:102BC80084F83D30206384F83E0038BD012038BDCC
:102BD80083DE1B43A0860100D34D62102DE9F0432C
:102BE80085B004460F4691469846FFF71BFA0646FD
:102BF80094F83D50EDB2202D40F0A0800090204682
:102C0800554901221923FFF75FFD002840F09880FD
:102C180094F83C30012B00F09580012384F83C3077
:102C280023681A6812F0010F03D11A6842F00102F2
:102C38001A6023681A6822F400621A60212384F853
:102C48003D30102384F83E3000232364C4F82490D8
:102C5800A4F82A80A3F58033E362638D2385204698
:102C680039460C9A3346FFF7B9FD054660B1236C27
:102C7800042B04D1002384F83C30012567E00023AD
:102C880084F83C30032562E00023039323685A69E3
:102C980003929B690393039B3FE020460C993246BD
:102CA800FFF78AFE48B1236C042B4DD123681A68BC
:102CB80042F400721A60012549E02268636A591CCF
:102CC80061621B781361638D013B9BB26385238D21
:102CD800013B9BB223852268516911F0040F0CD087
:102CE8005BB1636A591C61621B781361638D013B98
:102CF8009BB26385238D013B238520460C99324680
:102D0800FFF782FE48B1236C042B1FD123681A6891
:102D180042F400721A60012519E0238D002BBCD102
:102D280023681A6842F400721A60202384F83D3040
:102D3800002384F83E3084F83C3008E0022506E0A1
:102D4800022504E0022502E0032500E003252846C9
:102D580005B0BDE8F08300BF020010002DE9F04384
:102D680087B004460F4691469846FFF75BF906463A
:102D780094F83D50EDB2202D40F05F810090204640
:102D8800954901221923FFF79FFC002840F057813D
:102D980094F83C30012B00F05481012384F83C3036
:102DA80023681A6812F0010F03D11A6842F0010271
:102DB8001A6023681A6822F400621A60222384F8D1
:102DC8003D30102384F83E3000232364C4F8249057
:102DD800A4F82A80A3F58033E362638D2385204617
:102DE80039460E9A3346FFF757FD054660B1236C06
:102DF800042B04D1002384F83C3001252CE1002366
:102E080084F83C30032527E1238D5BB902932368BE
:102E18005A6902929A690292029A1A6842F40072F6
:102E28001A60FAE0012B13D123681A6822F4806231
:102E38001A6072B60023039323685A6903929A6949
:102E48000392039A1A6842F400721A6062B6E4E0C8
:102E5800022B13D123681A6842F400621A6072B612
:102E68000023049323685A6904929A690492049A85
:102E78001A6822F480621A6062B6CEE023681A6883
:102E880042F480621A600023059323685A69059208
:102E98009B690593059BC0E0032B00F29180012BF1
:102EA80019D120460E993246FFF7D6FD28B1236C7A
:102EB800202B40F0C8800325CEE0636A5A1C62626A
:102EC800226812691A70238D013B2385638D013BAB
:102ED8009BB26385A4E0022B2BD100962046414685
:102EE8003A460E9BFFF7F0FB002840F0AE8072B622
:102EF80023681A6842F400721A60636A5A1C626294
:102F0800226812691A70238D013B2385638D013B6A
:102F18009BB2638562B6636A5A1C62622268126950
:102F28001A70238D013B2385638D013B9BB263851A
:102F380076E00096204641463A460E9BFFF7C4FBD2
:102F4800002840F0848023681A6822F480621A609E
:102F580072B6636A5A1C6262226812691A70238DFB
:102F6800013B2385638D013B9BB263850096204618
:102F780041463A460E9BFFF7A7FB002869D1236814
:102F88001A6842F400721A60636A5A1C6262226804
:102F980012691A70238D013B2385638D013B9BB217
:102FA800638562B6636A5A1C6262226812691A7083
:102FB800238D013B2385638D013B9BB263852FE005
:102FC80020460E993246FFF747FD38B1236C202B77
:102FD80041D1032540E000BF02001000636A5A1C7B
:102FE8006262226812691A70238D013B2385638D02
:102FF800013B9BB2638523685A6912F0040F0FD016
:10300800626A511C61621B691370238D013B238521
:10301800638D013B9BB2638502E0DFF844800027A3
:10302800238D002B7FF438AF202384F83D30002314
:1030380084F83E3084F83C300EE002250CE002258E
:103048000AE0022508E0012506E0032504E003253F
:1030580002E0032500E00125284607B0BDE8F0831B
:103068000400010010B4034600283CD0026820493F
:103078008A420AD81F4911441F4AA2FB01010909C3
:10308800890019641D4ADA6309E01D4911441A4A86
:10309800A2FB01010909890019641A4ADA630222AC
:1030A80083F8212019680A6822F47F5222F030023E
:1030B8005C6898680443D8680443186904435869ED
:1030C800044398690443D869204302430A600020F6
:1030D8009862D862186358639863012283F82120A4
:1030E80083F8200000E001205DF8044B704700BF22
:1030F80007040240F8FFFDBFCDCCCCCC0000024055
:10310800F8FBFDBF000402400F4B1A6842F00102B1
:103118001A6059680D4A0A405A601A6822F0847287
:1031280022F480321A601A6822F480221A605A68DF
:1031380022F4FE025A604FF41F029A604FF00062B8
:10314800034B9A60704700BF001002400000FFF870
:1031580000ED00E030B597B01F4BDA6942F4003259
:10316800DA61DA6902F400320092009A5A6942F090
:1031780001025A615B6903F001030193019B174D3A
:1031880006954FF4E13307930024089409940A94B0
:1031980008230B930C940D9406A8FFF74DFA6B695E
:1031A80043F080036B6104230293012304930223F9
:1031B8000393032305930A4802A9FEF75BFD094B15
:1031C8001C60094A9A605C6090221A604FF0E062C5
:1031D800803B5A6017B030BD0010024000440040E8
:1031E8000008014080000240044400402DE9F041FD
:1031F8008AB04A4DEB6943F48003EB61EB6903F451
:1032080080030193019B6B6943F001036B616B6958
:1032180003F001030293029B0E2001210422FEF712
:10322800BFFC0E20FEF7EEFC0F2001210322FEF763
:10323800B7FC0F20FEF7E6FC394E3A4B33603A4BA9
:1032480073600024B460F4604FF4804333617461A8
:10325800B461F46134623046FFF730FC6B6943F0C7
:1032680001036B616B6903F001030393039BAB6973
:1032780043F00803AB61AB6903F008030493049BB4
:103288004FF4406306931223079301230893032303
:103298000993264806A9FEF7EDFCEB6943F4800381
:1032A800EB61EB6903F480030593059B204D214BEB
:1032B8002B606C60AC604FF08008C5F80C802C6106
:1032C8006C61AC614FF48057EF612846FFF7CAFE86
:1032D800B5636E62184D194B2B6010236B60AC60A0
:1032E800C5F80C802C616C61AC61EF612846FFF772
:1032F800B9FE75636E62212021462246FEF750FC16
:103308002120FEF77FFC222021462246FEF748FCBA
:103318002220FEF777FC0AB0BDE8F08100100240D9
:103328001C01002000580040A0860100000C01404C
:10333800B001002058000240F4010020440002407F
:103348002DE9F04F89B0814B9A6942F004029A61E5
:103358009A6902F004020192019A9A6942F00802FD
:103368009A619A6902F008020292029A9A6942F0F6
:1033780010029A619B6903F010030393039B0023D7
:10338800059306934FF00208CDF81C804FF0200AF1
:103398000DEB0A0444F810AD6D4F38462146FEF790
:1033A80069FC4023049338462146FEF763FC4FF03E
:1033B800800BCDF810B038462146FEF75BFC4FF481
:1033C80080630493634D28462146FEF753FC4FF46F
:1033D8000063049328462146FEF74CFC4FF48056C0
:1033E800049628462146FEF745FC049606F18046D9
:1033F80006F5784630462146FEF73CFCCDF81080AD
:1034080030462146FEF736FC4FF00109CDF81490FE
:103418000423049338462146FEF72CFC102304931A
:1034280030462146FEF726FCCDF810A0304621464E
:10343800FEF720FC03230593CDF81090284621467B
:10344800FEF718FCCDF8109030462146FEF712FC26
:103458000823049328462146FEF70CFCCDF810807B
:1034680028462146FEF706FC1023049328462146E9
:10347800FEF700FCCDF810A028462146FEF7FAFB1F
:103488000423049328462146FEF7F4FB08230493FB
:1034980030462146FEF7EEFB0423049330462146CE
:1034A800FEF7E8FBCDF81480402304932846214614
:1034B800FEF7E0FBCDF810B028462146FEF7DAFB10
:1034C8004FF4807ACDF810A028462146FEF7D2FBAB
:1034D800CDF810B030462146FEF7CCFBCDF8109061
:1034E80038462146FEF7C6FBCDF8108038462146FF
:1034F800FEF7C0FBCDF810A030462146FEF7BAFB18
:103508004FF40073049330462146FEF7B3FB4FF4A3
:103518008063049330462146FEF7ACFB4FF400531A
:10352800049338462146FEF7A5FB4FF480430493E5
:1035380038462146FEF79EFB4FF400430493384675
:103548002146FEF797FB09B0BDE8F08F0010024056
:10355800000C0140001001402DE9F04F99B0754B67
:103568009A6942F400629A619A6902F400620192CF
:10357800019A9A6942F400529A619B6903F40053D4
:103588000293029B6C4EDFF8B891C6F800900024B5
:1035980074604FF02008C6F808804FF4FA6BC6F83C
:1035A8000CB034617461B4613046FEF751F91023F0
:1035B80016931794304616A9FEF786FA60230F93E0
:1035C8001094119408271297139414944FF40073CD
:1035D800159330460FA92246FEF78EF930460FA9FB
:1035E8000422FEF789F930460FA93A46FEF784F916
:1035F8004FF4006308934FF4806309930A94CDF85D
:103608002C800C940D940E9430460DEB0801FEF7B7
:1036180031FA4A4DDFF82CA1C5F800A06C60C5F856
:103628000880C5F80CB02C616C61AC612846FEF7C7
:103638000FF9CDF8588080231793284616A9FEF76E
:1036480043FA049418A9052341F8543D2846FEF787
:1036580093F860230F931094119412971394149471
:103668004FF40073159328460FA92246FEF744F934
:1036780028460FA90422FEF73FF928460FA93A4623
:10368800FEF73AF94FF4006308934FF48063099307
:103698000A94CDF82C800C940D940E9428460DEBCA
:1036A8000801FEF7E7F9DAF8443023F40043CAF8D2
:1036B8004430D9F8443023F40043C9F8443028464C
:1036C8002146FEF795F928460421FEF791F9284688
:1036D8003946FEF78DF928462146FEF7B9F92846FE
:1036E8000421FEF7B5F928463946FEF7B1F9304608
:1036F8002146FEF77DF930460421FEF779F9304678
:103708003946FEF775F930462146FEF7A1F93046ED
:103718000421FEF79DF930463946FEF799F92B68E2
:1037280001221A6333681A6842F001021A6019B05C
:10373800BDE8F08F00100240700100207C020020DC
:10374800002C0140003401402DE9F04387B0414E80
:10375800B36943F40073B361B36903F4007300936E
:10376800009B3D4C3D4B23604FF48073A3600025C4
:10377800E56065614FF44023E36165604FF005083B
:10378800C4F810802046FEF7E7FD354B5A6842F42E
:1037980080225A6006A94FF4C02341F8043D204610
:1037A800FEF7BCF9012304930E22029203932046EC
:1037B80002A9FEF751FC029502270397204602A9A9
:1037C800FEF74AFC04970B2702970323039320462E
:1037D80002A9FEF741FC4FF00C09CDF8089004232C
:1037E8000393204602A9FEF737FCCDF80890CDF8E0
:1037F8000C80204602A9FEF72FFC23689A6842F441
:1038080080729A609A6842F001029A60736943F084
:1038180001037361736903F001030193019B114B69
:103828001D60C3F80480104A9A60104ADA6040F6B6
:10383800A2221A601A6842F001021A603846294624
:103848002A46FEF7ADF93846FEF7DCF907B0BDE8C1
:10385800F08300BF0010024038020020002401401D
:1038680000000140080002404C240140680200208A
:10387800F0B585B0274B9A6942F480629A619B69DA
:1038880003F480630093009B234C244B23604FF484
:103898008073A3600023E36063614FF46022E261F8
:1038A8006360052626612046FEF756FD0123039333
:1038B8000F2201920293204601A9FEF7CDFB0D23AA
:1038C800019302250295204601A9FEF7C5FB039541
:1038D8000A23019303270297204601A9FEF7BCFBA0
:1038E80001950423029320460DEB0301FEF7B4FB78
:1038F80001970296204601A9FEF7AEFB23689A6855
:1039080042F480729A609A6842F001029A6005B0A7
:10391800F0BD00BF00100240EC000020002801406C
:1039280070B582B0104CF0232370552363700F4D8F
:10393800642600962846A42122460223FFF74EF962
:103948000A20FEF775FBFB232370002363700096A3
:103958002846A42122460223FFF740F90A20FEF751
:1039680067FB02B070BD00BFFC0200201C010020F4
:1039780030B583B00F4A002313700F4C64250095AF
:103988002046A4210123FFF729F90220FEF750FB66
:1039980000952046A421094A0623FFF7DFF918B944
:1039A8000022074B1A6003E0054B1A6801321A60BF
:1039B80003B030BDFC0200201C010020A400002040
:1039C8000400002030B597B002250C950123109310
:1039D800102311931395002414944FF46013159336
:1039E8000CA8FDF78BFA0F230793089509944FF459
:1039F80080630A930B9407A82946FDF7C1FC01953B
:103A08004FF44043039301A8FEF74AFAFDF788FDF7
:103A1800084BA3FB00208009FEF700F90420FEF7FD
:103A280013F94FF0FF3021462246FEF7B9F817B0D8
:103A380030BD00BFD34D62102DE9F04F83B0FEF7C3
:103A4800D7FA9D4CA36943F00103A361A36903F06E
:103A580001030193019B0320FEF790F86FF00B0020
:103A680000210A46FEF79CF86FF00A0000210A467A
:103A7800FEF796F86FF0090000210A46FEF790F865
:103A88006FF0040000210A46FEF78AF86FF0030081
:103A980000210A46FEF784F86FF0010000210A466B
:103AA800FEF77EF84FF0FF3000210A46FEF778F85F
:103AB800FFF788FF636923F001036361FFF740FCA8
:103AC800FFF74AFDFFF740FEFFF7D2FEFFF742FB84
:103AD8007A4820210122FEF7D9F97948FEF798FBA8
:103AE8007848FEF795FB0824774E642504E0347087
:103AF8002846FEF79DFA013C002CF8DA4FF0000A40
:103B0800714B83F800A0714804210122FEF7BEF929
:103B1800FFF76CFBFFF704FF01226D4B1A70D346C9
:103B280001E0C346A2460220FEF782FAFFF720FF13
:103B3800684B1B787F3BDB00B3F57A7F05DC664A70
:103B48009342ACBF9846904601E04FF47A78634BB5
:103B5800C3F800805F4B5B78803BDB00B3F57A7F6E
:103B680004DC5D4FBB42A8BF1F4601E04FF47A77E3
:103B78005B4B1F605B4E3068FCF7AEFC48A3D3E993
:103B88000023FCF70FFD04460D464046FCF7A4FC55
:103B980045A3D3E90023FCF705FD02460B46204662
:103BA8002946FCF74DFBFCF797FF3060DFF84081B2
:103BB800D8F80000FCF790FC39A3D3E90023FCF700
:103BC800F1FC04460D463846FCF786FC36A3D3E9DB
:103BD8000023FCF7E7FC02460B4620462946FCF783
:103BE8002FFBFCF779FF0146C8F80000002000F021
:103BF8009FFC0120316800F09BFCD8F80000FCF71E
:103C08006BFC0022384BFCF7CDFC04460D463068AF
:103C1800FCF762FC0022344BFCF7C4FC06460F4656
:103C28002046294632463B46FCF708FB8046894633
:103C380000222E4BFCF746FF80B9404649461CA39C
:103C4800D3E90023FCF720FF28B940464946FCF792
:103C580043FF804604E0DFF8808001E04FF47A7883
:103C68002046294632463B46FCF7EAFA04460D460A
:103C780000221E4BFCF726FF00283BD12046294690
:103C88000BA3D3E90023FCF7FFFE28B920462946F9
:103C9800FCF722FF04462FE00F4C2DE0AFF3008025
:103CA800CDCCCCCCCCCCEC3F9A9999999999B93F89
:103CB8000000000000408FC00010024000080140D2
:103CC80038020020EC000020CC000020000C01404D
:103CD800C4000020A400002018FCFFFF10030020EF
:103CE80000030020040300200000E03F00408F4054
:103CF8000C0300204FF47A740220414600F018FCAF
:103D08000320214600F014FC0AF132039C4215DA24
:103D1800AAF1320A544511DD0BF1320398450DDA48
:103D2800ABF1320BD84509DD3A4B1B68042B05D89B
:103D3800394BC3F800806242384B1A6000F0FEFB32
:103D480037480221FEF79AF8F8B10022354B1A706D
:103D5800334D022428462146FEF790F80028F9D171
:103D68000024314B1C70314B1C702F4E642504E02D
:103D780034702846FEF75CF90134072CF8DD284832
:103D880020210022FEF782F8FEE7294B1D6828460D
:103D98002849FDF775F858B128462749FDF78EF8E8
:103DA80030B10522204B1A700822204B1A70B8E651
:103DB80028462149FDF764F858B128461F49FDF700
:103DC8007DF830B10522184B1A700122174B1A7072
:103DD800A7E628461949FDF753F8A0B10024134B6C
:103DE8001C70104B1C70104E642504E0347028467B
:103DF800FEF71EF90134072CF8DD094820210022BE
:103E0800FEF744F8FEE70023074A1370074A1370C9
:103E180087E600BF04000020D0000020C800002072
:103E280000080140C4000020CC000020B0000020A1
:103E38001800002000001042000004420000F84171
:103E48002DE9F8430222844B5A60844B1B68B3F572
:103E58007A7F3BDA0133814A1360814B998889B2B2
:103E6800804A1068014401EBD17149101160D9886A
:103E780089B27D4A1068014401EBD1714910116083
:103E8800198889B2794A1068014401EBD171491047
:103E98001160598889B2764A1068014401EBD171E2
:103EA80049101160598989B2724A1068014401EBBE
:103EB800D171491011601A8992B26F4B19680A447E
:103EC80002EBD27252101A60BDE8F8836B4B1E8861
:103ED8006B4BA3FB06135B09642202FB13639BB2C3
:103EE80023BB684F3868FCF709FB53A3D3E90023C9
:103EF800FCF758FB04460D46594B988980B2FCF7ED
:103F080019FFFCF7FBFA4EA3D3E90023FCF74AFBA1
:103F18004DA3D3E90023FCF745FB02460B46204698
:103F28002946FCF78DF9FCF7FFFD38604C4B5889A2
:103F380080B2504B1C68001BFCF7CEFA44A3D3E9AF
:103F48000023FCF72FFB00220023FCF79DFD80B126
:103F5800434B588980B2001BFCF7BEFA3CA3D3E957
:103F68000023FCF71FFB0022474BFCF78DFDB8B977
:103F78000FE03B4B588980B2001BFCF7ADFA34A325
:103F8800D3E90023FCF70EFB0022404BFCF79AFD17
:103F980030B93F4B1B68052B02D83E4B1B782BB919
:103FA8003D4B5A6C22F400425A6404E03A4B5A6C76
:103FB80042F400425A642A4B188980B22E4B1C687E
:103FC800001BFCF789FA22A3D3E90023FCF7EAFADD
:103FD80000220023FCF758FD80B1214B188980B2DC
:103FE800001BFCF779FA1AA3D3E90023FCF7DAFAE5
:103FF8000022254BFCF748FDC0B90FE0184B188983
:1040080080B2001BFCF768FA11A3D3E90023FCF780
:10401800C9FA00221D4BFCF755FD38B91C4B1B682B
:10402800052B03D81B4B1B78002B39D11B4B5A6C23
:1040380022F400425A6438E02B8716D9CEF7EF3FB6
:10404800F5E4E827181C9B3FFCA9F1D24D62503FCC
:104058007B14AE47E17A943F00000240AC00002098
:10406800680200200C000020080000201400002036
:10407800100000201C00002020000020D400002098
:104088001F85EB511800002000002EC000002E40B4
:1040980004000020C400002000340140002C01402E
:1040A8008E4B5A6C42F400425A648D4B9A6812F057
:1040B800200F14BF00220122996811F0400F14BF8D
:1040C800002101219B6813F0800F14BF00200120FC
:1040D800844B9C6814F4806F14BF002501259C68EC
:1040E80014F4006F14BF002701279B6813F4805F46
:1040F80001EB400302EB43037B4CE25C7B4B1A6011
:104108001A6802F102021A601868794981FB008274
:10411800A2EBE07202EB42024FEA4202C2EB00025B
:104128001A600CBF022200223A4405EB4202A05C4E
:10413800704A1060106802301060106881FB0091AE
:10414800A1EBE07101EB41014900411A11601B68C4
:10415800694A908880B269490968441AD18889B245
:10416800674802688A1A052B18D8DFE803F00307A6
:104178000A0D1013A21A634B1A6012E0614B1C60FF
:104188000FE0604B1C600CE05E4B1A6009E05D4B71
:104198001A6006E0121B5B4B1A6002E00022594BC2
:1041A8001A600136B6B2584B1E80584B1B78ABB11B
:1041B8005749A1FB0621090B564A1278013291FB97
:1041C800F2F002FB10124AB996FBF3F203FB1266F7
:1041D8004EB951481021FDF75FFE04E04E4810210A
:1041E8000022FDF753FE4D4B1A68404B1B68052B08
:1041F8001AD8DFE803F003070B0E111515465242D3
:10420800002614E056421546002210E056420025CA
:104218000DE0554200260AE055421646002206E007
:1042280016465242002502E00022154616463C4B2F
:104238001868304B1B68052B1ED8DFE803F003080D
:104248000D111519074640424FF0000C17E0C0F158
:10425800000C0746002012E0C0F1000C00270EE019
:1042680047424FF0000C0AE047428446002006E02F
:1042780084464042002702E0002007468446274B38
:104288001968002950DD274B1968184B1C6805343C
:10429800174B83FB0493A3EBE47303EB43035B002B
:1042A800E31A052B6FD8DFE803F003070B0E11158F
:1042B8000B46494200246BE04C420B46002167E064
:1042C8004C42002364E04B42002461E04B420C4620
:1042D80000215DE00C464942002359E0002C0140D2
:1042E800000C014000100140084F0008B8000020F1
:1042F800ABAAAA2AC0000020680200200C000020F7
:1043080008000020D8000020D4000020CC000020A5
:104318005917B7D1B000002000080140C80000209C
:10432800D0000020B4000020784B19684B42784C2C
:10433800246804F10108774C84FB0894A4EBE87422
:1043480004EB44046400C4EB0804052C04D8DFE83B
:1043580004F01E070A0E131700210B460C4617E03F
:104368000C46002114E00C461946002310E01C46B8
:104378000B46214600240BE01C460B46002107E0B3
:104388001C46002304E000210B460C4600E00024F4
:1043980026441D4401EB02085F4B1B68002B2ADDF5
:1043A8005E4B1A685E4B1C6805345A4B83FB0493BA
:1043B800A3EBE47303EB43035B00E31A052B47D835
:1043C800DFE803F003070B0E1115134652420021D4
:1043D80043E05142134600223FE0514200233CE0B3
:1043E8005342002139E053421146002235E011467C
:1043F8005242002331E0494B1A68534248490C683D
:104408000134444981FB0491A1EBE47101EB4101C2
:104418004900611A052904D8DFE801F01E070A0ED1
:10442800131700221346114617E01146002214E024
:1044380011461A46002310E0194613460A46002181
:104448000BE019461346002207E01946002304E052
:1044580000221346114600E0002161443B44024417
:1044680006F57A7640F2C670864203DC0A2EB8BF9B
:104478000A2601E040F2C6762A48466305F57A75B1
:1044880040F2C670854203DC0A2DB8BF0A2501E058
:1044980040F2C6752348856308F57A7440F2C67001
:1044A800844203DC0A2CB8BF0A2401E040F2C67437
:1044B8001C48C46301F57A7140F2C670814203DC7E
:1044C8000A29B8BF0A2101E040F2C67116484163C3
:1044D80003F57A7340F2C6718B4203DC0A2BB8BF2E
:1044E8000A2301E040F2C6730F498B6302F57A7222
:1044F80040F2C6739A4203DC0A2AB8BF0A2201E0D6
:1045080040F2C672084BDA63BDE8F883B4000020B5
:10451800B8000020ABAAAA2AD0000020BC000020C6
:10452800C000002000340140002C0140AFF300809F
:10453800014B23F8101070477803002030B583B082
:10454800144C20460021642200F092F812490A888F
:104558004B888888C98800B2009009B2019120462A
:104568000E4912B21BB200F08BF80D4B5B6873B9A1
:104578000B4C236823F001032360064D284600F006
:10458800A3F86060E560236843F00103236003B08B
:1045980030BD00BF1403002078030020104F00082E
:1045A80080000240704700BFFEE700BFFEE700BF83
:1045B800FEE700BFFEE700BF704700BF704700BFBF
:1045C800704700BF08B5FDF725FDFDF74FFB08BD97
:1045D800002100F004B80D4B5B58435004310C48DF
:1045E8000C4B42189A42FFF4F6AF0B4A00F003B89E
:1045F800002342F8043B094B9A42FFF4F9AFFEF757
:1046080083FD00F00FF8FFF717FA7047604F0008B6
:10461800000000208800002088000020CC03002033
:10462800FFF7FEBF70B50E4B0E4D0024ED1AAD100E
:104638001E46AC4204D056F8242090470134F8E7CF
:1046480000F03CFC084D094B0024ED1AAD101E4645
:10465800AC4204D056F8242090470134F8E770BDE6
:10466800584F0008584F00085C4F0008584F000882
:1046780002440346934202D003F8011BFAE770474D
:104688000EB400B54FF402719CB0ADF814106FF081
:104698000041049107914FF6FF711DABADF816105C
:1046A800084953F8042B02900690086802A9019360
:1046B80000F06EF8029B00221A701CB05DF804EB43
:1046C80003B0704784000020034613F8012B002A2A
:1046D800FBD1181A013870472DE9F0478D688146DB
:1046E800AB420C4692461F4643D38B8913F4906F16
:1046F8003DD0266809690222C1EB0608666906EB07
:10470800460696FBF2F608F101023A44964238BF93
:1047180016465B050FD5314600F022FB054698B1D9
:104728002169424600F0B4FAA38923F4906343F068
:104738008003A38113E0324600F066FB054670B99A
:104748004846216900F0C8FA0C23C9F80030A3894B
:104758004FF0FF3043F04003A381BDE8F0872561A7
:1047680066614544C8EB06062560A6603D46AF4233
:1047780000D23D462A462068514600F092FAA368C6
:1047880000205B1BA36023681D442560BDE8F087FB
:104798002DE9F0439DB003938B8907461C060D460F
:1047A80016460CD50B6953B9402100F0D9FA286098
:1047B800286110B90C233B60C7E040236B610023DC
:1047C800099320238DF8293030238DF82A30334679
:1047D8001C4613F8012B1AB9B4EB06090FD002E0F6
:1047E800252AF5D1F8E73846294632464B46FFF7E1
:1047F80073FF013000F0A480099B4B440993237890
:10480800002B00F09D8000234FF0FF3204930793A4
:10481800059206938DF853301A9304F101094D4E11
:104828004C4630462178052200F024FA09F10109A6
:10483800049B28B1861B0120B04003430493EEE794
:10484800D90644BF20228DF853201A0744BF2B22D3
:104858008DF8532022782A2A02D0079B21460EE0A1
:10486800039A111D12680391002A01DB079204E0E4
:10487800524243F002030792049301340AE00C46C3
:1048880022780131303A092A03D80A2000FB032391
:10489800F5E7079323782E2B19D163782A2B09D1B2
:1048A800039B02341A1D1B680392002BB8BF4FF0FC
:1048B800FF330BE0611C00230C4622780131303AAB
:1048C800092A03D80A2000FB0323F5E70593224EA3
:1048D80021783046032200F0CDF930B1861B402004
:1048E800B040049B01340343049321781B480622FB
:1048F800661C8DF8281000F0BDF988B1184B33B943
:10490800039B073323F007030833039314E003AB37
:104918000093384604A92A46124BAFF3008007E0FB
:1049280003AB0093384604A92A460E4B00F08EF8D4
:10493800B0F1FF3F804603D0099B4344099346E703
:10494800AB895B0601D4099801E04FF0FF301DB038
:10495800BDE8F083224F0008284F00082C4F0008BC
:1049680000000000E14600082DE9F84315461F46FF
:104978008A680B6906469A42A8BF13462B6091F8CD
:1049880043200C46DDF820800AB101332B602368F0
:10499800990602D52B6802332B60236813F00609A9
:1049A8001DD094F843302268003318BF01239206C3
:1049B8001FD5E118302081F843005A1C94F845109F
:1049C8002244023382F8431013E03046394604F19A
:1049D80019020123C047013007D009F10109E26833
:1049E8002B68D31A9945F0DBDBE74FF0FF30BDE8C1
:1049F800F8833046394604F14302C0470130F4D009
:104A080023682A6803F00603E168042B08BFC2EB99
:104A180001052369A2680CBF25EAE57500259A42BD
:104A2800C4BFC3EB0203ED184FF00009A9450ADA29
:104A38003046394604F11A020123C0470130D4D068
:104A480009F10109F2E70020BDE8F8832DE9FF47E5
:104A58000E7E80466E2E0C4691469A460C9D01F1BC
:104A6800430000F0A58011D8632E22D009D8002E6B
:104A780000F0AF80582E40F0BF8081F845607B4A37
:104A88004FE0642E1ED0692E1CD0B5E0732E00F0C6
:104A9800A48009D86F2E2BD0702E40F0AD800B6803
:104AA80043F020030B6038E0752E21D0782E34D0E7
:104AB800A2E02B6801F142071A1D1B682A6081F8E1
:104AC80042309DE022682B6812F0800F03D01A1D37
:104AD8002A601D6805E05106F9D51A1D2A60B3F948
:104AE8000050002D39DA2D236D4284F8433034E02C
:104AF80022682B6812F0800F03D01A1D2A601D68E7
:104B080004E05206F9D51A1D2A601D88237E574AEB
:104B18006F2B14BF0A2308231BE07823544A84F818
:104B280045302368296813F0800F01F104062E60D0
:104B380001D00D6802E05F06FBD50D88DE0744BF93
:104B480043F0200323601DB9236823F0200323606A
:104B58001023002184F8431001E0444A0A236668C0
:104B6800002EA66003DB216821F00401216005B94D
:104B78006EB104F14201B5FBF3F603FB1655555D22
:104B88000F4601F801593546002EF4D100E00746DA
:104B9800082B0AD12368DD0707D5626823699A4282
:104BA80003DC302307F8013C013FC01B20612CE0E7
:104BB80009682B6811F0800F626904D0191D2960FB
:104BC8001B681A6005E04906F8D5191D29601B689D
:104BD8001A8000232361074617E02B681A1D2A60F4
:104BE8001F683846FFF770FD63682061984288BFE8
:104BF80023612369636005E004F1420784F8426099
:104C080001232361002384F84330CDF800A04046F7
:104C1800214603AA4B46FFF7A7FE013002D14FF009
:104C2800FF301FE0404649463A462369D0470130E5
:104C3800F5D023689B0705D4E068039B9842B8BF6A
:104C480018460FE00025E268039BD31A9D42F3DA69
:104C58004046494604F119020123D0470130DED00D
:104C68000135F0E704B0BDE8F08700BF334F000816
:104C7800444F000810B5C9B202449042034605D01B
:104C88001C7801308C42F8D1184610BD002010BDA8
:104C980010B50023934203D0CC5CC4540133F9E728
:104CA80010BD814270B501D300230EE08C18A042DC
:104CB800FAD28518134613F1FF3305D3514266180B
:104CC800F65C2944CE54F6E770BD934203D0CC5C21
:104CD800C4540133F9E770BD30B500293CD051F810
:104CE800042C0B1F1D49002AB8BF9B180A680C46E4
:104CF80012B95A600B6030BD93420DD2196858182A
:104D0800904203D15A581144426819605A6023608E
:104D180030BD994203D80A4651680029F9D1146870
:104D280015199D420AD11B682344D0188842136084
:104D380012D10868034413604B680CE002D90C23B5
:104D4800036030BD18681C188C4203D10C68496890
:104D5800204418605960536030BD00BFE000002057
:104D680070B5CD1C25F0030508350C2D38BF0C2572
:104D7800002D06463FDB8D423DD3214B1C6818466B
:104D88002146A1B10B685B1B0ED40B2B03D90B601A
:104D9800CC18CD501FE08C4202D1626802601AE044
:104DA8004B6863600C4616E00C464968E9E7154C09
:104DB80023681BB9304600F04DF82060294630467C
:104DC80000F048F8431C014615D0C41C24F0030425
:104DD80084420AD1256004F10B00231D20F007004E
:104DE800C31A0BD05A42E25070BD3046611A00F027
:104DF80031F80130EED10C233360002070BD00BFC4
:104E0800E0000020DC000020F8B5064614460D46F8
:104E180021B91146BDE8F840FFF7A2BF1AB9FFF75C
:104E28005BFF2046F8BD00F025F8A0420ED23046C0
:104E38002146FFF795FF074650B129462246FFF75E
:104E480027FF30462946FFF747FF01E02846F8BD0F
:104E58003846F8BD38B5064C002305460846236099
:104E680000F012F8431C02D1236803B12B6038BD4F
:104E7800C803002051F8040C002802DA04390B5842
:104E88001844043870470000094A136863B118448D
:104E98006946884202D8106018467047054B0C22B4
:104EA8001A604FF0FF307047034B1360EFE700BF05
:104EB800E4000020C8030020D0030020F8B500BF9C
:104EC800F8BC08BC9E467047F8B500BFF8BC08BCE3
:044ED8009E4670473B
:104EDC0002030405060708090A0B0C0D0E0F10102F
:104EEC0001020000000000000000000001020304A9
:104EFC00060708090000000001020304000002017B
:104F0C000405030025693B25693B25693B25690A96
:104F1C000D0000004300232D302B2000686C4C004A
:104F2C00656667454647003031323334353637389D
:104F3C0039414243444546003031323334353637FB
:0C4F4C0038396162636465660000000093
:044F58000D0200083E
:044F5C00E90100085F
:104F600000A24A0464000000D0070000D00700003F
:104F7000D0070000D007000000002042D00700004A
:104F8000D00700000000000000000000000000004A
:104F90000000000000000000000000000000000011
:104FA00000000000204F000800000000000000008A
:104FB00000000000000000000000000000000000F1
:104FC00000000000000000000000000000000000E1
:104FD00000000000000000000000000000000000D1
:084FE000000000002400002085
:04000005080045D9D1
:00000001FF
