:020000040800F2
:1000000000C00020F95F0008CD5F0008D15F000844
:10001000D55F0008D95F0008DD5F00080000000020
:10002000000000000000000000000000E15F000888
:10003000E55F000800000000E95F0008ED5F0008D0
:1000400049600008496000084960000849600008EC
:1000500049600008496000084960000849600008DC
:10006000496000084960000849600008A94D00087F
:1000700049600008496000084960000849600008BC
:1000800049600008496000084960000849600008AC
:10009000496000084960000849600008496000089C
:1000A000496000084960000849600008496000088C
:1000B000496000084960000849600008496000087C
:1000C000496000084960000849600008496000086C
:1000D000496000084960000849600008496000085C
:1000E000496000084960000849600008496000084C
:1000F000496000084960000849600008496000083C
:10010000496000084960000849600008496000082B
:10011000496000084960000849600008496000081B
:10012000496000084960000849600008496000080B
:1001300000000000000000000000000000000000BF
:1001400000000000000000000000000000000000AF
:10015000000000000000000000000000000000009F
:10016000000000000000000000000000000000008F
:10017000000000000000000000000000000000007F
:10018000000000000000000000000000000000006F
:10019000000000000000000000000000000000005F
:1001A000000000000000000000000000000000004F
:1001B000000000000000000000000000000000003F
:1001C000000000000000000000000000000000002F
:1001D000000000000000000000000000000000001F
:0401E0005FF8E0F1F3
:1001E80010B5054C237833B9044B13B10448AFF369
:1001F80000800123237010BDB00000200000000023
:10020800E868000808B5064B1BB106480649AFF375
:1002180000800648036813B1054B03B1984708BD31
:1002280000000000E8680008B4000020B0000020CA
:100238000000000081F0004102E000BF83F00043AD
:1002480030B54FEA41044FEA430594EA050F08BF69
:1002580090EA020F1FBF54EA000C55EA020C7FEA2D
:10026800645C7FEA655C00F0E2804FEA5454D4EBAA
:100278005555B8BF6D420CDD2C4480EA020281EA74
:10028800030382EA000083EA010180EA020281EAAC
:100298000303362D88BF30BD11F0004F4FEA0131FE
:1002A8004FF4801C4CEA113102D0404261EB41010D
:1002B80013F0004F4FEA03334CEA133302D0524293
:1002C80063EB430394EA050F00F0A780A4F101044F
:1002D800D5F1200E0DDB02FA0EFC22FA05F2801889
:1002E80041F1000103FA0EF2801843FA05F359416F
:1002F8000EE0A5F120050EF1200E012A03FA0EFCEE
:1003080028BF4CF0020C43FA05F3C01851EBE37117
:1003180001F0004507D54FF0000EDCF1000C7EEB34
:1003280000006EEB0101B1F5801F1BD3B1F5001F72
:100338000CD349085FEA30004FEA3C0C04F1010491
:100348004FEA445212F5800F80F09A80BCF1004FBA
:1003580008BF5FEA500C50F1000041EB045141EA3C
:10036800050130BD5FEA4C0C404141EB010111F43D
:10037800801FA4F10104E9D191F0000F04BF0146E8
:100388000020B1FA81F308BF2033A3F10B03B3F1C6
:1003980020020CDA0C3208DD02F1140CC2F10C0256
:1003A80001FA0CF021FA02F10CE002F11402D8BFB4
:1003B800C2F1200C01FA02F120FA0CFCDCBF41EA80
:1003C8000C019040E41AA2BF01EB0451294330BD4F
:1003D8006FEA04041F3C1CDA0C340EDC04F114042C
:1003E800C4F1200220FA04F001FA02F340EA030003
:1003F80021FA04F345EA030130BDC4F10C04C4F149
:10040800200220FA02F001FA04F340EA0300294628
:1004180030BD21FA04F0294630BD94F0000F83F472
:10042800801306BF81F480110134013D4EE77FEA55
:10043800645C18BF7FEA655C29D094EA050F08BFA1
:1004480090EA020F05D054EA000C04BF1946104682
:1004580030BD91EA030F1EBF0021002030BD5FEAC6
:10046800545C05D14000494128BF41F0004130BDEE
:1004780014F580043CBF01F5801130BD01F0004542
:1004880045F0FE4141F470014FF0000030BD7FEAB5
:10049800645C1ABF194610467FEA655C1CBF0B46B0
:1004A800024650EA013406BF52EA033591EA030FC7
:1004B80041F4002130BD00BF90F0000F04BF0021BF
:1004C800704730B54FF4806404F132044FF00005F2
:1004D8004FF0000150E700BF90F0000F04BF00216B
:1004E800704730B54FF4806404F1320410F00045D1
:1004F80048BF40424FF000013EE700BF42004FEACC
:10050800E2014FEA31014FEA02701FBF12F07F4348
:1005180093F07F4F81F06051704792F0000F14BF45
:1005280093F07F4F704730B54FF4607401F0004589
:1005380021F0004120E700BF50EA010208BF7047E0
:1005480030B54FF000050AE050EA010208BF7047D5
:1005580030B511F0004502D5404261EB41014FF43E
:10056800806404F132045FEA915C3FF4DCAE4FF042
:1005780003025FEADC0C18BF03325FEADC0C18BF29
:10058800033202EBDC02C2F1200300FA03FC20FA7A
:1005980002F001FA03FE40EA0E0021FA02F11444C7
:1005A800C1E600BF70B54FF0FF0C4CF4E06C1CEADC
:1005B80011541DBF1CEA135594EA0C0F95EA0C0F51
:1005C80000F0DEF82C4481EA030621EA4C5123EAC4
:1005D8004C5350EA013518BF52EA033541F48011F3
:1005E80043F4801338D0A0FB02CE4FF00005E1FBA6
:1005F80002E506F00042E0FB03E54FF00006E1FBF0
:1006080003569CF0000F18BF4EF0010EA4F1FF0432
:10061800B6F5007F64F5407404D25FEA4E0E6D4172
:1006280046EB060642EAC62141EA55514FEAC52083
:1006380040EA5E504FEACE2EB4F1FD0C88BFBCF5FF
:10064800E06F1ED8BEF1004F08BF5FEA500E50F1B0
:10065800000041EB045170BD06F0004646EA010176
:1006680040EA020081EA0301B4EB5C04C2BFD4EBA8
:100678000C0541EA045170BD41F480114FF0000EA1
:10068800013C00F3AB8014F1360FDEBF002001F00F
:10069800004170BDC4F10004203C35DA0C341BDC89
:1006A80004F11404C4F1200500FA05F320FA04F05B
:1006B80001FA05F240EA020001F0004221F000418F
:1006C80010EBD37021FA04F642EB06015EEA430E02
:1006D80008BF20EAD37070BDC4F10C04C4F1200532
:1006E80000FA04F320FA05F001FA04F240EA0200E5
:1006F80001F0004110EBD37041F100015EEA430EB6
:1007080008BF20EAD37070BDC4F1200500FA05F2D5
:100718004EEA020E20FA04F301FA05F243EA020354
:1007280021FA04F001F0004121FA04F220EA020063
:1007380000EBD3705EEA430E08BF20EAD37070BDA9
:1007480094F0000F0FD101F00046400041EB010189
:1007580011F4801F08BF013CF7D041EA060195F06B
:10076800000F18BF704703F00046520043EB030325
:1007780013F4801F08BF013DF7D043EA0603704712
:1007880094EA0C0F0CEA135518BF95EA0C0F0CD01D
:1007980050EA410618BF52EA4306D1D181EA030163
:1007A80001F000414FF0000070BD50EA410606BF5D
:1007B8001046194652EA430619D094EA0C0F02D1A2
:1007C80050EA013613D195EA0C0F05D152EA0336E7
:1007D8001CBF104619460AD181EA030101F0004105
:1007E80041F0FE4141F470014FF0000070BD41F04E
:1007F800FE4141F4780170BD70B54FF0FF0C4CF428
:10080800E06C1CEA11541DBF1CEA135594EA0C0F46
:1008180095EA0C0F00F0A7F8A4EB050481EA030E93
:1008280052EA03354FEA013100F088804FEA03337A
:100838004FF0805545EA131343EA12634FEA022248
:1008480045EA111545EA10654FEA00260EF0004109
:100858009D4208BF964244F1FD0404F5407402D25B
:100868005B084FEA3202B61A65EB03055B084FEAEC
:1008780032024FF480104FF4002CB6EB020E75EBE9
:10088800030E22BFB61A754640EA0C005B084FEA11
:100898003202B6EB020E75EB030E22BFB61A75468E
:1008A80040EA5C005B084FEA3202B6EB020E75EBD9
:1008B800030E22BFB61A754640EA9C005B084FEA51
:1008C8003202B6EB020E75EB030E22BFB61A75465E
:1008D80040EADC0055EA060E18D04FEA051545EA4D
:1008E80016754FEA06164FEAC30343EA52734FEAF6
:1008F800C2025FEA1C1CC0D111F4801F0BD141EA6F
:1009080000014FF000004FF0004CB6E711F4801FD3
:1009180004BF01430020B4F1FD0C88BFBCF5E06FB3
:100928003FF6AFAEB5EB030C04BFB6EB020C5FEAC3
:10093800500C50F1000041EB045170BD0EF0004E18
:100948004EEA113114EB5C04C2BFD4EB0C0541EA4A
:10095800045170BD41F480114FF0000E013C90E647
:1009680045EA060E8DE60CEA135594EA0C0F08BF0B
:1009780095EA0C0F3FF43BAF94EA0C0F0AD150EA0A
:1009880001347FF434AF95EA0C0F7FF425AF10469D
:1009980019462CE795EA0C0F06D152EA03353FF4C5
:1009A800FDAE1046194622E750EA410618BF52EA42
:1009B80043067FF4C5AE50EA41047FF40DAF52EA16
:1009C80043057FF4EBAE12E74FF0FF3C06E000BFB3
:1009D8004FF0010C02E000BF4FF0010C4DF804CDC0
:1009E8004FEA410C7FEA6C5C4FEA430C18BF7FEA80
:1009F8006C5C1BD001B050EA410C0CBF52EA430CAE
:100A080091EA030F02BF90EA020F0020704710F12D
:100A1800000F91EA030F58BF994208BF90422CBFBC
:100A2800D8176FEAE37040F0010070474FEA410CB5
:100A38007FEA6C5C02D150EA013C07D14FEA430CD3
:100A48007FEA6C5CD6D152EA033CD3D05DF8040B44
:100A5800704700BF8446104662468C461946634676
:100A680000E000BF01B5FFF7B7FF002848BF10F14D
:100A7800000F01BD4DF808EDFFF7F4FF0CBF012092
:100A880000205DF808FB00BF4DF808EDFFF7EAFF0E
:100A980034BF012000205DF808FB00BF4DF808EDC9
:100AA800FFF7E0FF94BF012000205DF808FB00BFBE
:100AB8004DF808EDFFF7CEFF94BF012000205DF848
:100AC80008FB00BF4DF808EDFFF7C4FF34BF012055
:100AD80000205DF808FB00BF4FEA410212F5001242
:100AE80015D211D56FF47873B3EB625212D94FEA6D
:100AF800C12343F0004343EA505311F0004F23FA57
:100B080002F018BF404270474FF00000704750EAAB
:100B1800013005D111F0004008BF6FF00040704768
:100B28004FF00000704700BF4A0011D212F50012C2
:100B380011D20DD56FF47873B3EB62520ED44FEA2D
:100B4800C12343F0004343EA505323FA02F07047AD
:100B58004FF00000704750EA013002D14FF0FF30EB
:100B680070474FF0000070474FEA4102B2F1E0438E
:100B780024BFB3F5001CDCF1FE5C0DD901F0004C7C
:100B88004FEAC0024CEA5070B2F1004F40EB8300CC
:100B980008BF20F00100704711F0804F21D113F1F8
:100BA8003872BCBF01F00040704741F480114FEA31
:100BB8005252C2F11802C2F1200C10FA0CF320FABA
:100BC80002F018BF40F001004FEAC1234FEAD323D7
:100BD80003FA0CFC40EA0C0023FA02F34FEA430341
:100BE800CCE77FEA625307D150EA01331EBF4FF0CA
:100BF800FE4040F44000704701F0004040F0FE40E5
:100C080040F40000704700BF80F0004002E000BFE1
:100C180081F0004142001FBF5FEA410392EA030FDF
:100C28007FEA226C7FEA236C6AD04FEA1262D2EB29
:100C38001363C1BFD218414048404140B8BF5B422E
:100C4800192B88BF704710F0004F40F4000020F0C7
:100C58007F4018BF404211F0004F41F4000121F0DD
:100C68007F4118BF494292EA030F3FD0A2F1010227
:100C780041FA03FC10EB0C00C3F1200301FA03F165
:100C880000F0004302D5494260EB4000B0F5000F88
:100C980013D3B0F1807F06D340084FEA310102F147
:100CA8000102FE2A51D2B1F1004F40EBC25008BFF9
:100CB80020F0010040EA03007047490040EB0000C3
:100CC80010F4000FA2F10102EDD1B0FA80FCACF1F2
:100CD800080CB2EB0C0200FA0CF0AABF00EBC250F1
:100CE80052421843BCBFD0401843704792F0000FDF
:100CF80081F4000106BF80F400000132013BB5E732
:100D08004FEA41037FEA226C18BF7FEA236C21D0A7
:100D180092EA030F04D092F0000F08BF084670470C
:100D280090EA010F1CBF0020704712F07F4F04D1DA
:100D3800400028BF40F00040704712F100723CBFED
:100D480000F50000704700F0004343F0FE4040F417
:100D5800000070477FEA226216BF08467FEA2363D5
:100D68000146420206BF5FEA412390EA010F40F4C0
:100D7800800070474FF0000304E000BF10F000430C
:100D880048BF40425FEA000C08BF704743F09643F3
:100D980001464FF000001CE050EA010208BF70470E
:100DA8004FF000030AE000BF50EA010208BF704795
:100DB80011F0004302D5404261EB41015FEA010CAA
:100DC80002BF84460146002043F0B64308BFA3F1A2
:100DD8008053A3F50003BCFA8CF2083AA3EBC25384
:100DE80010DB01FA02FC634400FA02FCC2F12002A3
:100DF800BCF1004F20FA02F243EB020008BF20F0DA
:100E08000100704702F1200201FA02FCC2F120023F
:100E180050EA4C0021FA02F243EB020008BF20EA34
:100E2800DC7070474FF0FF0C1CEAD0521EBF1CEA62
:100E3800D15392EA0C0F93EA0C0F6FD01A4480EA50
:100E4800010C400218BF5FEA41211ED04FF0006339
:100E580043EA501043EA5111A0FB01310CF0004065
:100E6800B1F5000F3EBF490041EAD3715B0040EA8B
:100E7800010062F17F02FD2A1DD8B3F1004F40EB5B
:100E8800C25008BF20F00100704790F0000F0CF02E
:100E9800004C08BF49024CEA502040EA51207F3AF2
:100EA800C2BFD2F1FF0340EAC250704740F40000CD
:100EB8004FF00003013A5DDC12F1190FDCBF00F0BE
:100EC80000407047C2F10002410021FA02F1C2F16C
:100ED800200200FA02FC5FEA310040F1000053EA08
:100EE8004C0308BF20EADC70704792F0000F00F056
:100EF800004C02BF400010F4000F013AF9D040EA5C
:100F08000C0093F0000F01F0004C02BF490011F4EF
:100F1800000F013BF9D041EA0C018FE70CEAD153ED
:100F280092EA0C0F18BF93EA0C0F0AD030F0004C6D
:100F380018BF31F0004CD8D180EA010000F0004021
:100F4800704790F0000F17BF90F0004F084691F0DF
:100F5800000F91F0004F14D092EA0C0F01D1420219
:100F68000FD193EA0C0F03D14B0218BF084608D1E2
:100F780080EA010000F0004040F0FE4040F400002C
:100F8800704740F0FE4040F4400070474FF0FF0CBF
:100F98001CEAD0521EBF1CEAD15392EA0C0F93EA06
:100FA8000C0F69D0A2EB030280EA010C49024FEA58
:100FB800402037D04FF0805343EA111143EA101311
:100FC8000CF000408B4238BF5B0042F17D024FF4C9
:100FD800000C8B4224BF5B1A40EA0C00B3EB510FA4
:100FE80024BFA3EB510340EA5C00B3EB910F24BF8D
:100FF800A3EB910340EA9C00B3EBD10F24BFA3EB12
:10100800D10340EADC001B0118BF5FEA1C1CE0D1D9
:10101800FD2A3FF650AF8B4240EBC25008BF20F08C
:10102800010070470CF0004C4CEA50207F32C2BFE0
:10103800D2F1FF0340EAC250704740F400004FF07D
:101048000003013A37E792F0000F00F0004C02BFAE
:10105800400010F4000F013AF9D040EA0C0093F078
:10106800000F01F0004C02BF490011F4000F013BD2
:10107800F9D041EA0C0195E70CEAD15392EA0C0F3A
:1010880008D142027FF47DAF93EA0C0F7FF470AF72
:10109800084676E793EA0C0F04D14B023FF44CAFB5
:1010A80008466EE730F0004C18BF31F0004CCAD14A
:1010B80030F000427FF45CAF31F000437FF43CAF86
:1010C8005FE700BF4FF0FF3C06E000BF4FF0010CA8
:1010D80002E000BF4FF0010C4DF804CD4FEA40028A
:1010E8004FEA41037FEA226C18BF7FEA236C11D0D4
:1010F80001B052EA530C18BF90EA010F58BFB2EB87
:10110800030088BFC81738BF6FEAE17018BF40F006
:10111800010070477FEA226C02D15FEA402C05D1BA
:101128007FEA236CE4D15FEA412CE1D05DF8040B3F
:10113800704700BF844608466146FFE70FB5FFF7D2
:10114800C9FF002848BF10F1000F0FBD4DF808ED8A
:10115800FFF7F4FF0CBF012000205DF808FB00BF7B
:101168004DF808EDFFF7EAFF34BF012000205DF8D5
:1011780008FB00BF4DF808EDFFF7E0FF94BF012022
:1011880000205DF808FB00BF4DF808EDFFF7D2FF1F
:1011980094BF012000205DF808FB00BF4DF808ED62
:1011A800FFF7C8FF34BF012000205DF808FB00BF2F
:1011B8004FEA4002B2F1FE4F0FD34FF09E03B3EB5C
:1011C80012620DD94FEA002343F0004310F0004F9C
:1011D80023FA02F018BF404270474FF000007047F2
:1011E80012F1610F01D1420205D110F0004008BF91
:1011F8006FF0004070474FF00000704742000ED279
:10120800B2F1FE4F0BD34FF09E03B3EB126209D439
:101218004FEA002343F0004323FA02F070474FF0EF
:101228000000704712F1610F01D1420202D14FF064
:10123800FF3070474FF00000704700BF0022044B9A
:10124800DA61044B1A6942F001021A6101807047A1
:101258001801002000200240154BDB6813F0100F26
:1012680006D0144BDA6942F00202DA61102300E07A
:1012780000230F4AD26812F0040F06D00D4AD16934
:1012880041F00101D16143F00403094AD26912F027
:10129800010F09D0074AD16941F00401D161044A1C
:1012A800D16921F00101D161014AD360704700BFC3
:1012B8000020024018010020074B1B6913F0800F23
:1012C80007D0054B054A5A6002F188325A6000205F
:1012D80070470120704700BF002002402301674586
:1012E800034B1A6942F080021A610020704700BF60
:1012F8000020024070B5044601F0B4F90646184DC6
:1013080008E0B4F1FF3F05D01CB301F0ABF9801B36
:10131800A04220D8EB6813F0010FF2D1104BDB6824
:1013280013F0200F02D020220D4BDA600C4BDB6843
:1013380013F0100F09D10A4BDB6913F0010F04D128
:10134800074BDB6813F0040F07D0FFF785FF012078
:1013580070BD032070BD032070BD002070BD00BFAC
:10136800002002402DE9F84F80468A4616461F465F
:10137800264B1B7E012B46D00122244B1A764CF2B9
:101388005030FFF7B7FF0346B8BBB8F1010F05D0DF
:10139800B8F1020F05D14FF0020B04E04FF0010B3A
:1013A80001E04FF0040B4FF00008DFF8649022E0F2
:1013B8004FEA0813C3F12001A3F1200226FA03F42F
:1013C80007FA01F10C4327FA02F214430AEB48002A
:1013D800A1B2FFF733FF4CF25030FFF78BFFD9F87B
:1013E800103023F00103C9F81030034628B908F17A
:1013F80001085FFA88F8D845DAD30021034A117644
:101408001846BDE8F88F0220BDE8F88F18010020C3
:101418000020024082B0084B1A68084BA3FB021355
:101428005B0A00FB03F0019000BF019B5A1E01926A
:10143800002BF9D102B0704700000020D34D621094
:101448002DE9F04182B00446036813F0010F6ED015
:10145800A24B5B6803F00C03042B0AD09F4B5B681C
:1014680003F00C03082B0DD19C4B5B6813F4803FF1
:1014780008D09A4B1B6813F4003F58D06368002BC0
:1014880055D1C1E16368B3F5803F08D103F18043CA
:1014980003F588331A6842F480321A6026E063B98B
:1014A80003F1804303F504331A6822F480321A608A
:1014B8001A6822F480221A6018E0B3F5A02F0CD124
:1014C80003F18043A3F53C331A6842F480221A6082
:1014D8001A6842F480321A6008E0804B1A6822F4D5
:1014E80080321A601A6822F480221A6063687BB11D
:1014F80001F0B8F80646794D05E001F0B3F8801B15
:10150800642800F283812B6813F4003FF5D00EE0C5
:1015180001F0A8F80646714D05E001F0A3F8801B1C
:10152800642800F275812B6813F4003FF5D1236815
:1015380013F0020F50D0694B5B6813F00C0F0AD000
:10154800664B5B6803F00C03082B16D1634B5B6892
:1015580013F4803F11D1614B1B6813F0020F03D0C5
:101568002369012B40F056815C4B196821F0F80182
:10157800626941EAC2021A602EE02369D3B10122EE
:10158800574B1A6001F06EF80646544D05E001F01D
:1015980069F8801B022800F23F812B6813F0020FC4
:1015A800F5D04E4B196821F0F801626941EAC20290
:1015B8001A6011E000224A4B1A6001F053F80646FF
:1015C800464D05E001F04EF8801B022800F2268106
:1015D8002B6813F0020FF5D1236813F0080F29D0F8
:1015E800A369ABB101223F4B1A6001F03BF80646F4
:1015F8003A4D05E001F036F8801B022800F2108110
:101608006B6A13F0020FF5D00120FFF703FF11E01A
:101618000022344B1A6001F025F806462F4D05E0EC
:1016280001F020F8801B022800F2FC806B6A13F09E
:10163800020FF5D1236813F0040F00F08C80274BBC
:10164800DB6913F0805F0BD1244BDA6942F08052DA
:10165800DA61DB6903F080530193019B012500E007
:101668000025214B1B6813F4807F13D11E4B1A6889
:1016780042F480721A6000F0F5FF07461A4E05E042
:1016880000F0F0FFC01B642800F2CE80336813F42A
:10169800807FF5D0E368012B05D1104B1A6A42F020
:1016A80001021A622BE063B903F1804303F50433A6
:1016B8001A6A22F001021A621A6A22F004021A62F5
:1016C8001DE0052B12D1054B1A6A42F004021A627A
:1016D8001A6A42F001021A6211E000BF00100240CB
:1016E800000042428004424200700040574B1A6A90
:1016F80022F001021A621A6A22F004021A62E368EE
:1017080093B100F0AFFF8046504E41F2883706E0B3
:1017180000F0A8FFC8EB0000B84200F28780336AE7
:1017280013F0020FF4D010E000F09CFF8046474E03
:1017380041F2883705E000F095FFC8EB0000B84299
:1017480076D8336A13F0020FF5D125B13F4BDA6929
:1017580022F08052DA61E369002B6BD03B4A526871
:1017680002F00C02082A67D0022B3AD10022384B2B
:101778001A6000F077FF0646344D04E000F072FF6F
:10178800801B02285AD82B6813F0007FF6D1236AF1
:10179800B3F5803F09D103F1804303F588335968D5
:1017A80021F40031A2680A435A60284B596821F491
:1017B8007411206A626A02430A435A600122244B68
:1017C8001A6000F04FFF0546204C04E000F04AFF85
:1017D800401B022834D8236813F0007FF6D000207D
:1017E80031E000221A4B1A6000F03CFF0546174C06
:1017F80004E000F037FF401B022823D8236813F0C9
:10180800007FF6D100201EE001201CE003201AE032
:10181800032018E0012016E0032014E0032012E062
:10182800032010E003200EE003200CE003200AE070
:10183800032008E0002006E0012004E0032002E085
:10184800032000E0032002B0BDE8F0810010024050
:101858006000424230B486B0164D02AC2868696810
:10186800AA68EB680FC42B8AADF80430124B5B688A
:1018780003F00C02082A19D1C3F3834206A90A44CB
:1018880012F8102C13F4803F0CD00B4B5B68C3F399
:1018980040430B4413F8143C0848B0FBF3F002FB38
:1018A80000F004E0064800FB02F000E0034806B040
:1018B80030BC7047006900080010024000127A002E
:1018C80000093D002DE9F04104460D46614B1B68B7
:1018D80003F007038B420BD25E4B1A6822F0070213
:1018E8000A431A601B6803F007038B4240F0998093
:1018F800236813F0020F06D0574B596821F0F00106
:10190800A2680A435A60236813F0010F50D0636835
:10191800012B05D1504A126812F4003F0DD183E023
:10192800022B05D14C4A126812F0007F05D17EE0E7
:10193800494A126812F0020F7CD0474A516821F0D8
:1019480003010B43536000F08DFE06466368012BCC
:101958000FD105E000F086FE801B404503D96CE0FE
:101968003D4F41F288387B6803F00C03042BF1D11A
:101978001EE0022B15D105E000F074FE801B4045E7
:1019880003D95DE0344F41F288387B6803F00C03DB
:10199800082BF1D10CE000F065FE801B404503D90F
:1019A80051E02D4F41F288387B6813F00C0FF2D1CB
:1019B800284B1B6803F00703AB420AD9254B1A686A
:1019C80022F007022A431A601B6803F00703AB42A0
:1019D8003CD1236813F0040F06D01F4B596821F43B
:1019E800E061E2680A435A60236813F0080F07D0E1
:1019F800194B5A6822F46052216942EAC1025A60BE
:101A0800FFF728FF144B5B68C3F30313134AD35C37
:101A1800D840134A1060002000F0F4FD0020BDE813
:101A2800F0810120BDE8F0810120BDE8F0810120AE
:101A3800BDE8F0810120BDE8F0810320BDE8F08118
:101A48000320BDE8F0810320BDE8F0810120BDE856
:101A5800F08100BF00200240001002401469000815
:101A680000000020014B1868704700BF00000020EC
:101A780008B5FFF7F7FF044B5B68C3F30223034A7B
:101A8800D35CD84008BD00BF00100240246900089C
:101A980008B5FFF7E7FF044B5B68C3F3C223034AAB
:101AA800D35CD84008BD00BF00100240246900087C
:101AB80030B4036A23F001030362026A436885694C
:101AC80025F073050C68254322F002028C68224336
:101AD800104CA04203D004F50064A04205D122F0C6
:101AE8000802CC68224322F004020A4CA04203D028
:101AF80004F50064A04205D123F440734C692343E4
:101B08008C692343436085614B684363026230BC40
:101B1800704700BF002C014030B4036A23F480737F
:101B28000362026A4368C56925F073050C6825439A
:101B380022F400728C6842EA0422124CA04203D0BC
:101B480004F50064A04206D122F40062CC6842EA9F
:101B5800042222F480620B4CA04203D004F50064F6
:101B6800A04207D123F440534C6943EA04138C691B
:101B780043EA04134360C5614B68C363026230BC27
:101B8800704700BF002C014030B4036A23F480532F
:101B98000362056A4368C26922F4E6420C6842EAB5
:101BA800042425F400558A6845EA0232094DA84202
:101BB80003D005F50065A84204D123F480434D699C
:101BC80043EA85134360C4614B680364026230BC16
:101BD800704700BF002C014010B4036A046A24F067
:101BE80001040462846924F0F00444EA021223F038
:101BF8000A031943826101625DF8044B704700BF14
:101C080010B4036A23F0100303628469036A24F49E
:101C1800704444EA023223F0A00343EA01118261CE
:101C280001625DF8044B704710B4846824F47F4463
:101C380042EA032319430C4384605DF8044B704760
:101C480010B50B460268946824F070044968214373
:101C580021F007041968214391605A68502A1FD05F
:101C680002D8402A0BD010BD602A1FD0702A22D17A
:101C78000068D9689A681B69FFF7D6FF10BD02682B
:101C8800116A146A24F0010414620268946924F049
:101C9800F0041B6944EA031393610368196210BDD9
:101CA800006899681A69FFF797FF10BD006899687E
:101CB8001A69FFF7A5FF10BD704700BF38B5044685
:101CC80090F83C30012B17D0012580F83C500223B6
:101CD80080F83D30FFF7B4FF2368DA6822F040024D
:101CE800DA602368DA6822F48042DA6084F83D50CA
:101CF800002084F83C0038BD022038BD0368244A1F
:101D0800904212D002F5006290420ED0B0F1804F9E
:101D18000BD0A2F59832904207D002F5806290422B
:101D280003D002F58062904203D123F070034A6821
:101D38001343174A904212D002F5006290420ED027
:101D4800B0F1804F0BD0A2F59832904207D002F53F
:101D58008062904203D002F58062904203D123F45E
:101D68004073CA68134323F080034A691A43026028
:101D78008B68C3620B688362054B984203D003F5F6
:101D88000063984201D10B690363012343617047E3
:101D9800002C014010B50446B0B190F83D3013F066
:101DA800FF0F04D1002380F83C30FFF785FF0223A2
:101DB80084F83D30214651F8040BFFF79FFF0123BB
:101DC80084F83D30002010BD012010BD30B4036AF6
:101DD80023F010030362026A4368856925F4E64527
:101DE8000C6845EA042522F020028C6842EA0412B5
:101DF800114CA04203D004F50064A04206D122F0A1
:101E08008002CC6842EA041222F040020A4CA04246
:101E180003D004F50064A04207D123F440634C6961
:101E280043EA84038C6943EA8403436085614B6811
:101E38008363026230BC7047002C014038B5044609
:101E48000D4690F83C30012B64D0012380F83C30DB
:101E5800022380F83D300C2A55D8DFE802F00754F9
:101E680054541A5454542E54545441000068FFF7E3
:101E78001FFE23689A6942F008029A6123689A69EA
:101E880022F004029A61236899692A690A439A61CF
:101E980039E00068FFF79AFF23689A6942F4006204
:101EA8009A6123689A6922F480629A6123689A6920
:101EB800296942EA01229A6125E00068FFF72CFEB1
:101EC8002368DA6942F00802DA612368DA6922F0E5
:101ED8000402DA612368D9692A690A43DA6112E0DF
:101EE8000068FFF751FE2368DA6942F40062DA619C
:101EF8002368DA6922F48062DA612368DA69296979
:101F080042EA0122DA61012384F83D30002084F896
:101F18003C0038BD022038BD10B401238B40046A50
:101F280024EA03030362036A8A40134303625DF8E9
:101F3800044B704710B5044600680122FFF7ECFF18
:101F480023680C4A934205D002F50062934203D1FC
:101F5800012202E0012200E000221AB15A6C42F488
:101F680000425A6423681A6842F001021A6000208D
:101F780010BD00BF002C014010B404238B40046A3C
:101F880024EA03030362036A8A40134303625DF889
:101F9800044B704710B5044600680422FFF7ECFFB5
:101FA80023685A6C42F400425A6423681A6842F063
:101FB80001021A60002010BD90F83C30012B22D09D
:101FC800012380F83C30CB6823F440728B681343BC
:101FD80023F480624B681A4322F400620B681A43A8
:101FE80022F480520B691A4322F400524B691A43B7
:101FF800896922F440420A4303685A64002380F83E
:102008003C30184670470220704700BF30B490F843
:102018003C30012B20D0012380F83C30022280F88C
:102028003D200268546824F07004546002685568C2
:102038000C682C4354600268946824F0800494600F
:102048000268946849682143916080F83D30002314
:1020580080F83C30184600E0022030BC704700BFD2
:1020680010B490F82430012B21D0012380F82430BB
:1020780003689A6812F0010F0FD10F4A926812F0A4
:10208800010F0AD10D4A934207D15C6824F47024E9
:102098000A6822435A60002304E0836A43F020035D
:1020A80083620123002280F82420184600E00220E1
:1020B8005DF8044B704700BF002801400024014030
:1020C80000F00700064AD36823F4E0631B041B0CE6
:1020D80043EA002343F0BF6343F40033D3607047FF
:1020E80000ED00E030B4164BDB68C3F30223C3F104
:1020F8000705042D28BF04251C1D062C01D9033B08
:1021080000E00023012404FA05F5013D2940994027
:1021180004FA03F3013B1A400A43002806DA00F0E8
:102128000F001201D2B2074B1A5407E01201D2B2C3
:1021380000F1604000F5614080F8002330BC704732
:1021480000ED00E014ED00E0420900F01F0001235B
:1021580003FA00F0014B43F82200704700E100E069
:102168000138B0F1807F0AD2064B5860F021064A48
:1021780082F823100020986007221A607047012017
:10218800704700BF10E000E000ED00E0042805D132
:10219800054B1A6842F004021A607047024B1A682D
:1021A80022F004021A60704710E000E0704700BF98
:1021B80008B5FFF7FBFF08BD0022064BDA61064BA6
:1021C8001A6942F004021A611A6942F040021A615F
:1021D800704700BF18010020002002400022064B73
:1021E800DA61064B1A6942F002021A6158611A69EB
:1021F80042F040021A617047180100200020024096
:102208002DE9F04105468846284B1B7E012B49D015
:102218000122264B1A760368022B13D14CF2503058
:10222800FFF768F8002834D10120FFF7C5FF4CF20A
:102238005030FFF75FF801461D4B1A6922F004027F
:102248001A6129E04CF25030FFF754F818BB4FF0F0
:10225800FF33C8F80030AC6801214CF25037144EF7
:1022680010E02046FFF7BAFF3846FFF743F8336916
:1022780023F002033361014610B1C8F800400BE0B7
:1022880004F50064EA68AB6803EBC223A342E8D80C
:1022980002E0012100E001210022044B1A760846E1
:1022A800BDE8F0810220BDE8F08100BF18010020E0
:1022B800002002402DE9F00F82B000252B46784F10
:1022C800DFF8E4C1DFF8E481764C8146E1E00126DD
:1022D8009E400A683240B24240F0DA8048681228CC
:1022E8002FD00BD8022829D003D868B3012820D0D2
:1022F80039E0032834D011281DD034E0DFF8B0A12C
:10230800504521D008D8AAF5801A50451CD00AF5A6
:10231800803A504527D117E0DFF898A1504513D0EF
:102328000AF5803A50450FD0AAF5801A50451AD1BF
:102338000AE0CD6817E0CD68043514E0CD680835AB
:1023480011E0CD680C350EE0886858B1012803D13A
:10235800C9F81060082506E0C9F81460082502E0ED
:10236800002500E00425FF2A01D8484601E009F1CC
:102378000400FF2A01D89E0002E0A3F10806B60077
:10238800D0F800B04FF00F0A0AFA06FA2BEA0A0A48
:1023980005FA06F64AEA06060660486810F0805F05
:1023A80076D0B86940F00100B861B86900F0010062
:1023B800019001989808861C5CF826B003F0030683
:1023C800B6004FF00F0A0AFA06FA2BEA0A0AC145C4
:1023D80025D0DFF8E4B0D9451ED00BF5806BD94580
:1023E80017D00BF5806BD94510D00BF5806BD9450C
:1023F80009D00BF5806BD94502D14FF0050B10E0E1
:102408004FF0060B0DE04FF0040B0AE04FF0030B02
:1024180007E04FF0020B04E04FF0010B01E04FF032
:10242800000B0BFA06F646EA0A0602304CF8206062
:10243800486810F4803F03D020681043206003E010
:10244800206820EA02002060486810F4003F03D0AA
:1024580060681043606003E0606820EA0200606022
:10246800486810F4801F03D0A0681043A06003E000
:10247800A06820EA0200A060486810F4001F03D09A
:10248800E0680243E26003E0E06820EA0202E260FA
:1024980001330F2B7FF61BAF02B0BDE8F00F70477A
:1024A8000010024000040140000001400008014003
:1024B8000000211000003110000C014083680B421D
:1024C80001D0012070470020704700BF0AB10161A8
:1024D8007047090401617047C3685940C16070477B
:1024E8002DE9F04182B00446036813F0010F60D073
:1024F800404BDB6913F0805F0BD13E4BDA6942F049
:102508008052DA61DB6903F080530193019B012754
:1025180000E00027384B1B6813F4807F12D1364B3C
:102528001A6842F480721A6000F09CF80646324D30
:1025380004E000F097F8801B642852D82B6813F445
:10254800807FF6D02B4B1B6A13F4407325D062684A
:1025580002F440729A4220D0264A136A23F440704B
:10256800264901250D6000250D60106213F0010F4A
:1025780013D000F077F8804605F1804505F504355D
:1025880041F2883605E000F06DF8C8EB0000B04273
:1025980029D82B6A13F0020FF5D0164B196A21F4CB
:1025A800407162680A431A621FB1DA6922F08052E8
:1025B800DA61236813F0020F06D00E4B596821F434
:1025C8004041A2680A435A60236813F0100F0CD0E8
:1025D800084B5A6822F4800261690A435A60002055
:1025E80004E0032002E0032000E0002002B0BDE880
:1025F800F08100BF001002400070004040044242D9
:10260800704700BF10B50446074B1868074BA3FB7B
:1026180000208009FFF7A4FD4FF0FF30214600227B
:10262800FFF760FD002010BD00000020D34D6210B0
:1026380008B5074B1A6842F010021A600320FFF72A
:102648003FFD0020FFF7DEFFFFF7DAFF002008BD9F
:1026580000200240024B1A6801321A60704700BF1E
:1026680038010020014B1868704700BF380100206E
:1026780030B583B00190FFF7F5FF0546019CB4F132
:10268800FF3F00D00134FFF7EDFF401BA042FAD313
:1026980003B030BD704700BF30B482B0002301934F
:1026A80090F82430012B00F08980012380F8243031
:1026B8004B68062B0ED80268546B03EB8303053B6B
:1026C8001F259D4024EA05050C6804FA03F32B43F3
:1026D80053631EE00C2B0ED80268146B03EB8303C4
:1026E800233B1F259D4024EA05050C6804FA03F3E3
:1026F8002B4313630DE00268D46A03EB8303413B69
:102708001F259D4024EA05050C6804FA03F32B43B2
:10271800D3620B68092B0ED90268D46803EB430314
:102728001E3B07259D4024EA05058C6804FA03F33F
:102738002B43D3600CE00268146903EB43030725BD
:102748009D4024EA05058C6804FA03F32B431361C2
:102758000B68103B012B27D803681A4A93421DD1F6
:102768009A6812F4000F21D19A6842F400029A6024
:102778000B68102B1CD1144B1A68144BA3FB0213C3
:102788009B0C03EB83035B00019302E0019B013B7D
:102798000193019B002BF9D100220AE0836A43F0E0
:1027A80020038362012204E0002202E0002200E00C
:1027B8000022002380F82430104600E0022002B0F6
:1027C80030BC7047002401400000002083DE1B431A
:1027D80030B583B004460023019303689A6812F069
:1027E800010F2ED19A6842F001029A60164B1A68BE
:1027F800164BA3FB02139B0C019302E0019B013BC8
:102808000193019B002BF9D1FFF72CFF054611E03E
:10281800FFF728FF401B02280CD9A36A43F01003D6
:10282800A362E36A43F00103E362002384F82430DF
:10283800012007E023689B6813F0010FE8D000200F
:1028480000E0002003B030BD0000002083DE1B4301
:1028580010B5044690F82430012B6ED0012380F87F
:102868002430FFF7B5FF0246002861D1A36A23F49C
:10287800407323F0010343F48073A3622368304953
:102888008B4205D1A1F58061496811F4702F0ED1F2
:10289800A16A21F48011A162596811F4806F1CD0DB
:1028A800A16A21F4405141F48051A16215E0A16A66
:1028B80041F48011A16223498B4203D001F5806164
:1028C8008B420AD11F49496811F4806F05D0A16A6B
:1028D80021F4405141F48051A162A16A11F4805F52
:1028E80004D0E16A21F00601E16201E00021E16221
:1028F800002184F824106FF0020119602368996898
:1029080001F46021B1F5602F0DD10D498B4205D13D
:10291800A1F58061496811F4702F04D1996841F4D8
:10292800A001996007E0996841F48011996002E07C
:10293800002384F82430104610BD022010BD00BFCB
:10294800002801400024014038B5044603689A680D
:1029580012F0010F1DD09A6822F001029A60FFF769
:1029680081FE05460EE0FFF77DFE401B022809D9CF
:10297800A36A43F01003A362E36A43F00103E3622E
:10298800012038BD23689B6813F0010FEBD10020AC
:1029980038BD002038BD00BF70B50446002800F0DF
:1029A8008680836A23B9C36280F82430FFF772FEF9
:1029B8002046FFF7C9FFA36A13F0100F71D1002852
:1029C8006FD1A36A23F4885323F0020343F0020370
:1029D800A36261682368374A934206D1E269B2F577
:1029E800402F03D14FF4002200E0E2690A43E56872
:1029F80042EA4502A168B1F5807F04D0012905D1DA
:102A08004FF4807103E04FF4807100E000216669A3
:102A1800012E0FD135B9A569013D41EA453141F48F
:102A2800006107E0A56A45F02005A562E56A45F062
:102A38000105E5625D6825F4694529435960216807
:102A48008D681D4B2B4013438B60A368B3F5807FC3
:102A580001D0012B03D12569013D2D0500E000259A
:102A68002368D96A21F470012943D96223689968D7
:102A7800124B0B409A4208D10023E362A36A23F069
:102A8800030343F00103A36270BDA36A23F012039A
:102A980043F01003A362E36A43F00103E3620120F9
:102AA80070BDA36A43F01003A362012070BD01202A
:102AB80070BD00BF003C0140FDF7E1FFFE0E1FFFA7
:102AC8002DE9F84304460368196921F44051C268A6
:102AD8000A431A61826803691A43436942EA030197
:102AE8000268D36823F4B05323F00C030B43D3607C
:102AF8000368596921F4407182690A435A6106687A
:102B08005A4B9E4258D1FEF7C3FF00EB800000EB02
:102B1800800063689B00B0FBF3F9554DA5FB0929BC
:102B28004FEA59194FEA0919FEF7B2FF00EB800086
:102B380000EB800063689B00B0FBF3F8FEF7A8FF8A
:102B480000EB800000EB800063689B00B0FBF3F3B0
:102B5800A5FB03235B09642707FB13884FEA0818C2
:102B680008F13208A5FB08384FEA581808F0F008B1
:102B7800C844FEF78DFF00EB800000EB800063681F
:102B88009B00B0FBF3F9FEF783FF00EB800000EB3E
:102B9800800063689B00B0FBF3F3A5FB03235B098C
:102BA80007FB13973F013237A5FB0735C5F34315DC
:102BB8004544B560BDE8F883FEF75AFF00EB800096
:102BC80000EB800063689B00B0FBF3F9284DA5FB80
:102BD80009294FEA59194FEA0919FEF749FF00EB8D
:102BE800800000EB800063689B00B0FBF3F8FEF701
:102BF8003FFF00EB800000EB800063689B00B0FBA8
:102C0800F3F0A5FB00304009642707FB10884FEA62
:102C1800081808F13208A5FB08284FEA581808F0E8
:102C2800F008C844FEF724FF00EB800000EB8000AA
:102C380063689B00B0FBF3F9FEF71AFF00EB800016
:102C480000EB800063689B00B0FBF3F0A5FB00304D
:102C5800400907FB10973F013237A5FB0725C5F34D
:102C680043154544B560BDE8F88300BF003801400E
:102C78001F85EB51704700BF10B5044658B390F854
:102C8800393013F0FF0F04D1002380F83830FFF7F4
:102C9800F1FF242384F839302368DA6822F40052DB
:102CA800DA602046FFF70CFF23681A6922F4904285
:102CB8001A6123685A6922F02A025A612368DA687D
:102CC80042F40052DA600020E063202384F83930AF
:102CD80084F83A3010BD012010BD00BF03685A695E
:102CE80012F4806F0DD06FF480625A61042303647C
:102CF80000230363202280F83D2080F83C30012027
:102D080070470020704700BF2DE9F84307460D467D
:102D180091461E46C1F3074815E0B6F1FF3F12D0B1
:102D28002EB1FFF79FFC089BC01AB0420BD90023B5
:102D38003B63202287F83D2087F83E3087F83C30F7
:102D48000320BDE8F883B8F1010F09D13B685C693D
:102D580025EA0404A4B2D4F1010438BF002408E031
:102D68003C68A46925EA0404A4B2D4F1010438BF7C
:102D780000244C45D1D00020BDE8F8832DE9F84364
:102D880004460E4690469946C1F307472EE0206850
:102D9800456915F4806F13D0036843F4007303602A
:102DA80023686FF480625A61042323640023236339
:102DB800202284F83D2084F83C300120BDE8F883C7
:102DC800B8F1FF3F12D0B8F1000F05D0FFF74AFC69
:102DD800C9EB0000404509D900232363202284F869
:102DE8003D2084F83C300320BDE8F883012F08D14A
:102DF8002368586926EA000080B2003018BF012015
:102E080007E02368986926EA000080B2003018BFFE
:102E180001200028BBD1BDE8F88300BFF0B583B01E
:102E280004460F4616461D46C06A042804D00128E9
:102E380002D010F5803F05D123681A6842F48072E9
:102E48001A6007E0236B122B04D123681A6842F436
:102E580080721A60009520464FF001110022334617
:102E6800FFF752FF58BB2369B3F5804F04D123689D
:102E780007F0FE071F6115E0236807F44072D211BE
:102E880042F0F0021A612046114932462B46FFF7FC
:102E980075FF20B1236C042B13D1012314E02368A0
:102EA800FFB21F6120460B4932462B46FFF766FFEB
:102EB800034648B1236C042B05D1012304E0032306
:102EC80002E0032300E00323184603B0F0BD00BF6F
:102ED80008000100020001002DE9F04184B0044619
:102EE800884617461E46C06A25682B6843F48063E7
:102EF8002B60042804D0012802D010F5803F05D1AA
:102F080023681A6842F480721A6007E0236B112B59
:102F180004D123681A6842F480721A600096204629
:102F28004FF0011100223B46FFF7EEFE002852D178
:102F38002369B3F5804F06D1236848F001085FFA8A
:102F480088F21A613AE0236808F44075ED0945F003
:102F5800F0021A61204626493A463346FFF70EFF2B
:102F680020B1236C042B38D101233DE023685FFA9C
:102F780088F21A6120461F493A463346FFF7FEFE9B
:102F880020B1236C042B2AD101232DE000220392C7
:102F9800236859690391996903910399196841F460
:102FA80080711960009620464FF001113B46FFF7EB
:102FB800ABFEB0B9236845F0F1051D6120460D4907
:102FC8003A463346FFF7DAFE034668B1236C042B12
:102FD80009D1012308E0032306E0032304E00323C7
:102FE80002E0032300E00323184604B0BDE8F081A3
:102FF800080001000200010070B504460D4616469F
:1030080019E02046FFF76AFEE0B9B5F1FF3F12D09C
:1030180025B1FFF727FB801BA8420CD9236C43F08E
:103028002003236400232363202284F83D2084F8AE
:103038003C30032070BD23685B6913F0800FE0D03B
:10304800002070BD012070BD70B504460D461646BF
:1030580019E02046FFF742FEE0B9B5F1FF3F12D074
:1030680025B1FFF7FFFA801BA8420CD9236C43F067
:103078002003236400232363202284F83D2084F85E
:103088003C30032070BD23685B6913F0040FE0D067
:10309800002070BD012070BDF8B506460D461746E4
:1030A80022E0596911F0100F0CD06FF010025A612C
:1030B800002333643363202286F83D2086F83C30B1
:1030C8000120F8BD25B1FFF7CDFAC01BA8420BD9E6
:1030D800336C43F020033364202386F83D3000230B
:1030E80086F83C300320F8BD33685C6914F0400F63
:1030F800D7D00020F8BD00BF704700BF38B50446E0
:10310800002800F0838090F83D3013F0FF0F04D1C1
:10311800002380F83C30FFF7EFFF242384F83D308C
:1031280023681A6822F001021A60FEF7A1FC384BE6
:10313800A3FB00239B0C2268536021686268354D0D
:10314800AA4201D8013308E04FF4967202FB03F358
:10315800314AA2FB03539B0901330B62226863685F
:103168002C498B4208D85B00B0FBF3F0C0F30B038B
:10317800032B2DD804202BE0A16851B903EB43059C
:10318800B0FBF5F5C5F30B05D5F1010538BF0025F2
:103198000BE003EB830505EB8505B0FBF5F5C5F3FF
:1031A8000B05D5F1010538BF002585B931B903EB09
:1031B8004303B0FBF3F040F4004009E003EB830362
:1031C80003EB8303B0FBF3F040F4404000E0012040
:1031D800D0612368E169226A0A431A602368216979
:1031E800E2680A439A6023686169A2690A43DA605F
:1031F80023681A6842F001021A6000202064202324
:1032080084F83D30206384F83E0038BD012038BD85
:1032180083DE1B43A0860100D34D62102DE9F043E5
:1032280085B004460F4691469846FFF71BFA0646B6
:1032380094F83D50EDB2202D40F0A080009020463B
:10324800554901221923FFF75FFD002840F09880B7
:1032580094F83C30012B00F09580012384F83C3031
:1032680023681A6812F0010F03D11A6842F00102AC
:103278001A6023681A6822F400621A60212384F80D
:103288003D30102384F83E3000232364C4F8249092
:10329800A4F82A80A3F58033E362638D2385204652
:1032A80039460C9A3346FFF7B9FD054660B1236CE1
:1032B800042B04D1002384F83C30012567E0002367
:1032C80084F83C30032562E00023039323685A699D
:1032D80003929B690393039B3FE020460C99324677
:1032E800FFF78AFE48B1236C042B4DD123681A6876
:1032F80042F400721A60012549E02268636A591C89
:1033080061621B781361638D013B9BB26385238DDA
:10331800013B9BB223852268516911F0040F0CD040
:103328005BB1636A591C61621B781361638D013B51
:103338009BB26385238D013B238520460C99324639
:10334800FFF782FE48B1236C042B1FD123681A684B
:1033580042F400721A60012519E0238D002BBCD1BC
:1033680023681A6842F400721A60202384F83D30FA
:10337800002384F83E3084F83C3008E0022506E05B
:10338800022504E0022502E0032500E00325284683
:1033980005B0BDE8F08300BF020010002DE9F0433E
:1033A80087B004460F4691469846FFF75BF90646F4
:1033B80094F83D50EDB2202D40F05F8100902046FA
:1033C800954901221923FFF79FFC002840F05781F7
:1033D80094F83C30012B00F05481012384F83C30F0
:1033E80023681A6812F0010F03D11A6842F001022B
:1033F8001A6023681A6822F400621A60222384F88B
:103408003D30102384F83E3000232364C4F8249010
:10341800A4F82A80A3F58033E362638D23852046D0
:1034280039460E9A3346FFF757FD054660B1236CBF
:10343800042B04D1002384F83C3001252CE100231F
:1034480084F83C30032527E1238D5BB90293236878
:103458005A6902929A690292029A1A6842F40072B0
:103468001A60FAE0012B13D123681A6822F48062EB
:103478001A6072B60023039323685A6903929A6903
:103488000392039A1A6842F400721A6062B6E4E082
:10349800022B13D123681A6842F400621A6072B6CC
:1034A8000023049323685A6904929A690492049A3F
:1034B8001A6822F480621A6062B6CEE023681A683D
:1034C80042F480621A600023059323685A690592C2
:1034D8009B690593059BC0E0032B00F29180012BAB
:1034E80019D120460E993246FFF7D6FD28B1236C34
:1034F800202B40F0C8800325CEE0636A5A1C626224
:10350800226812691A70238D013B2385638D013B64
:103518009BB26385A4E0022B2BD10096204641463E
:103528003A460E9BFFF7F0FB002840F0AE8072B6DB
:1035380023681A6842F400721A60636A5A1C62624D
:10354800226812691A70238D013B2385638D013B24
:103558009BB2638562B6636A5A1C6262226812690A
:103568001A70238D013B2385638D013B9BB26385D4
:1035780076E00096204641463A460E9BFFF7C4FB8C
:10358800002840F0848023681A6822F480621A6058
:1035980072B6636A5A1C6262226812691A70238DB5
:1035A800013B2385638D013B9BB2638500962046D2
:1035B80041463A460E9BFFF7A7FB002869D12368CE
:1035C8001A6842F400721A60636A5A1C62622268BE
:1035D80012691A70238D013B2385638D013B9BB2D1
:1035E800638562B6636A5A1C6262226812691A703D
:1035F800238D013B2385638D013B9BB263852FE0BF
:1036080020460E993246FFF747FD38B1236C202B30
:1036180041D1032540E000BF02001000636A5A1C34
:103628006262226812691A70238D013B2385638DBB
:10363800013B9BB2638523685A6912F0040F0FD0CF
:10364800626A511C61621B691370238D013B2385DB
:10365800638D013B9BB2638502E0DFF8448000275D
:10366800238D002B7FF438AF202384F83D300023CE
:1036780084F83E3084F83C300EE002250CE0022548
:103688000AE0022508E0012506E0032504E00325F9
:1036980002E0032500E00125284607B0BDE8F083D5
:1036A8000400010010B4034600283CD002682049F9
:1036B8008A420AD81F4911441F4AA2FB010109097D
:1036C800890019641D4ADA6309E01D4911441A4A40
:1036D800A2FB01010909890019641A4ADA63022266
:1036E80083F8212019680A6822F47F5222F03002F8
:1036F8005C6898680443D8680443186904435869A7
:10370800044398690443D869204302430A600020AF
:103718009862D862186358639863012283F821205D
:1037280083F8200000E001205DF8044B704700BFDB
:1037380007040240F8FFFDBFCDCCCCCC000002400E
:10374800F8FBFDBF000402400F4B1A6842F001026B
:103758001A6059680D4A0A405A601A6822F0847241
:1037680022F480321A601A6822F480221A605A6899
:1037780022F4FE025A604FF41F029A604FF0006272
:10378800034B9A60704700BF001002400000FFF82A
:1037980000ED00E030B597B01F4BDA6942F48022A3
:1037A800DA61DA6902F480220092009A5A6942F0DA
:1037B80001025A615B6903F001030193019B174DF4
:1037C80006954FF4E13307930024089409940A946A
:1037D80008230B930C940D9406A8FFF74DFA6B6918
:1037E80043F080036B614FF48063029301230493D9
:1037F8000223039303230593094802A9FEF75AFD00
:10380800084B1C60084A9A605C6090221A6070221B
:103818001C3B5A6017B030BD001002400048004001
:10382800000C01401C000240044800402DE9F04112
:103838008AB04A4DEB6943F48003EB61EB6903F40A
:1038480080030193019B6B6943F001036B616B6912
:1038580003F001030293029B0E2001210422FEF7CC
:1038680041FC0E20FEF770FC0F2001210322FEF719
:1038780039FC0F20FEF768FC394E3A4B33603A4B5F
:1038880073600024B460F4604FF480433361746162
:10389800B461F46134623046FFF730FC6B6943F081
:1038A80001036B616B6903F001030393039BAB692D
:1038B80043F00803AB61AB6903F008030493049B6E
:1038C8004FF44063069312230793012308930323BD
:1038D8000993264806A9FEF7EDFCEB6943F480033B
:1038E800EB61EB6903F480030593059B204D214BA5
:1038F8002B606C60AC604FF08008C5F80C802C61C0
:103908006C61AC614FF48057EF612846FFF7CAFE3F
:10391800B5636E62184D194B2B6010236B60AC6059
:10392800C5F80C802C616C61AC61EF612846FFF72B
:10393800B9FE75636E62212021462246FEF7D2FB4E
:103948002120FEF701FC222021462246FEF7CAFB71
:103958002220FEF7F9FB0AB0BDE8F0810010024012
:10396800B001002000580040A0860100000C014072
:10397800440200205800024088020020440002400F
:103988002DE9F04F89B0814B9A6942F004029A619F
:103998009A6902F004020192019A9A6942F00802B7
:1039A8009A619A6902F008020292029A9A6942F0B0
:1039B80010029A619B6903F010030393039B002391
:1039C800059306934FF00208CDF81C804FF0200AAB
:1039D8000DEB0A0444F810AD6D4F38462146FEF74A
:1039E80069FC4023049338462146FEF763FC4FF0F8
:1039F800800BCDF810B038462146FEF75BFC4FF43B
:103A080080630493634D28462146FEF753FC4FF428
:103A18000063049328462146FEF74CFC4FF4805679
:103A2800049628462146FEF745FC049606F1804692
:103A380006F5784630462146FEF73CFCCDF8108066
:103A480030462146FEF736FC4FF00109CDF81490B8
:103A58000423049338462146FEF72CFC10230493D4
:103A680030462146FEF726FCCDF810A03046214608
:103A7800FEF720FC03230593CDF810902846214635
:103A8800FEF718FCCDF8109030462146FEF712FCE0
:103A98000823049328462146FEF70CFCCDF8108035
:103AA80028462146FEF706FC1023049328462146A3
:103AB800FEF700FCCDF810A028462146FEF7FAFBD9
:103AC8000423049328462146FEF7F4FB08230493B5
:103AD80030462146FEF7EEFB042304933046214688
:103AE800FEF7E8FBCDF814804023049328462146CE
:103AF800FEF7E0FBCDF810B028462146FEF7DAFBCA
:103B08004FF4807ACDF810A028462146FEF7D2FB64
:103B1800CDF810B030462146FEF7CCFBCDF810901A
:103B280038462146FEF7C6FBCDF8108038462146B8
:103B3800FEF7C0FBCDF810A030462146FEF7BAFBD1
:103B48004FF40073049330462146FEF7B3FB4FF45D
:103B58008063049330462146FEF7ACFB4FF40053D4
:103B6800049338462146FEF7A5FB4FF4804304939F
:103B780038462146FEF79EFB4FF40043049338462F
:103B88002146FEF797FB09B0BDE8F08F0010024010
:103B9800000C0140001001402DE9F04F99B0754B21
:103BA8009A6942F400629A619A6902F40062019289
:103BB800019A9A6942F400529A619B6903F400538E
:103BC8000293029B6C4EDFF8B891C6F8009000246F
:103BD80074604FF02008C6F808804FF4FA6BC6F8F6
:103BE8000CB034617461B4613046FEF7D3F8102329
:103BF80016931794304616A9FEF708FA60230F9318
:103C08001094119408271297139414944FF4007386
:103C1800159330460FA92246FEF710F930460FA932
:103C28000422FEF70BF930460FA93A46FEF706F9CB
:103C38004FF4006308934FF4806309930A94CDF816
:103C48002C800C940D940E9430460DEB0801FEF771
:103C5800B3F94A4DDFF82CA1C5F800A06C60C5F88F
:103C68000880C5F80CB02C616C61AC612846FEF781
:103C780091F8CDF8588080231793284616A9FEF7A7
:103C8800C5F9049418A9052341F8543D2846FEF7C0
:103C980015F860230F9310941194129713941494A9
:103CA8004FF40073159328460FA92246FEF7C6F86D
:103CB80028460FA90422FEF7C1F828460FA93A465C
:103CC800FEF7BCF84FF4006308934FF48063099340
:103CD8000A94CDF82C800C940D940E9428460DEB84
:103CE8000801FEF769F9DAF8443023F40043CAF80A
:103CF8004430D9F8443023F40043C9F84430284606
:103D08002146FEF717F928460421FEF713F928463D
:103D18003946FEF70FF928462146FEF73BF92846B3
:103D28000421FEF737F928463946FEF733F93046BD
:103D38002146FEF7FFF830460421FEF7FBF830462F
:103D48003946FEF7F7F830462146FEF723F93046A4
:103D58000421FEF71FF930463946FEF71BF92B6898
:103D680001221A6333681A6842F001021A6019B016
:103D7800BDE8F08F001002400402002094030020E8
:103D8800002C0140003401402DE9F04186B0424E3C
:103D9800B36943F40073B361B36903F40073009328
:103DA800009B3E4C3E4B23604FF48073A36000257C
:103DB800E56065614FF44023E36165604FF00508F5
:103DC800C4F810802046FEF7E7FD364B5A6842F4E7
:103DD80080225A6006A94FF4C02341F8043D2046CA
:103DE800FEF73EF9012304930E2202920393204624
:103DF80002A9FEF751FC029502270397204602A963
:103E0800FEF74AFC04970B270297032303932046E7
:103E180002A9FEF741FC0C230293042303932046D6
:103E280002A9FEF739FC0723049310230293CDF867
:103E38000C80204602A9FEF72FFC23689A6842F4FA
:103E4800000242F480729A609A6842F001029A6015
:103E5800736943F001037361736903F0010301930C
:103E6800019B114B1D60C3F80480104A9A60104AE8
:103E7800DA6040F6A2221A601A6842F001021A605B
:103E8800384629462A46FEF72DF93846FEF75CF9EA
:103E980006B0BDE8F08100BF00100240CC0200204F
:103EA8000024014000000140080002404C24014069
:103EB80040030020F0B585B0284B9A6942F480622F
:103EC8009A619B6903F480630093009B244C254B03
:103ED80023604FF48073A3600023E36063614FF4B1
:103EE8006022E2616360052626612046FEF754FDE4
:103EF800012303930F2201920293204601A9FEF7A2
:103F0800CBFB0D23019302250295204601A9FEF75C
:103F1800C3FB03950A23019303270297204601A9AF
:103F2800FEF7BAFB01950423029320460DEB03012B
:103F3800FEF7B2FB0723039301970296204601A9D7
:103F4800FEF7AAFB23689A6842F480729A609A681E
:103F580042F001029A6005B0F0BD00BF00100240B7
:103F6800800100200028014070B50D4B1B681333F9
:103F7800262B14D800240B4B1C700B4B1C700B4EBB
:103F8800642504E034702846FEF772FB0134072CE0
:103F9800F8DD074820210022FEF798FAFEE770BDF9
:103FA80090040020D4000020E8000020F000002049
:103FB8000008014010B5054C052323704FF4FA7032
:103FC800FEF756FB0023237010BD00BFF000002051
:103FD80010B5044C052323706420FEF749FB002329
:103FE800237010BDF000002008B5FDF765F9044BFB
:103FF8001888044B198801F079FCFDF771F908BDA0
:1040080008000020CC00002030B597B002250C95A0
:1040180001231093102311931395002414944FF443
:10402800601315930CA8FDF70BFA0F230793089557
:1040380009944FF480630A930B9407A82946FDF767
:1040480041FC01954FF44043039301A8FEF748FA59
:10405800FDF708FD084BA3FB00208009FEF780F858
:104068000420FEF793F84FF0FF3021462246FEF772
:1040780039F817B030BD00BFD34D62100000000002
:104088002DE9F04F8BB0FEF7D3FAB74CA36943F094
:104098000103A361A36903F001030993099B0320AA
:1040A800FEF70EF86FF00B0000210A46FEF71AF82B
:1040B8006FF00A0000210A46FEF714F86FF00900B5
:1040C80000210A46FEF70EF86FF0040000210A46A8
:1040D800FEF708F86FF0030000210A46FEF702F821
:1040E8006FF0010000210A46FDF7FCFF4FF0FF309A
:1040F80000210A46FDF7F6FFFFF786FF636923F004
:1041080001036361FFF73CFCFFF746FDFFF73CFE48
:10411800FFF7D0FEFFF73EFB944820210122FEF76F
:10412800D5F99348FEF794FB9248FEF791FB0424D7
:10413800914E642505E0630033702846FEF798FA2F
:10414800013C002CF7DA04248B4E642506E063005A
:10415800013B33702846FEF78BFA013C002CF6DA57
:104168000022854B1A700122844B1A70FDF7A4F8BF
:1041780001F024FA824C834B1888214601F0FCF99F
:10418800FDF7AEF82088FCF7A7F900227E4BFCF774
:1041980033FBFCF7E9FC0490FCF7B0F970A3D3E912
:1041A8000023FCF771FC10B14FF07E510491FFF72A
:1041B8003DFB764C272384F840300523636404F1E3
:1041C80048007349542201F063FF01262670002538
:1041D80084F83C50204601F0D9FD3220FEF748FA19
:1041E800204601F017FD3220FEF742FA2046294604
:1041F8002A4601F0EFFC2046664901F0F5FC20460E
:104208002946324601F0E6FC2046634901F0ECFC01
:104218000796564F614E23E001356420FEF728FAD1
:10422800142D1DDD204601F0F5FC0520FEF720FACF
:10423800204600210A4601F0CDFC2046314601F017
:10424800D3FC20460021012201F0C4FC2046544939
:1042580001F0CAFC4FF4FA60FEF70AFA002207924E
:1042680038460221FEF72AF90028D5D1474C2046C6
:1042780001F0D0FC0520FEF7FBF9204600210122C1
:1042880001F0A8FC2046474901F0AEFC2046082171
:10429800012201F09FFC2046434901F0A5FC20467D
:1042A8000F21012201F096FC2046404901F09CFCB8
:1042B800204600210A4601F08DFC20463C4901F0C9
:1042C80093FC20460821002201F084FC204639494D
:1042D80001F08AFC20460E21002201F07BFC2046DA
:1042E800354901F081FC354804210122FEF7EEF83A
:1042F800334B188A80B2FCF73DFD069001221F4B14
:104308001A70002305939B4601E00596BB460220E0
:10431800FEF7AEF915480221FEF7D0F800287ED046
:104328000022164B1A70114D02240A2602E030466C
:10433800FEF79EF928462146FEF7C0F80028F6D178
:10434800FFF746FE4FF49670FEF792F907480221F0
:10435800FEF7B4F8B0BB47E03046FEF789F934E021
:104368009A9999999999C93F00100240000801400B
:10437800CC02002080010020F0000020E80000208E
:10438800CC0000200800002000408F40D40300200B
:10439800B00100202C690008406900085069000835
:1043A80064690008746900087C690008806900086D
:1043B800846900088C69000890690008000C0140B5
:1043C80040030020A24D02240A2628462146FEF773
:1043D80075F80028C0D1FFF7EDFD4FF4AF70FEF778
:1043E80047F9FFF7C1FD1AE004984FF07A51FCF73E
:1043F80011FC0490FCF782F88DA3D3E90023FCF7A5
:1044080061FB10B14FF07C51049104989149FCF77D
:1044180009FDFCF7F3FE904B1880FFF7E5FD8F4B85
:104428005B8A9BB2B43BB3F5805F0BDA8B4B5B8A3C
:104438009BB2B42B04D4894B5E8AB43EB6B203E077
:10444800002601E040F6FF76844BD88980B2A0F5BB
:104458000060FCF741F800224FF07D53FCF7A2F80A
:10446800FCF782FB8146B04604987D49FCF7DAFCEC
:10447800FCF79EFE361A5846FCF780FC7949FCF793
:10448800D1FCFCF73BF8CDE902013046FCF724F8F3
:1044980004460D4600220023FCF7F6FA28B17342C1
:1044A800322BD4BF0023012303E0322ED4BF0023D4
:1044B800012373B12046294600220023FCF7E4FAC1
:1044C80018B17042FCF75AFC04E03046FCF756FC81
:1044D80000E065484946FCF7A5FCFCF70FF84FF0EB
:1044E8003332624BFCF75EF802460B4620462946FB
:1044F800FBF7A6FE00225E4BFCF7E4FA002876D113
:104508002046294600220023FCF7BEFA28B1734250
:10451800322BD4BF0023012303E0322ED4BF002363
:10452800012373B12046294600220023FCF7ACFA88
:1045380018B17042FCF722FC04E03046FCF71EFC80
:1045480000E049484946FCF76DFCFBF7D7FF4FF000
:104558003332464BFCF726F802460B4620462946DE
:10456800FBF76EFE34A3D3E90023FCF78DFA00288D
:1045780037D12046294600220023FCF785FA28B1C6
:104588007342322BD4BF0023012303E0322ED4BF61
:104598000023012373B12046294600220023FCF79B
:1045A80073FA18B17042FCF7E9FB04E03046FCF7F7
:1045B800E5FB00E02C484946FCF734FCFBF79EFF7E
:1045C8004FF03332294BFBF7EDFF02460B462046EE
:1045D8002946FBF735FE1AA3D3E90023FBF7E2FFD0
:1045E80002E019A1D1E9000102460B4602E04FF0B2
:1045F8009662204BDDE90201FBF722FEFCF76CFA1C
:1046080007460598FCF7BAFB1649FCF70BFCFBF7C5
:1046180075FFCDE902012046294600220023FCF758
:1046280033FA48B37342322BD4BF0023012327E067
:10463800CDCCCCCCCCCC044000000000007087C0AE
:10464800000000A09999C9BF0000B00400C06240F2
:104658000008014000007A44CC00002040030020FC
:104668000020A844CDCC4C3F000048423333F33FF0
:104678000070874000C062C0322ED4BF00230123DF
:1046880073B12046294600220023FCF7FDF918B132
:104698007042FCF773FB04E03046FCF76FFB00E068
:1046A80067484946FCF7BEFBFBF728FF4FF033325B
:1046B800644BFBF777FF02460B4620462946FBF77B
:1046C800BDFD0022604BFCF7FDF9002876D120469D
:1046D800294600220023FCF7D7F928B17342322B70
:1046E800D4BF0023012303E0322ED4BF00230123CB
:1046F80073B12046294600220023FCF7C5F918B1FA
:104708007042FCF73BFB04E03046FCF737FB00E067
:104718004B484946FCF786FBFBF7F0FE4FF0333277
:10472800484BFBF73FFF02460B4620462946FBF75E
:1047380085FD3DA3D3E90023FCF7A6F9002837D16E
:104748002046294600220023FCF79EF928B173422F
:10475800322BD4BF0023012303E0322ED4BF002321
:10476800012373B12046294600220023FCF78CF967
:1047780018B17042FCF702FB04E03046FCF7FEFA81
:1047880000E02F484946FCF74DFBFBF7B7FE4FF01A
:1047980033322C4BFBF706FF02460B4620462946D0
:1047A800FBF74CFD22A3D3E90023FBF7FBFE02E055
:1047B80021A1D1E9000102460B4602E04FF09662C2
:1047C800224BDDE90201FBF73BFDFCF785F90BF114
:1047D800320ABA4547DDABF13203BB4243DA059AE8
:1047E80002F1320383423EDDA2F1320383423ADA18
:1047F80016F5967F34DD164B1F604042154B186046
:10480800079B63B114480421FDF758FE18B901222B
:10481800124B1A7027E00022104B1A7023E0012275
:104828000E4B1A701FE000BF00000000007087C028
:10483800000000A09999C9BF0000B00400C0624000
:10484800000048423333F33F0070874000C062C025
:10485800EC000020F4000020000C0140E8000020DB
:104868000022A14B1A704046FBF736FE96A3D3E907
:104878000023FBF7C1FF06460F460498FBF73EFEF0
:1048880004460D463046394622462B46FBF7D6FCF1
:104898000022964BFCF716F968B300200021224647
:1048A8002B46FBF7CBFC0022904BFCF70BF910B31F
:1048B8004FF000098C4B83F80090FFF77BFBDFF883
:1048C8004C82404601F0A6F90520FDF7D1FE40468E
:1048D80049464A4601F07EF94046854901F084F987
:1048E80040464946012201F075F94046814901F0E8
:1048F8007BF9FFF739FB804B1B88804AA2FB031228
:104908005209642101FB12339BB2002B72D1DFF8EC
:10491800FC8140460421002201F05CF94FF00209B5
:10492800CDF80090404632463B4601F0A7F9404694
:104938000A21002201F04EF9CDF8009040462246A7
:104948002B4601F09BF940460421012201F042F96F
:104958006B4B1868FBF7D2FD02460B460124009406
:10496800404601F08BF940460B21224601F032F90E
:10497800644B18680021FCF7F3FB20B1614B1C68FD
:1049880004F1004401E05F4B1C685F4B186800218C
:10499800FCF7E6FB20B15C4B196801F1004101E02E
:1049A800594B19682046FCF7F9FB68B1554B186854
:1049B8000021FCF7D5FB20B1524B186800F10040EC
:1049C8000FE0504B18680CE04F4B18680021FCF7BB
:1049D800C7FB20B14C4B186800F1004001E04A4B7E
:1049E8001868FBF78BFD02460B46022100914748E9
:1049F80001F044F9464F3868FBF76EFD34A3D3E95C
:104A08000023FBF7CFFD04460D46424B1868FBF721
:104A180063FD31A3D3E90023FBF7C4FD02460B462F
:104A280020462946FBF70CFCFCF756F8064638608A
:104A3800394F3868FBF750FD25A3D3E90023FBF76E
:104A4800B1FD04460D46354B1868FBF745FD22A31A
:104A5800D3E90023FBF7A6FD02460B46204629466C
:104A6800FBF7EEFBFCF738F83860FBF735FD002262
:104A78001E4BFBF797FD804689463046FBF72CFD19
:104A880000221A4BFBF78EFD04460D464046494668
:104A980022462B46FBF7D2FB06460F460022204B48
:104AA800FCF710F800283FD1304639460CA3D3E96B
:104AB8000023FBF7E9FF28B930463946FCF70CF824
:104AC800064633E0174E31E0000000000004954030
:104AD800CDCCCCCCCCCCEC3F9A9999999999B93F4B
:104AE8000000000000408FC0E80000200000E03F08
:104AF80094690008A4690008CE0000201F85EB51C6
:104B08002000002000010020FC000020D403002029
:104B180088040020980400209004002084040020C9
:104B280000408F4018FCFFFF4FF47A764046494614
:104B380022462B46FBF784FB04460D460022804B99
:104B4800FBF7C0FF78B92046294677A3D3E90023AD
:104B5800FBF79AFF28B920462946FBF7BDFF074611
:104B680003E0784F01E04FF47A77574515DAABF157
:104B7800320B5F4511DD059A02F132039E420CDAD1
:104B8800A2F132039E4208DD6F4B1B68042B04D848
:104B98006E4B1E607A426E4B1A606E4B1B686E4AF3
:104BA800A2FB0312D20802EB820202EB82029342BA
:104BB80053D10698FBF7A2FC5DA3D3E90023FBF7CA
:104BC800F1FC04460D46DFF8D081B8F8100080B239
:104BD800FCF7D0F8FBF792FC57A3D3E90023FBF7C7
:104BE800E1FC02460B4620462946FBF729FBFBF76A
:104BF800BBFF06905949FCF70BF85949FCF712F925
:104C08005849FCF707F804460220314601F092F9AA
:104C18000320394601F08EF9B8F80C10042089B247
:104C280001F088F9504B18685049FCF7FBF8FCF77D
:104C3800BFFA0146052001F07DF90698FCF7B8FA9D
:104C48000146062001F076F92046FCF7B1FA014644
:104C5800072001F06FF901F073F945480221FDF7CB
:104C68002DFC90B1434B1B687BB9434B1B6863B960
:104C78000022424B1A703E4D022428462146FDF779
:104C88001DFC0028F9D1FFF76FF9374B1C68204647
:104C98003B49FCF765FA38B13A4B1B681333262BAE
:104CA80002D8FFF761F921E020463749FCF758FAA6
:104CB80058B120463249FCF771FA30B10522334B1E
:104CC8001A700622324B1A7010E02E4B1B6813F133
:104CD800320F06DA05222D4B1A7001222C4B1A705E
:104CE80004E00023294A1370294A137087EAE773FE
:104CF800A3EBE773322B05DC86EAE673A3EBE673D6
:104D0800322B03DD0022134B1A6003E0114B1A68A3
:104D180001321A600F4B1A681E4B9A427FF6F5AAA9
:104D2800FFF722F9FFF7F1BA0000000000408FC03A
:104D3800AE47E17A14AEEF3F7B14AE47E17A843F89
:104D480000408F4018FCFFFF04000020F400002002
:104D5800EC000020780400201F85EB5100E0CE44D1
:104D6800083748BE33330F42200000200000C842F5
:104D780000080140E0000020D8000020E8000020E2
:104D8800CCCC06429004002000000C42F000002029
:104D9800D40000200071020040030020AFF300801F
:104DA8002DE9F8430222704B5A60704B1B68B3F52B
:104DB8007A7F3BDA01336D4A13606D4B998889B26B
:104DC8006C4A1068014401EBD17149101160D9880F
:104DD80089B2694A1068014401EBD1714910116028
:104DE800198889B2654A1068014401EBD1714910EC
:104DF8001160598889B2624A1068014401EBD17187
:104E080049101160598989B25E4A1068014401EB62
:104E1800D171491011601A8992B25B4B19680A4422
:104E280002EBD27252101A60BDE8F883574B1E6825
:104E3800574BA3FB06139B094FF47A7202FB1363CB
:104E480013BB544F3868FBF759FB41A3D3E9002340
:104E5800FBF7A8FB04460D46454B988980B2FBF743
:104E680089FF4D49FBF7DEFFFBF748FB3AA3D3E97F
:104E78000023FBF797FB02460B4620462946FBF723
:104E8800DFF9FBF771FE3860394B588980B23D4B2A
:104E98001B68C01AFBF720FB31A3D3E90023FBF7FB
:104EA80081FBFBF761FE04463C4B18600021FCF7D0
:104EB80057F928B120463A49FCF752F960B904E09D
:104EC80020463849FCF76AF930B9374B1B68052B7F
:104ED80002D8364B1B782BB9354B5A6C22F400425A
:104EE8005A6404E0324B5A6C42F400425A64204B34
:104EF800188980B2244B1B68C01AFBF7EDFA18A377
:104F0800D3E90023FBF74EFBFBF72EFE0446294BA3
:104F180018600021FCF724F928B120462049FCF745
:104F28001FF968B904E020461E49FCF737F938B97B
:104F38001D4B1B68052B03D81C4B1B78002B3DD140
:104F48001D4B5A6C22F400425A643CE0AFF30080D7
:104F5800AE47E17A14AEEF3F7B14AE47E17A843F67
:104F68007B14AE47E17A943F00000240D000002055
:104F78004003002014000020100000201C00002026
:104F8800180000202400002028000020F80000203D
:104F9800D34D62102000002017B9CE3CFC00002041
:104FA800000070C10000704104000020E8000020EB
:104FB8000034014000010020002C01408E4B5A6C47
:104FC80042F400425A648D4B9A6812F0200F14BFC5
:104FD80000220122996811F0400F14BF002101211D
:104FE8009B6813F0800F14BF00200120844B9C683D
:104FF80014F4806F14BF002501259C6814F4006F19
:1050080014BF002701279B6813F4805F01EB40035E
:1050180002EB43037B4CE25C7B4B1A601A6802F19B
:1050280002021A601868794981FB0082A2EBE072DB
:1050380002EB42024FEA4202C2EB00021A600CBFC6
:10504800022200223A4405EB4202A05C704A10603A
:10505800106802301060106881FB0091A1EBE071CC
:1050680001EB41014900411A11601B68694A9088A7
:1050780080B269490968441AD18889B267480268C8
:105088008A1A052B18D8DFE803F003070A0D101356
:10509800A21A634B1A6012E0614B1C600FE0604B70
:1050A8001C600CE05E4B1A6009E05D4B1A6006E07C
:1050B800121B5B4B1A6002E00022594B1A60013642
:1050C800584B1E60584B1B68ABB15849A1FB0621D1
:1050D800090B574A12680132B1FBF2F002FB1012B9
:1050E8004AB9B6FBF3F203FB12664EB951481021D8
:1050F800FDF7F2F904E04F4810210022FDF7E6F928
:105108004D4B1A68404B1B68052B1AD8DFE803F093
:1051180003070B0E111515465242002614E056429D
:105128001546002210E0564200250DE055420026A3
:105138000AE055421646002206E01646524200256D
:1051480002E00022154616463C4B1868304B1B6897
:10515800052B1ED8DFE803F003080D1115190746C3
:1051680040424FF0000C17E0C0F1000C0746002049
:1051780012E0C0F1000C00270EE047424FF0000C8F
:105188000AE047428446002006E084464042002761
:1051980002E0002007468446274B1968002951DDA4
:1051A800274B1968184B1C680534184B83FB04936C
:1051B800A3EBE47303EB43035B00E31A052B70D8FE
:1051C800DFE803F003070B0E11150B4649420024D4
:1051D8006CE04C420B46002168E04C42002365E03D
:1051E8004B42002462E04B420C4600215EE00C4634
:1051F800494200235AE000BF002C0140000C014046
:1052080000100140B4690008DC000020ABAAAA2AFB
:10521800E4000020400300201400002010000020BB
:1052280004010020F8000020F00000205917B7D131
:10523800D400002000080140EC000020F400002009
:10524800D8000020784B19684B42784C246804F148
:105258000108774C84FB0894A4EBE87404EB44043D
:105268006400C4EB0804052C04D8DFE804F01E072A
:105278000A0E131700210B460C4617E00C460021B6
:1052880014E00C461946002310E01C460B46214644
:1052980000240BE01C460B46002107E01C460023B7
:1052A80004E000210B460C4600E0002426441D447F
:1052B80001EB02085F4B1B68002B2ADD5E4B1A6866
:1052C8005E4B1C6805345A4B83FB0493A3EBE473D1
:1052D80003EB43035B00E31A052B47D8DFE803F031
:1052E80003070B0E111513465242002143E05142A9
:1052F800134600223FE0514200233CE05342002184
:1053080039E053421146002235E01146524200234B
:1053180031E0494B1A68534248490C680134444902
:1053280081FB0491A1EBE47101EB41014900611A91
:10533800052904D8DFE801F01E070A0E131700221A
:105348001346114617E01146002214E011461A468A
:10535800002310E0194613460A4600210BE01946BF
:105368001346002207E01946002304E000221346F2
:10537800114600E0002161443B44024406F57A7678
:1053880040F2C670864203DC0A2EB8BF0A2601E046
:1053980040F2C6762A48466305F57A7540F2C6702B
:1053A800854203DC0A2DB8BF0A2501E040F2C67524
:1053B8002348856308F57A7440F2C670844203DC9A
:1053C8000A2CB8BF0A2401E040F2C6741C48C46322
:1053D80001F57A7140F2C670814203DC0A29B8BF30
:1053E8000A2101E040F2C6711648416303F57A7359
:1053F80040F2C6718B4203DC0A2BB8BF0A2301E0D6
:1054080040F2C6730F498B6302F57A7240F2C67395
:105418009A4203DC0A2AB8BF0A2201E040F2C672A7
:10542800084BDA63BDE8F883D8000020DC000020D0
:10543800ABAAAA2AF4000020E0000020E400002023
:1054480000340140002C0140074A4FF6FF7104E088
:1054580003889BB28B4204D104309042F8D90120D2
:1054680070470020704700BFFF870008134B1B8858
:1054780099B2134B1B889BB278B1012811D12BB973
:105488004EF6EE6399420ED10020704769B94EF688
:10549800EE6293420BD14020704751B15BB9402076
:1054A80070470020704740207047AB2070470020AD
:1054B800704700207047AB20704700BF008000088D
:1054C80000800108F8B507460E460120FFF7CEFF19
:1054D800AB281FD000F580341034E402C3020E4D0F
:1054E8001D4413E02368B3F1FF3F0ED1012021468C
:1054F800B2B20023FBF736FF00B1F8BD0120A11CB2
:10550800BAB20023FBF72EFFF8BD0434AC42E9D34E
:105518008020F8BDAB20F8BDFF87000800B587B034
:105528000023059301931248039001230493FFF786
:105538008BFF20B901A805A9FCF762FE88B90120F4
:105548000B4900220023FBF70DFF58B909480390C7
:10555800FFF77AFF38B901A805A9FCF751FE20B971
:1055680003E002E001E00020FFE707B05DF804FB7C
:10557800008000080080010870B505460E4600202E
:10558800FFF774FFAB2813D0C2020A4B13440A4C2E
:10559800144409E01A8892B2AA4204D133F8023CB2
:1055A8003380002070BD043B9C42F3D3012070BDC2
:1055B800AB2070BDFE870008028000082DE9F0438B
:1055C80087B000210591954A13889BB294480088BA
:1055D80080B201910392012204924EF6EE62934248
:1055E8003AD04FF6FF72934203D0002B40F0F78079
:1055F8009CE078B98948FFF727FF0446002840F067
:10560800F38001A805A9FCF7FBFD002800F0018143
:105618000446FEE04EF6EE63984216D17F48FFF747
:1056280013FF38B901A805A9FCF7EAFD04460028CC
:1056380040F0EF8001207A4900220023FBF792FE18
:105648000446002800F0D280E3E0FFF767FF044635
:10565800002800F0CD80DCE0F0B146E0B8F800307A
:105668009BB22C4637F81500834200D1AEB233B254
:105678009C420ED04946FFF77FFF012809D037F832
:105688001400B9F80010FFF71DFF0446002840F089
:10569800C0800135ADB207E04FF6FF760025DFF890
:1056A8008881604FDFF88491022DD7D901205B49AA
:1056B80000220023FBF756FE0446002840F0A9808C
:1056C800002301935648039001230493FFF7BCFE7F
:1056D8000446002840F08E8001A805A9FCF790FD3B
:1056E800002800F09680044693E04FF6FF73984236
:1056F80016D14B480390FFF7A7FE38B901A805A9B2
:10570800FCF77EFD0446002840F0838001204349D1
:1057180000220023FBF726FE044600286CD078E020
:10572800FFF7FCFE0446002868D072E028B9FFF7AE
:10573800F5FE0446002863D06BE04FF6FF739842ED
:105748002AD137480390FFF77FFE0446002859D135
:1057580001A805A9FCF754FD00285AD0044658E0D2
:10576800B8F800309BB2254637F81400834200D1C0
:10577800A6B233B29D420CD04946FFF7FDFE012880
:1057880007D037F81500B9F80010FFF79BFE00287E
:105798003AD10134A4B207E04FF6FF760024DFF8CF
:1057A8009080204FDFF88490022CD9D901201C4921
:1057B80000220023FBF7D6FD044650BB00230193CB
:1057C8001648039001230493FFF73EFE0446E8B908
:1057D80001A805A9FCF714FDD8B1044619E0FFF7A4
:1057E8009DFE0446A0B114E0002412E0002410E05D
:1057F80000240EE000240CE000240AE0002408E065
:10580800002406E0002404E0044602E0002400E04E
:105818000024204607B0BDE8F08300BF00800008E0
:105828000080010808000020068000080801002008
:10583800068001082DE9F04786B005460C46002091
:105848000590FFF713FE402804D0002840D1234FCD
:10585800234E01E0224F214E012031464EF6EE62E2
:105868000023FBF77FFD00B135E028462146FFF70E
:1058780029FE78BB0024DFF86C80DFF86C9011E01B
:1058880038F81400A8420BD04946FFF775FE0128E6
:1058980006D038F81400B9F80010FFF713FED0B995
:1058A8000134A4B2022CEBD90023019303970123FE
:1058B800049301A805A9FCF7A3FC00B10BE00120A3
:1058C800314600220023FBF74DFD00B103E002E062
:1058D800AB2000E0FFE706B0BDE8F08700800008D5
:1058E80000800108080000200801002038B505469E
:1058F8000C46FFF7E7FD802803D128462146FFF72D
:1059080099FF38BD08B50246084B1B784BB94030A3
:1059180092F8341000F0E0FA28B10120034B187017
:1059280008BD012008BD002008BD00BF0A010020F5
:1059380008B559B1836B53F82230012202FA03F3F8
:1059480090F83420134380F834300BE0836B53F81D
:105958002230012202FA03F390F8342022EA0303EA
:1059680080F83430FFF7CEFF08BD00BF08B501F05E
:1059780001010722FFF7DCFF08BD00BF08B511F0E1
:10598800010F0AD0836B1B68012202FA03F390F817
:105998003420134380F834300AE0836B1B680122FB
:1059A80002FA03F390F8342022EA030380F8343033
:1059B80011F0020F0AD0836B5B68012202FA03F32D
:1059C80090F83420134380F834300AE0836B5B6826
:1059D800012202FA03F390F8342022EA030380F844
:1059E800343011F0040F0AD0836B9B68012202FA4D
:1059F80003F390F83420134380F834300AE0836BC3
:105A08009B68012202FA03F390F8342022EA030388
:105A180080F8343011F0080F0AD0836BDB6801225C
:105A280002FA03F390F83420134380F834300AE084
:105A3800836BDB68012202FA03F390F8342022EA30
:105A4800030380F83430FFF75DFF08BDF0B583B07D
:105A580004460D4600210622FFF76AFF2046002172
:105A68000422FFF765FF204601210522FFF760FFAA
:105A7800204601210622FFF75BFF04F1400630466D
:105A8800294600F041FAA36BDB68012707FA03F304
:105A98002A7813402B70A26BD26813412B702046D2
:105AA80000210622FFF744FF204639460622FFF769
:105AB8003FFF30460DF1070100F026FA204600218D
:105AC8000622FFF735FF204600210522FFF730FFA9
