:020000040800F2
:1000000000C00020153D0008DF3C0008E13C00086E
:10001000E33C0008E53C0008E73C00080000000065
:10002000000000000000000000000000E93C0008A3
:10003000EB3C000800000000ED3C0008EF3C00082D
:100040005D3D00085D3D00085D3D00085D3D000828
:100050005D3D00085D3D00085D3D00085D3D000818
:100060005D3D0008013D00085D3D00088935000840
:100070005D3D00085D3D00085D3D00085D3D0008F8
:100080005D3D00085D3D00085D3D00085D3D0008E8
:100090005D3D00085D3D00085D3D00085D3D0008D8
:1000A0005D3D00085D3D00085D3D00085D3D0008C8
:1000B0005D3D00085D3D00085D3D00085D3D0008B8
:1000C0005D3D00085D3D00085D3D00085D3D0008A8
:1000D0005D3D00085D3D00085D3D00085D3D000898
:1000E0005D3D00085D3D00085D3D00085D3D000888
:1000F0005D3D00085D3D00085D3D00085D3D000878
:100100005D3D00085D3D00085D3D00085D3D000867
:100110005D3D00085D3D00085D3D00085D3D000857
:100120005D3D00085D3D00085D3D00085D3D000847
:1001300000000000000000000000000000000000BF
:1001400000000000000000000000000000000000AF
:10015000000000000000000000000000000000009F
:10016000000000000000000000000000000000008F
:10017000000000000000000000000000000000007F
:10018000000000000000000000000000000000006F
:10019000000000000000000000000000000000005F
:1001A000000000000000000000000000000000004F
:1001B000000000000000000000000000000000003F
:1001C000000000000000000000000000000000002F
:1001D000000000000000000000000000000000001F
:0401E0005FF8E0F1F3
:1001E80010B5054C237833B9044B13B10448AFF369
:1001F80000800123237010BD2800002000000000AB
:10020800A83D000808B5034B1BB103490348AFF3E9
:10021800008008BD000000002C000020A83D000858
:1002280081F0004102E000BF83F0004330B54FEA9F
:1002380041044FEA430594EA050F08BF90EA020F0C
:100248001FBF54EA000C55EA020C7FEA645C7FEA9F
:10025800655C00F0E2804FEA5454D4EB5555B8BFC2
:100268006D420CDD2C4480EA020281EA030382EA33
:10027800000083EA010180EA020281EA0303362DC5
:1002880088BF30BD11F0004F4FEA01314FF4801C98
:100298004CEA113102D0404261EB410113F0004FAA
:1002A8004FEA03334CEA133302D0524263EB430361
:1002B80094EA050F00F0A780A4F10104D5F1200EFF
:1002C8000DDB02FA0EFC22FA05F2801841F100015A
:1002D80003FA0EF2801843FA05F359410EE0A5F12E
:1002E80020050EF1200E012A03FA0EFC28BF4CF05F
:1002F800020C43FA05F3C01851EBE37101F0004515
:1003080007D54FF0000EDCF1000C7EEB00006EEB21
:100318000101B1F5801F1BD3B1F5001F0CD34908AB
:100328005FEA30004FEA3C0C04F101044FEA445202
:1003380012F5800F80F09A80BCF1004F08BF5FEA89
:10034800500C50F1000041EB045141EA050130BD69
:100358005FEA4C0C404141EB010111F4801FA4F10C
:100368000104E9D191F0000F04BF01460020B1FA61
:1003780081F308BF2033A3F10B03B3F120020CDA99
:100388000C3208DD02F1140CC2F10C0201FA0CF077
:1003980021FA02F10CE002F11402D8BFC2F1200CDC
:1003A80001FA02F120FA0CFCDCBF41EA0C01904092
:1003B800E41AA2BF01EB0451294330BD6FEA0404DB
:1003C8001F3C1CDA0C340EDC04F11404C4F12002C6
:1003D80020FA04F001FA02F340EA030021FA04F3D8
:1003E80045EA030130BDC4F10C04C4F1200220FA2F
:1003F80002F001FA04F340EA0300294630BD21FA6D
:1004080004F0294630BD94F0000F83F4801306BF32
:1004180081F480110134013D4EE77FEA645C18BF26
:100428007FEA655C29D094EA050F08BF90EA020FBD
:1004380005D054EA000C04BF1946104630BD91EAB5
:10044800030F1EBF0021002030BD5FEA545C05D1B8
:100458004000494128BF41F0004130BD14F58004F7
:100468003CBF01F5801130BD01F0004545F0FE416B
:1004780041F470014FF0000030BD7FEA645C1ABFA0
:10048800194610467FEA655C1CBF0B46024650EAD7
:10049800013406BF52EA033591EA030F41F4002103
:1004A80030BD00BF90F0000F04BF0021704730B589
:1004B8004FF4806404F132044FF000054FF000015E
:1004C80050E700BF90F0000F04BF0021704730B51F
:1004D8004FF4806404F1320410F0004548BF4042F4
:1004E8004FF000013EE700BF42004FEAE2014FEA49
:1004F80031014FEA02701FBF12F07F4393F07F4F24
:1005080081F06051704732F07F4208BF704793F026
:100518007F4F04BF41F40021704730B54FF4607439
:1005280001F0004521F000411CE700BF50EA01023C
:1005380008BF704730B54FF000050AE050EA0102E5
:1005480008BF704730B511F0004502D5404261EB55
:1005580041014FF4806404F132045FEA915C3FF496
:10056800D8AE4FF003025FEADC0C18BF03325FEA33
:10057800DC0C18BF033202EBDC02C2F1200300FAE4
:1005880003FC20FA02F001FA03FE40EA0E0021FA09
:1005980002F11444BDE600BF70B54FF0FF0C4CF4F7
:1005A800E06C1CEA11541DBF1CEA135594EA0C0FA9
:1005B80095EA0C0F00F0DEF82C4481EA030621EAE4
:1005C8004C5123EA4C5350EA013518BF52EA03351F
:1005D80041F4801143F4801338D0A0FB02CE4FF0D1
:1005E8000005E1FB02E506F00042E0FB03E54FF001
:1005F8000006E1FB03569CF0000F18BF4EF0010EF9
:10060800A4F1FF04B6F5007F64F5407404D25FEAF4
:100618004E0E6D4146EB060642EAC62141EA5551A7
:100628004FEAC52040EA5E504FEACE2EB4F1FD0CE9
:1006380088BFBCF5E06F1ED8BEF1004F08BF5FEA67
:10064800500E50F1000041EB045170BD06F0004619
:1006580046EA010140EA020081EA0301B4EB5C04C6
:10066800C2BFD4EB0C0541EA045170BD41F48011BE
:100678004FF0000E013C00F3AB8014F1360FDEBFE3
:10068800002001F0004170BDC4F10004203C35DABF
:100698000C341BDC04F11404C4F1200500FA05F342
:1006A80020FA04F001FA05F240EA020001F00042E3
:1006B80021F0004110EBD37021FA04F642EB060159
:1006C8005EEA430E08BF20EAD37070BDC4F10C0483
:1006D800C4F1200500FA04F320FA05F001FA04F247
:1006E80040EA020001F0004110EBD37041F1000133
:1006F8005EEA430E08BF20EAD37070BDC4F120053E
:1007080000FA05F24EEA020E20FA04F301FA05F2A5
:1007180043EA020321FA04F001F0004121FA04F24D
:1007280020EA020000EBD3705EEA430E08BF20EA1D
:10073800D37070BD94F0000F0FD101F00046400057
:1007480041EB010111F4801F08BF013CF7D041EAD9
:10075800060195F0000F18BF704703F000465200DD
:1007680043EB030313F4801F08BF013DF7D043EAAE
:100778000603704794EA0C0F0CEA135518BF95EA64
:100788000C0F0CD050EA410618BF52EA4306D1D1EB
:1007980081EA030101F000414FF0000070BD50EA0A
:1007A800410606BF1046194652EA430619D094EA94
:1007B8000C0F02D150EA013613D195EA0C0F05D17E
:1007C80052EA03361CBF104619460AD181EA0301D2
:1007D80001F0004141F0FE4141F470014FF000008A
:1007E80070BD41F0FE4141F4780170BD70B54FF025
:1007F800FF0C4CF4E06C1CEA11541DBF1CEA1355A5
:1008080094EA0C0F95EA0C0F00F0A7F8A4EB050486
:1008180081EA030E52EA03354FEA013100F088807D
:100828004FEA03334FF0805545EA131343EA126346
:100838004FEA022245EA111545EA10654FEA0026FB
:100848000EF000419D4208BF964244F1FD0404F5B4
:10085800407402D25B084FEA3202B61A65EB030510
:100868005B084FEA32024FF480104FF4002CB6EBCD
:10087800020E75EB030E22BFB61A754640EA0C004D
:100888005B084FEA3202B6EB020E75EB030E22BF8D
:10089800B61A754640EA5C005B084FEA3202B6EBCE
:1008A800020E75EB030E22BFB61A754640EA9C008D
:1008B8005B084FEA3202B6EB020E75EB030E22BF5D
:1008C800B61A754640EADC0055EA060E18D04FEA1B
:1008D800051545EA16754FEA06164FEAC30343EABB
:1008E80052734FEAC2025FEA1C1CC0D111F4801F88
:1008F8000BD141EA00014FF000004FF0004CB6E781
:1009080011F4801F04BF01430020B4F1FD0C88BF1F
:10091800BCF5E06F3FF6AFAEB5EB030C04BFB6EB2A
:10092800020C5FEA500C50F1000041EB045170BD1D
:100938000EF0004E4EEA113114EB5C04C2BFD4EB4A
:100948000C0541EA045170BD41F480114FF0000ECE
:10095800013C90E645EA060E8DE60CEA135594EA4A
:100968000C0F08BF95EA0C0F3FF43BAF94EA0C0F4D
:100978000AD150EA01347FF434AF95EA0C0F7FF4C2
:1009880025AF104619462CE795EA0C0F06D152EA16
:1009980003353FF4FDAE1046194622E750EA4106FA
:1009A80018BF52EA43067FF4C5AE50EA41047FF40B
:1009B8000DAF52EA43057FF4EBAE12E74FF0FF3C70
:1009C80006E000BF4FF0010C02E000BF4FF0010C41
:1009D8004DF804CD4FEA410C7FEA6C5C4FEA430CBA
:1009E80018BF7FEA6C5C1BD001B050EA410C0CBF09
:1009F80052EA430C91EA030F02BF90EA020F00206B
:100A0800704710F1000F91EA030F58BF994208BFD1
:100A180090422CBFD8176FEAE37040F0010070478E
:100A28004FEA410C7FEA6C5C02D150EA013C07D1E5
:100A38004FEA430C7FEA6C5CD6D152EA033CD3D030
:100A48005DF8040B704700BF8446104662468C462A
:100A58001946634600E000BF01B5FFF7B7FF00285D
:100A680048BF10F1000F01BD4DF808EDFFF7F4FF86
:100A78000CBF012000205DF808FB00BF4DF808ED11
:100A8800FFF7EAFF34BF012000205DF808FB00BF34
:100A98004DF808EDFFF7E0FF94BF012000205DF856
:100AA80008FB00BF4DF808EDFFF7CEFF94BF01200B
:100AB80000205DF808FB00BF4DF808EDFFF7C4FF04
:100AC80034BF012000205DF808FB00BF4FEA410257
:100AD80012F5001215D211D56FF47873B3EB625288
:100AE80012D94FEAC12343F0004343EA505311F0AF
:100AF800004F23FA02F018BF404270474FF0000041
:100B0800704750EA013005D111F0004008BF6FF07E
:100B1800004070474FF00000704700BF4FEA4102A5
:100B2800B2F1E04324BFB3F5001CDCF1FE5C0DD943
:100B380001F0004C4FEAC0024CEA5070B2F1004F8D
:100B480040EB830008BF20F00100704711F0804F90
:100B580021D113F13872BCBF01F00040704741F455
:100B680080114FEA5252C2F11802C2F1200C10FA59
:100B78000CF320FA02F018BF40F001004FEAC1233D
:100B88004FEAD32303FA0CFC40EA0C0023FA02F3E1
:100B98004FEA4303CCE77FEA625307D150EA0133B7
:100BA8001EBF4FF0FE4040F44000704701F0004087
:100BB80040F0FE4040F40000704700BF80F0004065
:100BC80002E000BF81F0004142001FBF5FEA41031D
:100BD80092EA030F7FEA226C7FEA236C6AD04FEA1D
:100BE8001262D2EB1363C1BFD21841404840414062
:100BF800B8BF5B42192B88BF704710F0004F40F414
:100C0800000020F07F4018BF404211F0004F41F42F
:100C1800000121F07F4118BF494292EA030F3FD0FB
:100C2800A2F1010241FA03FC10EB0C00C3F120030E
:100C380001FA03F100F0004302D5494260EB40009D
:100C4800B0F5000F13D3B0F1807F06D340084FEA08
:100C5800310102F10102FE2A51D2B1F1004F40EBFD
:100C6800C25008BF20F0010040EA03007047490065
:100C780040EB000010F4000FA2F10102EDD1B0FA30
:100C880080FCACF1080CB2EB0C0200FA0CF0AABF25
:100C980000EBC25052421843BCBFD04018437047C3
:100CA80092F0000F81F4000106BF80F400000132C9
:100CB800013BB5E74FEA41037FEA226C18BF7FEAA0
:100CC800236C21D092EA030F04D092F0000F08BFE2
:100CD8000846704790EA010F1CBF0020704712F0C9
:100CE8007F4F04D1400028BF40F00040704712F108
:100CF80000723CBF00F50000704700F0004343F06D
:100D0800FE4040F4000070477FEA226216BF0846A2
:100D18007FEA23630146420206BF5FEA412390EA65
:100D2800010F40F4800070474FF0000304E000BF5B
:100D380010F0004348BF40425FEA000C08BF70470C
:100D480043F0964301464FF000001CE050EA0102D0
:100D580008BF70474FF000030AE000BF50EA0102E5
:100D680008BF704711F0004302D5404261EB4101D2
:100D78005FEA010C02BF84460146002043F0B643F7
:100D880008BFA3F18053A3F50003BCFA8CF2083A1C
:100D9800A3EBC25310DB01FA02FC634400FA02FC25
:100DA800C2F12002BCF1004F20FA02F243EB02002C
:100DB80008BF20F00100704702F1200201FA02FC8E
:100DC800C2F1200250EA4C0021FA02F243EB020081
:100DD80008BF20EADC7070474FF0FF0C1CEAD052C5
:100DE8001EBF1CEAD15392EA0C0F93EA0C0F6FD086
:100DF8001A4480EA010C400218BF5FEA41211ED064
:100E08004FF0006343EA501043EA5111A0FB01314F
:100E18000CF00040B1F5000F3EBF490041EAD37124
:100E28005B0040EA010062F17F02FD2A1DD8B3F1A0
:100E3800004F40EBC25008BF20F00100704790F00F
:100E4800000F0CF0004C08BF49024CEA502040EA61
:100E580051207F3AC2BFD2F1FF0340EAC250704727
:100E680040F400004FF00003013A5DDC12F1190F65
:100E7800DCBF00F000407047C2F10002410021FAD7
:100E880002F1C2F1200200FA02FC5FEA310040F1EF
:100E9800000053EA4C0308BF20EADC70704792F068
:100EA800000F00F0004C02BF400010F4000F013AA0
:100EB800F9D040EA0C0093F0000F01F0004C02BF9B
:100EC800490011F4000F013BF9D041EA0C018FE70A
:100ED8000CEAD15392EA0C0F18BF93EA0C0F0AD010
:100EE80030F0004C18BF31F0004CD8D180EA010036
:100EF80000F00040704790F0000F17BF90F0004FCF
:100F0800084691F0000F91F0004F14D092EA0C0FB0
:100F180001D142020FD193EA0C0F03D14B0218BF43
:100F2800084608D180EA010000F0004040F0FE4089
:100F380040F40000704740F0FE4040F44000704725
:100F48004FF0FF0C1CEAD0521EBF1CEAD15392EAA4
:100F58000C0F93EA0C0F69D0A2EB030280EA010C94
:100F680049024FEA402037D04FF0805343EA11112D
:100F780043EA10130CF000408B4238BF5B0042F18B
:100F88007D024FF4000C8B4224BF5B1A40EA0C0030
:100F9800B3EB510F24BFA3EB510340EA5C00B3EB62
:100FA800910F24BFA3EB910340EA9C00B3EBD10F50
:100FB80024BFA3EBD10340EADC001B0118BF5FEAA2
:100FC8001C1CE0D1FD2A3FF650AF8B4240EBC250CB
:100FD80008BF20F0010070470CF0004C4CEA50208C
:100FE8007F32C2BFD2F1FF0340EAC250704740F4DB
:100FF80000004FF00003013A37E792F0000F00F0CD
:10100800004C02BF400010F4000F013AF9D040EA4A
:101018000C0093F0000F01F0004C02BF490011F4DE
:10102800000F013BF9D041EA0C0195E70CEAD153D6
:1010380092EA0C0F08D142027FF47DAF93EA0C0FBD
:101048007FF470AF084676E793EA0C0F04D14B02A1
:101058003FF44CAF08466EE730F0004C18BF31F053
:10106800004CCAD130F000427FF45CAF31F000434D
:101078007FF43CAF5FE700BF4FF0FF3C06E000BFE6
:101088004FF0010C02E000BF4FF0010C4DF804CD09
:101098004FEA40024FEA41037FEA226C18BF7FEA19
:1010A800236C11D001B052EA530C18BF90EA010F1B
:1010B80058BFB2EB030088BFC81738BF6FEAE170AA
:1010C80018BF40F0010070477FEA226C02D15FEA46
:1010D800402C05D17FEA236CE4D15FEA412CE1D0B2
:1010E8005DF8040B704700BF844608466146FFE779
:1010F8000FB5FFF7C9FF002848BF10F1000F0FBD5B
:101108004DF808EDFFF7F4FF0CBF012000205DF853
:1011180008FB00BF4DF808EDFFF7EAFF34BF0120D8
:1011280000205DF808FB00BF4DF808EDFFF7E0FF71
:1011380094BF012000205DF808FB00BF4DF808EDC2
:10114800FFF7D2FF94BF012000205DF808FB00BF25
:101158004DF808EDFFF7C8FF34BF012000205DF807
:1011680008FB00BF4FEA4002B2F1FE4F0FD34FF029
:101178009E03B3EB12620DD94FEA002343F00043FC
:1011880010F0004F23FA02F018BF404270474FF0AA
:101198000000704712F1610F01D1420205D110F031
:1011A800004008BF6FF0004070474FF000007047E4
:1011B80082B0084B1B68084AA2FB03235B0A00FBAA
:1011C80003F0019000BF019B5A1E0192002BF9D138
:1011D80002B0704700000020D34D621070B582B095
:1011E8000446036813F0010F2CD0AB4B5B6803F087
:1011F8000C03042B1DD0A84B5B6803F00C03082BD1
:1012080012D06368B3F5803F41D0002B55D103F16C
:10121800804303F504331A6822F480321A601A688E
:1012280022F480221A6037E09B4B5B6813F4803FFE
:10123800E7D0994B1B6813F4003F03D06368002B79
:1012480000F0AE81236813F0020F76D0924B5B68F2
:1012580013F00C0F5FD0904B5B6803F00C03082B66
:1012680054D02369002B00F08A808C4B01221A602D
:1012780000F0FEFF0546884B1B6813F0020F75D17E
:1012880000F0F6FF401B0228F5D903208BE1824AC3
:10129800136843F480331360636843B300F0E8FFD6
:1012A80005467D4B1B6813F4003FCBD100F0E0FFEF
:1012B800401B6428F5D9032075E1B3F5A02F09D0A8
:1012C800754B1A6822F480321A601A6822F4802258
:1012D8001A60E1E703F18043A3F53C331A6842F44E
:1012E80080221A601A6842F480321A60D4E700F04B
:1012F800BFFF0546684B1B6813F4003FA2D000F0FF
:10130800B7FF401B6428F5D903204CE1624B5B68AA
:1013180013F4803FA5D1604B1B6813F0020F04D073
:101328002369012B01D001203DE15B4A136823F0BA
:10133800F803616943EAC1031360236813F0080FD7
:1013480032D0A369002B5BD0554B01221A6000F004
:101358008FFF0546504B5B6A13F0020F21D100F056
:1013680087FF401B0228F5D903201CE14A4A13686D
:1013780023F0F803616943EAC1031360DDE7474BD3
:1013880000221A6000F074FF0546434B1B6813F0F7
:10139800020FD2D000F06CFF401B0228F5D90320C1
:1013A80001E10120FFF704FF236813F0040F00F0A8
:1013B8009780394BDB6913F0805F33D1364BDA699C
:1013C80042F08052DA61DB6903F080530193019B9C
:1013D8000125344B1B6813F4807F25D0E368012B6B
:1013E80036D0002B4CD103F1804303F504331A6A3D
:1013F80022F001021A621A6A22F004021A622CE030
:10140800274B00221A6000F033FF0546224B5B6A27
:1014180013F0020FC8D000F02BFF401B0228F5D9AB
:101428000320C0E00025D4E71E4A136843F4807304
:10143800136000F01DFF06461A4B1B6813F4807FEB
:10144800CCD100F015FF801B6428F5D90320AAE051
:10145800114A136A43F001031362E36873B300F09F
:1014680007FF06460C4B1B6A13F0020F37D100F03A
:10147800FFFE801B41F288339842F3D9032092E0A3
:10148800052B11D0044B1A6A22F001021A621A6A5B
:1014980022F004021A62E0E7001002400000424213
:1014A8008004424200700040414B1A6A42F0040234
:1014B8001A621A6A42F001021A62CEE700F0D8FEF8
:1014C80006463B4B1B6A13F0020F08D000F0D0FE13
:1014D800801B41F288339842F3D9032063E0E5B9D1
:1014E800E369002B5ED0324A526802F00C02082AE7
:1014F8005BD0022B17D02F4B00221A6000F0B8FEE9
:1015080004462B4B1B6813F0007F47D000F0B0FE59
:10151800001B0228F5D9032045E0254AD36923F0AA
:101528008053D361DCE7234B00221A6000F0A0FE51
:1015380005461F4B1B6813F0007F06D000F098FE8D
:10154800401B0228F5D903202DE0236AB3F5803F1C
:101558001AD017494B6823F47413226A606A02434D
:1015680013434B60134B01221A6000F081FE0446BE
:101578000F4B1B6813F0007F0ED100F079FE001BA3
:101588000228F5D903200EE0094A536823F40033F2
:10159800A1680B435360DCE7002004E0002002E070
:1015A800012000E0002002B070BD0120FBE700BF71
:1015B800001002406000424210B487B0164C94E814
:1015C8000F000DF1180C0CE90F00238AADF8043058
:1015D800124B5B6803F00C02082A1AD1C3F383424A
:1015E800624412F8100C13F4803F05D10C4B03FB36
:1015F80000F007B010BC7047084B5B68C3F340436A
:10160800634413F8142C074BB3FBF2F300FB03F00D
:10161800EFE70448EDE700BFC03D000800100240B6
:1016280000093D0000127A00594B1B6803F00703BC
:101638008B420CD2564A136823F007030B431360FE
:10164800136803F007038B4201D00120704770B57F
:10165800036813F0020F06D04E4A536823F0F003D4
:101668008468234353600C460546036813F0010F52
:1016780052D04368012B23D0022B28D0454A126848
:1016880012F0020F00F0828042494A6822F00302F9
:1016980013434B6000F0ECFD06466B68012B1DD030
:1016A800022B2AD03B4B5B6813F00C0F34D000F0B0
:1016B800DFFD801B41F288339842F3D9032064E0B0
:1016C800344A126812F4003FDED101205DE0314A4D
:1016D800126812F0007FD7D1012056E02D4B5B68CD
:1016E80003F00C03042B17D000F0C2FD801B41F25D
:1016F80088339842F2D9032047E0264B5B6803F011
:101708000C03082B08D000F0B3FD801B41F288338E
:101718009842F2D9032038E01D4B1B6803F00703F9
:10172800A3420CD91A4A136823F007032343136012
:10173800136803F00703A34201D0012025E02B68BA
:1017480013F0040F06D0134A536823F4E063E968E2
:101758000B4353602B6813F0080F07D00D4A5368EA
:1017680023F46053296943EAC1035360FFF724FF58
:10177800084B5B68C3F30313074AD35CD840074B95
:101788001860002000F044FD002070BD0120FCE737
:101798000020024000100240D43D00080000002054
:1017A800014B1868704700BF0000002030B4036A7E
:1017B80023F001030362056A4268846924F0730414
:1017C8000B681C4325F002058B682B43104DA8427B
:1017D80003D005F50065A84205D123F00803CD68BC
:1017E8002B4323F004030A4DA84203D005F50065F6
:1017F800A84205D122F440724D6915438A692A43EB
:10180800426084614A684263036230BC704700BF2B
:10181800002C014030B4036A23F480730362036A26
:101828004268C46924F073040D682C4323F40073E0
:101838008D6843EA0523124DA84203D005F50065DB
:10184800A84206D123F40063CD6843EA052323F4B4
:1018580080630B4DA84203D005F50065A84207D167
:1018680022F440524D6942EA05128D6942EA051296
:101878004260C4614A68C263036230BC704700BFFB
:10188800002C014030B4036A23F480530362036AD6
:101898004468C26922F4E6420D6842EA052223F44C
:1018A80000538D6843EA0533094DA84203D005F576
:1018B8000065A84204D124F480444D6944EA8514A3
:1018C8004460C2614A680264036230BC704700BF6A
:1018D800002C014010B4036A046A24F00104046275
:1018E800846924F0F00444EA021223F00A030B434B
:1018F8008261036210BC704710B4036A23F01003BE
:1019080003628469036A24F4704444EA023223F0CF
:10191800A00343EA01138261036210BC704710B44C
:10192800846824F47F4442EA03230B4323438360FF
:1019380010BC704710B50468A26822F070024B68AA
:10194800134323F007030A681343A3604B68502B23
:101958001ED00AD9602B21D0702B05D10B698A685B
:10196800C9680068FFF7DBFF10BD402BFCD1036896
:101978001C6A1A6A22F001021A620268936923F04B
:10198800F003096943EA0113936103681C62EBE7FA
:101998000A6989680068FFF79DFFE5E70A698968B1
:1019A8000068FFF7A9FFDFE77047022380F83D30A2
:1019B8000268136843F001031360012380F83D3087
:1019C80000207047704738B590F83C30012B18D08C
:1019D8000446012580F83C50022380F83D30FFF78B
:1019E800A9FF2268D36823F04003D3602268D36834
:1019F80023F48043D36084F83D50002084F83C00F1
:101A080038BD0220FCE700000368244A904212D047
:101A180002F5006290420ED0B0F1804F0BD0A2F5D3
:101A28009832904207D002F58062904203D002F5C6
:101A38008062904203D123F070034A681343174A27
:101A4800904212D002F5006290420ED0B0F1804F61
:101A58000BD0A2F59832904207D002F580629042EE
:101A680003D002F58062904203D123F44073CA6820
:101A7800134323F080034A69134303608B68C362EE
:101A88000B688362054B984203D003F500639842C4
:101A980001D10B690363012343617047002C0140A6
:101AA800A8B110B5044690F83D305BB1022384F824
:101AB8003D30211D2068FFF7A7FF012384F83D3042
:101AC800002010BD80F83C30FFF76EFFEEE70120E4
:101AD8007047A8B110B5044690F83D305BB10223B9
:101AE80084F83D30211D2068FFF78EFF012384F81C
:101AF8003D30002010BD80F83C30FFF763FFEEE773
:101B08000120704730B4036A23F010030362036AAC
:101B18004468826922F4E6420D6842EA052223F00D
:101B280020038D6843EA0513114DA84203D005F53B
:101B38000065A84206D123F08003CD6843EA051367
:101B480023F040030A4DA84203D005F50065A842DA
:101B580007D124F440644D6944EA85048D6944EA58
:101B68008504446082614A688263036230BC7047BE
:101B7800002C014038B590F83C30012B66D00D465A
:101B88000446012380F83C30022380F83D300C2ABB
:101B98001AD8DFE802F00719191920191919341988
:101BA800191947000068FFF701FE2268936943F09E
:101BB800080393612268936923F004039361226800
:101BC800936929690B439361012384F83D30002010
:101BD80084F83C0038BD0068FFF794FF22689369D9
:101BE80043F4006393612268936923F480639361EB
:101BF80022689369296943EA01239361E4E700684D
:101C0800FFF708FE2268D36943F00803D36122680E
:101C1800D36923F00403D3612268D36929690B438C
:101C2800D361D1E70068FFF72DFE2268D36943F43A
:101C38000063D3612268D36923F48063D361226887
:101C4800D369296943EA0123D361BDE70220C1E7CB
:101C580010B4012303FA01F4036A23EA04030362BC
:101C6800036A8A401343036210BC704710B50446E8
:101C780001220068FFF7ECFF2368094A934203D06A
:101C880002F50062934203D15A6C42F400425A644E
:101C98002268136843F001031360002010BD00BFE1
:101CA800002C014010B4042303FA01F4036A23EA68
:101CB80004030362036A8A401343036210BC70473B
:101CC80010B5044604220068FFF7ECFF2268536C45
:101CD80043F4004353642268136843F0010313601C
:101CE800002010BD90F83C30012B25D0012380F84E
:101CF8003C30CB6823F440738A68134323F4806331
:101D08004A68134323F400630A68134323F4805397
:101D18000A69134323F400534A69134323F48043A5
:101D28008A69134323F4004313430268536400236E
:101D380080F83C30184670470220704790F83C30D5
:101D4800012B22D030B4012280F83C20022380F8F5
:101D58003D300468636823F0700363600468636857
:101D68000D682B4363600468A36823F08003A360B5
:101D78000468A36849680B43A36080F83D200023EA
:101D880080F83C30184630BC70470220704700008D
:101D9800034690F82420012A20D0012280F824202C
:101DA8000268906810F0010F07D10D48806810F0A4
:101DB800010F02D10B48824208D09A6A42F02002F1
:101DC8009A620120002283F824207047506820F48A
:101DD80070200968014351600020F3E70220704732
:101DE8000028014000240140074AD36823F4E06337
:101DF8001B041B0C000200F4E060184340F0BF60B5
:101E080040F40030D060704700ED00E030B4174B6C
:101E1800DB68C3F30223C3F10704042C28BF04249E
:101E28001D1D062D18D9033B4FF0FF3505FA04F4A4
:101E380021EA0401994005FA03F322EA030319434E
:101E480000280BDB0901C9B200F1604000F56140D0
:101E580080F8001330BC70470023E5E700F00F005E
:101E68000901C9B2024B1954F4E700BF00ED00E0C4
:101E780014ED00E000F01F02400901239340024ADC
:101E880042F82030704700BF00E100E00138B0F1AF
:101E9800807F0AD2064B5860064AF02182F8231048
:101EA8000020986007221A6070470120704700BF21
:101EB80010E000E000ED00E0042805D0054A1368B2
:101EC80023F0040313607047024A136843F00403C5
:101ED8001360704710E000E0704708B5FFF7FCFF9B
:101EE80008BD0000F0B482B000263546ABE0002CF7
:101EF80063D0012C00D1CE68FF2B72D88446FF2B0B
:101F080072D8AC00DCF800200F27A74022EA0702AD
:101F180006FA04F42243CCF800204A6812F0805FE5
:101F280000F09080654A946944F0010494619269D4
:101F380002F001020192019AAC08A71C604A52F80B
:101F480027C005F0030297000F22BA402CEA020CC2
:101F58005C4A90424ED002F58062904200F08B803D
:101F680002F58062904200F0888002F5806290421B
:101F780000F0858002F58062904200F0828002F5D0
:101F88008062904234D0062235E04F4FBC4214D0D4
:101F98000BD94E4FBC4210D007F58037BC420CD04D
:101FA800A7F58017BC42A7D107E0A7F58017BC4268
:101FB80003D007F58037BC429ED18C687CB1012CD8
:101FC80008D04261082697E7CE68083694E7CE68BD
:101FD8000C3691E7026108268EE700268CE7042676
:101FE8008AE700F1040C8AE7A5F10804A40089E750
:101FF800052200E00022BA4042EA0C020234304FC7
:1020080047F824204A6812F4803F3CD0304C2268BC
:102018001A4322604A6812F4003F3AD02C4C626896
:102028001A4362604A6812F4801F38D0284CA268AC
:102038001A43A2604A6812F4001F36D0244CE268A2
:102048001343E36001350F2D35D80122AA400B68F0
:1020580013409A42F6D14C68122CB8D095D8022C6D
:10206800B2D07FF644AF032CB7D0112C7FF444AF25
:10207800CE68043640E70122BDE70222BBE703220F
:10208800B9E70422B7E7124C226822EA0302226069
:10209800C0E70F4C626822EA03026260C2E70C4C98
:1020A800A26822EA0302A260C4E7094CE26822EAB5
:1020B8000303E360C6E702B0F0BC704700100240BB
:1020C800000001400008014000002110000031100C
:1020D800000401408368194201D1002070470120A3
:1020E800704712B909040161704701617047C368FC
:1020F8005940C1607047000070B582B0044603685B
:1021080013F0010F34D03E4BDB6913F0805F48D1E8
:102118003B4BDA6942F08052DA61DB6903F08053A5
:102128000193019B0125374B1B6813F4807F3AD03C
:10213800334B1B6A13F4407311D0626802F4407287
:102148009A420CD02E4A136A23F440702E49012675
:102158000E6000260E60106213F0010F37D1284A76
:10216800136A23F4407361680B431362002D3FD157
:10217800236813F0020F06D0214A536823F4404322
:10218800A1680B435360236813F0100F35D01C4A25
:10219800536823F4800361690B435360002002B045
:1021A80070BD0025BFE7174A136843F480731360B6
:1021B80000F05EF80646134B1B6813F4807FB7D116
:1021C80000F056F8801B6428F5D90320E7E700F0F3
:1021D8004FF806460A4B1B6A13F0020FBFD100F0F6
:1021E80047F8801B41F288339842F3D90320D6E799
:1021F800D36923F08053D361BAE70020CFE700BF4B
:102208000010024000700040400442427047000045
:1022180010B50446074B1868074BA3FB003080092C
:10222800FFF734FE002221464FF0FF30FFF7EEFDA6
:10223800002010BD00000020D34D621008B5074AE9
:10224800136843F0100313600320FFF7CDFD00204F
:10225800FFF7DEFFFFF7DAFF002008BD002002408D
:10226800024A136801331360704700BF7C000020E6
:10227800014B1868704700BF7C00002030B583B060
:102288000190FFF7F5FF0546019CB4F1FF3F00D030
:102298000134FFF7EDFF401BA042FAD303B030BD75
:1022A8007047000030B482B00023019390F82430C6
:1022B800012B00F08B800246012380F824304B6804
:1022C800062B29D80568686B03EB8303053B1F249D
:1022D8009C4020EA04000C6804FA03F303436B6390
:1022E8000B68092B38D91568E86803EB43031E3BD4
:1022F80007249C4020EA04008C6804FA03F3034393
:10230800EB600B68103B012B34D90020002382F8C6
:10231800243002B030BC70470C2B0ED80568286BEF
:1023280003EB8303233B1F249C4020EA04000C6832
:1023380004FA03F303432B63D2E70568E86A03EB67
:102348008303413B1F249C4020EA04000C6804FAE4
:1023580003F30343EB62C3E71568286903EB430300
:1023680007249C4020EA04008C6804FA03F3034322
:102378002B61C6E713681648834205D0936A43F079
:10238800200393620120C1E7986810F4000F1BD165
:10239800986840F4000098600B68102B01D000206A
:1023A800B4E70C4B1B680C49A1FB03139B0C03EB14
:1023B80083035900019102E0019B013B0193019BBA
:1023C800002BF9D10020A1E700209FE70220A0E719
:1023D800002401400000002083DE1B4330B583B099
:1023E8000023019303689A6812F0010F2ED19A68AE
:1023F80042F001029A60174B1B68174AA2FB03239D
:102408009B0C019302E0019B013B0193019B002B74
:10241800F9D10446FFF72CFF054623689B6813F0A3
:10242800010F11D1FFF724FF401B0228F5D9A36A39
:1024380043F01003A362E36A43F00103E36200235D
:1024480084F82430012002E0002000E0002003B0DE
:1024580030BD00BF0000002083DE1B4390F824300D
:10246800012B6AD010B50446012380F82430FFF709
:10247800B5FF024600285BD1A36A23F4407323F01A
:10248800010343F48073A36223682D498B4227D04C
:10249800A16A21F48011A162596811F4806F05D0F6
:1024A800A16A21F4405141F48051A162A16A11F45A
:1024B800805F2BD0E16A21F00601E162002184F8F7
:1024C80024106FF0020119602368996801F46021F3
:1024D800B1F5602F1DD0996841F4801199602AE008
:1024E800A1F58061496811F4702FD1D0A16A41F437
:1024F8008011A1621349496811F4806FD6D0A16A8E
:1025080021F4405141F48051A162CFE70021E162FA
:10251800D4E70B498B4204D0996841F4A001996033
:1025280009E0A1F58061496811F4702FD3D1F3E770
:10253800002384F82430104610BD0222104670474C
:10254800002801400024014038B503689A6812F059
:10255800010F01D1002038BD04469A6822F001021B
:102568009A60FFF785FE054623689B6813F0010F04
:102578000ED0FFF77DFE401B0228F5D9A36A43F071
:102588001003A362E36A43F00103E3620120E2E778
:102598000020E0E7002800F08A8070B50446836ACE
:1025A800002B36D02046FFF7CFFFA36A13F01003A5
:1025B80077D1002875D1A26A22F4885222F002024B
:1025C80042F00202A262626825683A498D4226D02A
:1025D800E1690A43E66842EA4602A168B1F5807FEC
:1025E80027D0012922D06169012925D0696821F401
:1025F80069410B436B6021688D682F4B2B40134357
:102608008B60A368B3F5807F27D0012B25D00021EC
:1026180026E0C36280F82430FFF742FEC2E7E16992
:10262800B1F5402FD5D14FF40021D2E74FF4807394
:10263800D9E74FF48073D6E736B9A169013943EA7F
:10264800413343F40063D1E7A16A41F02001A1625C
:10265800E16A41F00101E162C8E72369013B19051C
:102668002568EB6A23F470030B43EB6223689968CF
:10267800124B0B409A420BD0A36A23F0120343F08B
:102688001003A362E36A43F00103E36201200DE053
:102698000023E362A36A23F0030343F00103A36268
:1026A80004E0A36A43F01003A362012070BD012077
:1026B800704700BF003C0140FDF7E1FFFE0E1FFF21
:1026C8000F4B1A6842F001021A6059680D4A0A4015
:1026D8005A601A6822F0847222F480321A601A68EA
:1026E80022F480221A605A6822F4FE025A604FF4DB
:1026F8001F029A60044B4FF000629A60704700BF57
:10270800001002400000FFF800ED00E02DE9F04F56
:1027180089B07B4B9A6942F004029A619A6902F087
:1027280004020192019A9A6942F008029A619A6930
:1027380002F008020292029A9A6942F010029A6123
:102748009B6903F010030393039B002305930693EF
:10275800022707974FF0200A0DEB0A0444F810AD42
:1027680021466848FFF7BEFB40230493214665488D
:10277800FFF7B8FB8025049521466248FFF7B2FBB6
:102788004FF48063049321465F48FFF7ABFB4FF497
:102798000063049321465C48FFF7A4FB4FF480567E
:1027A800049621465848FFF79DFB04962146574852
:1027B800FFF798FB049721465448FFF793FB4FF027
:1027C8000108CDF814804FF00409CDF81090214687
:1027D8004C48FFF787FB1026049621464B48FFF725
:1027E80081FBCDF810A021464848FFF77BFB032367
:1027F8000593CDF8108021464348FFF773FBCDF8C9
:10280800108021464148FFF76DFB4FF0080BCDF8CB
:1028180010B021463C48FFF765FB049721463A482B
:10282800FFF760FB049621463748FFF75BFBCDF8BE
:1028380010A021463448FFF755FBCDF810902146EB
:102848003148FFF74FFBCDF810B021462F48FFF76E
:1028580049FBCDF8109021462C48FFF743FB05971C
:102868004023049321462848FFF73CFB0495214662
:102878002548FFF737FB4FF48079CDF810902146B3
:102888002148FFF72FFB049521462048FFF72AFB34
:10289800CDF8108021461B48FFF724FB04972146FA
:1028A8001848FFF71FFBCDF8109021461748FFF78F
:1028B80019FB4FF40073049321461448FFF712FBE9
:1028C8004FF48063049321461048FFF70BFB4FF445
:1028D8000053049321460B48FFF704FB4FF4804351
:1028E800049321460748FFF7FDFA4FF40043049389
:1028F80021460448FFF7F6FA09B0BDE8F08F00BF9B
:1029080000100240000C0140001001400008014086
:102918002DE9F04F99B0754B9A6942F400629A61BB
:102928009A6902F400620192019A9A6942F400528B
:102938009A619B6903F400530293029B6C4EDFF883
:10294800B891C6F80090002474604FF02008C6F8CB
:1029580008804FF4FA6BC6F80CB034617461B46146
:102968003046FFF7B6F810231693179416A9304689
:10297800FFF7E4F960230F93109411940827129736
:10298800139414944FF40073159322460FA93046FC
:10299800FFF7F0F804220FA93046FFF7EBF83A46A4
:1029A8000FA93046FFF7E6F84FF4006308934FF499
:1029B800806309930A94CDF82C800C940D940E949E
:1029C8000DEB08013046FFF78DF94A4DDFF82CA1D1
:1029D800C5F800A06C60C5F80880C5F80CB02C617B
:1029E8006C61AC612846FFF774F8CDF858808023F5
:1029F800179316A92846FFF7A1F9049418A90523E7
:102A080041F8543D2846FEF7DEFF60230F931094EB
:102A180011941297139414944FF40073159322464B
:102A28000FA92846FFF7A6F804220FA92846FFF7A2
:102A3800A1F83A460FA92846FFF79CF84FF400631F
:102A480008934FF4806309930A94CDF82C800C9472
:102A58000D940E940DEB08012846FFF743F9DAF8B8
:102A6800443023F40043CAF84430D9F8443023F4FE
:102A78000043C9F8443021462846FFF7F7F80421F7
:102A88002846FFF7F3F839462846FFF7EFF82146BE
:102A98002846FFF715F904212846FFF711F93946AA
:102AA8002846FFF70DF921463046FFF7DFF80421E5
:102AB8003046FFF7DBF839463046FFF7D7F82146AE
:102AC8003046FFF7FDF804213046FFF7F9F839469C
:102AD8003046FFF7F5F82B6801221A63326813684D
:102AE80043F00103136019B0BDE8F08F00100240F5
:102AF80048010020D8020020002C01400034014089
:102B08002DE9F04186B0424EB36943F40073B361D6
:102B1800B36903F400730093009B3E4C3E4B236063
:102B28004FF48073A3600025E56065614FF440238E
:102B3800E36165604FF00508C4F810802046FFF790
:102B480029FD364A536843F48023536006A94FF49D
:102B5800C02341F8043D2046FFF71AF901230493E6
:102B68000E220292039302A92046FFF79BFB0295CF
:102B78000227039702A92046FFF794FB04970B2727
:102B880002970323039302A92046FFF78BFB0C232C
:102B980002930423039302A92046FFF783FB07232C
:102BA800049310230293CDF80C8002A92046FFF766
:102BB80079FB2268936843F4000343F480739360BD
:102BC800936843F001039360736943F001037361F1
:102BD800736903F001030193019B114B1D60C3F856
:102BE8000480104A9A60104ADA6040F6A2221A60FD
:102BF8001A6842F001021A602A4629463846FFF749
:102C080005F93846FFF736F906B0BDE8F08100BF90
:102C18000010024010020020002401400000014082
:102C2800080002404C24014084020020F0B585B021
:102C3800284B9A6942F480629A619B6903F4806325
:102C48000093009B244C254B23604FF48073A360B2
:102C58000023E36063614FF46022E261636005264C
:102C680026612046FFF796FC012303930F22019269
:102C7800029301A92046FFF715FB0D2301930225B6
:102C8800029501A92046FFF70DFB03950A2301933E
:102C98000327029701A92046FFF704FB01950423A7
:102CA80002930DEB03012046FFF7FCFA0723039379
:102CB8000197029601A92046FFF7F4FA23689A685B
:102CC80042F480729A609A6842F001029A6005B0F4
:102CD800F0BD00BF00100240C400002000280140E1
:102CE800F0B589B04FF48066049600270597012552
:102CF80007950695114C04A92046FFF7F3F83146CD
:102D08002046FFF7E7F9B0FA80F040090C4B18703D
:102D18004FF4006600960197039502956946204690
:102D2800FFF7E0F831462046FFF7D4F9B0FA80F013
:102D38004009044B187009B0F0BD00BF000C0140F9
:102D4800440000204500002038B500F16303C62B7D
:102D580043D9144600281DDD6438A1F16404A0425B
:102D680010DD2046FDF7E4FF05462046FDF7E0FFAD
:102D780001462846FEF7E4F81949FEF72DF8FEF754
:102D8800F1F92BE0002803DBFDF7D2FF0546ECE75D
:102D98000025EAE76430002812DD002504F164000C
:102DA800FDF7C6FF01462846FEF7CAF80C49FEF7AC
:102DB80013F801460020FDF705FFFEF7D3F90DE0F3
:102DC80002F16403984204DA1846FDF7B1FF05469C
:102DD800E4E7FDF7ADFF0546E0E7002038BD00BF9A
:102DE80000007A444FF08042536A9BB2002151623E
:102DF800A3F5617292B2B2F5966F11D80A460A49E4
:102E08000A600A490A60B3F5FA6F0AD8B3F57A7FFF
:102E180038BF4FF47A73A3F57A739BB2044A1380D0
:102E280070474FF47A73F9E7080000204800002043
:102E380004000020074A136801331360B3F5FA7FD2
:102E480006D9054B4FF4FA721A80024B00221A6019
:102E5800704700BF480000200400002030B587B04C
:102E6800082302931A4B0393032305930223049325
:102E780002A91848FFF736F8174BDA6942F0010241
:102E8800DA61DB6903F001030193019B134C4FF0F6
:102E9800804323604FF6FF73E360114B1B68114AB0
:102EA800A2FB03239B0C013B636000252561A56001
:102EB8002046FEF7F5FD2A4629460920FEF7A6FF1B
:102EC8000920FEF7D7FF2046FEF76FFD07B030BD9B
:102ED8000000311000080140001002405803002093
:102EE8000000002083DE1B430D4B1B681333262B89
:102EF80014D810B500240B4B1C700B4B1C7005E04C
:102F08000A4B1C706420FFF7B9F90134072CF7DD70
:102F1800002220210648FFF7E4F8FEE7704700BFCB
:102F2800B4030020500000205C0000204C0000206A
:102F38000008014030B597B002250C950123109385
:102F4800102311931395002414944FF460131593D0
:102F58000CA8FEF743F90F230793089509944FF43B
:102F680080630A930B94294607A8FEF75DFB019539
:102F78004FF44043039301A8FFF7BEF8FEF710FC97
:102F8800084BA3FB00308009FEF780FF0420FEF702
:102F980093FF224621464FF0FF30FEF737FF17B068
:102FA80030BD00BFD34D62102DE9F04F89B0FFF757
:102FB80045F9974CA36943F00103A361A36903F0A2
:102FC80001030793079B0320FEF70EFF002211461B
:102FD8006FF00B00FEF71AFF002211466FF00A008F
:102FE800FEF714FF002211466FF00900FEF70EFFEE
:102FF800002211466FF00400FEF708FF0022114678
:103008006FF00300FEF702FF002211466FF0010087
:10301800FEF7FCFE002211464FF0FF30FEF7F6FEE9
:10302800FFF788FF636923F001036361FFF76EFB15
:10303800FFF76EFCFFF764FDFFF7F8FD0122202182
:103048007448FFF74EF87448FFF708FA7348FFF71B
:1030580005FA082405E0724B1C706420FFF70EF98E
:10306800013C002CF7DA6E4B00221A70FFF738FE8D
:103078006C4B1B78BBB96C4B1B780BBB0122042132
:103088006A48FFF72EF8FFF7E9FE694B188AFDF743
:103098004BFE0590674B01221A704FF0000BD94682
:1030A800DA465D466FE14FF47A70FFF7E7F85C4C5B
:1030B800082323706420FFF7E1F800232370DAE780
:1030C8004FF47A70FFF7DAF8554C02232370642026
:1030D800FFF7D4F800232370D0E7574B1888A0F5E2
:1030E800FA70564A4FF4FA714000FFF72DFE10F5BA
:1030F8007A7F01DA524C5DE14F4B1888A0F5FA70DF
:103108004E4A4FF4FA714000FFF71EFE044651E1A3
:10311800484B01221A70BCE14FF47A74DDE90023B0
:1031280030463946FDF782F806460F460022454BE1
:10313800FDF7C2FC80B934A3D3E9002330463946F1
:10314800FDF79CFC00285DD130463946FDF7BEFCF2
:10315800064603E03A4CE1E74FF47A760AF1640355
:10316800B34214DDAAF1640AB24510DA09F1640326
:10317800A3420CDDA9F16409A14508DA324B1B68AA
:10318800042B04D8314B1C607342314A1360314B15
:103198001A68314BA3FB0213DB0803EB830303EB31
:1031A80083039A4268D002211A48FEF793FF38B188
:1031B8002A4B1B6823B92A4B1B68002B00F0B680EA
:1031C800284B1F6828493846FDF7A4FF28B1274B2C
:1031D8001B681333262B40F2B58025493846FDF786
:1031E80099FF002800F0B1801F493846FDF7B0FF6D
:1031F800002800F0AA800A4B05221A701D4B0622EF
:103208001A70A7E00E4EA9E70000000000408FC02A
:10321800001002400008014010020020C4000020F5
:103228004C0000204400002045000020000C014014
:10323800840200205C00002004000020E0FCFFFF66
:1032480018FCFFFF00408F4008000020700000209D
:103258006C0000209C0300201F85EB5178000020A3
:10326800740000200C000020CCCC0642B4030020DF
:1032780000000C42500000200598FDF735F9A0A386
:10328800D3E90023FDF788F980468946A84F388A94
:10329800FDF74AFDFDF728F99BA3D3E90023FDF7C5
:1032A8007BF902460B4640464946FCF7BFFFFDF74F
:1032B80035FC814605909F49FDF784FC9E49FDF742
:1032C8008BFD9E49FDF780FC80460021084600F0F2
:1032D800FBFC9B4B1988012000F0F6FC21460220DC
:1032E80000F0F2FC3146032000F0EEFCB98904201E
:1032F80000F0EAFC9349944B1868FDF76DFDFDF763
:1033080031FF0146052000F0DFFC4846FDF72AFFA3
:103318000146062000F0D8FC4046FDF723FF014691
:10332800072000F0D1FC00F0D5FC3CE7874B0022D9
:103338001A7002218648FEF7CDFE0028F9D1FFF762
:10334800D3FD3DE7FFF7D0FD04E00023814A137069
:10335800814A137086EAE673A3EBE673322B06DC28
:1033680084EAE473A3EBE473322B40F3C1807B4B14
:1033780000221A60794B1A68794B9A4201D9FFF7F3
:10338800B3FDA146B2460520FEF778FF754B002233
:103398001A606B4B1888A0F5FA70A2F548724FF4C2
:1033A800FA714000FFF7D0FCB0F57A7F7FF795AE51
:1033B8004FF47A746C4B1C606C4B00221A70DFF867
:1033C800BCB1DBF80000FDF77DF851A3D3E9002379
:1033D800FDF7E2F806460F46624B1868FDF772F8EB
:1033E8004DA3D3E90023FDF7D7F802460B46304634
:1033F8003946FCF71BFFFDF769FB8046CBF8000058
:10340800DFF870B1DBF80000FDF75CF840A3D3E902
:103418000023FDF7C1F806460F462046FDF752F88F
:103428003DA3D3E90023FDF7B7F802460B46304623
:103438003946FCF7FBFEFDF749FBCBF800000028F6
:1034480001DDA84203DB00281DDAA8421BDD28465F
:10345800FDF738F832A3D3E90023FDF79DF80646B7
:103468000F462046FDF764FC4149FDF7B5FCFDF722
:103478003BF802460B4630463946FCF7D7FEFDF7C7
:1034880025FB3C4B1860002C7FF442AE2F4B0022EA
:103498001A70384B1D682846FDF714F806460F4683
:1034A8004046FDF70FF800220023FDF775F80246A5
:1034B8000B46CDE9002330463946FCF7B5FECDE989
:1034C800020100222C4BFDF7F7FA00287FF424AE06
:1034D80015A3D3E90023DDE90201FDF7CFFA00289F
:1034E8007FF438AEDDE90201FDF7F0FA044615E68F
:1034F8001A4A1368013313603CE700BFAFF300803A
:10350800AE47E17A14AEEF3F7B14AE47E17A843FD1
:10351800CDCCCCCCCCCCEC3F9A9999999999B93F20
:103528000000007B14AEEF3F0000000000408FC099
:103538008402002000E0CE44083748BE33330F42EF
:10354800040000200000C8420C0000205C0000209D
:10355800000801404C000020500000209C0300207F
:1035680080380100BC030020A8030020B803002015
:103578000AD7233CB403002000408F40AC0300204E
:10358800774B02225A60774B1B68B3F57A7F5EDB74
:103598002DE9F041744B1A68744BA3FB02139B0985
:1035A8004FF47A7101FB13230BBB714C2068FCF7B5
:1035B8009BFF65A3D3E90023FCF7EEFF06460F4601
:1035C8006C4B9889FDF7B0FB6B49FDF705FCFCF7E0
:1035D8008BFF5FA3D3E90023FCF7DEFF02460B460F
:1035E80030463946FCF722FEFDF798FA2060614B19
:1035F8005889624B1C68001BFCF764FF56A3D3E98B
:103608000023FCF7C9FF00220023FDF737FA002842
:1036180052D1584B5889001BFCF754FF4EA3D3E9ED
:103628000023FCF7B9FF0022554BFDF745FA0028A7
:1036380052D1544B1B68052B4ED8534B1B78002B8B
:103648004AD0524A536C43F40043536449E001336F
:10365800444A1360474A90884D490B68034403EB7A
:10366800D3735B100B60D0884A490B68034403EBA3
:10367800D3735B100B60108847490B68034403EB56
:10368800D3735B100B60508844490B68034403EB09
:10369800D3735B100B60508938490B68034403EB04
:1036A800D3735B100B6011893D4A13680B4403EB1D
:1036B800D3735B10136070472E4B5889001BFCF7BF
:1036C80001FF25A3D3E90023FCF766FF0022354B51
:1036D800FDF7D4F90028ACD02C4A536C23F40043EE
:1036E8005364244B18892E4B1C68001BFCF7EAFE18
:1036F80019A3D3E90023FCF74FFF00220023FDF7AD
:10370800BDF9002852D11B4B1889001BFCF7DAFEC3
:1037180011A3D3E90023FCF73FFF0022184BFDF764
:10372800CBF9002852D1174B1B68052B4ED8164BE6
:103738001B78002B4AD01C4A536C43F40043536453
:1037480049E000BFAFF30080AE47E17A14AEEF3F27
:103758007B14AE47E17A843F7B14AE47E17A943F0D
:10376800000002406000002054000020D34D621089
:103778000C000020840200200711CB3C1000002020
:1037880000002E40080000205C00002000340140AA
:10379800180000201C000020200000202400002029
:1037A8001400002000002EC0002C0140904B188906
:1037B800001BFCF787FE8CA3D3E90023FCF7ECFE83
:1037C80000228C4BFDF75AF90028ACD08A4A536C7A
:1037D80023F40043536489498B6813F0200F0CBF0E
:1037E800012300238A6812F0400F0CBF0122002237
:1037F800896811F0800F0CBF012500258049886871
:1038080010F4806F0CBF012000208C6814F4006F46
:103818000CBF01240024896811F4805F02EB450283
:1038280003EB4203774EF35C77490B600B6803F1B7
:1038380002030B600D68754B83FB0572A2EBE57202
:1038480002EB42024FEA4207A5EB07020A600CBFEF
:1038580002220022224400EB4202B05C6C4A106053
:10386800106802301060106883FB0043A3EBE0731C
:1038780003EB43035C00031B136009685C488388FF
:10388800644A12689A1AC388634800681B1A052993
:1038980034D8DFE801F0032326292C2FD31A5F4AF6
:1038A80013605F4A1368013313605E4A14684CB3AF
:1038B8005D4AA2FB0312120B5C4909680131B2FB95
:1038C800F1F001FB1022EAB9B3FBF4F204FB123366
:1038D800EBB910215648FEF70AFC18E04F4B1A6066
:1038E800DFE74E4B1A60DCE74C4A1360D9E74B4AD6
:1038F8001360D6E79B1A494A1360D2E7474B002268
:103908001A60CEE7002210214948FEF7EAFB494B2E
:10391800D3F800C03C4B1B68052B2BD8DFE803F01D
:103928000312171C2226CCF1000064469C46424B29
:103938001968374B1B68052B52D8DFE803F01F3F87
:1039480043474B4E6446CCF1000C0020EFE760463D
:10395800CCF1000C0024EAE7CCF1000460464FF0FB
:10396800000CE4E7CCF100040020E0E7CCF1000013
:103978000024DCE7002004468446D8E74E420F4680
:1039880019462C4B1B68002B40F398802B4B1D6865
:103998001D4B1B6805331D4A82FB03E2A2EBE37251
:1039A80002EB42024FEA420EA3EB0E02052A00F296
:1039B800B980DFE802F0456A6F74797E0F464942A4
:1039C8000026DEE70E4649420027DAE74F420E4658
:1039D8000021D6E74F420026D3E74E420027D0E722
:1039E800002637463146CCE77B14AE47E17A943F50
:1039F8008402002000002EC0002C0140000C014071
:103A080000100140E43D000864000020ABAAAA2A87
:103A180068000020180000201C000020580000202A
:103A2800540000204C0000205917B7D15000002046
:103A3800000801406C000020700000207400002085
:103A4800C5F10008AE461546654474444044964B9B
:103A58001B68002B40F3D780944B1B68944A12686C
:103A680002F1050C934A82FB0CE2A2EBEC7202EB2A
:103A780042024FEA420EACEB0E02052A00F2F98030
:103A8800DFE802F058A8ADB2B7BCAE466D424FF0C1
:103A98000008D9E7A8466D424FF0000ED4E7C5F1FB
:103AA800000EA8460025CFE7C5F1000E4FF000082C
:103AB800CAE7C5F100084FF0000EC5E77E4B1D6848
:103AC800C5F1000E7D4B1A6801327A4B83FB0283E5
:103AD800A3EBE27303EB43034FEA4308A2EB0803AB
:103AE800052B1AD8DFE803F00323060A0E14A846AC
:103AF8001D46A9E7F0464FF0000EA5E7F046AE4692
:103B08000025A1E72B4675469E464FF000089BE727
:103B1800A84675464FF0000E96E74FF00008C646D7
:103B2800454691E74FF00008C64645468CE74FF0FA
:103B3800000889E7C3F100089E461346194407EBBD
:103B48000E0206EB080305F57A7540F2C676B54213
:103B580000F397800A2DB8BF0A25594E756304F5FE
:103B68007A7440F2C675AC4200F38E800A2CB8BF56
:103B78000A24534DAC6300F57A7040F2C674A04233
:103B880000F385800A28B8BF0A204D4CE06301F590
:103B98007A7140F2C67081427CDC0A29B8BF0A21DA
:103BA8004848416302F57A7240F2C6718A4274DC71
:103BB8000A2AB8BF0A2243498A6303F57A7340F296
:103BC800C67293426CDC0A2BB8BF0A233D4AD36302
:103BD800BDE8F0819E465B424FF00008AEE798468C
:103BE8005B424FF0000EA9E7C3F1000E9846002390
:103BF800A4E7C3F1000E4FF000089FE7C3F10008E7
:103C08004FF0000E9AE7294B1B68C3F1000E284AB3
:103C180012680132DFF89CC08CFB028CACEBE27CB2
:103C28000CEB4C0C4FEA4C08A2EB080CBCF1050F4E
:103C38001AD8DFE80CF00323060A0E1498466346E8
:103C48007CE7F0464FF0000E78E7F0469E460023EA
:103C580074E71A46734696464FF000086EE7984692
:103C680073464FF0000E69E74FF00008C64643461A
:103C780064E74FF00008C64643465FE74FF0000888
:103C88005CE740F2C67568E740F2C67471E740F237
:103C9800C6707AE740F2C67182E740F2C6728AE7D8
:103CA80040F2C67392E700BF700000207800002041
:103CB80068000020ABAAAA2A740000206400002033
:103CC80000340140002C0140014B23F810107047CC
:103CD8002404002070477047FEE7FEE7FEE7FEE792
:103CE80070477047704708B5FEF7BAFAFEF7F5F85F
:103CF800FFF7A0F808BD000008B5FFF773F8024BFE
:103D080008225A6108BD00BF00040140002103E0F9
:103D18000B4B5B58435004310A480B4B42189A42EC
:103D2800F6D30A4A02E0002342F8043B084B9A42C1
:103D3800F9D3FEF7C5FC00F00FF8FFF735F9704727
:103D4800F43D000800000020280000202800002082
:103D580034040020FEE7000070B500250C4E0D4C21
:103D6800A41BA410A54209D100F01AF800250A4E98
:103D78000A4CA41BA410A54205D170BD56F82530E5
:103D880098470135EEE756F8253098470135F2E7B0
:103D9800EC3D0008EC3D0008EC3D0008F03D000853
:103DA800F8B500BFF8BC08BC9E467047F8B500BF20
:083DB800F8BC08BC9E467047F0
:103DC00002030405060708090A0B0C0D0E0F10105C
:103DD00001020000000000000000000001020304D6
:0C3DE000060708090000020104050300AA
:043DEC000D020008BC
:043DF000E9010008DD
:103DF40000A24A04F4010000640000000000204214
:103E0400D0070000D0070000D0070000D007000052
:083E1400D0070000D0070000F8
:0400000508003D159D
:00000001FF
