:020000040800F2
:1000000000C0002055260008392600083B260008BD
:100010003D2600083F260008412600080000000099
:10002000000000000000000000000000432600085F
:100030004526000800000000472600084926000861
:100040009D2600089D2600089D2600089D26000884
:100050009D2600089D2600089D2600089D26000874
:100060009D2600089D2600089D260008ED22000818
:100070009D2600089D2600089D2600089D26000854
:100080009D2600089D2600089D2600089D26000844
:100090009D2600089D2600089D2600089D26000834
:1000A0009D2600089D2600089D2600089D26000824
:1000B0009D2600089D2600089D2600089D26000814
:1000C0009D2600089D2600089D2600089D26000804
:1000D0009D2600089D2600089D2600089D260008F4
:1000E0009D2600089D2600089D2600089D260008E4
:1000F0009D2600089D2600089D2600089D260008D4
:100100009D2600089D2600089D2600089D260008C3
:100110009D2600089D2600089D2600089D260008B3
:100120009D2600089D2600089D2600089D260008A3
:1001300000000000000000000000000000000000BF
:1001400000000000000000000000000000000000AF
:10015000000000000000000000000000000000009F
:10016000000000000000000000000000000000008F
:10017000000000000000000000000000000000007F
:10018000000000000000000000000000000000006F
:10019000000000000000000000000000000000005F
:1001A000000000000000000000000000000000004F
:1001B000000000000000000000000000000000003F
:1001C000000000000000000000000000000000002F
:1001D000000000000000000000000000000000001F
:0401E0005FF8E0F1F3
:1001E40010B5054C237833B9044B13B10448AFF36D
:1001F40000800123237010BD0400002000000000D3
:10020400E82600080C4B43B10C4810B50C49AFF379
:1002140000800C48036823B910BD0A48036833B949
:100224007047094B002BF7D0BDE810401847064B28
:10023400002BF5D0184700BF00000000E826000896
:1002440008000020040000200000000081F00041AC
:1002540002E000BF83F0004330B54FEA41044FEAA7
:10026400430594EA050F08BF90EA020F1FBF54EA42
:10027400000C55EA020C7FEA645C7FEA655C00F0DE
:10028400E2804FEA5454D4EB5555B8BF6D420CDDAF
:100294002C4480EA020281EA030382EA000083EA32
:1002A400010180EA020281EA0303362D88BF30BDD2
:1002B40011F0004F4FEA01314FF4801C4CEA113128
:1002C40002D0404261EB410113F0004F4FEA033387
:1002D4004CEA133302D0524263EB430394EA050F12
:1002E40000F0A780A4F10104D5F1200E0DDB02FA81
:1002F4000EFC22FA05F2801841F1000103FA0EF215
:10030400801843FA05F359410EE0A5F120050EF1DA
:10031400200E012A03FA0EFC28BF4CF0020C43FA0B
:1003240005F3C01851EBE37101F0004507D54FF018
:10033400000EDCF1000C7EEB00006EEB0101B1F568
:10034400801F1BD3B1F5001F0CD349085FEA3000AE
:100354004FEA3C0C04F101044FEA445212F5800FB9
:1003640080F09A80BCF1004F08BF5FEA500C50F156
:10037400000041EB045141EA050130BD5FEA4C0C39
:10038400404141EB010111F4801FA4F10104E9D1C2
:1003940091F0000F04BF01460020B1FA81F308BFB9
:1003A4002033A3F10B03B3F120020CDA0C3208DD85
:1003B40002F1140CC2F10C0201FA0CF021FA02F160
:1003C4000CE002F11402D8BFC2F1200C01FA02F1D0
:1003D40020FA0CFCDCBF41EA0C019040E41AA2BFF5
:1003E40001EB0451294330BD6FEA04041F3C1CDABD
:1003F4000C340EDC04F11404C4F1200220FA04F0DD
:1004040001FA02F340EA030021FA04F345EA030186
:1004140030BDC4F10C04C4F1200220FA02F001FA48
:1004240004F340EA0300294630BD21FA04F02946CA
:1004340030BD94F0000F83F4801306BF81F4801163
:100444000134013D4EE77FEA645C18BF7FEA655CD6
:1004540029D094EA050F08BF90EA020F05D054EAA8
:10046400000C04BF1946104630BD91EA030F1EBFAD
:100474000021002030BD5FEA545C05D140004941B1
:1004840028BF41F0004130BD14F580043CBF01F5A4
:10049400801130BD01F0004545F0FE4141F470018A
:1004A4004FF0000030BD7FEA645C1ABF1946104665
:1004B4007FEA655C1CBF0B46024650EA013406BF66
:1004C40052EA033591EA030F41F4002130BD00BF25
:1004D40090F0000F04BF0021704730B54FF48064E2
:1004E40004F132044FF000054FF0000150E700BF63
:1004F40090F0000F04BF0021704730B54FF48064C2
:1005040004F1320410F0004548BF40424FF00001AE
:100514003EE700BF42004FEAE2014FEA31014FEAF1
:1005240002701FBF12F07F4393F07F4F81F0605140
:10053400704792F0000F14BF93F07F4F704730B5AF
:100544004FF4607401F0004521F0004120E700BF42
:1005540050EA010208BF704730B54FF000050AE0C9
:1005640050EA010208BF704730B511F0004502D5CA
:10057400404261EB41014FF4806404F132045FEACC
:10058400915C3FF4DCAE4FF003025FEADC0C18BF71
:1005940003325FEADC0C18BF033202EBDC02C2F167
:1005A400200300FA03FC20FA02F001FA03FE40EAF9
:1005B4000E0021FA02F11444C1E600BF4FF0FF3CE3
:1005C40006E000BF4FF0010C02E000BF4FF0010C49
:1005D4004DF804CD4FEA410C7FEA6C5C4FEA430CC2
:1005E40018BF7FEA6C5C1BD001B050EA410C0CBF11
:1005F40052EA430C91EA030F02BF90EA020F002073
:10060400704710F1000F91EA030F58BF994208BFD9
:1006140090422CBFD8176FEAE37040F00100704796
:100624004FEA410C7FEA6C5C02D150EA013C07D1ED
:100634004FEA430C7FEA6C5CD6D152EA033CD3D038
:100644005DF8040B704700BF8446104662468C4632
:100654001946634600E000BF01B5FFF7B7FF002865
:1006640048BF10F1000F01BD4DF808EDFFF7F4FF8E
:100674000CBF012000205DF808FB00BF4DF808ED19
:10068400FFF7EAFF34BF012000205DF808FB00BF3C
:100694004DF808EDFFF7E0FF94BF012000205DF85E
:1006A40008FB00BF4DF808EDFFF7CEFF94BF012013
:1006B40000205DF808FB00BF4DF808EDFFF7C4FF0C
:1006C40034BF012000205DF808FB00BF82B0084B56
:1006D4001B68084AA2FB03235B0A00FB03F001909A
:1006E40000BF019B5A1E0192002BF9D102B0704742
:1006F40000000020D34D621070B582B00446036838
:1007040013F0010F3DD0AC4B5B6803F00C03042BDA
:100714002ED0A94B5B6803F00C03082B23D063682D
:10072400B3F5803F51D0002B55D103F1804303F53D
:1007340004331A6822F480321A601A6822F4802280
:100744001A606368002B60D001F000F805469A4BEC
:100754001B6813F4003F14D100F0F8FF401B642819
:10076400F5D90320AFE1944B5B6813F4803FD6D0F6
:10077400914B1B6813F4003F03D06368002B00F017
:100784009F81236813F0020F65D08B4B5B6813F0D5
:100794000C0F4ED0884B5B6803F00C03082B43D03E
:1007A4002369002B79D00122844B1A6000F0CEFF1C
:1007B4000546814B1B6813F0020F65D100F0C6FF9C
:1007C400401B0228F5D903207DE17B4A136843F4DA
:1007D40080331360B5E7B3F5A02F09D0764B1A68C0
:1007E40022F480321A601A6822F480221A60A8E780
:1007F40003F18043A3F53C331A6842F480221A6063
:100804001A6842F480321A609BE700F09FFF0546A5
:10081400694B1B6813F4003FB3D000F097FF401BF3
:100824006428F5D903204EE1634B5B6813F4803FE1
:10083400B6D1614B1B6813F0020F04D02369012B5E
:1008440001D001203FE15C4A136823F0F803616999
:1008540043EAC1031360236813F0080F32D0A3697D
:10086400002B6ED00122564B1A6000F06FFF054634
:10087400514B5B6A13F0020F21D100F067FF401B5C
:100884000228F5D903201EE14B4A136823F0F8032C
:10089400616943EAC1031360DDE70022474B1A6034
:1008A40000F054FF0546444B1B6813F0020FD2D0EE
:1008B40000F04CFF401B0228F5D9032003E101207E
:1008C400FFF704FF236813F0040F00F099803A4BFC
:1008D400DB6913F0805F46D1374BDA6942F080520E
:1008E400DA61DB6903F080530193019B0125354BE9
:1008F4001B6813F4807F38D0E368012B49D0002BA8
:100904004DD103F1804303F504331A6A22F0010246
:100914001A621A6A22F004021A62E368002B5DD09C
:1009240000F014FF0646244B1B6A13F0020F66D135
:1009340000F00CFF801B41F288339842F3D9032066
:10094400C1E000221E4B1A6000F000FF05461A4B5E
:100954005B6A13F0020FB5D000F0F8FE401B0228CA
:10096400F5D90320AFE00025C1E7164A136843F424
:100974008073136000F0EAFE0646124B1B6813F402
:10098400807FB9D100F0E2FE801B6428F5D90320F2
:1009940099E0094A136A43F001031362BDE7052B8A
:1009A40012D0054B1A6A22F001021A621A6A22F066
:1009B40004021A62B1E700BF001002400000424284
:1009C4008004424200700040414B1A6A42F0040223
:1009D4001A621A6A42F001021A629EE700F0B6FE39
:1009E40006463B4B1B6A13F0020F08D000F0AEFE24
:1009F400801B41F288339842F3D9032063E0E5B9C0
:100A0400E369002B5ED0324A526802F00C02082AD5
:100A14005BD0022B17D000222E4B1A6000F096FEFA
:100A240004462B4B1B6813F0007F47D000F08EFE6A
:100A3400001B0228F5D9032045E0254AD36923F099
:100A44008053D361DCE70022224B1A6000F07EFE63
:100A540005461F4B1B6813F0007F06D000F076FE9E
:100A6400401B0228F5D903202DE0236AB3F5803F0B
:100A74001AD017494B6823F47413226A606A02433C
:100A840013434B600122134B1A6000F05FFE0446CF
:100A94000F4B1B6813F0007F0ED100F057FE001BB4
:100AA4000228F5D903200EE0094A536823F40033E1
:100AB400A1680B435360DCE7002004E0002002E05F
:100AC400012000E0002002B070BD0120FBE700BF60
:100AD400001002406000424210B586B0154C94E804
:100AE4000F000DF1180E0EE90F00238AADF8043043
:100AF400114B5B6803F00C02082A18D1C3F383423C
:100B0400724412F8100C13F4803F03D10B4B03FB17
:100B140000F00DE0084B5B68C3F34043734413F8E3
:100B2400142C074BB3FBF2F303FB00F000E0044882
:100B340006B010BD002700080010024000093D0067
:100B440000127A00594B1B6803F007038B420CD246
:100B5400564A136823F007030B431360136803F02A
:100B64000703994201D00120704770B5036813F060
:100B7400020F06D04E4A536823F0F00384682343DF
:100B840053600D460446036813F0010F52D04368C6
:100B9400012B23D0022B28D0454A126812F0020FF1
:100BA40000F0828042494A6822F0030213434B60FA
:100BB40000F0CCFD06466368012B1DD0022B2AD021
:100BC4003B4B5B6813F00C0F34D000F0BFFD801B6F
:100BD40041F288339842F3D9032070BD344A126835
:100BE40012F4003FDED1012070BD314A126812F0C8
:100BF400007FD7D1012070BD2D4B5B6803F00C033F
:100C0400042B17D000F0A2FD801B41F288339842D8
:100C1400F2D9032070BD264B5B6803F00C03082B4C
:100C240008D000F093FD801B41F288339842F2D93A
:100C3400032070BD1D4B1B6803F007039D420CD2BB
:100C44001A4A136823F007032B431360136803F055
:100C540007039D4201D0012070BD236813F0040FE7
:100C640006D0134A536823F4E063E1680B435360EE
:100C7400236813F0080F07D00D4A536823F4605318
:100C8400216943EAC1035360FFF726FF084B5B6801
:100C9400C3F30313074AD35CD840074B1860002002
:100CA40000F024FD002070BD012070BD0020024032
:100CB400001002401427000800000020014B1868AF
:100CC400704700BF0000002030B4036A23F0010322
:100CD4000362036A4468826922F073020D682A433E
:100CE40023F002038D682B43114DA84211D005F562
:100CF4000065A8420DD00E4DA84211D005F500653F
:100D0400A8420DD0446082614A684263036230BCE9
:100D1400704723F00803CD682B4323F00403EAE76C
:100D240024F440744D692C438D692C43EAE700BFD9
:100D3400002C014030B4036A23F480730362036A15
:100D44004468C26922F073020D682A4323F40073D5
:100D54008D6843EA0523134DA84211D005F50065BB
:100D6400A8420DD00F4DA84212D005F50065A84247
:100D74000ED04460C2614A68C263036230BC7047EB
:100D840023F40063CD6843EA052323F48063E9E791
:100D940024F440544D6944EA05148D6944EA051469
:100DA400E7E700BF002C014030B4036A23F480530A
:100DB4000362036A4468C26922F4E6420D6842EAA7
:100DC400052223F400538D6843EA0533094DA842F4
:100DD4000AD005F50065A84206D04460C2614A689D
:100DE4000264036230BC704724F480444D6944EAD1
:100DF4008514F2E7002C014010B4036A046A24F05D
:100E040001040462846924F0F00444EA021223F029
:100E14000A030B438261036210BC704710B4036A77
:100E240023F0100303628469036A24F4704444EADF
:100E3400023223F0A00343EA01138261036210BC6F
:100E4400704710B4846824F47F4442EA03231943AE
:100E54000C43846010BC704710B50268936823F09B
:100E640070034C68234323F007030C682343936007
:100E74004B68502B1FD00AD9602B22D0702B25D160
:100E84000B698A68C9680068FFF7DBFF10BD402B57
:100E940010D103681C6A1A6A22F001021A620268FD
:100EA400936923F0F003096943EA0113936103682A
:100EB4001C6210BD10BD0A6989680068FFF79CFFB9
:100EC40010BD0A6989680068FFF7A8FF10BD704764
:100ED40038B590F83C30012B01D1022038BD0446CE
:100EE400012580F83C50022380F83D30FFF7B4FF21
:100EF4002268D36823F04003D3602268D36823F4C4
:100F04008043D36084F83D50002084F83C0038BD11
:100F14000368254A904212D002F5006290420ED036
:100F2400B0F1804F0BD0A2F59832904207D002F571
:100F34008062904203D002F58062904203D123F094
:100F440070034A681343184A904212D002F50062B3
:100F540090420ED0B0F1804F0BD0A2F5983290425F
:100F640007D002F58062904203D002F5806290427D
:100F740003D123F44073CA68134323F080034A69FE
:100F8400134303608B68C3620B688362064B984209
:100F940006D003F50063984202D0012343617047F1
:100FA4000B690363F9E700BF002C0140A8B110B539
:100FB400044690F83D305BB1022384F83D30211D96
:100FC4002068FFF7A5FF012384F83D30002010BD01
:100FD40080F83C30FFF77BFFEEE70120704700000C
:100FE40030B4036A23F010030362036A446882691D
:100FF40022F4E6420D6842EA052223F020038D68BC
:1010040043EA0513124DA84211D005F50065A84224
:101014000DD00F4DA84212D005F50065A8420ED0A0
:10102400446082614A688263036230BC704723F083
:101034008003CD6843EA051323F04003E9E724F471
:1010440040644D6944EA85048D6944EA8504E7E710
:10105400002C014038B590F83C30012B66D00D4689
:101064000446012380F83C30022380F83D300C2AEA
:101074001AD8DFE802F007191919201919193419B7
:10108400191947000068FFF71FFE2268936943F0AF
:10109400080393612268936923F00403936122682F
:1010A400936929690B439361012384F83D3000203F
:1010B40084F83C0038BD0068FFF792FF226893690A
:1010C40043F4006393612268936923F4806393611A
:1010D40022689369296943EA01239361E4E700687C
:1010E400FFF728FE2268D36943F00803D36122681E
:1010F400D36923F00403D3612268D36929690B43BC
:10110400D361D1E70068FFF74FFE2268D36943F447
:101114000063D3612268D36923F48063D3612268B6
:10112400D369296943EA0123D361BDE7022038BDAD
:1011340010B4012303FA01F4036A23EA04030362EB
:10114400036A8A401343036210BC704710B5044617
:1011540001220068FFF7ECFF23680C4A934212D087
:1011640002F5006293420CD000221AB15A6C42F488
:1011740000425A642268136843F00103136000209C
:1011840010BD0122F1E70122EFE700BF002C01406E
:1011940010B4042303FA01F4036A23EA0403036288
:1011A400036A8A401343036210BC704710B50446B7
:1011B40004220068FFF7ECFF2268536C43F40043F9
:1011C40053642268136843F001031360002010BDC8
:1011D40090F83C30012B25D0012380F83C30CB68BB
:1011E40023F440738A68134323F480634A681343E7
:1011F40023F400630A68134323F480530A691343F6
:1012040023F400534A69134323F480438A69134344
:1012140023F40043134302685364002380F83C30F2
:10122400184670470220704790F83C30012B22D0BA
:1012340030B4012280F83C20022380F83D30046859
:10124400636823F070036360046863680D682B436C
:1012540063600468A36823F08003A3600468A36840
:1012640049680B43A36080F83D20002380F83C309C
:10127400184630BC7047022070470000034690F8BF
:101284002420012A20D0012280F8242002689068BA
:1012940010F0010F07D10D48806810F0010F02D142
:1012A4000B48824208D09A6A42F020029A620120D6
:1012B400002283F824207047506820F470200968C5
:1012C400014351600020F3E70220704700280140E9
:1012D40000240140074AD36823F4E0631B041B0C79
:1012E400000200F4E060184340F0BF6040F40030B6
:1012F400D060704700ED00E030B4164BDB68C3F3F8
:101304000223C3F10704042C28BF04241D1D062D49
:1013140017D9033B012505FA04F4013C2140994007
:1013240005FA03F3013B1340194300280BDB0901C1
:10133400C9B200F1604000F5614080F8001330BC90
:1013440070470023E6E700F00F000901C9B2024B21
:101354001954F4E700ED00E014ED00E0420900F058
:101364001F00012303FA00F0014B43F822007047E9
:1013740000E100E00138B0F1807F0AD2064B5860EA
:10138400F021064A82F823100020986007221A6090
:1013940070470120704700BF10E000E000ED00E05E
:1013A400042805D0054A136823F00403136070472A
:1013B400024A136843F004031360704710E000E02E
:1013C400704708B5FFF7FCFF08BD0000F0B583B017
:1013D4000026344679E0002D00F0A980012D00D1CB
:1013E400CE68FF2B00F2B7808646FF2B00F2B68052
:1013F400A500DEF800200F27AF4022EA070206FA14
:1014040005F52A43CEF800204A6812F0805F5BD0CD
:10141400674A956945F001059561926902F00102F8
:101424000192019AA208971C624D55F8275004F0C6
:1014340003074FEA870E0F2707FA0EF725EA070579
:101444005D4FB84200F0908007F58067B84200F025
:101454008D8007F58067B84200F08A8007F58067C1
:10146400B84200F0878007F58067B84200F08480B6
:1014740007F58067B84275D0062707FA0EF73D4393
:1014840002324C4F47F822504A6812F4803F75D01C
:101494004A4D2A681A432A604A6812F4003F73D0FE
:1014A400464D6A681A436A604A6812F4801F71D014
:1014B400424DAA681A43AA604A6812F4001F6FD00A
:1014C4003E4DEA681343EB6001340F2C6ED80122C1
:1014D400A2400B6813409A42F6D14D68122D30D0C9
:1014E4000BD8022D2AD07FF676AF032D2FD0112DE5
:1014F4007FF477AFCE68043673E7314FBD4216D020
:101504000CD9304FBD4212D007F58037BD420ED002
:10151400A7F58017BD427FF464AF08E0A7F58017F4
:10152400BD4204D007F58037BD427FF45AAF8D68C1
:101534007DB1012D08D04261082652E7CE680836F5
:101544004FE7CE680C364CE70261082649E70026CF
:1015540047E7042645E700F1040E46E7A4F1080531
:10156400AD0046E7052788E7002786E7012784E7DB
:10157400022782E7032780E704277EE70F4D2A68C6
:1015840022EA03022A6087E70C4D6A6822EA030212
:101594006A6089E7094DAA6822EA0302AA608BE718
:1015A400064DEA6822EA0303EB608DE703B0F0BD61
:1015B4000010024000000140000801400004014006
:1015C400000021100000311012B9090401617047B4
:1015D4000161704770B582B00446036813F0010FCF
:1015E40034D03E4BDB6913F0805F48D13B4BDA6962
:1015F40042F08052DA61DB6903F080530193019B6E
:101604000125374B1B6813F4807F3AD0334B1B6A98
:1016140013F4407311D0626802F4407293420CD008
:101624002E4A136A23F440702E4901260E600026C8
:101634000E60106213F0010F37D1284A136A23F4A5
:10164400407361680B431362002D3FD1236813F08C
:10165400020F06D0214A536823F44043A1680B4388
:101664005360236813F0100F35D01C4A536823F4D9
:10167400800361690B435360002002B070BD0025F4
:10168400BFE7174A136843F48073136000F05EF8F1
:101694000646134B1B6813F4807FB7D100F056F84D
:1016A400801B6428F5D90320E7E700F04FF80646CD
:1016B4000A4B1B6A13F0020FBFD100F047F8801BDE
:1016C40041F288339842F3D90320D6E7D36923F053
:1016D4008053D361BAE70020CFE700BF0010024077
:1016E40000700040400442427047000010B50446B8
:1016F400074B1868074BA3FB00308009FFF73AFE3D
:10170400002221464FF0FF30FFF7F6FD002010BD08
:1017140000000020D34D621008B5074A136843F057
:10172400100313600320FFF7D5FD0020FFF7DEFF51
:10173400FFF7DAFF002008BD00200240024A1368C8
:1017440001331360704700BF50000020014B18683C
:10175400704700BF5000002030B583B00190FFF700
:10176400F5FF0546019CB4F1FF3F00D00134FFF7BB
:10177400EDFF401BA042FAD303B030BD7047000018
:1017840030B482B00023019390F82430012B00F090
:101794008B800246012380F824304B68062B29D81D
:1017A4000568686B03EB8303053B1F249C4020EA18
:1017B40004000C6804FA03F303436B630B68092BFE
:1017C40038D91568E86803EB43031E3B07249C40A3
:1017D40020EA04008C6804FA03F30343EB600B680B
:1017E400103B012B34D90020002382F8243002B0AE
:1017F40030BC70470C2B0ED80568286B03EB8303B1
:10180400233B1F249C4020EA04000C6804FA03F3E1
:1018140003432B63D2E70568E86A03EB8303413B88
:101824001F249C4020EA04000C6804FA03F30343D9
:10183400EB62C3E71568286903EB430307249C4064
:1018440020EA04008C6804FA03F303432B61C6E71F
:1018540013681648834205D0936A43F020039362C9
:101864000120C1E7986810F4000F1BD1986840F478
:10187400000098600B68102B01D00020B4E70C4BDB
:101884001B680C49A1FB03139B0C03EB8303590056
:10189400019102E0019B013B0193019B002BF9D1D3
:1018A4000020A1E700209FE70220A0E700240140D8
:1018B4000000002083DE1B4330B583B00023019376
:1018C40003689A6812F0010F2ED19A6842F001025F
:1018D4009A60174B1B68174AA2FB03239B0C0193C6
:1018E40002E0019B013B0193019B002BF9D10446CB
:1018F400FFF72CFF054623689B6813F0010F11D1F5
:10190400FFF724FF401B0228F5D9A36A43F0100314
:10191400A362E36A43F00103E362002384F8243002
:10192400012002E0002000E0002003B030BD00BF31
:101934000000002083DE1B4390F82430012B02D1E9
:1019440002231846704710B50446012380F824305A
:10195400FFF7B2FF034600285BD1A26A22F440726B
:1019640022F0010242F48072A26222682B498A4268
:1019740027D0A16A21F48011A162516811F4806F0B
:1019840005D0A16A21F4405141F48051A162A16AB9
:1019940011F4805F2BD0E16A21F00601E16200219D
:1019A40084F824106FF0020111602268916801F438
:1019B4006021B1F5602F1DD0916841F480119160D0
:1019C4002AE0A1F58061496811F4702FD1D0A16A91
:1019D40041F48011A1621249496811F4806FD6D094
:1019E400A16A21F4405141F48051A162CFE7002162
:1019F400E162D4E709498A4204D0916841F4A00124
:101A0400916009E0A1F58061496811F4702FD3D188
:101A1400F3E7002284F82420184610BD0028014072
:101A24000024014038B503689A6812F0010F01D10F
:101A3400002038BD04469A6822F001029A60FFF73C
:101A440085FE054623689B6813F0010F0ED0FFF74F
:101A54007DFE401B0228F5D9A36A43F01003A3625C
:101A6400E36A43F00103E362012038BD002038BD7E
:101A7400002800F08A8070B50446836A002B4DD09C
:101A84002046FFF7CFFFA36A13F0100377D1002895
:101A940075D1A26A22F4885222F0020242F00202B4
:101AA400A262656821683A4A91423DD0E2692A43BC
:101AB400E66842EA4602A568B5F5807F3ED0012D6E
:101AC40039D06569012D3CD04D6825F469452B4317
:101AD4004B6021688D682F4B2B4013438B60A368A8
:101AE400B3F5807F3ED0012B3CD000232568E96A02
:101AF40021F470010B43EB6223689968264B0B4079
:101B04009A4233D0A36A23F0120343F01003A36272
:101B1400E36A43F00103E362012070BDC36280F80D
:101B24002430FFF72BFEABE7E269B2F5402FBED1BC
:101B34004FF40022BBE74FF48073C2E74FF4807385
:101B4400BFE736B9A569013D43EA453343F4006371
:101B5400BAE7A56A45F02005A562E56A45F00105E6
:101B6400E562B1E72369013B1B05BFE70023E3629C
:101B7400A36A23F0030343F00103A36270BDA36AC5
:101B840043F01003A362012070BD0120704700BF21
:101B9400003C0140FDF7E1FFFE0E1FFF0F4B1A68EA
:101BA40042F001021A6059680D4A0A405A601A68E4
:101BB40022F0847222F480321A601A6822F480229D
:101BC4001A605A6822F4FE025A604FF41F029A60A7
:101BD4004FF00062034B9A60704700BF0010024050
:101BE4000000FFF800ED00E02DE9F04F89B0764BDE
:101BF4009A6942F004029A619A6902F0040201921D
:101C0400019A9A6942F008029A619A6902F00802FC
:101C14000292029A9A6942F010029A619B6903F057
:101C240010030393039B002306934FF00208CDF89F
:101C34001C8005934FF0200B0DEB0B0444F810BDF2
:101C440021466248FFF7C2FB4025049521465F48C0
:101C5400FFF7BCFB4FF0800ACDF810A021465B488B
:101C6400FFF7B4FB4FF48066049621465848FFF70B
:101C7400ADFB4FF40063049321465548FFF7A6FBE0
:101C84004FF48057049721465148FFF79FFB049770
:101C940021465048FFF79AFBCDF8108021464D4865
:101CA400FFF794FB4FF00109CDF814900427049733
:101CB40021464648FFF78AFB1023049321464548F2
:101CC400FFF784FBCDF810B021464248FFF77EFBB6
:101CD40003230593CDF8109021463D48FFF776FB8A
:101CE400CDF8109021463B48FFF770FB082304937E
:101CF40021463748FFF76AFBCDF810802146344867
:101D0400FFF764FB1023049321463148FFF75EFB81
:101D1400CDF810B021462E48FFF758FB0497214612
:101D24002B48FFF753FBCDF814800495214628482F
:101D3400FFF74CFBCDF810A021462548FFF746FBE2
:101D44004FF4807BCDF810B021462148FFF73EFBCD
:101D5400CDF810A021461F48FFF738FBCDF81090AE
:101D640021461A48FFF732FBCDF810802146174868
:101D7400FFF72CFBCDF810B021461648FFF726FBE1
:101D84004FF40073049321461248FFF71FFB049697
:101D940021461048FFF71AFB4FF4005304932146E1
:101DA4000A48FFF713FB4FF4804304932146074886
:101DB400FFF70CFB4FF40043049321460348FFF75D
:101DC40005FB09B0BDE8F08F00100240000C014093
:101DD40000100140000801402DE9F04F99B0754B07
:101DE4009A6942F400629A619A6902F4006201926B
:101DF400019A9A6942F400529A619B6903F4005370
:101E04000293029B6C4EDFF8B891C6F80090002450
:101E140074604FF02008C6F808804FF4FA6BC6F8D7
:101E24000CB034617461B4613046FFF7BFF810231D
:101E34001693179416A93046FFF7F6F960230F930B
:101E44001094119408271297139414944FF4007368
:101E5400159322460FA93046FFF7FCF804220FA978
:101E64003046FFF7F7F83A460FA93046FFF7F2F885
:101E74004FF4006308934FF4806309930A94CDF8F8
:101E84002C800C940D940E940DEB08013046FFF752
:101E94009FF94A4DDFF82CA1C5F800A06C60C5F885
:101EA4000880C5F80CB02C616C61AC612846FFF762
:101EB4007DF8CDF858808023179316A92846FFF79C
:101EC400B3F9049418A9052341F8543D2846FEF7B4
:101ED400FFFF60230F93109411941297139414949A
:101EE4004FF40073159322460FA92846FFF7B2F862
:101EF40004220FA92846FFF7ADF83A460FA9284651
:101F0400FFF7A8F84FF4006308934FF48063099334
:101F14000A94CDF82C800C940D940E940DEB0801CA
:101F24002846FFF755F9DAF8443023F40043CAF899
:101F34004430D9F8443023F40043C9F844302146EE
:101F44002846FFF703F904212846FFF7FFF839462E
:101F54002846FFF7FBF821462846FFF727F9042116
:101F64002846FFF723F939462846FFF71FF921468B
:101F74003046FFF7EBF804213046FFF7E7F839461F
:101F84003046FFF7E3F821463046FFF70FF9042106
:101F94003046FFF70BF939463046FFF707F92B684F
:101FA40001221A633268136843F00103136019B005
:101FB400BDE8F08F001002408400002004010020DE
:101FC400002C0140003401402DE9F04186B03C4E24
:101FD400B36943F40073B361B36903F4007300930A
:101FE400009B384C384B23604FF48073A36000256A
:101FF400E56065614FF44023E36165604FF00408D8
:10200400C4F810802046FFF733FD304A536843F488
:102014008023536006A94FF4C02341F8043D2046B1
:10202400FFF72CF9012304930E220292039302A9D1
:102034002046FFF7A5FB02950227039702A9204635
:10204400FFF79EFB04970B2702970323039302A930
:102054002046FFF795FB0C230293CDF80C8002A9D0
:102064002046FFF78DFB23689A6842F480729A60D9
:102074009A6842F001029A60736943F00103736144
:10208400736903F001030193019B114B1D60C3F8B5
:102094000480104A9A60104ADA6040F6A2221A605C
:1020A4001A6842F001021A602A4629463846FFF7A8
:1020B40023F93846FFF752F906B0BDE8F08100BFB6
:1020C40000100240C4000020002401400000014030
:1020D400080002404C240140F400002070B584B094
:1020E400254B9A6942F480629A619B6903F4806388
:1020F4000093009B214C224B23604FF48073A36018
:102104000023E36063614FF46022E26163600425AD
:1021140025612046FFF7ACFC012303930F220192B3
:1021240002930DEB05012046FFF72AFB0D230193D3
:10213400022602960DEB05012046FFF721FB0396CC
:102144000A230193032302930DEB05012046FFF7B5
:1021540017FB1023019302950DEB05012046FFF7B1
:102164000FFB23689A6842F480729A609A6842F07E
:1021740001029A6004B070BD0010024054000020B7
:102184000028014030B597B002250C950123109327
:10219400102311931395002414944FF46013159392
:1021A4000CA8FEF7A9FA0F230793089509944FF496
:1021B40080630A930B94294607A8FEF7C3FC019594
:1021C4004FF44043039301A8FFF704FAFEF776FDAA
:1021D400084BA3FB00308009FFF7CCF80420FFF77D
:1021E400DFF8224621464FF0FF30FFF785F817B09D
:1021F40030BD00BFD34D621030B583B0FFF78CFA09
:10220400334CA36943F00103A361A36903F0010301
:102214000193019B0320FFF75DF8002211466FF044
:102224000B00FFF769F8002211466FF00A00FFF770
:1022340063F8002211466FF00900FFF75DF80022F1
:1022440011466FF00400FFF757F8002211466FF0B3
:102254000300FFF751F8002211466FF00100FFF769
:102264004BF8002211464FF0FF30FFF745F8FFF717
:1022740089FF636923F001036361FFF7B5FCFFF78E
:10228400ABFDFFF7A1FEFFF729FF01222021114832
:10229400FFF79AF91048FFF74FFB1048FFF74CFB84
:1022A400012204210E48FFF78FF901250D4B1D7003
:1022B40000240A20FFF750FA01341E2CF9D985F0C6
:1022C40001052A4604210648FFF77EF9F0E700BF1E
:1022D4000010024000080140C40000205400002007
:1022E400000C01402000002002228E4B5A608E4BCD
:1022F4001B68B3F5806F5BD370B5B3F5806F00F0E6
:1023040085808A4B588980B2894B5C69001BFEF733
:10231400EFF800220023FEF7B1F9002840F0C28054
:10232400824B5B899BB21B1B322B04DC814B1B78D9
:10233400002B40F0BF80804A536C23F40043536465
:102344007A4B188980B27A4B1C69001BFEF7D0F8CF
:1023540000220023FEF792F9002840F0B180734B6D
:102364001B899BB21B1B322B04DC724B1B78002B8A
:1023740040F0AE80714A536C23F400435364704BB5
:102384009A68C2F3421203F580639B68C3F3822305
:102394006C49885CC95C6C4B1A68052800F2BD80E6
:1023A400DFE810F09C00A900AD00B100B500B80052
:1023B40001335D4A13605D4A918888B25C4B996829
:1023C40001449960D18888B2D9680144D9601188E0
:1023D40088B2196801441960518888B25968014467
:1023E4005960518988B2596901445961118988B287
:1023F400196901441961D18988B2D9690144D96143
:10240400928991B29A690A449A6170470133464AA3
:102414001360474A9368002B2CDB9B129360444A59
:10242400D368002B29DB9B12D360414A1368002B2D
:1024340026DB9B1213603E4A5368002B23DB9B125E
:1024440053603B4A5369002B20DB9B125361384A8B
:102454001369002B1DDB9B121361354AD369002BD2
:102464001ADB9B12D361324A9369002B17DB9B1250
:10247400936146E703F2FF33CFE703F2FF33D2E77A
:1024840003F2FF33D5E703F2FF33D8E703F2FF3358
:10249400DBE703F2FF33DEE703F2FF33E1E703F2A6
:1024A400FF33E4E7214B5B899BB2E31A322B3FF7FE
:1024B40042AF3BE7204A536C43F4004353643FE785
:1024C4001A4B1B899BB2E31A322B3FF753AF4CE7ED
:1024D4001A4A536C43F40043536450E75042154680
:1024E40000221A4B1B68052900F28A80DFE801F0FC
:1024F40030767A7E8285154652420020F1E71046F6
:1025040052420025EDE7554210460022E9E75542C4
:102514000020E6E750420025E3E700200546024696
:10252400DFE700BF0000024024000020F400002088
:10253400280000202000002000340140002C01402D
:10254400000C014024270008480000204C00002013
:1025540059421C46002302F57A7240F2C676B24212
:1025640052DC0A2AB8BF0A22304E726305F57A7229
:1025740040F2C675AA424ADC0A2AB8BF0A222B4D89
:10258400AA6300F57A7240F2C670824242DC0A2ADB
:10259400B8BF0A222548C26303F57A7340F2C672B3
:1025A40093423ADC0A2BB8BF0A23214A536304F549
:1025B4007A7340F2C672934232DC0A2BB8BF0A2304
:1025C4001B4A936301F57A7340F2C67293422ADC84
:1025D4000A2BB8BF0A23164AD36370BD1C465B425C
:1025E4000021B8E719465B420024B4E75C4219466F
:1025F4000023B0E75C420021ADE759420024AAE77A
:1026040000210C460B46A6E740F2C672ACE740F246
:10261400C672B4E740F2C672BCE740F2C673C4E7C0
:1026240040F2C673CCE740F2C673D4E700340140ED
:10263400002C01407047FEE7FEE7FEE7FEE7704727
:102644007047704708B5FFF779F8FEF7BAFE08BD82
:10265400002103E00B4B5B58435004310A480B4BF9
:1026640042189A42F6D30A4A02E0002342F8043B95
:10267400084B9A42F9D3FFF791FA00F00FF8FFF7ED
:10268400BBFD704734270008000000200400002030
:102694000400002044010020FEE7000070B500257E
:1026A4000C4E0D4CA41BA410A54209D100F01AF83D
:1026B40000250A4E0A4CA41BA410A54205D170BDE6
:1026C40056F8253098470135EEE756F825309847F7
:1026D4000135F2E72C2700082C2700082C270008D6
:1026E40030270008F8B500BFF8BC08BC9E46704708
:0C26F400F8B500BFF8BC08BC9E4670475B
:1027000002030405060708090A0B0C0D0E0F101032
:1027100001020000000000000000000001020304AC
:0C2720000607080902050100030402027C
:04272C000902000896
:04273000E5010008B7
:0427340000A24A04B1
:040000050800265574
:00000001FF
