:020000040800F2
:1000000000C00020F9390008B9390008BD390008DE
:10001000C1390008C5390008C939000800000000CE
:10002000000000000000000000000000CD390008C2
:10003000D139000800000000D5390008D93900087E
:10004000413A0008413A0008413A0008413A0008A4
:10005000413A0008413A0008413A0008413A000894
:10006000413A0008E5390008413A0008D932000851
:10007000413A0008413A0008413A0008413A000874
:10008000413A0008413A0008413A0008413A000864
:10009000413A0008413A0008413A0008413A000854
:1000A000413A0008413A0008413A0008413A000844
:1000B000413A0008413A0008413A0008413A000834
:1000C000413A0008413A0008413A0008413A000824
:1000D000413A0008413A0008413A0008413A000814
:1000E000413A0008413A0008413A0008413A000804
:1000F000413A0008413A0008413A0008413A0008F4
:10010000413A0008413A0008413A0008413A0008E3
:10011000413A0008413A0008413A0008413A0008D3
:10012000413A0008413A0008413A0008413A0008C3
:1001300000000000000000000000000000000000BF
:1001400000000000000000000000000000000000AF
:10015000000000000000000000000000000000009F
:10016000000000000000000000000000000000008F
:10017000000000000000000000000000000000007F
:10018000000000000000000000000000000000006F
:10019000000000000000000000000000000000005F
:1001A000000000000000000000000000000000004F
:1001B000000000000000000000000000000000003F
:1001C000000000000000000000000000000000002F
:1001D000000000000000000000000000000000001F
:0401E0005FF8E0F1F3
:1001E800044B05481B1A062B02D9044B03B11847C8
:1001F800704700BF8B00002088000020000000002E
:1002080005490648091A891001EBD171491002D035
:10021800034B03B11847704788000020880000206E
:100228000000000010B5064C237843B9FFF7D8FF4B
:10023800044B13B10448AFF300800123237010BDB1
:100248008800002000000000D84F000808B5084BBF
:100258001BB108480849AFF300800848036813B980
:10026800BDE80840CCE7064B002BF9D09847F7E7E4
:1002780000000000D84F00088C00002088000020F3
:100288000000000081F0004102E000BF83F000435D
:1002980030B54FEA41044FEA430594EA050F08BF19
:1002A80090EA020F1FBF54EA000C55EA020C7FEADD
:1002B800645C7FEA655C00F0E2804FEA5454D4EB5A
:1002C8005555B8BF6D420CDD2C4480EA020281EA24
:1002D800030382EA000083EA010180EA020281EA5C
:1002E8000303362D88BF30BD11F0004F4FEA0131AE
:1002F8004FF4801C4CEA113102D0404261EB4101BD
:1003080013F0004F4FEA03334CEA133302D0524242
:1003180063EB430394EA050F00F0A780A4F10104FE
:10032800D5F1200E0DDB02FA0EFC22FA05F2801838
:1003380041F1000103FA0EF2801843FA05F359411E
:100348000EE0A5F120050EF1200E012A03FA0EFC9D
:1003580028BF4CF0020C43FA05F3C01851EBE371C7
:1003680001F0004507D54FF0000EDCF1000C7EEBE4
:1003780000006EEB0101B1F5801F1BD3B1F5001F22
:100388000CD349085FEA30004FEA3C0C04F1010441
:100398004FEA445212F5800F80F09A80BCF1004F6A
:1003A80008BF5FEA500C50F1000041EB045141EAEC
:1003B800050130BD5FEA4C0C404141EB010111F4ED
:1003C800801FA4F10104E9D191F0000F04BF014698
:1003D8000020B1FA81F308BF2033A3F10B03B3F176
:1003E80020020CDA0C3208DD02F1140CC2F10C0206
:1003F80001FA0CF021FA02F10CE002F11402D8BF64
:10040800C2F1200C01FA02F120FA0CFCDCBF41EA2F
:100418000C019040E41AA2BF01EB0451294330BDFE
:100428006FEA04041F3C1CDA0C340EDC04F11404DB
:10043800C4F1200220FA04F001FA02F340EA0300B2
:1004480021FA04F345EA030130BDC4F10C04C4F1F8
:10045800200220FA02F001FA04F340EA03002946D8
:1004680030BD21FA04F0294630BD94F0000F83F422
:10047800801306BF81F480110134013D4EE77FEA05
:10048800645C18BF7FEA655C29D094EA050F08BF51
:1004980090EA020F05D054EA000C04BF1946104632
:1004A80030BD91EA030F1EBF0021002030BD5FEA76
:1004B800545C05D14000494128BF41F0004130BD9E
:1004C80014F580043CBF01F5801130BD01F00045F2
:1004D80045F0FE4141F470014FF0000030BD7FEA65
:1004E800645C1ABF194610467FEA655C1CBF0B4660
:1004F800024650EA013406BF52EA033591EA030F77
:1005080041F4002130BD00BF90F0000F04BF00216E
:10051800704730B54FF4806404F132044FF00005A1
:100528004FF0000150E700BF90F0000F04BF00211A
:10053800704730B54FF4806404F1320410F0004580
:1005480048BF40424FF000013EE700BF42004FEA7B
:10055800E2014FEA31014FEA02701FBF12F07F43F8
:1005680093F07F4F81F06051704792F0000F14BFF5
:1005780093F07F4F704730B54FF4607401F0004539
:1005880021F0004120E700BF50EA010208BF704790
:1005980030B54FF000050AE050EA010208BF704785
:1005A80030B511F0004502D5404261EB41014FF4EE
:1005B800806404F132045FEA915C3FF4DCAE4FF0F2
:1005C80003025FEADC0C18BF03325FEADC0C18BFD9
:1005D800033202EBDC02C2F1200300FA03FC20FA2A
:1005E80002F001FA03FE40EA0E0021FA02F1144477
:1005F800C1E600BF70B54FF0FF0C4CF4E06C1CEA8C
:1006080011541DBF1CEA135594EA0C0F95EA0C0F00
:1006180000F0DEF82C4481EA030621EA4C5123EA73
:100628004C5350EA013518BF52EA033541F48011A2
:1006380043F4801338D0A0FB02CE4FF00005E1FB55
:1006480002E506F00042E0FB03E54FF00006E1FB9F
:1006580003569CF0000F18BF4EF0010EA4F1FF04E2
:10066800B6F5007F64F5407404D25FEA4E0E6D4122
:1006780046EB060642EAC62141EA55514FEAC52033
:1006880040EA5E504FEACE2EB4F1FD0C88BFBCF5AF
:10069800E06F1ED8BEF1004F08BF5FEA500E50F160
:1006A800000041EB045170BD06F0004646EA010126
:1006B80040EA020081EA0301B4EB5C04C2BFD4EB58
:1006C8000C0541EA045170BD41F480114FF0000E51
:1006D800013C00F3AB8014F1360FDEBF002001F0BF
:1006E800004170BDC4F10004203C35DA0C341BDC39
:1006F80004F11404C4F1200500FA05F320FA04F00B
:1007080001FA05F240EA020001F0004221F000413E
:1007180010EBD37021FA04F642EB06015EEA430EB1
:1007280008BF20EAD37070BDC4F10C04C4F12005E1
:1007380000FA04F320FA05F001FA04F240EA020094
:1007480001F0004110EBD37041F100015EEA430E65
:1007580008BF20EAD37070BDC4F1200500FA05F285
:100768004EEA020E20FA04F301FA05F243EA020304
:1007780021FA04F001F0004121FA04F220EA020013
:1007880000EBD3705EEA430E08BF20EAD37070BD59
:1007980094F0000F0FD101F00046400041EB010139
:1007A80011F4801F08BF013CF7D041EA060195F01B
:1007B800000F18BF704703F00046520043EB0303D5
:1007C80013F4801F08BF013DF7D043EA06037047C2
:1007D80094EA0C0F0CEA135518BF95EA0C0F0CD0CD
:1007E80050EA410618BF52EA4306D1D181EA030113
:1007F80001F000414FF0000070BD50EA410606BF0D
:100808001046194652EA430619D094EA0C0F02D151
:1008180050EA013613D195EA0C0F05D152EA033696
:100828001CBF104619460AD181EA030101F00041B4
:1008380041F0FE4141F470014FF0000070BD41F0FD
:10084800FE4141F4780170BD70B54FF0FF0C4CF4D7
:10085800E06C1CEA11541DBF1CEA135594EA0C0FF6
:1008680095EA0C0F00F0A7F8A4EB050481EA030E43
:1008780052EA03354FEA013100F088804FEA03332A
:100888004FF0805545EA131343EA12634FEA0222F8
:1008980045EA111545EA10654FEA00260EF00041B9
:1008A8009D4208BF964244F1FD0404F5407402D20B
:1008B8005B084FEA3202B61A65EB03055B084FEA9C
:1008C80032024FF480104FF4002CB6EB020E75EB99
:1008D800030E22BFB61A754640EA0C005B084FEAC1
:1008E8003202B6EB020E75EB030E22BFB61A75463E
:1008F80040EA5C005B084FEA3202B6EB020E75EB89
:10090800030E22BFB61A754640EA9C005B084FEA00
:100918003202B6EB020E75EB030E22BFB61A75460D
:1009280040EADC0055EA060E18D04FEA051545EAFC
:1009380016754FEA06164FEAC30343EA52734FEAA5
:10094800C2025FEA1C1CC0D111F4801F0BD141EA1E
:1009580000014FF000004FF0004CB6E711F4801F83
:1009680004BF01430020B4F1FD0C88BFBCF5E06F63
:100978003FF6AFAEB5EB030C04BFB6EB020C5FEA73
:10098800500C50F1000041EB045170BD0EF0004EC8
:100998004EEA113114EB5C04C2BFD4EB0C0541EAFA
:1009A800045170BD41F480114FF0000E013C90E6F7
:1009B80045EA060E8DE60CEA135594EA0C0F08BFBB
:1009C80095EA0C0F3FF43BAF94EA0C0F0AD150EABA
:1009D80001347FF434AF95EA0C0F7FF425AF10464D
:1009E80019462CE795EA0C0F06D152EA03353FF475
:1009F800FDAE1046194622E750EA410618BF52EAF2
:100A080043067FF4C5AE50EA41047FF40DAF52EAC5
:100A180043057FF4EBAE12E74FF0FF3C06E000BF62
:100A28004FF0010C02E000BF4FF0010C4DF804CD6F
:100A38004FEA410C7FEA6C5C4FEA430C18BF7FEA2F
:100A48006C5C1BD001B050EA410C0CBF52EA430C5D
:100A580091EA030F02BF90EA020F0020704710F1DD
:100A6800000F91EA030F58BF994208BF90422CBF6C
:100A7800D8176FEAE37040F0010070474FEA410C65
:100A88007FEA6C5C02D150EA013C07D14FEA430C83
:100A98007FEA6C5CD6D152EA033CD3D05DF8040BF4
:100AA800704700BF8446104662468C461946634626
:100AB80000E000BF01B5FFF7B7FF002848BF10F1FD
:100AC800000F01BD4DF808EDFFF7F4FF0CBF012042
:100AD80000205DF808FB00BF4DF808EDFFF7EAFFBE
:100AE80034BF012000205DF808FB00BF4DF808ED79
:100AF800FFF7E0FF94BF012000205DF808FB00BF6E
:100B08004DF808EDFFF7CEFF94BF012000205DF8F7
:100B180008FB00BF4DF808EDFFF7C4FF34BF012004
:100B280000205DF808FB00BF4FEA4102B2F1E04344
:100B380024BFB3F5001CDCF1FE5C0DD901F0004CBC
:100B48004FEAC0024CEA5070B2F1004F40EB83000C
:100B580008BF20F00100704711F0804F21D113F138
:100B68003872BCBF01F00040704741F480114FEA71
:100B78005252C2F11802C2F1200C10FA0CF320FAFA
:100B880002F018BF40F001004FEAC1234FEAD32317
:100B980003FA0CFC40EA0C0023FA02F34FEA430381
:100BA800CCE77FEA625307D150EA01331EBF4FF00A
:100BB800FE4040F44000704701F0004040F0FE4025
:100BC80040F40000704700BF80F0004002E000BF22
:100BD80081F0004142001FBF5FEA410392EA030F20
:100BE8007FEA226C7FEA236C6AD04FEA1262D2EB6A
:100BF8001363C1BFD218414048404140B8BF5B426F
:100C0800192B88BF704710F0004F40F4000020F007
:100C18007F4018BF404211F0004F41F4000121F01D
:100C28007F4118BF494292EA030F3FD0A2F1010267
:100C380041FA03FC10EB0C00C3F1200301FA03F1A5
:100C480000F0004302D5494260EB4000B0F5000FC8
:100C580013D3B0F1807F06D340084FEA310102F187
:100C68000102FE2A51D2B1F1004F40EBC25008BF39
:100C780020F0010040EA03007047490040EB000003
:100C880010F4000FA2F10102EDD1B0FA80FCACF132
:100C9800080CB2EB0C0200FA0CF0AABF00EBC25031
:100CA80052421843BCBFD0401843704792F0000F1F
:100CB80081F4000106BF80F400000132013BB5E772
:100CC8004FEA41037FEA226C18BF7FEA236C21D0E8
:100CD80092EA030F04D092F0000F08BF084670474D
:100CE80090EA010F1CBF0020704712F07F4F04D11B
:100CF800400028BF40F00040704712F100723CBF2E
:100D080000F50000704700F0004343F0FE4040F457
:100D1800000070477FEA226216BF08467FEA236315
:100D28000146420206BF5FEA412390EA010F40F400
:100D3800800070474FF0000304E000BF10F000434C
:100D480048BF40425FEA000C08BF704743F0964333
:100D580001464FF000001CE050EA010208BF70474E
:100D68004FF000030AE000BF50EA010208BF7047D5
:100D780011F0004302D5404261EB41015FEA010CEA
:100D880002BF84460146002043F0B64308BFA3F1E2
:100D98008053A3F50003BCFA8CF2083AA3EBC253C4
:100DA80010DB01FA02FC634400FA02FCC2F12002E3
:100DB800BCF1004F20FA02F243EB020008BF20F01A
:100DC8000100704702F1200201FA02FCC2F1200280
:100DD80050EA4C0021FA02F243EB020008BF20EA75
:100DE800DC7070474FF0FF0C1CEAD0521EBF1CEAA3
:100DF800D15392EA0C0F93EA0C0F6FD01A4480EA91
:100E0800010C400218BF5FEA41211ED04FF0006379
:100E180043EA501043EA5111A0FB01310CF00040A5
:100E2800B1F5000F3EBF490041EAD3715B0040EACB
:100E3800010062F17F02FD2A1DD8B3F1004F40EB9B
:100E4800C25008BF20F00100704790F0000F0CF06E
:100E5800004C08BF49024CEA502040EA51207F3A32
:100E6800C2BFD2F1FF0340EAC250704740F400000D
:100E78004FF00003013A5DDC12F1190FDCBF00F0FE
:100E880000407047C2F10002410021FA02F1C2F1AC
:100E9800200200FA02FC5FEA310040F1000053EA48
:100EA8004C0308BF20EADC70704792F0000F00F096
:100EB800004C02BF400010F4000F013AF9D040EA9C
:100EC8000C0093F0000F01F0004C02BF490011F430
:100ED800000F013BF9D041EA0C018FE70CEAD1532E
:100EE80092EA0C0F18BF93EA0C0F0AD030F0004CAE
:100EF80018BF31F0004CD8D180EA010000F0004062
:100F0800704790F0000F17BF90F0004F084691F01F
:100F1800000F91F0004F14D092EA0C0F01D1420259
:100F28000FD193EA0C0F03D14B0218BF084608D122
:100F380080EA010000F0004040F0FE4040F400006C
:100F4800704740F0FE4040F4400070474FF0FF0CFF
:100F58001CEAD0521EBF1CEAD15392EA0C0F93EA46
:100F68000C0F69D0A2EB030280EA010C49024FEA98
:100F7800402037D04FF0805343EA111143EA101351
:100F88000CF000408B4238BF5B0042F17D024FF409
:100F9800000C8B4224BF5B1A40EA0C00B3EB510FE4
:100FA80024BFA3EB510340EA5C00B3EB910F24BFCD
:100FB800A3EB910340EA9C00B3EBD10F24BFA3EB52
:100FC800D10340EADC001B0118BF5FEA1C1CE0D11A
:100FD800FD2A3FF650AF8B4240EBC25008BF20F0CD
:100FE800010070470CF0004C4CEA50207F32C2BF21
:100FF800D2F1FF0340EAC250704740F400004FF0BE
:101008000003013A37E792F0000F00F0004C02BFEE
:10101800400010F4000F013AF9D040EA0C0093F0B8
:10102800000F01F0004C02BF490011F4000F013B12
:10103800F9D041EA0C0195E70CEAD15392EA0C0F7A
:1010480008D142027FF47DAF93EA0C0F7FF470AFB2
:10105800084676E793EA0C0F04D14B023FF44CAFF5
:1010680008466EE730F0004C18BF31F0004CCAD18A
:1010780030F000427FF45CAF31F000437FF43CAFC6
:101088005FE700BF4FF0FF3C06E000BF4FF0010CE8
:1010980002E000BF4FF0010C4DF804CD4FEA4002CA
:1010A8004FEA41037FEA226C18BF7FEA236C11D014
:1010B80001B052EA530C18BF90EA010F58BFB2EBC7
:1010C800030088BFC81738BF6FEAE17018BF40F047
:1010D800010070477FEA226C02D15FEA402C05D1FB
:1010E8007FEA236CE4D15FEA412CE1D05DF8040B80
:1010F800704700BF844608466146FFE70FB5FFF713
:10110800C9FF002848BF10F1000F0FBD4DF808EDCA
:10111800FFF7F4FF0CBF012000205DF808FB00BFBB
:101128004DF808EDFFF7EAFF34BF012000205DF815
:1011380008FB00BF4DF808EDFFF7E0FF94BF012062
:1011480000205DF808FB00BF4DF808EDFFF7D2FF5F
:1011580094BF012000205DF808FB00BF4DF808EDA2
:10116800FFF7C8FF34BF012000205DF808FB00BF6F
:101178004FEA4002B2F1FE4F0FD34FF09E03B3EB9C
:1011880012620DD94FEA002343F0004310F0004FDC
:1011980023FA02F018BF404270474FF00000704732
:1011A80012F1610F01D1420205D110F0004008BFD1
:1011B8006FF0004070474FF00000704782B0084B56
:1011C8001B68084AA2FB03235B0A00FB03F001909B
:1011D80000BF019B5A1E0192002BF9D102B0704743
:1011E80000000020D34D621070B582B00446036839
:1011F80013F0010F6BD0A84B5B6803F00C03042BB2
:101208000AD0A54B5B6803F00C03082B0DD1A24B49
:101218005B6813F4803F08D09F4B1B6813F4003FB2
:1012280055D06368002B52D1B8E16368B3F5803FAD
:1012380005D1994A136843F48033136026E063B9F3
:1012480003F1804303F504331A6822F480321A60EC
:101258001A6822F480221A6018E0B3F5A02F0CD186
:1012680003F18043A3F53C331A6842F480221A60E4
:101278001A6842F480321A6008E0874B1A6822F430
:1012880080321A601A6822F480221A6063687BB17F
:1012980001F01CF8054605E001F018F8401B642829
:1012A80000F27E817C4B1B6813F4003FF4D00EE003
:1012B80001F00CF8054605E001F008F8401B642829
:1012C80000F27081744B1B6813F4003FF4D123685B
:1012D80013F0020F50D0704B5B6813F00C0F0AD05C
:1012E8006D4B5B6803F00C03082B16D16A4B5B68E7
:1012F80013F4803F11D1684B1B6813F0020F03D021
:101308002369012B40F05081634A136823F0F803E6
:10131800616943EAC10313602EE02369D3B1012256
:101328005E4B1A6000F0D2FF054605E000F0CEFFE4
:10133800401B022800F23A81574B1B6813F0020F3A
:10134800F4D0554A136823F0F803616943EAC103EE
:10135800136011E00022514B1A6000F0B7FF0546F8
:1013680005E000F0B3FF401B022800F221814A4B40
:101378001B6813F0020FF4D1236813F0080F29D06B
:10138800A369ABB10122464B1A6000F09FFF0546E6
:1013980005E000F09BFF401B022800F20B813E4B4A
:1013A8005B6A13F0020FF4D00120FFF707FF11E08A
:1013B80000223B4B1A6000F089FF054605E000F06B
:1013C80085FF401B022800F2F780334B5B6A13F05D
:1013D800020FF4D1236813F0040F00F089802E4B1C
:1013E800DB6913F0805F0BD12B4BDA6942F0805236
:1013F800DA61DB6903F080530193019B012500E06A
:101408000025284B1B6813F4807F13D1254A1368E5
:1014180043F48073136000F059FF064605E000F0BE
:1014280055FF801B642800F2C9801E4B1B6813F40B
:10143800807FF4D0E368012B05D1174A136A43F083
:101448000103136222E063B903F1804303F5043317
:101458001A6A22F001021A621A6A22F004021A6257
:1014680014E0052B09D10C4B1A6A42F004021A62E7
:101478001A6A42F001021A6208E0074B1A6A22F05F
:1014880001021A621A6A22F004021A62E368CBB1F6
:1014980000F01CFF06460FE0001002400000424228
:1014A800800442420070004000F010FF801B41F2AF
:1014B8008833984200F28480494B1B6A13F0020F6C
:1014C800F2D00FE000F002FF064606E000F0FEFE54
:1014D800801B41F28833984274D8414B1B6A13F041
:1014E800020FF3D125B13E4AD36923F08053D3616B
:1014F800E369002B68D03A4A526802F00C02082AC5
:1015080064D0022B37D10022364B1A6000F0DEFE81
:10151800054604E000F0DAFE401B022858D8304B9C
:101528001B6813F0007FF5D1236AB3F5803F06D11D
:101538002B494B6823F40032A36813434B602848B7
:10154800436823F47411236A626A13430B434360AC
:101558000122244B1A6000F0B9FE044604E000F0B2
:10156800B5FE001B022835D81D4B1B6813F0007F01
:10157800F5D0002031E000221A4B1A6000F0A6FED8
:10158800044604E000F0A2FE001B022824D8144BF5
:101598001B6813F0007FF5D100201EE001201CE03D
:1015A80003201AE0032018E0012016E0032014E0CD
:1015B800032012E0032010E003200EE003200CE0DB
:1015C80003200AE0032008E0002006E0012004E0F0
:1015D800032002E0032000E0032002B070BD00BF3A
:1015E800001002406000424230B486B0164D02AC92
:1015F80028686968AA68EB680FC42B8AADF80430BC
:10160800124B5A6802F00C03082B19D1C2F383431A
:1016180006A90B4413F8103C12F4803F0CD00B4A77
:101628005268C2F340420A4412F8140C084AB2FB4A
:10163800F0F003FB00F004E0064800FB03F000E0D4
:10164800034806B030BC7047F04F00080010024055
:1016580000127A0000093D0070B55C4B1B6803F06E
:1016680007038B420BD2594A136823F007030B4335
:101678001360136803F007038B4240F097800368F8
:1016880013F0020F06D0524C636823F0F00283680F
:10169800134363600D460446036813F0010F4DD0F1
:1016A8004268012A05D14A4B1B6813F4003F0DD14B
:1016B8007EE0022A05D1464B1B6813F0007F05D156
:1016C80078E0434B1B6813F0020F75D040494B6814
:1016D80023F0030313434B6000F0F8FD06466368EC
:1016E800012B0ED106E000F0F1FD801B41F288339A
:1016F800984263D8364B5B6803F00C03042BF2D195
:101708001CE0022B15D106E000F0E0FD801B41F241
:101718008833984254D82E4B5B6803F00C03082B8F
:10172800F2D10BE000F0D2FD801B41F288339842E1
:1017380048D8274B5B6813F00C0FF3D1234B1B6879
:1017480003F00703AB420AD9204A136823F00703C2
:101758002B431360136803F00703AB4234D12368AB
:1017680013F0040F06D01A494B6823F4E062E368CB
:1017780013434B60236813F0080F07D0144A5368CB
:1017880023F46053216943EAC1035360FFF72CFF38
:101798000F4B5B68C3F303130E4AD35CD8400E4B60
:1017A8001860002000F062FD002070BD012070BDAF
:1017B800012070BD012070BD012070BD032070BDE7
:1017C800032070BD032070BD012070BD00200240C1
:1017D800001002400450000800000020014B186867
:1017E800704700BF0000002008B5FFF7F7FF044B63
:1017F8005B68C3F30223034AD35CD84008BD00BF2B
:10180800001002401450000808B5FFF7E7FF044B2A
:101818005B68C3F3C223034AD35CD84008BD00BF4A
:10182800001002401450000830B4036A23F001038A
:101838000362036A4468826922F073020D682A43CE
:1018480023F002038D682B43104DA84203D005F501
:101858000065A84205D123F00803CD682B4323F087
:1018680004030A4DA84203D005F50065A84205D136
:1018780024F440744D692C438D692C434460826183
:101888004A684263036230BC704700BF002C0140C5
:1018980030B4036A23F480730362036A4468C2693C
:1018A80022F073020D682A4323F400738D6843EA1B
:1018B8000523124DA84203D005F50065A84206D1BC
:1018C80023F40063CD6843EA052323F480630B4DBA
:1018D800A84203D005F50065A84207D124F4405476
:1018E8004D6944EA05148D6944EA05144460C261EF
:1018F8004A68C263036230BC704700BF002C0140D5
:1019080030B4036A23F480530362036A4468C269EB
:1019180022F4E6420D6842EA052223F400538D685A
:1019280043EA0533094DA84203D005F50065A842EE
:1019380004D124F480444D6944EA85144460C261AA
:101948004A680264036230BC704700BF002C014043
:1019580010B4036A046A24F001040462846924F060
:10196800F00444EA021223F00A0319438261016277
:101978005DF8044B704700BF10B4036A23F01003EE
:1019880003628469036A24F4704444EA023223F04F
:10199800A00343EA0111826101625DF8044B7047BC
:1019A80010B4846824F47F4442EA032319430C43A7
:1019B80084605DF8044B704710B50C460268936864
:1019C80023F0700349680B4323F0070321680B4396
:1019D80093606368502B1FD002D8402B0BD010BDEA
:1019E800602B1FD0702B22D10068E168A2682369A0
:1019F800FFF7D6FF10BD0368196A1A6A22F00102C0
:101A08001A620268936923F0F003246943EA041315
:101A180093610368196210BD0068A1682269FFF725
:101A280097FF10BD0068A1682269FFF7A5FF10BDE8
:101A3800704700BF38B590F83C30012B18D00446E9
:101A4800012580F83C50022380F83D30FFF7B4FFB1
:101A58002268D36823F04003D3602268D36823F454
:101A68008043D36084F83D50002084F83C0038BDA2
:101A7800022038BD0368244A904212D002F5006261
:101A880090420ED0B0F1804F0BD0A2F59832904220
:101A980007D002F58062904203D002F5806290423E
:101AA80003D123F070034A681343174A904212D0B7
:101AB80002F5006290420ED0B0F1804F0BD0A2F533
:101AC8009832904207D002F58062904203D002F526
:101AD8008062904203D123F44073CA68134323F011
:101AE80080034A69134303608B68C3620B6883628F
:101AF800054B984203D003F50063984201D10B6966
:101B08000363012343617047002C0140C0B110B545
:101B1800044690F83D3013F0FF0F04D1002380F8FD
:101B28003C30FFF785FF022384F83D30214651F809
:101B3800040BFFF79FFF012384F83D30002010BD00
:101B48000120704730B4036A23F010030362036A6C
:101B58004468826922F4E6420D6842EA052223F0CD
:101B680020038D6843EA0513114DA84203D005F5FB
:101B78000065A84206D123F08003CD6843EA051327
:101B880023F040030A4DA84203D005F50065A8429A
:101B980007D124F440644D6944EA85048D6944EA18
:101BA8008504446082614A688263036230BC70477E
:101BB800002C014038B590F83C30012B66D00D461A
:101BC8000446012380F83C30022380F83D300C2A7B
:101BD80055D8DFE802F0075454541A5454542E547C
:101BE800545441000068FFF71FFE2268936943F0D0
:101BF800080393612268936923F0040393612268C0
:101C080091692B690B43936139E00068FFF79AFFEC
:101C18002268936943F4006393612268936923F40B
:101C28008063936122689369296943EA0123936178
:101C380025E00068FFF72CFE2268D36943F008030B
:101C4800D3612268D36923F00403D3612268D16980
:101C58002B690B43D36112E00068FFF751FE22683D
:101C6800D36943F40063D3612268D36923F48063A2
:101C7800D3612268D369296943EA0123D361012327
:101C880084F83D30002084F83C0038BD022038BD7F
:101C980010B401238B40046A24EA03030362036A35
:101CA8008A401A4302625DF8044B704710B5044637
:101CB80000680122FFF7ECFF23680C4A934205D025
:101CC80002F50062934203D1012202E0012200E002
:101CD80000221AB15A6C42F400425A64226813680E
:101CE80043F001031360002010BD00BF002C014029
:101CF80010B404238B40046A24EA03030362036AD2
:101D08008A401A4302625DF8044B704710B50446D6
:101D180000680422FFF7ECFF2268536C43F4004389
:101D280053642268136843F001031360002010BD58
:101D380090F83C30012B22D0012380F83C30CB684E
:101D480023F440728B68134323F480624B68134377
:101D580023F400620B68134323F480520B69134386
:101D680023F400524B6913438A6923F44043134315
:101D780002685364002380F83C30184670470220FC
:101D8800704700BF90F83C30012B21D030B40122BD
:101D980080F83C20022380F83D300468636823F013
:101DA80070036360046865680B682B4363600468AC
:101DB800A36823F08003A3600468A5684B682B43DD
:101DC800A36080F83D20002380F83C30184601E0ED
:101DD8000220704730BC704790F82430012B27D080
:101DE800012380F8243003689A6812F0010F10D19B
:101DF800124A926812F0010F0BD1114A934208D18E
:101E080010B45A6822F470240A6822435A600023E6
:101E180009E0836A43F0200383620123002280F8EB
:101E2800242018467047002280F82420184601E034
:101E3800022070475DF8044B704700BF002801403E
:101E48000024014000F00700064AD36823F4E06349
:101E58001B041B0C43EA002040F0BF6040F4003034
:101E6800D060704700ED00E030B4164BDC68C4F376
:101E78000224C4F10705042D28BF0425231D062BC1
:101E880001D9033C00E00024012303FA05F5013DD4
:101E98002940A140A340013B1A400A43002806DA22
:101EA80000F00F001201D2B2074B1A5407E01201DA
:101EB800D2B200F1604000F5614080F8002330BCE8
:101EC800704700BF00ED00E014ED00E0410900F0AC
:101ED8001F0001238340024A42F82130704700BFA7
:101EE80000E100E00138B0F1807F0AD2064B58606B
:101EF800F021064A82F823100020986007221A6011
:101F080070470120704700BF10E000E000ED00E0DE
:101F1800042805D1054A136843F004031360704789
:101F2800024A136823F004031360704710E000E0CE
:101F3800704700BF08B5FFF7FBFF08BDF0B583B0D9
:101F480000273C46E2E00122A2400B68134093427E
:101F580040F0DB804D68122D2DD00BD8022D27D0F4
:101F680003D85DB3012D1ED035E0032D30D0112DDF
:101F78001BD030E0684EB54220D008D8A6F58016B0
:101F8800B5421BD006F58036B54224D116E0634E23
:101F9800B54213D006F58036B5420FD0A6F58016A7
:101FA800B54218D10AE0CF6815E0CF68043712E0CF
:101FB800CF6808370FE0CF680C370CE08D684DB15B
:101FC800012D02D10261082705E04261082702E0DD
:101FD800002700E00427FF2B01D8844601E000F128
:101FE800040CFF2B02D84FEA840E03E0A4F1080E7C
:101FF8004FEA8E0EDCF800600F2202FA0EF226EA93
:10200800020507FA0EF22A43CCF800204A6812F0BB
:10201800805F7AD0424A956945F0010595619269D9
:1020280002F001020192019AA208961C3D4D55F852
:10203800266004F0030E4FEA8E0E0F2505FA0EF502
:1020480026EA0506384DA8421FD005F58065A84246
:1020580019D005F58065A84213D005F58065A8421A
:102068000DD005F58065A84207D005F58065A84222
:1020780001D105250AE0062508E0042506E0032528
:1020880004E0022502E0012500E0002505FA0EF52E
:1020980035430232234E46F822504A6812F4803FF4
:1020A80004D0224D2A681A432A6004E01F4D2A688A
:1020B80022EA03022A604A6812F4003F04D01B4D4A
:1020C8006A681A436A6004E0184D6A6822EA0302E3
:1020D8006A604A6812F4801F04D0144DAA681A4333
:1020E800AA6004E0114DAA6822EA0302AA604A68BD
:1020F80012F4001F04D00D4DEA681343EB6004E0AE
:102108000A4DEA6822EA0303EB6001340F2C7FF6DC
:102118001AAF03B0F0BD00BF00002110000031105D
:102128000010024000000140000801400004014086
:1021380083680B4201D0012070470020704700BF20
:102148000AB101617047090401617047C3685940C9
:10215800C160704770B582B00446036813F0010F80
:102168005CD03E4BDB6913F0805F0BD13B4BDA69E7
:1021780042F08052DA61DB6903F080530193019BDE
:10218800012600E00026364B1B6813F4807F12D12D
:10219800334A136843F48073136000F097F80546D8
:1021A80004E000F093F8401B64284FD82C4B1B68C0
:1021B80013F4807FF5D0294B1B6A13F4407321D0A8
:1021C800626802F440729A421CD0244A136A23F4CB
:1021D8004070244901250D6000250D60106213F040
:1021E800010F0FD000F072F8054606E000F06EF817
:1021F800401B41F2883398422AD8184B1B6A13F0C7
:10220800020FF3D015490B6A23F440726368134335
:102218000B621EB1CB6923F08053CB61236813F0A6
:10222800020F06D00D494B6823F44042A3681343BC
:102238004B60236813F0100F0CD008494B6823F447
:102248008002636913434B60002004E0032002E02E
:10225800032000E0002002B070BD00BF0010024063
:102268000070004040044242704700BF10B5044669
:10227800074B1B680748A0FB03308009FFF732FEB5
:102288004FF0FF3021460022FFF7EEFD002010BD81
:1022980000000020D34D621008B5074A136843F0C8
:1022A800100313600320FFF7CDFD0020FFF7DEFFCA
:1022B800FFF7DAFF002008BD00200240024A136839
:1022C80001331360704700BFE4000020014B186819
:1022D800704700BFE400002030B583B00190FFF7DD
:1022E800F5FF0546019CB4F1FF3F00D00134FFF72C
:1022F800EDFF401BA042FAD303B030BD704700BFCA
:1023080070B483B00023019390F82430012B00F0BF
:102318008380012380F824304B68062B0DD806688B
:10232800756B03EB8303053B1F229A4025EA0204E1
:102338000A689A40224372631CE00C2B0DD8066889
:10234800356B03EB8303233B1F229A4025EA0204E3
:102358000A689A40224332630CE00668F56A03EB88
:102368008303413B1F229A4025EA02040A689A40E7
:102378002243F2620B68092B0DD90668F56803EB56
:1023880043031E3B07229A4025EA02048A689A40C2
:102398002243F2600BE00668356903EB430307222A
:1023A8009A4025EA02048A689A40224332610B68FF
:1023B800103B012B26D80368194A93421CD19A680E
:1023C80012F4000F20D19A6842F400029A600B6858
:1023D800102B1BD1134B1B68134AA2FB03239B0C26
:1023E80003EB83035B00019302E0019B013B019334
:1023F800019B002BF9D10AE0836A43F02003836232
:10240800012304E0002302E0002300E0002300226F
:1024180080F82420184600E0022003B070BC704702
:10242800002401400000002083DE1B4330B583B048
:102438000023019303689A6812F0010F2FD19A685C
:1024480042F001029A60174B1B68174AA2FB03234C
:102458009B0C019302E0019B013B0193019B002B24
:10246800F9D10446FFF732FF054611E0FFF72EFFCA
:10247800401B02280CD9A36A43F01003A362E36A45
:1024880043F00103E362002384F82430012007E0CD
:1024980023689B6813F0010FE8D0002000E00020BB
:1024A80003B030BD0000002083DE1B4390F82430C9
:1024B800012B70D010B50446012380F82430FFF7B3
:1024C800B5FF0346002861D1A26A22F4407222F0C7
:1024D800010242F48072A262226830498A4205D120
:1024E800A1F58061496811F4702F0ED1A16A21F419
:1024F8008011A162516811F4806F1CD0A16A21F487
:10250800405141F48051A16215E0A16A41F4801163
:10251800A16223498A4203D001F580618A420AD127
:102528001F49496811F4806F05D0A16A21F4405110
:1025380041F48051A162A16A11F4805F04D0E16A7C
:1025480021F00601E16201E00021E162002184F846
:1025580024106FF0020111602268916801F4602173
:10256800B1F5602F0DD10D498A4205D1A1F58061E1
:10257800496811F4702F04D1916841F4A001916069
:1025880007E0916841F48011916002E0002284F82C
:102598002420184610BD0220704700BF00280140C3
:1025A8000024014038B503689A6812F0010F1ED064
:1025B80004469A6822F001029A60FFF787FE0546F2
:1025C8000EE0FFF783FE401B022809D9A36A43F0F7
:1025D8001003A362E36A43F00103E362012038BDFC
:1025E80023689B6813F0010FEBD1002038BD002051
:1025F80038BD00BF002800F0888070B50446836AA3
:1026080023B9C36280F82430FFF778FE2046FFF72D
:10261800C9FFA36A13F0100F71D100286FD1A36A04
:1026280023F4885323F0020343F00203A362626891
:102638002168374B994206D1E369B3F5402F03D19E
:102648004FF4002300E0E3691343E56843EA4503D8
:10265800A268B2F5807F04D0012A05D14FF48072B8
:1026680003E04FF4807200E000226669012E0FD16A
:1026780035B9A569013D42EA453242F4006207E0F6
:10268800A56A45F02005A562E56A45F00105E56201
:102698004D6825F469452A434A6021688D681D4ABA
:1026A8002A401A438A60A268B2F5807F01D0012AC5
:1026B80003D12269013A110500E000212568EA6A80
:1026C80022F470020A43EA6222689168124A0A40B8
:1026D800934208D10023E362A36A23F0030343F083
:1026E8000103A36270BDA36A23F0120343F0100331
:1026F800A362E36A43F00103E362012070BDA36AA9
:1027080043F01003A362012070BD0120704700BF91
:10271800003C0140FDF7E1FFFE0E1FFF2DE9F843E5
:10272800814601680B6923F44052C36813430B6167
:10273800816803691943436919430068C26822F430
:10274800B05323F00C030B43C360D9F800104B6956
:1027580023F44072D9F8183013434B61D9F800506C
:102768005B4B9D4259D1FFF74FF800EB800000EB1F
:102778008000D9F80440A400B0FBF4F4554EA6FB41
:10278800043464092401FFF73FF800EB800000EBF4
:102798008000D9F804309B00B0FBF3F7FFF734F85A
:1027A80000EB800000EB8000D9F804309B00B0FB00
:1027B800F3F3A6FB03235B094FF0640808FB1373CC
:1027C8001B013233A6FB03235B0903F0F0031C440F
:1027D800FFF71AF800EB800000EB8000D9F804300E
:1027E8009B00B0FBF3F7FFF70FF800EB800000EB5E
:1027F8008000D9F804309B00B0FBF3F3A6FB032359
:102808005B0908FB13731B013233A6FB0323C3F3D5
:1028180043131C44AC60BDE8F883FEF7E5FF00EB0A
:10282800800000EB8000D9F80440A400B0FBF4F469
:10283800284EA6FB043464092401FEF7D5FF00EBFB
:10284800800000EB8000D9F804309B00B0FBF3F760
:10285800FEF7CAFF00EB800000EB8000D9F80430D7
:102868009B00B0FBF3F3A6FB03235B094FF064085E
:1028780008FB13731B013233A6FB03235B0903F028
:10288800F0031C44FEF7B0FF00EB800000EB800073
:10289800D9F804309B00B0FBF3F7FEF7A5FF00EB77
:1028A800800000EB8000D9F804309B00B0FBF3F304
:1028B800A6FB03235B0908FB13731B013233A6FB3A
:1028C8000323C3F343131C44AC60BDE8F88300BF83
:1028D800003801401F85EB51704700BF68B310B541
:1028E800044690F8393013F0FF0F04D1002380F824
:1028F8003830FFF7F1FF242384F839302268D36891
:1029080023F40053D3602046FFF708FF22681369B9
:1029180023F4904313612268536923F02A03536117
:102928002268D36843F40053D3600020E063202377
:1029380084F8393084F83A3010BD0120704700BF60
:102948000F4B1A6842F001021A6059680D4A0A4092
:102958005A601A6822F0847222F480321A601A6867
:1029680022F480221A605A6822F4FE025A604FF458
:102978001F029A604FF00062034B9A60704700BFD5
:10298800001002400000FFF800ED00E030B597B0FD
:102998001F4BDA6942F48022DA61DA6902F4802294
:1029A8000092009A5A6942F001025A615B6903F089
:1029B80001030193019B174D06954FF4E1330793EB
:1029C8000024089409940A9408230B930C940D94FA
:1029D80006A8FFF783FF6B6943F080036B614FF430
:1029E8008063029301230493022303930323059333
:1029F800094802A9FFF7A2FA084B1C60084A9A6026
:102A08005C6090221A6070221C3B5A6017B030BD7F
:102A18000010024000480040000C01401C00024029
:102A2800044800402DE9F04F89B07B4B9A6942F089
:102A380004029A619A6902F004020192019A9A6961
:102A480042F008029A619A6902F008020292029A18
:102A58009A6942F010029A619B6903F0100303938C
:102A6800039B002305930693022707974FF0200A3C
:102A78000DEB0A0444F810AD68482146FFF75EFAEA
:102A88004023049365482146FFF758FA80250495AA
:102A980062482146FFF752FA4FF480630493604876
:102AA8002146FFF74BFA4FF4006304935C48214634
:102AB800FFF744FA4FF48056049659482146FFF729
:102AC8003DFA049657482146FFF738FA04975548C7
:102AD8002146FFF733FA4FF00108CDF814804FF084
:102AE8000409CDF810904D482146FFF727FA102623
:102AF80004964C482146FFF721FACDF810A0494822
:102B08002146FFF71BFA03230593CDF810804448AC
:102B18002146FFF713FACDF8108042482146FFF707
:102B28000DFA4FF0080BCDF810B03D482146FFF7DD
:102B380005FA04973A482146FFF700FA0496384800
:102B48002146FFF7FBF9CDF810A035482146FFF7DD
:102B5800F5F9CDF8109032482146FFF7EFF9CDF896
:102B680010B030482146FFF7E9F9CDF810902D480C
:102B78002146FFF7E3F905974023049328482146A7
:102B8800FFF7DCF9049526482146FFF7D7F94FF4FB
:102B98008079CDF8109022482146FFF7CFF90495A7
:102BA80020482146FFF7CAF9CDF810801B48214676
:102BB800FFF7C4F9049719482146FFF7BFF9CDF884
:102BC800109018482146FFF7B9F94FF400730493A1
:102BD80014482146FFF7B2F94FF480630493114873
:102BE8002146FFF7ABF94FF4005304930B482146F5
:102BF800FFF7A4F94FF48043049308482146FFF7F0
:102C08009DF94FF40043049304482146FFF796F9D1
:102C180009B0BDE8F08F00BF00100240000C014071
:102C280000100140000801402DE9F04F99B0754BA4
:102C38009A6942F400629A619A6902F40062019208
:102C4800019A9A6942F400529A619B6903F400530D
:102C58000293029B6C4EDFF8B891C6F800900024EE
:102C680074604FF02008C6F808804FF4FA6BC6F875
:102C78000CB034617461B4613046FEF747FF10232D
:102C880016931794304616A9FFF77CF860230F9324
:102C98001094119408271297139414944FF4007306
:102CA800159330460FA92246FEF784FF30460FA938
:102CB8000422FEF77FFF30460FA93A46FEF77AFF57
:102CC8004FF4006308934FF4806309930A94CDF896
:102CD8002C800C940D940E9430460DEB0801FFF7F0
:102CE80027F84A4DDFF82CA1C5F800A06C60C5F89C
:102CF8000880C5F80CB02C616C61AC612846FEF701
:102D080005FFCDF8588080231793284616A9FFF7AA
:102D180039F8049418A9052341F8543D2846FEF7CC
:102D280089FE60230F9310941194129713941494AE
:102D38004FF40073159328460FA92246FEF73AFF71
:102D480028460FA90422FEF735FF28460FA93A4660
:102D5800FEF730FF4FF4006308934FF48063099344
:102D68000A94CDF82C800C940D940E9428460DEB03
:102D78000801FEF7DDFFDAF8443023F40043CAF80F
:102D88004430D9F8443023F40043C9F84430284685
:102D98002146FEF78BFF28460421FEF787FF2846C9
:102DA8003946FEF783FF28462146FEF7AFFF28463F
:102DB8000421FEF7ABFF28463946FEF7A7FF304649
:102DC8002146FEF773FF30460421FEF76FFF3046B9
:102DD8003946FEF76BFF30462146FEF797FF30462F
:102DE8000421FEF793FF30463946FEF78FFF2B6824
:102DF80001221A633268136843F00103136019B0A3
:102E0800BDE8F08F00100240180100209C0100204E
:102E1800002C0140003401402DE9F04387B0414EB9
:102E2800B36943F40073B361B36903F400730093A7
:102E3800009B3D4C3D4B23604FF48073A3600025FD
:102E4800E56065614FF44023E36165604FF0050874
:102E5800C4F810802046FFF7CDFB354A536843F489
:102E68008023536006A94FF4C02341F8043D20464F
:102E7800FEF7B2FF012304930E2202920393204629
:102E880002A9FFF73DFA029502270397204602A9F7
:102E9800FFF736FA04970B2702970323039320467C
:102EA80002A9FFF72DFA4FF00C09CDF8089004237A
:102EB8000393204602A9FFF723FACDF80890CDF82E
:102EC8000C80204602A9FFF71BFA23689A6842F48F
:102ED80080729A609A6842F001029A60736943F0BE
:102EE80001037361736903F001030193019B114BA3
:102EF8001D60C3F80480104A9A60104ADA6040F6F0
:102F0800A2221A601A6842F001021A60384629465D
:102F18002A46FEF7A9FF3846FEF7D8FF07B0BDE8F6
:102F2800F08300BF00100240580100200024014037
:102F380000000140080002404C24014088010020A4
:102F4800F0B585B0274B9A6942F480629A619B6913
:102F580003F480630093009B234C244B23604FF4BD
:102F68008073A3600023E36063614FF46022E26131
:102F78006360052626612046FFF73CFB0123039387
:102F88000F2201920293204601A9FFF7B9F90D23F8
:102F9800019302250295204601A9FFF7B1F903958F
:102FA8000A23019303270297204601A9FFF7A8F9EE
:102FB80001950423029320460DEB0301FFF7A0F9C6
:102FC80001970296204601A9FFF79AF923689A68A3
:102FD80042F480729A609A6842F001029A6005B0E1
:102FE800F0BD00BF00100240E800002000280140AA
:102FF8004FF08042536A9BB20021516240F6B832CA
:10300800934202D90F4B197070470E4A1278052A5D
:1030180016D800200C490860B3F5FA6F08D8B3F544
:103028007A7F03D3A3F57A739BB203E0002301E010
:103038004FF47A73054921F812300132014B1A70A6
:10304800704700BFB200002004000020A400002048
:1030580030B597B002250C950123109310231193D6
:103068001395002414944FF4601315930CA8FEF7DD
:10307800BBF80F230793089509944FF480630A93CC
:103088000B9407A82946FEF7E7FA01954FF4404349
:10309800039301A8FFF75EF8FEF7A0FB084BA3FB1C
:1030A80000308009FEF71EFF0420FEF731FF4FF0C5
:1030B800FF3021462246FEF7D7FE17B030BD00BFCD
:1030C800D34D621010B582B0FFF7E6F8704CA369D3
:1030D80043F00103A361A36903F001030193019B7A
:1030E8000320FEF7AFFE6FF00B0000210A46FEF743
:1030F800BBFE6FF00A0000210A46FEF7B5FE6FF02E
:10310800090000210A46FEF7AFFE6FF00400002117
:103118000A46FEF7A9FE6FF0030000210A46FEF7F3
:10312800A3FE6FF0010000210A46FEF79DFE4FF056
:10313800FF3000210A46FEF797FEFFF789FF636913
:1031480023F001036361FFF76DFCFFF76DFDFFF7E7
:1031580063FEFFF7F5FEFFF719FC4E482021012218
:10316800FEF7EEFF4C48FFF7A1F94C48FFF79EF930
:10317800082405E04A4B1C706420FFF7ADF8013CB9
:10318800002CF7DA0022464B1A7046480421012227
:10319800FEF7D6FF0122444B1A700A20FFF79CF86D
:1031A800424B1B68312B04D80023414A1360414A23
:1031B80013600020014600F0C1FB0120002100F04F
:1031C800BDFB00F0C1FB0022384B1A6031480221D8
:1031D800FEF7AEFFC0B10022334B1A702D48022112
:1031E800FEF7A6FF0028F9D1002405E02C4B1C703F
:1031F8006420FFF771F80134072CF7DD25482021FA
:103208000022FEF79DFFFEE72B4B1C6820462B494A
:10321800FDF786FF58B120462949FDF79FFF30B1D9
:1032280005221F4B1A700822264B1A70B5E7204654
:103238002349FDF775FF58B120462349FDF78EFF56
:1032480030B10522164B1A7001221E4B1A70A4E7E2
:1032580020461D49FDF764FF98B10024194B1C70E6
:10326800114B1C7005E00E4B1C706420FFF734F8FE
:103278000134072CF7DD074820210022FEF760FF04
:10328800FEE70023064A13700E4A137085E700BF55
:10329800001002400008014058010020E80000200A
:1032A800D4000020000C0140D500002004000020BC
:1032B800BC000020B4000020E401002000001042FF
:1032C80000000442CA0000200000F0410000000095
:1032D8002DE9F8430222AE4B5A60AE4B1B68B3F59A
:1032E8007A7F3BDA0133AB4A1360AB4A938899B2D1
:1032F800AA4803680B4403EBD3735B100360D388BD
:1033080099B2A74803680B4403EBD3735B100360BF
:10331800138899B2A34803680B4403EBD3735B107B
:103328000360538899B2A04803680B4403EBD37336
:103338005B100360538999B29C4803680B4403EB04
:10334800D3735B10036013899AB299490B681344CD
:1033580003EBD3735B100B60BDE8F883954D2868C9
:10336800FDF7F4F882A3D3E90023FDF743F90646F5
:103378000F46894CA08980B2FDF7DCFCFDF7E6F822
:103388007DA3D3E90023FDF735F97DA3D3E9002315
:10339800FDF730F902460B4630463946FCF778FF10
:1033A800FDF7C2FB2860844D2868FDF7CFF870A3AD
:1033B800D3E90023FDF71EF906460F46608A80B25E
:1033C800FDF7B8FCFDF7C2F86DA3D3E90023FDF7BC
:1033D80011F902460B4630463946FCF759FFFDF70E
:1033E800A3FB06462860754D2868FDF7AFF860A373
:1033F800D3E90023FDF7FEF880468946E08980B2CC
:10340800FDF798FCFDF7A2F85DA3D3E90023FDF7CB
:10341800F1F802460B4640464946FCF739FFFDF7EE
:1034280083FB044628600025654B1D6030466549CE
:10343800FDF7CEFB06462946FDF790FE28B130463B
:103448002946FDF7C7FB5E4B186020465D49FDF72E
:10345800BFFB05460021FDF781FE28B1584C2068C6
:103468002946FDF7B5FB2060554D28684FF07A5185
:10347800FDF7B8FC544900F02BFF5449FDF766FDF1
:103488000446286000F10040FDF772FE504B1860BA
:103498002046FDF76DFE4F4B18603F4B588980B2B0
:1034A800424B1C68001BFDF73FF837A3D3E9002304
:1034B800FDF7A0F800220023FDF70EFB80B1364B84
:1034C800588980B2001BFDF72FF82FA3D3E90023FA
:1034D800FDF790F80022404BFDF7FEFAB8B90FE06F
:1034E8002D4B588980B2001BFDF71EF826A3D3E99F
:1034F8000023FDF77FF80022384BFDF70BFB30B9AE
:10350800374B1B68322B02D8364B1B782BB9364AFF
:10351800536C23F40043536404E0334A536C43F47C
:10352800004353641C4B188980B2214B1C68001B54
:10353800FCF7FAFF14A3D3E90023FDF75BF8002298
:103548000023FDF7C9FA002850D0134B188980B220
:10355800001BFCF7E9FF0CA3D3E90023FDF74AF8A9
:1035680000221D4BFDF7B8FA002856D14EE000BFE7
:103578002B8716D9CEF7EF3FF5E4E827181C9B3FB9
:10358800FCA9F1D24D62503F7B14AE47E17A943FDB
:1035980000000240B8000020880100200800002038
:1035A8000C000020180000201C0000201000002043
:1035B80014000020E4010020DC010020E0010020CC
:1035C800C000002000002F4400004040D0EE154904
:1035D800B4000020BC000020000038C000003840C3
:1035E80004000020D500002000340140964B1889C3
:1035F80080B2001BFCF798FF91A3D3E90023FCF7E6
:10360800F9FF0022914BFDF785FA30B9904B1B6802
:10361800322B02D88F4B1B782BB98F4A536C23F46B
:103628000043536404E08C4A536C43F400435364EE
:103638008A4A936813F0200F0CBF01210021936878
:1036480013F0400F0CBF01230023926812F0800F83
:103658000CBF01240024824A906810F4806F0CBFCC
:1036680001200020956815F4006F0CBF0126002684
:10367800926812F4805F03EB440301EB4303794D36
:10368800EB5C79490B600B6803F102030B600C6873
:10369800764B83FB0472A2EBE47202EB42024FEA20
:1036A8004202A4EB02020A600CBF0222002232444A
:1036B80000EB4202A85C6E4A10601068023010608D
:1036C800106883FB0043A3EBE07303EB43035B0049
:1036D800C31A13600B685C4CA28892B265490968EA
:1036E800501AE28892B2644C2468121B052B18D831
:1036F800DFE803F003070A0D1013821A5F4B1A6004
:1037080012E05E4B18600FE05C4B18600CE05B4BFE
:103718001A6009E0594B1A6006E0121A574B1A60F2
:1037280002E00022554B1A60474B9A8893B2591A07
:1037380000D507310220C91000F000F9424BDB88A0
:103748009BB24D4A1168591A00D50731032001412F
:1037580000F0F4F84A4A138801339BB21380494AAF
:103768001478ACB1484AA2FB0312520947490978B8
:10377800013192FBF1F001FB10224AB993FBF4F2FC
:1037880004FB12334BB942481021FEF7DFFC04E07A
:103798003F4810210022FEF7D3FC3E4B1A68324BFB
:1037A8001B68052B1AD8DFE803F003070B0E111569
:1037B80014465242002514E055421446002210E0F7
:1037C800554200240DE0544200250AE054421546B3
:1037D800002206E015465242002402E00022144668
:1037E80015462D4B1B682249096805291AD8DFE8B8
:1037F80001F003070B0E111519465B42002014E077
:1038080058421946002310E0584200210DE0594261
:1038180000200AE059421846002306E018465B4299
:10382800002102E000231946184605F57A7540F292
:10383800C676B54232DC0A2DB8BF0A2530E000BF93
:103848007B14AE47E17A943F88010020000038409D
:1038580004000020D5000020002C0140000C01408D
:10386800001001401C500008C4000020ABAAAA2A7E
:10387800CC000020080000200C000020D000002010
:10388800C8000020D4000020F1197605CA000020E5
:1038980000080140B4000020BC00002040F2C675BA
:1038A800244E756304F57A7440F2C675AC4203DCA5
:1038B8000A2CB8BF0A2401E040F2C6741D4DAC635F
:1038C80002F57A7240F2C674A24203DC0A2AB8BF33
:1038D8000A2201E040F2C672164CE26300F57A72E1
:1038E80040F2C670824203DC0A2AB8BF0A2201E00D
:1038F80040F2C6721048426301F57A7240F2C6710E
:103908008A4203DC0A2AB8BF0A2201E040F2C672E2
:1039180009498A6303F57A7340F2C672934203DC5D
:103928000A2BB8BF0A2301E040F2C673024AD363E8
:10393800BDE8F88300340140002C0140014B23F816
:10394800101070474C02002030B583B0144C20464C
:103958000021642200F098F812490A884B88888868
:10396800C98800B2009009B2019120460E4912B2EE
:103978001BB200F091F80D4B5B6873B90B4C2368D0
:1039880023F001032360064D284600F0A9F8606083
:10399800E560236843F00103236003B030BD00BF36
:1039A800E80100204C020020245000081C000240BE
:1039B800704700BFFEE700BFFEE700BFFEE700BF9D
:1039C800FEE700BF704700BF704700BF704700BFE9
:1039D80008B5FEF773FCFEF7ADFA08BD08B5FFF7AA
:1039E80007FB0822014B5A6108BD00BF00040140D3
:1039F800002103E00B4B5B58435004310A480B4B42
:103A080042189A42F6D30A4A02E0002342F8043BDD
:103A1800084B9A42F9D3FEF793FF00F00FF8FFF72F
:103A280051FB7047A05000080000002088000020CB
:103A380088000020A0020020FEE700000E4B70B5B1
:103A48001E460E4C0025E41AA410A54204D056F8D0
:103A5800253098470135F8E701F0BAFA084B094CC8
:103A68001E46E41AA4100025A54204D056F82530B5
:103A780098470135F8E770BD98500008985000083D
:103A8800985000089C50000803460244934202D014
:103A980003F8011BFAE770470EB400B54FF4027142
:103AA8009CB0ADF814106FF00041049107914FF6E7
:103AB800FF711DABADF81610084953F8042B02909E
:103AC8000690086802A9019300F06CF8029B002296
:103AD8001A701CB05DF804EB03B07047800000203A
:103AE800034613F8012B002AFBD1181A0138704736
:103AF8002DE9F0478E688246B3420C4690469946B7
:103B080040D38A8912F4906F3AD025680969022354
:103B18006F1A656905EB450595FBF3F57B1C4B446E
:103B28009D4238BF1D4653050FD5294600F03AFB84
:103B3800064698B121693A4600F0CAFAA38923F4E7
:103B4800906343F08003A38113E02A4600F080FBD2
:103B5800064670B95046216900F0E0FA0C23CAF80D
:103B68000030A3894FF0FF3043F04003A381BDE844
:103B7800F08726613E4426604E466561ED1BA560D0
:103B8800B14500D24E4632462068414600F0ABFAB5
:103B9800A36800209B1BA36023681E442660BDE821
:103BA800F08700002DE9F0439DB003938B8906460A
:103BB8001C060D4690460CD50B6953B9402100F000
:103BC800F1FA2860286110B90C233360CCE0402357
:103BD8006B610023099320238DF8293030238DF859
:103BE8002A3043461C4613F8012B1AB9B4EB0809CE
:103BF8000FD002E0252AF5D1F8E73046294642469B
:103C08004B46FFF775FF013000F0A980099B4B4434
:103C180009932378002B00F0A28000234FF0FF3295
:103C280004930793059206938DF853301A9304F181
:103C380001084446DFF8489121784846052200F0FB
:103C480039FA08F10108049B30B1C9EB00000122E0
:103C5800824013430493ECE7D80644BF20228DF832
:103C68005320190744BF2B228DF8532022782A2A83
:103C780002D0079923460EE0039A0134111D1268F9
:103C88000391002ABBBF524243F0020307920792F6
:103C9800B8BF04930AE01C4622780133303A092A57
:103CA80003D80A2000FB0121F5E7079123782E2B82
:103CB8001AD163782A2B0AD1039B02341A1D1B6878
:103CC8000392002BB8BF4FF0FF3305930CE0611C43
:103CD80000220C4623780131303B092B03D80A20F7
:103CE80000FB0232F5E70592DFF89880217840461C
:103CF800032200F0DFF938B1049AC8EB0000402332
:103D0800834013430493013421781A48062204F1AE
:103D180001088DF8281000F0CDF988B1164B33B999
:103D2800039B073323F007030833039313E003AB24
:103D38000093304604A92A46104BAFF3008007E0F1
:103D480003AB0093304604A92A460C4B00F092F8C6
:103D5800421C074603D0099B3B44099341E7AB89C2
:103D68005B0601D4099801E04FF0FF301DB0BDE8B3
:103D7800F08300BF3E50000800000000F93A000838
:103D8800345000083A5000082DE9F84391461F4680
:103D98008A680B6906469342B8BF1346C9F80030D3
:103DA80091F843200C46DDF8208012B10133C9F8A0
:103DB80000302368990642BFD9F800300233C9F8A9
:103DC8000030256815F006051CD094F843302268A9
:103DD800003318BF012392061FD5E118302081F85F
:103DE80043005A1C94F845102244023382F84310C9
:103DF80013E03046394604F119020123C047013067
:103E080007D00135E368D9F800209B1A9D42F0DB02
:103E1800DBE74FF0FF30BDE8F8833046394604F160
:103E28004302C0470130F4D02268D9F80050E36853
:103E380002F00602042A08BF5D1B2269A3680CBFB2
:103E480025EAE57500259342C4BF9B1AED184FF08B
:103E58000009A9450ADA3046394604F11A02012355
:103E6800C0470130D5D009F10109F2E70020BDE8CB
:103E7800F88300002DE9FF410C461746227E98463C
:103E88006E2A06460A9B01F1430100F0B08012D861
:103E9800632A23D00AD8002A00F0BD80582A40F0AF
:103EA800CC8084F84520DFF804E257E0642A1ED06D
:103EB800692A1CD0C1E0732A00F0B18009D86F2AA2
:103EC8002ED0702A40F0B980226842F02002226089
:103ED8003FE0752A24D0782A3BD0AEE01A6804F176
:103EE8004205111D1960136884F84230A9E0206862
:103EF8001A6810F0800F02D0101D186008E010F04A
:103F0800400F02F10400186002D0B2F9003000E05E
:103F18001368002B3EDA2D225B4284F8432039E0F7
:103F280020681A6810F0800F02D0101D186007E092
:103F380010F0400F02F10400186001D0138800E06F
:103F48001368227EDFF864E16F2A0CBF08220A2278
:103F58001CE07822DFF858E184F8452022681868C8
:103F680012F0800F00F104051D6003D1550601D53C
:103F7800038800E00368D00744BF42F020022260B3
:103F88001BB9226822F0200222601022002084F847
:103F9800430002E0DFF814E10A226568002DA8BF9B
:103FA8002068A560A4BF20F00400206003B965B1B3
:103FB8000D46B3FBF2F002FB10331EF8033005F890
:103FC800013D03460028F4D100E00D46082A0BD134
:103FD8002368DA0708D5236962689A42DEBF30236E
:103FE80005F8013C05F1FF35491B21612EE02568E4
:103FF8001A6815F0800F606903D0151D1D601368DD
:1040080008E015F0400F02F104051D60136801D0A7
:10401800188000E01860002323610D4616E01A6836
:10402800111D1960156800212846626800F042F8E1
:1040380008B1401B6060636804E004F1420584F83D
:10404800422001232361002384F84330CDF8008007
:104058003046214603AA3B46FFF796FE013002D1BF
:104068004FF0FF301FE0304639462A462369C047E3
:104078000130F5D023689B0705D4E068039B98427C
:10408800B8BF18460FE00025E368039A9B1A9D42C3
:10409800F3DA3046394604F119020123C0470130EA
:1040A800DED00135F0E704B0BDE8F08145500008E6
:1040B8005650000810B5C9B202449042034605D0D4
:1040C8001C7801308C42F8D1184610BD002010BD74
:1040D80010B5431E0A44914204D011F8014B03F86D
:1040E800014FF8E710BD814210B501EB020301D37F
:1040F800421E0BE09842FBD28118D21AD34204D058
:1041080013F8014D01F8014DF8E710BD994204D0AC
:1041180011F8014B02F8014FF8E710BD30B500293E
:104128003CD051F8042C0B1F1D49002AB8BF9B181E
:104138000A680C4612B95A600B6030BD93420DD222
:1041480019685818904201BF5A5852181A604268A4
:1041580023605A6030BD994203D80A465168002945
:10416800F9D1146815199D420AD11B682344D01847
:104178008842136012D10868034413604B680CE04E
:1041880002D90C23036030BD1C681819884201BF8E
:1041980008684968001918605960536030BD00BF4D
:1041A800DC00002070B5CC1C24F0030408340C2C6F
:1041B80038BF0C24002C064603DA0C233360002099
:1041C80070BD8C42F9D3204A136810461946A1B134
:1041D8000A68121B0ED40B2A03D90A608B188C505C
:1041E8001FE08B420BBF5A684A6802605A6018BFCA
:1041F8000B4616E00B464968E9E7144D2B681BB9D6
:10420800304600F04BF828603046214600F046F86A
:10421800421C0346D1D0C51C25F0030585420AD1AE
:104228001C6003F10B001A1D20F00700821A0AD047
:104238005142995070BD3046E91A00F02FF801300C
:10424800BBD02B46ECE770BDDC000020D800002076
:10425800F8B5074615460E4621B91146BDE8F8409F
:10426800FFF7A0BF1AB9FFF759FF2846F8BD00F0BD
:1042780025F8A8420ED238462946FFF793FF044690
:1042880050B131462A46FFF723FF38463146FFF73B
:1042980045FF01E03046F8BD2046F8BD38B5064C6C
:1042A800002305460846236000F07EFE431C02D129
:1042B800236803B12B6038BD9C02002051F8040C20
:1042C8000028BEBF091851F8043CC01804387047CC
:1042D8002DE9F0418AB007460E4600F083F99B4D60
:1042E800044695F90030013303D0304600F0E0FD74
:1042F80018B920460AB0BDE8F081384600F0D8FD6C
:104308008046002832D130460021FCF7FFFE002805
:10431800EFD08F4A0123384601920093CDF82080D0
:10432800FCF714F9CDE902013046FCF70FF995F9CD
:104338000030884F00265A1CCDE90401CDE90667F4
:104348000DD0022B0BD0684600F016FD002800F0B7
:104358009A80089B1BB100F035FE089B0360DDE9DD
:104368000601FCF7E1FB0AB0BDE8F0813846002100
:10437800FCF7CCFE18B330460021FCF7C7FE804698
:10438800002855D07249002301223846089300922C
:104398000191FCF7DBF8CDE902013046FCF7D6F8CD
:1043A80095F9003000260027CDE90401CDE906671C
:1043B800002BC8D0674B0022CDE90623CFE7204663
:1043C80000F06EFD8046002862D020460021FCF7F0
:1043D8009DFE00288DD0384600F062FD002888D068
:1043E800304600F05DFD002883D05949002304229F
:1043F8003846089300920191FCF7A8F8CDE902012C
:104408003046FCF7A3F895F9003000260027022B68
:10441800CDE90401CDE9066700F09280684600F016
:10442800ABFC002800F08C80089B002B97D092E70B
:10443800304600F035FD00283FF45BAF30460021E0
:10444800FCF76EFE00283FF454AF414A012338467A
:1044580000930192CDF82080FCF778F8CDE90201AD
:104468003046FCF773F82B78CDE90401002B3FD0D8
:1044780039490020022BCDE9060133D100F0A2FD15
:1044880021230360D0E700F09DFD2123036060E74E
:10449800384600F005FD002897D0304600F000FDB2
:1044A800002892D0204600F003FD034628BB284987
:1044B80001223846089300920191FCF747F8CDE9AC
:1044C80002013046FCF742F82C78CDE904017CB1B2
:1044D8000020002102460B46FCF7B6F9022CCDE974
:1044E8000601CBD0684600F047FC00289CD1C5E700
:1044F80000220023CDE90623F4E7154A03233846B2
:1045080000930192CDF82080FCF720F8CDE9020154
:104518003046FCF71BF895F90030CDE90401FBB9EA
:104528000E4B4FF0604238460021CDE90623FCF7D8
:10453800F7FD002836D195F90030022B7FF46EAFD5
:1045480000F040FD222303606EE700BF84000020D6
:10455800685000080000F03F0000F0FFFFFFEF4741
:104568001D4B002238460021CDE90623FCF7D8FD73
:104578000028E0D030464FF07C51FCF733FCFBF7C5
:10458800E5FF06460F4600F0F9FB02460B463046AB
:104598003946FCF797FA0028CDD1104B0022CDE917
:1045A8000623C8E730464FF07C51FCF71BFCFBF7AD
:1045B800CDFF06460F4600F0E1FB02460B463046AB
:1045C8003946FCF77FFA0028B5D1054B4FF0604219
:1045D800CDE90623AFE700BF0000F07F0000F0FF41
:1045E800FFFFEFC72DE9F04F31F0004987B00D46C6
:1045F8000C4612D020F0004ABAF1FF4F804606461A
:1046080005DD4F4807B0BDE8F04F00F06BBCB9F1CD
:10461800FF4F07DDBAF17E5FF3D14FF07E5007B050
:10462800BDE8F08F002848DB0027B9F1FF4F3CD0E8
:10463800B9F17E5F54D0B4F1804F40465DD0B4F1FB
:104648007C5F19D000F028FCBAF1FF4F28D0BAF1EE
:10465800000F25D0BAF17E5F22D0F60F013E57EA4F
:10466800060358D0B9F19A4F72DD364B9A453DDCB6
:10467800002C41DB0020D2E7002E47DA00F00CFCCA
:10468800BAF1FF4F02D0BAF1000FE3D1AAF17E5A76
:1046980057EA0A0340D0012FC1D100F10040BEE71C
:1046A800002C40DB002EBADAF0E7BAF17E5FB4D016
:1046B80027DD002CDEDB2846B1E7B9F1974F13DA86
:1046C800B9F17E5F0ADB4FEAE953C3F1960349FA71
:1046D80003F202FA03F34B4500F03B820027A7E7F9
:1046E800002C26DB40469AE702279EE7164B9A45A0
:1046F80040F38F82002CBDDD14480146FCF772FBA5
:104708008DE7002CB6DA05F1004088E707B0BDE870
:10471800F04F00F0DDBA40460146FCF759FA014671
:10472800FCF714FC7BE701464FF07E50FCF70EFCCB
:10473800B8E741464FF07E50FCF708FC6FE700BF32
:104748006C500008F7FF7F3F0700803FCAF24971AD
:10475800BAF5000F80F205824FF09741FCF742FB53
:1047680082466FF01701B54A4FEAEA53CAF3160AB0
:104778007F3B924503EB010C4AF07E5840F3EE81F3
:10478800AF4B9A4540F3408200220CF1010CA8F58A
:10479800000801920392AB4B019A404653F822302D
:1047A800CDF814C019469A46FCF712FA51468146CC
:1047B8004046CDF808A0FCF70DFA01464FF07E50B0
:1047C800FCF7C4FB0346484619460493FCF70AFB6A
:1047D8004FEA6801039A41F00051C34601F5802170
:1047E80020F47F6828F00F080A44824611464046A4
:1047F8000392FCF7F7FA01464846FCF7E9F9039AF1
:10480800029981461046FCF7E3F901465846FCF741
:10481800DFF901464046FCF7E5FA01464846FCF751
:10482800D7F9049B1946FCF7DDFA514683465046F2
:10483800FCF7D8FA01468146FCF7D4FA824902907F
:104848004846FCF7CFFA8149FCF7C4F94946FCF71A
:10485800C9FA7F49FCF7BEF94946FCF7C3FA7D4916
:10486800FCF7B8F94946FCF7BDFA7B49FCF7B2F901
:104878004946FCF7B7FA7949FCF7ACF9029B0146BF
:104888001846FCF7AFFA814641465046FCF7A2F9B4
:104898005946FCF7A7FA4946FCF79CF94146814678
:1048A8004046FCF79FFA6E490390FCF793F9494696
:1048B800CDF80890FCF78EF920F47F6929F00F09EC
:1048C80049464046FCF78EFA494680465846FCF76A
:1048D80089FA634983464846FCF77AF9039A1146F0
:1048E800FCF776F901460298FCF772F95146FCF795
:1048F80079FA01465846FCF76DF983464046594611
:10490800FCF768F920F47F6A2AF00F0A50465549E7
:10491800FCF768FA544981465046FCF763FA414669
:1049280002905046FCF754F901465846FCF750F9F6
:104938004E49FCF757FA029B01461846FCF74AF91C
:104948004B4B019953F82110FCF744F9DDF814C0DA
:1049580080466046FCF7F2F98246019A454B41468B
:1049680053F822B04846FCF735F95946FCF732F9B6
:104978005146CDF804A0FCF72DF920F47F6A2AF0FF
:104988000F0A01995046FCF723F95946FCF720F91C
:104998004946FCF71DF901464046FCF719F924F48D
:1049A8007F6424F00F04013F57EA0603804621463E
:1049B80028460CBF304E4FF07E56FCF709F9514699
:1049C800FCF710FA414607462846FCF70BFA014661
:1049D8003846FCF7FFF8214607465046FCF702FA2E
:1049E800804638464146FCF7F5F8002881460446DB
:1049F800C24620F0004540F3F180B5F1864F00F340
:104A0800C08000F0B080B5F17C5F00F3C280002563
:104A1800A84624F47F6424F00F0420461749FCF7C5
:104A2800E1F9514681462046FCF7D2F8014638465E
:104A3800FCF7CEF81249FCF7D5F923E071C41C0045
:104A4800D6B35D008050000842F1533E55326C3EAB
:104A580005A38B3EABAAAA3EB76DDB3E9A99193FD8
:104A6800000040400038763FA0C39D364F38763F5F
:104A78007850000870500008000080BF0072313F75
:104A88001872313F834907462046FCF7ABF90146C7
:104A98003846FCF79FF8074648463946FCF79AF827
:104AA80049460446FCF794F801463846FCF790F866
:104AB800214681462046FCF795F907467649FCF7DA
:104AC80091F97649FCF784F83946FCF78BF9744973
:104AD800FCF780F83946FCF785F97249FCF778F855
:104AE8003946FCF77FF97049FCF774F83946FCF74A
:104AF80079F901462046FCF76BF807462046394607
:104B0800FCF770F94FF0804182463846FCF760F8B0
:104B180001465046FCF71AFA494607462046FCF774
:104B280061F94946FCF756F801463846FCF750F853
:104B38002146FCF74DF801464FF07E50FCF748F847
:104B48004119B1F5000FC0F29F803046FCF74AF9D1
:104B580065E502F00102C2F1020769E5002201924F
:104B680018E60021FFE551493846FCF733F841467D
:104B780082464846FCF72CF801465046FCF7EEFA08
:104B880038B130464A49FCF72DF94949FCF72AF96A
:104B980045E5ED157E3D4FF400022A412244C2F35B
:104BA800C7514448C2F31603C1F196057F3940FA4C
:104BB80001F143F400032B4122EA0101404683EA54
:104BC800E478FCF705F8824638465146FCF702F8C7
:104BD80008EBD4784FEAC85504461AE7364B9D428D
:104BE8000ADC7FF410AF4146FBF7F2FF0146384676
:104BF800FCF7A0FA0028CCD030463049FCF7F2F890
:104C08002E49FCF7EFF80AE501234FF4001201934F
:104C1800C0E54FF07E51FBF7DBFF29498046FCF7E2
:104C2800E1F8284981464046FCF7DCF841468246CF
:104C38004046FCF7D7F84FF07A5183464046FCF7D8
:104C4800D1F801462048FBF7C3FF4146FCF7CAF8F4
:104C580001464FF07C50FBF7BBFF01465846FCF776
:104C6800C1F81A49FCF7BEF801465046FBF7B0FFF9
:104C7800804648464146FBF7ADFF20F47F6A2AF09C
:104C88000F0A4946504684E6414600F02FF901468E
:104C98005BE700BF8CBEBF354CBB31330EEADD3558
:104CA80055B38A38610B363BABAA2A3E3CAA383347
:104CB800CAF24971FFFF7F00000016436042A20D4F
:104CC80000AAB83F70A5EC36ABAAAA3E3BAAB83FEB
:104CD80020F00042B2F1FF4F70B5034604462DD2D2
:104CE8005AB300283DDBB2F5000F4FEAE0502CD351
:104CF800002631467F38C3F31603C20743F4000386
:104D080048BF5B0040105B0019244FF080728D187B
:104D18009D4202DC5B1BA9181644013C4FEA430381
:104D28004FEA5202F3D113B106F001031E44761084
:104D380006F17C5606EBC05070BD70BD0146FCF70D
:104D480051F82146FBF746FF70BD14F400020FD15D
:104D58005B00190202F10102FAD5C2F10102104406
:104D6800C6E70146FBF734FF0146FCF7EFF870BDD4
:104D780001221044BCE700BF00207047F0B5C1F322
:104D88000A5EAEF2FF35132D83B002460B460C4681
:104D98004FEAD17607462EDC002D48DB3C492941F5
:104DA80001EA030010432BD049080B4053EA0207DD
:104DB8000CD04FF48023132D24EA010143FA05F4A3
:104DC80044EA01040CBF4FF000470027314923464D
:104DD80001EBC606D6E900453A4620462946FBF7C8
:104DE80057FACDE90001DDE9000122462B46FBF721
:104DF8004DFA03B0F0BD332D06DDB5F5806F43D015
:104E08001046194603B0F0BDAEF2134E4FF0FF3115
:104E180021FA0EF10142F3D049080142D6D04FF0F1
:104E2800804320EA010143FA0EF70F43CEE721F051
:104E380000410143E4D0C3F3130141EA000CCCF173
:104E4800000141EA0C0C13495C0C4FEA1C3C0CF4C1
:104E5800002C640401EBC6014CEA0403D1E90045C7
:104E680020462946FBF714FACDE90001DDE90001E7
:104E780022462B46FBF70AFA024621F0004141EA96
:104E8800C67310461946BDE7FBF702FABAE700BF3A
:104E9800FFFF0F008850000820F00040704700BF57
:104EA80020F00040B0F1FF4FACBF00200120704758
:104EB80030F0004001D102207047A0F50003B3F1A3
:104EC800FE4F01D204207047054B421E9A4201D87A
:104ED80003207047A0F1FF40B0FA80F04009704706
:104EE800FEFF7F00004870470000C07F30F000429E
:104EF80038B50346044615D0B2F1FF4F0ED2B2F5CD
:104F0800000F0D460FD3D20D2A44FE2A2EDC002AAC
:104F18001DDD24F0FF4444EAC25038BD0146FBF7CA
:104F280059FE38BD38BD4FF09841FBF75BFF184A72
:104F38000346954207DBC0F3C7520446193AE3E734
:104F4800144800F02BF81349FBF74CFF38BD12F159
:104F5800160F13DA4CF2503295421946F0DD0E481E
:104F680000F01CF80C49FBF73DFF38BD19460A480C
:104F780000F014F80849FBF735FF38BD193224F062
:104F8800FF4040EAC2504FF04C51FBF72BFF38BDB1
:104F9800B03CFFFF6042A20DCAF2497101F0004126
:104FA80020F0004008437047044A05491368002B65
:104FB80008BF0B461844106018467047E0000020F0
:104FC800A0020020014B1868704700BF8000002035
:104FD800F8B500BFF8BC08BC9E467047F8B500BFDE
:084FE800F8BC08BC9E467047AE
:104FF00002030405060708090A0B0C0D0E0F10101A
:105000000102000000000000000000000102030493
:105010000607080900000000010203040000020165
:105020000405030025693B25693B25693B25690A81
:105030000D004300232D302B2000686C4C0065666A
:1050400067454647003031323334353637383941D9
:1050500042434445460030313233343536373839EF
:105060006162636465660000706F7766000000002F
:105070000000000000C0153F00000000DCCFD1356B
:105080000000803F0000C03F0000000000003043EF
:0850900000000000000030C325
:0450980055020008B5
:04509C002D020008D9
:1050A00000A24A0464000000D0070000D0070000FE
:1050B000D0070000D0070000D0070000D007000094
:1050C00000000000000000000000000000000000E0
:1050D00000000000000000000000000000000000D0
:1050E0003250000800000000000000000000000036
:1050F00000000000000000000000000000000000B0
:10510000000000000000000000000000000000009F
:10511000000000000000000000000000000000008F
:08512000200000200100000046
:04000005080039F9BD
:00000001FF
